{
  "_format": "hh-sol-artifact-1",
  "contractName": "Core",
  "sourceName": "contracts/core/Core.sol",
  "abi": [
    {
      "inputs": [],
      "stateMutability": "nonpayable",
      "type": "constructor"
    },
    {
      "anonymous": false,
      "inputs": [
        {
          "indexed": true,
          "internalType": "bytes32",
          "name": "role",
          "type": "bytes32"
        },
        {
          "indexed": true,
          "internalType": "bytes32",
          "name": "previousAdminRole",
          "type": "bytes32"
        },
        {
          "indexed": true,
          "internalType": "bytes32",
          "name": "newAdminRole",
          "type": "bytes32"
        }
      ],
      "name": "RoleAdminChanged",
      "type": "event"
    },
    {
      "anonymous": false,
      "inputs": [
        {
          "indexed": true,
          "internalType": "bytes32",
          "name": "role",
          "type": "bytes32"
        },
        {
          "indexed": true,
          "internalType": "address",
          "name": "account",
          "type": "address"
        },
        {
          "indexed": true,
          "internalType": "address",
          "name": "sender",
          "type": "address"
        }
      ],
      "name": "RoleGranted",
      "type": "event"
    },
    {
      "anonymous": false,
      "inputs": [
        {
          "indexed": true,
          "internalType": "bytes32",
          "name": "role",
          "type": "bytes32"
        },
        {
          "indexed": true,
          "internalType": "address",
          "name": "account",
          "type": "address"
        },
        {
          "indexed": true,
          "internalType": "address",
          "name": "sender",
          "type": "address"
        }
      ],
      "name": "RoleRevoked",
      "type": "event"
    },
    {
      "inputs": [],
      "name": "DEFAULT_ADMIN_ROLE",
      "outputs": [
        {
          "internalType": "bytes32",
          "name": "",
          "type": "bytes32"
        }
      ],
      "stateMutability": "view",
      "type": "function"
    },
    {
      "inputs": [],
      "name": "EXECUTOR_ROLE",
      "outputs": [
        {
          "internalType": "bytes32",
          "name": "",
          "type": "bytes32"
        }
      ],
      "stateMutability": "view",
      "type": "function"
    },
    {
      "inputs": [],
      "name": "GOVERN_ROLE",
      "outputs": [
        {
          "internalType": "bytes32",
          "name": "",
          "type": "bytes32"
        }
      ],
      "stateMutability": "view",
      "type": "function"
    },
    {
      "inputs": [],
      "name": "GUARDIAN_ROLE",
      "outputs": [
        {
          "internalType": "bytes32",
          "name": "",
          "type": "bytes32"
        }
      ],
      "stateMutability": "view",
      "type": "function"
    },
    {
      "inputs": [],
      "name": "MASTER_ROLE",
      "outputs": [
        {
          "internalType": "bytes32",
          "name": "",
          "type": "bytes32"
        }
      ],
      "stateMutability": "view",
      "type": "function"
    },
    {
      "inputs": [],
      "name": "PROPOSER_ROLE",
      "outputs": [
        {
          "internalType": "bytes32",
          "name": "",
          "type": "bytes32"
        }
      ],
      "stateMutability": "view",
      "type": "function"
    },
    {
      "inputs": [],
      "name": "TIMELOCK_ROLE",
      "outputs": [
        {
          "internalType": "bytes32",
          "name": "",
          "type": "bytes32"
        }
      ],
      "stateMutability": "view",
      "type": "function"
    },
    {
      "inputs": [
        {
          "internalType": "bytes32",
          "name": "role",
          "type": "bytes32"
        },
        {
          "internalType": "bytes32",
          "name": "adminRole",
          "type": "bytes32"
        }
      ],
      "name": "createRole",
      "outputs": [],
      "stateMutability": "nonpayable",
      "type": "function"
    },
    {
      "inputs": [
        {
          "internalType": "bytes32",
          "name": "role",
          "type": "bytes32"
        }
      ],
      "name": "getRoleAdmin",
      "outputs": [
        {
          "internalType": "bytes32",
          "name": "",
          "type": "bytes32"
        }
      ],
      "stateMutability": "view",
      "type": "function"
    },
    {
      "inputs": [
        {
          "internalType": "bytes32",
          "name": "role",
          "type": "bytes32"
        },
        {
          "internalType": "uint256",
          "name": "index",
          "type": "uint256"
        }
      ],
      "name": "getRoleMember",
      "outputs": [
        {
          "internalType": "address",
          "name": "",
          "type": "address"
        }
      ],
      "stateMutability": "view",
      "type": "function"
    },
    {
      "inputs": [
        {
          "internalType": "bytes32",
          "name": "role",
          "type": "bytes32"
        }
      ],
      "name": "getRoleMemberCount",
      "outputs": [
        {
          "internalType": "uint256",
          "name": "",
          "type": "uint256"
        }
      ],
      "stateMutability": "view",
      "type": "function"
    },
    {
      "inputs": [
        {
          "internalType": "address",
          "name": "governor",
          "type": "address"
        }
      ],
      "name": "grantGovernor",
      "outputs": [],
      "stateMutability": "nonpayable",
      "type": "function"
    },
    {
      "inputs": [
        {
          "internalType": "address",
          "name": "guardian",
          "type": "address"
        }
      ],
      "name": "grantGuardian",
      "outputs": [],
      "stateMutability": "nonpayable",
      "type": "function"
    },
    {
      "inputs": [
        {
          "internalType": "bytes32",
          "name": "role",
          "type": "bytes32"
        },
        {
          "internalType": "address",
          "name": "account",
          "type": "address"
        }
      ],
      "name": "grantRole",
      "outputs": [],
      "stateMutability": "nonpayable",
      "type": "function"
    },
    {
      "inputs": [
        {
          "internalType": "bytes32",
          "name": "role",
          "type": "bytes32"
        },
        {
          "internalType": "address",
          "name": "account",
          "type": "address"
        }
      ],
      "name": "hasRole",
      "outputs": [
        {
          "internalType": "bool",
          "name": "",
          "type": "bool"
        }
      ],
      "stateMutability": "view",
      "type": "function"
    },
    {
      "inputs": [
        {
          "internalType": "address",
          "name": "_address",
          "type": "address"
        }
      ],
      "name": "isGovernor",
      "outputs": [
        {
          "internalType": "bool",
          "name": "",
          "type": "bool"
        }
      ],
      "stateMutability": "view",
      "type": "function"
    },
    {
      "inputs": [
        {
          "internalType": "address",
          "name": "_address",
          "type": "address"
        }
      ],
      "name": "isGuardian",
      "outputs": [
        {
          "internalType": "bool",
          "name": "",
          "type": "bool"
        }
      ],
      "stateMutability": "view",
      "type": "function"
    },
    {
      "inputs": [
        {
          "internalType": "bytes32",
          "name": "role",
          "type": "bytes32"
        },
        {
          "internalType": "address",
          "name": "account",
          "type": "address"
        }
      ],
      "name": "renounceRole",
      "outputs": [],
      "stateMutability": "nonpayable",
      "type": "function"
    },
    {
      "inputs": [
        {
          "internalType": "address",
          "name": "governor",
          "type": "address"
        }
      ],
      "name": "revokeGovernor",
      "outputs": [],
      "stateMutability": "nonpayable",
      "type": "function"
    },
    {
      "inputs": [
        {
          "internalType": "address",
          "name": "guardian",
          "type": "address"
        }
      ],
      "name": "revokeGuardian",
      "outputs": [],
      "stateMutability": "nonpayable",
      "type": "function"
    },
    {
      "inputs": [
        {
          "internalType": "bytes32",
          "name": "role",
          "type": "bytes32"
        },
        {
          "internalType": "address",
          "name": "account",
          "type": "address"
        }
      ],
      "name": "revokeRole",
      "outputs": [],
      "stateMutability": "nonpayable",
      "type": "function"
    }
  ],
  "bytecode": "0x60806040523480156200001157600080fd5b506200001d3062000170565b6200003860008051602062001210833981519152806200018e565b620000737f55435dd261a4b9b3364963f7738a7a662ad9c84396d64be3365284bb7f0a5041600080516020620012108339815191526200018e565b620000ae7fb09aa5aeb3702cfd50b6b62bc4532604938f21248a27a1d5ca736082b6819cc1600080516020620012108339815191526200018e565b620000e97fd8aa0f3194971a2a116679f7c2090f6939c8d4e01a2a8d7e41d55e5351469e63600080516020620012108339815191526200018e565b620001247f8b8c0776df2c2176edf6f82391c35ea4891146d7a976ee36fd07f1a6fb4ead4c600080516020620012108339815191526200018e565b6200015f7ff66846415d2bf9eabda9e84793ff9c0ea96d87f50fc41e66aa16469c6a442f05600080516020620012108339815191526200018e565b6200016a3362000170565b620002f4565b6200018b6000805160206200121083398151915282620001e0565b50565b600082815260208190526040808220600201549051839285917fbd79b86ffe0ab8e8776151514217cd7cacd52c909f66475c3af44e129f0b00ff9190a460009182526020829052604090912060020155565b620001ec8282620001f0565b5050565b6000828152602081815260409091206200021591839062000a5262000269821b17901c565b15620001ec576200022562000289565b6001600160a01b0316816001600160a01b0316837f2f8788117e7eff1d82e926ec794901d17c78024a50270940304540a733656f0d60405160405180910390a45050565b600062000280836001600160a01b0384166200028d565b90505b92915050565b3390565b60006200029b8383620002dc565b620002d35750815460018181018455600084815260208082209093018490558454848252828601909352604090209190915562000283565b50600062000283565b60009081526001919091016020526040902054151590565b610f0c80620003046000396000f3fe608060405234801561001057600080fd5b50600436106101775760003560e01c80639010d07c116100d8578063ca15c8731161008c578063e43581b811610066578063e43581b81461042d578063e6eb982f14610460578063f288a2e21461049357610177565b8063ca15c873146103cf578063d547741f146103ec578063dc2248631461042557610177565b806394b1d2c0116100bd57806394b1d2c014610361578063a217fddf14610394578063af648c3d1461039c57610177565b80639010d07c146102dc57806391d148541461032857610177565b806336568abe1161012f578063395c62e811610114578063395c62e81461027e5780634c9f9384146102b15780638f61f4f5146102d457610177565b806336568abe1461023d57806338b7f4461461027657610177565b8063248a9ca311610160578063248a9ca3146101dd57806324ea54f4146101fa5780632f2ff15d1461020257610177565b806307bd02651461017c5780630c68ba2114610196575b600080fd5b61018461049b565b60408051918252519081900360200190f35b6101c9600480360360208110156101ac57600080fd5b503573ffffffffffffffffffffffffffffffffffffffff166104bf565b604080519115158252519081900360200190f35b610184600480360360208110156101f357600080fd5b50356104f1565b610184610506565b61023b6004803603604081101561021857600080fd5b508035906020013573ffffffffffffffffffffffffffffffffffffffff1661052a565b005b61023b6004803603604081101561025357600080fd5b508035906020013573ffffffffffffffffffffffffffffffffffffffff166105b0565b610184610645565b61023b6004803603602081101561029457600080fd5b503573ffffffffffffffffffffffffffffffffffffffff16610669565b61023b600480360360408110156102c757600080fd5b50803590602001356106f4565b61018461075c565b6102ff600480360360408110156102f257600080fd5b5080359060200135610780565b6040805173ffffffffffffffffffffffffffffffffffffffff9092168252519081900360200190f35b6101c96004803603604081101561033e57600080fd5b508035906020013573ffffffffffffffffffffffffffffffffffffffff1661079f565b61023b6004803603602081101561037757600080fd5b503573ffffffffffffffffffffffffffffffffffffffff166107b7565b61018461083f565b61023b600480360360208110156103b257600080fd5b503573ffffffffffffffffffffffffffffffffffffffff16610844565b610184600480360360208110156103e557600080fd5b50356108cc565b61023b6004803603604081101561040257600080fd5b508035906020013573ffffffffffffffffffffffffffffffffffffffff166108e3565b610184610956565b6101c96004803603602081101561044357600080fd5b503573ffffffffffffffffffffffffffffffffffffffff1661097a565b61023b6004803603602081101561047657600080fd5b503573ffffffffffffffffffffffffffffffffffffffff166109a6565b610184610a2e565b7fd8aa0f3194971a2a116679f7c2090f6939c8d4e01a2a8d7e41d55e5351469e6381565b60006104eb7f55435dd261a4b9b3364963f7738a7a662ad9c84396d64be3365284bb7f0a50418361079f565b92915050565b60009081526020819052604090206002015490565b7f55435dd261a4b9b3364963f7738a7a662ad9c84396d64be3365284bb7f0a504181565b60008281526020819052604090206002015461054d90610548610a74565b61079f565b6105a2576040517f08c379a000000000000000000000000000000000000000000000000000000000815260040180806020018281038252602f815260200180610e16602f913960400191505060405180910390fd5b6105ac8282610a78565b5050565b6105b8610a74565b73ffffffffffffffffffffffffffffffffffffffff168173ffffffffffffffffffffffffffffffffffffffff161461063b576040517f08c379a000000000000000000000000000000000000000000000000000000000815260040180806020018281038252602f815260200180610ea8602f913960400191505060405180910390fd5b6105ac8282610afb565b7f899bd46557473cb80307a9dabc297131ced39608330a2d29b2d52b660c03923e81565b6106723361097a565b6106c7576040517f08c379a0000000000000000000000000000000000000000000000000000000008152600401808060200182810382526033815260200180610e756033913960400191505060405180910390fd5b6106f17f899bd46557473cb80307a9dabc297131ced39608330a2d29b2d52b660c03923e8261052a565b50565b6106fd3361097a565b610752576040517f08c379a0000000000000000000000000000000000000000000000000000000008152600401808060200182810382526033815260200180610e756033913960400191505060405180910390fd5b6105ac8282610b7e565b7fb09aa5aeb3702cfd50b6b62bc4532604938f21248a27a1d5ca736082b6819cc181565b60008281526020819052604081206107989083610bd0565b9392505050565b60008281526020819052604081206107989083610bdc565b6107c03361097a565b610815576040517f08c379a0000000000000000000000000000000000000000000000000000000008152600401808060200182810382526033815260200180610e756033913960400191505060405180910390fd5b6106f17f55435dd261a4b9b3364963f7738a7a662ad9c84396d64be3365284bb7f0a50418261052a565b600081565b61084d3361097a565b6108a2576040517f08c379a0000000000000000000000000000000000000000000000000000000008152600401808060200182810382526033815260200180610e756033913960400191505060405180910390fd5b6106f17f55435dd261a4b9b3364963f7738a7a662ad9c84396d64be3365284bb7f0a5041826108e3565b60008181526020819052604081206104eb90610bfe565b60008281526020819052604090206002015461090190610548610a74565b61063b576040517f08c379a0000000000000000000000000000000000000000000000000000000008152600401808060200182810382526030815260200180610e456030913960400191505060405180910390fd5b7f8b8c0776df2c2176edf6f82391c35ea4891146d7a976ee36fd07f1a6fb4ead4c81565b60006104eb7f899bd46557473cb80307a9dabc297131ced39608330a2d29b2d52b660c03923e8361079f565b6109af3361097a565b610a04576040517f08c379a0000000000000000000000000000000000000000000000000000000008152600401808060200182810382526033815260200180610e756033913960400191505060405180910390fd5b6106f17f899bd46557473cb80307a9dabc297131ced39608330a2d29b2d52b660c03923e826108e3565b7ff66846415d2bf9eabda9e84793ff9c0ea96d87f50fc41e66aa16469c6a442f0581565b60006107988373ffffffffffffffffffffffffffffffffffffffff8416610c09565b3390565b6000828152602081905260409020610a909082610a52565b156105ac57610a9d610a74565b73ffffffffffffffffffffffffffffffffffffffff168173ffffffffffffffffffffffffffffffffffffffff16837f2f8788117e7eff1d82e926ec794901d17c78024a50270940304540a733656f0d60405160405180910390a45050565b6000828152602081905260409020610b139082610c53565b156105ac57610b20610a74565b73ffffffffffffffffffffffffffffffffffffffff168173ffffffffffffffffffffffffffffffffffffffff16837ff6391f5c32d9c69d2a47ea670b442974b53935d1edc7fd64eb21e047a839171b60405160405180910390a45050565b600082815260208190526040808220600201549051839285917fbd79b86ffe0ab8e8776151514217cd7cacd52c909f66475c3af44e129f0b00ff9190a460009182526020829052604090912060020155565b60006107988383610c75565b60006107988373ffffffffffffffffffffffffffffffffffffffff8416610cf3565b60006104eb82610d0b565b6000610c158383610cf3565b610c4b575081546001818101845560008481526020808220909301849055845484825282860190935260409020919091556104eb565b5060006104eb565b60006107988373ffffffffffffffffffffffffffffffffffffffff8416610d0f565b81546000908210610cd1576040517f08c379a0000000000000000000000000000000000000000000000000000000008152600401808060200182810382526022815260200180610df46022913960400191505060405180910390fd5b826000018281548110610ce057fe5b9060005260206000200154905092915050565b60009081526001919091016020526040902054151590565b5490565b60008181526001830160205260408120548015610de95783547fffffffffffffffffffffffffffffffffffffffffffffffffffffffffffffffff8083019190810190600090879083908110610d6057fe5b9060005260206000200154905080876000018481548110610d7d57fe5b600091825260208083209091019290925582815260018981019092526040902090840190558654879080610dad57fe5b600190038181906000526020600020016000905590558660010160008781526020019081526020016000206000905560019450505050506104eb565b60009150506104eb56fe456e756d657261626c655365743a20696e646578206f7574206f6620626f756e6473416363657373436f6e74726f6c3a2073656e646572206d75737420626520616e2061646d696e20746f206772616e74416363657373436f6e74726f6c3a2073656e646572206d75737420626520616e2061646d696e20746f207265766f6b655065726d697373696f6e733a3a6f6e6c79476f7665726e6f723a2043616c6c6572206973206e6f74206120676f7665726e6f72416363657373436f6e74726f6c3a2063616e206f6e6c792072656e6f756e636520726f6c657320666f722073656c66a26469706673582212206e97b5d81a7e8dcff3ec885f5f28341397835a2ba1b321d86640f20409eb83ad64736f6c634300060c0033899bd46557473cb80307a9dabc297131ced39608330a2d29b2d52b660c03923e",
  "linkReferences": {},
  "deployedLinkReferences": {}
}