{
  "_format": "hh-sol-artifact-1",
  "contractName": "MasterWTF",
  "sourceName": "contracts/main/MasterWTF.sol",
  "abi": [
    {
      "inputs": [
        {
          "internalType": "address",
          "name": "_core",
          "type": "address"
        },
        {
          "internalType": "address",
          "name": "_rewardToken",
          "type": "address"
        },
        {
          "internalType": "uint256",
          "name": "_rewardPerBlock",
          "type": "uint256"
        },
        {
          "internalType": "uint256",
          "name": "_startBlock",
          "type": "uint256"
        },
        {
          "internalType": "uint256",
          "name": "_endBlock",
          "type": "uint256"
        },
        {
          "internalType": "uint256[]",
          "name": "_pools",
          "type": "uint256[]"
        }
      ],
      "stateMutability": "nonpayable",
      "type": "constructor"
    },
    {
      "anonymous": false,
      "inputs": [
        {
          "indexed": true,
          "internalType": "address",
          "name": "_core",
          "type": "address"
        }
      ],
      "name": "CoreUpdate",
      "type": "event"
    },
    {
      "anonymous": false,
      "inputs": [
        {
          "indexed": false,
          "internalType": "address",
          "name": "account",
          "type": "address"
        }
      ],
      "name": "Paused",
      "type": "event"
    },
    {
      "anonymous": false,
      "inputs": [
        {
          "indexed": false,
          "internalType": "address",
          "name": "account",
          "type": "address"
        }
      ],
      "name": "Unpaused",
      "type": "event"
    },
    {
      "anonymous": false,
      "inputs": [
        {
          "indexed": false,
          "internalType": "uint256",
          "name": "rewardPerBlock",
          "type": "uint256"
        }
      ],
      "name": "UpdateEmissionRate",
      "type": "event"
    },
    {
      "inputs": [],
      "name": "MASTER_ROLE",
      "outputs": [
        {
          "internalType": "bytes32",
          "name": "",
          "type": "bytes32"
        }
      ],
      "stateMutability": "view",
      "type": "function"
    },
    {
      "inputs": [],
      "name": "TIMELOCK_ROLE",
      "outputs": [
        {
          "internalType": "bytes32",
          "name": "",
          "type": "bytes32"
        }
      ],
      "stateMutability": "view",
      "type": "function"
    },
    {
      "inputs": [
        {
          "internalType": "uint256",
          "name": "_allocPoint",
          "type": "uint256"
        }
      ],
      "name": "add",
      "outputs": [],
      "stateMutability": "nonpayable",
      "type": "function"
    },
    {
      "inputs": [
        {
          "internalType": "uint256",
          "name": "_pid",
          "type": "uint256"
        }
      ],
      "name": "claim",
      "outputs": [],
      "stateMutability": "nonpayable",
      "type": "function"
    },
    {
      "inputs": [],
      "name": "claimAll",
      "outputs": [],
      "stateMutability": "nonpayable",
      "type": "function"
    },
    {
      "inputs": [],
      "name": "core",
      "outputs": [
        {
          "internalType": "contract ICore",
          "name": "",
          "type": "address"
        }
      ],
      "stateMutability": "view",
      "type": "function"
    },
    {
      "inputs": [],
      "name": "cycleId",
      "outputs": [
        {
          "internalType": "uint256",
          "name": "",
          "type": "uint256"
        }
      ],
      "stateMutability": "view",
      "type": "function"
    },
    {
      "inputs": [],
      "name": "endBlock",
      "outputs": [
        {
          "internalType": "uint256",
          "name": "",
          "type": "uint256"
        }
      ],
      "stateMutability": "view",
      "type": "function"
    },
    {
      "inputs": [
        {
          "internalType": "uint256",
          "name": "_from",
          "type": "uint256"
        },
        {
          "internalType": "uint256",
          "name": "_to",
          "type": "uint256"
        }
      ],
      "name": "getMultiplier",
      "outputs": [
        {
          "internalType": "uint256",
          "name": "",
          "type": "uint256"
        }
      ],
      "stateMutability": "view",
      "type": "function"
    },
    {
      "inputs": [],
      "name": "massUpdatePools",
      "outputs": [],
      "stateMutability": "nonpayable",
      "type": "function"
    },
    {
      "inputs": [
        {
          "internalType": "uint256",
          "name": "_cid",
          "type": "uint256"
        }
      ],
      "name": "next",
      "outputs": [],
      "stateMutability": "nonpayable",
      "type": "function"
    },
    {
      "inputs": [],
      "name": "pause",
      "outputs": [],
      "stateMutability": "nonpayable",
      "type": "function"
    },
    {
      "inputs": [],
      "name": "paused",
      "outputs": [
        {
          "internalType": "bool",
          "name": "",
          "type": "bool"
        }
      ],
      "stateMutability": "view",
      "type": "function"
    },
    {
      "inputs": [
        {
          "internalType": "address",
          "name": "_user",
          "type": "address"
        },
        {
          "internalType": "uint256",
          "name": "_pid",
          "type": "uint256"
        }
      ],
      "name": "pendingReward",
      "outputs": [
        {
          "internalType": "uint256",
          "name": "",
          "type": "uint256"
        }
      ],
      "stateMutability": "view",
      "type": "function"
    },
    {
      "inputs": [
        {
          "internalType": "uint256",
          "name": "",
          "type": "uint256"
        }
      ],
      "name": "poolInfo",
      "outputs": [
        {
          "internalType": "uint256",
          "name": "allocPoint",
          "type": "uint256"
        }
      ],
      "stateMutability": "view",
      "type": "function"
    },
    {
      "inputs": [],
      "name": "poolLength",
      "outputs": [
        {
          "internalType": "uint256",
          "name": "",
          "type": "uint256"
        }
      ],
      "stateMutability": "view",
      "type": "function"
    },
    {
      "inputs": [
        {
          "internalType": "uint256",
          "name": "",
          "type": "uint256"
        },
        {
          "internalType": "uint256",
          "name": "",
          "type": "uint256"
        }
      ],
      "name": "poolSnapshot",
      "outputs": [
        {
          "internalType": "uint256",
          "name": "totalSupply",
          "type": "uint256"
        },
        {
          "internalType": "uint256",
          "name": "lastRewardBlock",
          "type": "uint256"
        },
        {
          "internalType": "uint256",
          "name": "accRewardPerShare",
          "type": "uint256"
        }
      ],
      "stateMutability": "view",
      "type": "function"
    },
    {
      "inputs": [],
      "name": "rewardPerBlock",
      "outputs": [
        {
          "internalType": "uint256",
          "name": "",
          "type": "uint256"
        }
      ],
      "stateMutability": "view",
      "type": "function"
    },
    {
      "inputs": [],
      "name": "rewardToken",
      "outputs": [
        {
          "internalType": "address",
          "name": "",
          "type": "address"
        }
      ],
      "stateMutability": "view",
      "type": "function"
    },
    {
      "inputs": [],
      "name": "rewarding",
      "outputs": [
        {
          "internalType": "bool",
          "name": "",
          "type": "bool"
        }
      ],
      "stateMutability": "view",
      "type": "function"
    },
    {
      "inputs": [
        {
          "internalType": "uint256",
          "name": "_pid",
          "type": "uint256"
        },
        {
          "internalType": "uint256",
          "name": "_allocPoint",
          "type": "uint256"
        },
        {
          "internalType": "bool",
          "name": "_withUpdate",
          "type": "bool"
        }
      ],
      "name": "set",
      "outputs": [],
      "stateMutability": "nonpayable",
      "type": "function"
    },
    {
      "inputs": [
        {
          "internalType": "address",
          "name": "core_",
          "type": "address"
        }
      ],
      "name": "setCore",
      "outputs": [],
      "stateMutability": "nonpayable",
      "type": "function"
    },
    {
      "inputs": [
        {
          "internalType": "uint256",
          "name": "_endBlock",
          "type": "uint256"
        }
      ],
      "name": "start",
      "outputs": [],
      "stateMutability": "nonpayable",
      "type": "function"
    },
    {
      "inputs": [],
      "name": "startBlock",
      "outputs": [
        {
          "internalType": "uint256",
          "name": "",
          "type": "uint256"
        }
      ],
      "stateMutability": "view",
      "type": "function"
    },
    {
      "inputs": [],
      "name": "totalAllocPoint",
      "outputs": [
        {
          "internalType": "uint256",
          "name": "",
          "type": "uint256"
        }
      ],
      "stateMutability": "view",
      "type": "function"
    },
    {
      "inputs": [],
      "name": "unpause",
      "outputs": [],
      "stateMutability": "nonpayable",
      "type": "function"
    },
    {
      "inputs": [
        {
          "internalType": "uint256",
          "name": "_pid",
          "type": "uint256"
        }
      ],
      "name": "updatePool",
      "outputs": [],
      "stateMutability": "nonpayable",
      "type": "function"
    },
    {
      "inputs": [
        {
          "internalType": "uint256",
          "name": "_rewardPerBlock",
          "type": "uint256"
        }
      ],
      "name": "updateRewardPerBlock",
      "outputs": [],
      "stateMutability": "nonpayable",
      "type": "function"
    },
    {
      "inputs": [
        {
          "internalType": "uint256",
          "name": "_pid",
          "type": "uint256"
        },
        {
          "internalType": "address",
          "name": "_account",
          "type": "address"
        },
        {
          "internalType": "uint256",
          "name": "_amount",
          "type": "uint256"
        }
      ],
      "name": "updateStake",
      "outputs": [],
      "stateMutability": "nonpayable",
      "type": "function"
    },
    {
      "inputs": [
        {
          "internalType": "uint256",
          "name": "",
          "type": "uint256"
        },
        {
          "internalType": "address",
          "name": "",
          "type": "address"
        }
      ],
      "name": "userInfo",
      "outputs": [
        {
          "internalType": "uint256",
          "name": "amount",
          "type": "uint256"
        },
        {
          "internalType": "uint256",
          "name": "rewardDebt",
          "type": "uint256"
        },
        {
          "internalType": "uint256",
          "name": "cid",
          "type": "uint256"
        },
        {
          "internalType": "uint256",
          "name": "earned",
          "type": "uint256"
        }
      ],
      "stateMutability": "view",
      "type": "function"
    }
  ],
  "bytecode": "0x6080604052600060048190556007556008805460ff191690553480156200002557600080fd5b506040516200255c3803806200255c833981810160405260c08110156200004b57600080fd5b815160208301516040808501516060860151608087015160a0880180519451969895979396929591949293820192846401000000008211156200008d57600080fd5b908301906020820185811115620000a357600080fd5b8251866020820283011164010000000082111715620000c157600080fd5b82525081516020918201928201910280838360005b83811015620000f0578181015183820152602001620000d6565b50505050919091016040525050600080546001600160a81b0319166101006001600160a01b038b81169190910291909117825560018055600280546001600160a01b031916918a1691909117905560038790556005869055600685905591508190505b8251811015620001d6576200018b8382815181106200016e57fe5b602002602001015183620001e760201b62001d4a1790919060201c565b915060096040518060200160405280858481518110620001a757fe5b602090810291909101810151909152825460018181018555600094855291909320915191909201550162000153565b506004555062000249945050505050565b60008282018381101562000242576040805162461bcd60e51b815260206004820152601b60248201527f536166654d6174683a206164646974696f6e206f766572666c6f770000000000604482015290519081900360640190fd5b9392505050565b61230380620002596000396000f3fe608060405234801561001057600080fd5b50600436106101da5760003560e01c806364482f7911610104578063be145d48116100a2578063f288a2e211610071578063f288a2e21461049a578063f2f4eb26146104a2578063f430cf0d146104d3578063f7c618c11461050c576101da565b8063be145d4814610465578063d1058e591461046d578063dc22486314610475578063edd004e51461047d576101da565b80638ae39cac116100de5780638ae39cac146103be5780638dbb1e3a146103c657806393f1a40b146103e957806395805dad14610448576101da565b806364482f791461035857806380009630146103835780638456cb59146103b6576101da565b8063379607f51161017c57806351eb05a61161014b57806351eb05a61461030f5780635c975abb1461032c57806362e0accb14610348578063630b5ba114610350576101da565b8063379607f5146102a15780633d42eb6c146102be5780633f4ba83a146102ff57806348cd4cb114610307576101da565b80631003e2d2116101b85780631003e2d2146102205780631526fe271461023d57806315c2fdc91461025a57806317caf6f114610299576101da565b806301f8a976146101df578063081e3eda146101fe578063083c632314610218575b600080fd5b6101fc600480360360208110156101f557600080fd5b5035610514565b005b610206610659565b60408051918252519081900360200190f35b61020661065f565b6101fc6004803603602081101561023657600080fd5b5035610665565b6102066004803603602081101561025357600080fd5b5035610798565b6101fc6004803603606081101561027057600080fd5b5080359073ffffffffffffffffffffffffffffffffffffffff60208201351690604001356107b6565b610206610ae6565b6101fc600480360360208110156102b757600080fd5b5035610aec565b6102e1600480360360408110156102d457600080fd5b5080359060200135610c1e565b60408051938452602084019290925282820152519081900360600190f35b6101fc610c4a565b610206610dd8565b6101fc6004803603602081101561032557600080fd5b5035610dde565b610334610f4e565b604080519115158252519081900360200190f35b610206610f57565b6101fc610f5d565b6101fc6004803603606081101561036e57600080fd5b50803590602081013590604001351515610f7c565b6101fc6004803603602081101561039957600080fd5b503573ffffffffffffffffffffffffffffffffffffffff16611148565b6101fc611298565b610206611424565b610206600480360360408110156103dc57600080fd5b508035906020013561142a565b610422600480360360408110156103ff57600080fd5b508035906020013573ffffffffffffffffffffffffffffffffffffffff1661143f565b604080519485526020850193909352838301919091526060830152519081900360800190f35b6101fc6004803603602081101561045e57600080fd5b5035611471565b610334611710565b6101fc611719565b610206611869565b6101fc6004803603602081101561049357600080fd5b503561188d565b610206611b45565b6104aa611b69565b6040805173ffffffffffffffffffffffffffffffffffffffff9092168252519081900360200190f35b610206600480360360408110156104e957600080fd5b5073ffffffffffffffffffffffffffffffffffffffff8135169060200135611b8a565b6104aa611d2e565b600054604080517f91d148540000000000000000000000000000000000000000000000000000000081527ff66846415d2bf9eabda9e84793ff9c0ea96d87f50fc41e66aa16469c6a442f056004820152336024820152905161010090920473ffffffffffffffffffffffffffffffffffffffff16916391d1485491604480820192602092909190829003018186803b1580156105af57600080fd5b505afa1580156105c3573d6000803e3d6000fd5b505050506040513d60208110156105d957600080fd5b50516106165760405162461bcd60e51b815260040180806020018281038252602f81526020018061229f602f913960400191505060405180910390fd5b61061e610f5d565b60038190556040805182815290517f232bc60e54c3a684fb69d1cde365a10c51105f4f8ba47a6cd0c5435192010a9c9181900360200190a150565b60095490565b60065481565b600054604080517fe43581b8000000000000000000000000000000000000000000000000000000008152336004820152905161010090920473ffffffffffffffffffffffffffffffffffffffff169163e43581b891602480820192602092909190829003018186803b1580156106da57600080fd5b505afa1580156106ee573d6000803e3d6000fd5b505050506040513d602081101561070457600080fd5b50516107415760405162461bcd60e51b815260040180806020018281038252602f8152602001806121e7602f913960400191505060405180910390fd5b60045461074e9082611d4a565b60045560408051602081019091529081526009805460018101825560009190915290517f6e1540171b6c0c960b71a7020d9f60077f6af931a8bbf590da0223dacf75c7af90910155565b600981815481106107a557fe5b600091825260209091200154905081565b600054604080517f91d148540000000000000000000000000000000000000000000000000000000081527f8b8c0776df2c2176edf6f82391c35ea4891146d7a976ee36fd07f1a6fb4ead4c6004820181905233602483015291519192610100900473ffffffffffffffffffffffffffffffffffffffff16916391d1485491604480820192602092909190829003018186803b15801561085457600080fd5b505afa158015610868573d6000803e3d6000fd5b505050506040513d602081101561087e57600080fd5b50516108d1576040805162461bcd60e51b815260206004820152601d60248201527f436f72655265663a3a6f6e6c79526f6c653a204e6f74207065726d6974000000604482015290519081900360640190fd5b60095484908110610929576040805162461bcd60e51b815260206004820152601660248201527f76616c69646174655069643a204e6f7420657869737400000000000000000000604482015290519081900360640190fd5b60026001541415610981576040805162461bcd60e51b815260206004820152601f60248201527f5265656e7472616e637947756172643a207265656e7472616e742063616c6c00604482015290519081900360640190fd5b600260018190556000868152600a6020908152604080832073ffffffffffffffffffffffffffffffffffffffff891684528252808320938401548352600b825280832089845290915290206109d587610dde565b6000610a0f8360010154610a0964e8d4a51000610a0386600201548860000154611da490919063ffffffff16565b90611dfd565b90611e64565b90508015610a2c576003830154610a269082611d4a565b60038401555b82600201546007541415610a7d5782548254610a53918891610a4d91611e64565b90611d4a565b82558583556002820154610a739064e8d4a5100090610a03908990611da4565b6001840155610ad8565b6007546000908152600b602090815260408083208b845290915290208054909250610aa89087611d4a565b8255858355600754600280850191909155820154610ad29064e8d4a5100090610a03908990611da4565b60018401555b505060018055505050505050565b60045481565b60026001541415610b44576040805162461bcd60e51b815260206004820152601f60248201527f5265656e7472616e637947756172643a207265656e7472616e742063616c6c00604482015290519081900360640190fd5b600260018190556000828152600a60209081526040808320338452825280832093840154808452600b8352818420868552909252822060075492939290911415610b9157610b9184610dde565b610bbd8260010154610a0964e8d4a51000610a0385600201548760000154611da490919063ffffffff16565b600383015490935015610be4576003820154610bda908490611d4a565b6000600384015592505b8215610bf657610bf43384611ec1565b505b60028101548254610c119164e8d4a5100091610a0391611da4565b6001928301555080555050565b600b60209081526000928352604080842090915290825290208054600182015460029092015490919083565b600054604080517fe43581b8000000000000000000000000000000000000000000000000000000008152336004820152905161010090920473ffffffffffffffffffffffffffffffffffffffff169163e43581b891602480820192602092909190829003018186803b158015610cbf57600080fd5b505afa158015610cd3573d6000803e3d6000fd5b505050506040513d6020811015610ce957600080fd5b505180610d935750600054604080517f0c68ba21000000000000000000000000000000000000000000000000000000008152336004820152905161010090920473ffffffffffffffffffffffffffffffffffffffff1691630c68ba2191602480820192602092909190829003018186803b158015610d6657600080fd5b505afa158015610d7a573d6000803e3d6000fd5b505050506040513d6020811015610d9057600080fd5b50515b610dce5760405162461bcd60e51b815260040180806020018281038252604581526020018061225a6045913960600191505060405180910390fd5b610dd6612064565b565b60055481565b60095481908110610e36576040805162461bcd60e51b815260206004820152601660248201527f76616c69646174655069643a204e6f7420657869737400000000000000000000604482015290519081900360640190fd5b60085460ff16610e4557610f4a565b600060098381548110610e5457fe5b600091825260208083206007548452600b82526040808520888652909252922060018101549190920192504311610e8c575050610f4a565b600654816001015410610ea0575050610f4a565b6000600654431015610eb25743610eb6565b6006545b82549091501580610ec657508254155b15610ed75760019091015550610f4a565b6000610ee783600101544361142a565b90506000610f14600454610a038760000154610f0e60035487611da490919063ffffffff16565b90611da4565b8454909150610f3b90610f3090610a038464e8d4a51000611da4565b600286015490611d4a565b60028501555050600190910155505b5050565b60005460ff1690565b60075481565b60095460005b81811015610f4a57610f7481610dde565b600101610f63565b600054604080517f91d148540000000000000000000000000000000000000000000000000000000081527ff66846415d2bf9eabda9e84793ff9c0ea96d87f50fc41e66aa16469c6a442f056004820152336024820152905161010090920473ffffffffffffffffffffffffffffffffffffffff16916391d1485491604480820192602092909190829003018186803b15801561101757600080fd5b505afa15801561102b573d6000803e3d6000fd5b505050506040513d602081101561104157600080fd5b505161107e5760405162461bcd60e51b815260040180806020018281038252602f81526020018061229f602f913960400191505060405180910390fd5b600954839081106110d6576040805162461bcd60e51b815260206004820152601660248201527f76616c69646174655069643a204e6f7420657869737400000000000000000000604482015290519081900360640190fd5b81156110e4576110e4610f5d565b6000600985815481106110f357fe5b90600052602060002001600001549050836009868154811061111157fe5b6000918252602090912001558084146111415761113d84610a4d83600454611e6490919063ffffffff16565b6004555b5050505050565b600054604080517fe43581b8000000000000000000000000000000000000000000000000000000008152336004820152905161010090920473ffffffffffffffffffffffffffffffffffffffff169163e43581b891602480820192602092909190829003018186803b1580156111bd57600080fd5b505afa1580156111d1573d6000803e3d6000fd5b505050506040513d60208110156111e757600080fd5b50516112245760405162461bcd60e51b815260040180806020018281038252602f8152602001806121e7602f913960400191505060405180910390fd5b600080547fffffffffffffffffffffff0000000000000000000000000000000000000000ff1661010073ffffffffffffffffffffffffffffffffffffffff841690810291909117825560405190917fad9400e618eb1344fde53db22397a1b82c765527ecbba3a5c86bcac15090828b91a250565b600054604080517fe43581b8000000000000000000000000000000000000000000000000000000008152336004820152905161010090920473ffffffffffffffffffffffffffffffffffffffff169163e43581b891602480820192602092909190829003018186803b15801561130d57600080fd5b505afa158015611321573d6000803e3d6000fd5b505050506040513d602081101561133757600080fd5b5051806113e15750600054604080517f0c68ba21000000000000000000000000000000000000000000000000000000008152336004820152905161010090920473ffffffffffffffffffffffffffffffffffffffff1691630c68ba2191602480820192602092909190829003018186803b1580156113b457600080fd5b505afa1580156113c8573d6000803e3d6000fd5b505050506040513d60208110156113de57600080fd5b50515b61141c5760405162461bcd60e51b815260040180806020018281038252604581526020018061225a6045913960600191505060405180910390fd5b610dd6612138565b60035481565b60006114368284611e64565b90505b92915050565b600a60209081526000928352604080842090915290825290208054600182015460028301546003909301549192909184565b600054604080517f91d148540000000000000000000000000000000000000000000000000000000081527f8b8c0776df2c2176edf6f82391c35ea4891146d7a976ee36fd07f1a6fb4ead4c6004820181905233602483015291519192610100900473ffffffffffffffffffffffffffffffffffffffff16916391d1485491604480820192602092909190829003018186803b15801561150f57600080fd5b505afa158015611523573d6000803e3d6000fd5b505050506040513d602081101561153957600080fd5b505161158c576040805162461bcd60e51b815260206004820152601d60248201527f436f72655265663a3a6f6e6c79526f6c653a204e6f74207065726d6974000000604482015290519081900360640190fd5b600260015414156115e4576040805162461bcd60e51b815260206004820152601f60248201527f5265656e7472616e637947756172643a207265656e7472616e742063616c6c00604482015290519081900360640190fd5b600260015560085460ff1615611641576040805162461bcd60e51b815260206004820152601460248201527f6379636c6520616c726561647920616374697665000000000000000000000000604482015290519081900360640190fd5b438211611695576040805162461bcd60e51b815260206004820152600d60248201527f656e64426c6f636b206c65737300000000000000000000000000000000000000604482015290519081900360640190fd5b600880547fffffffffffffffffffffffffffffffffffffffffffffffffffffffffffffff00166001179055600682905560005b600954811015611707576007546000908152600b60209081526040808320848452909152812043600180830191909155600290910191909155016116c8565b50506001805550565b60085460ff1681565b60026001541415611771576040805162461bcd60e51b815260206004820152601f60248201527f5265656e7472616e637947756172643a207265656e7472616e742063616c6c00604482015290519081900360640190fd5b60026001556000805b60095481101561184f576000818152600a6020908152604080832033845282528083206002810154808552600b84528285208686529093529220600754909114156117c8576117c883610dde565b6003820154156117ec5760038201546117e2908590611d4a565b6000600384015593505b61181c84610a4d8460010154610a0964e8d4a51000610a0387600201548960000154611da490919063ffffffff16565b935061184264e8d4a51000610a0383600201548560000154611da490919063ffffffff16565b600192830155500161177a565b508015611862576118603382611ec1565b505b5060018055565b7f8b8c0776df2c2176edf6f82391c35ea4891146d7a976ee36fd07f1a6fb4ead4c81565b600054604080517f91d148540000000000000000000000000000000000000000000000000000000081527f8b8c0776df2c2176edf6f82391c35ea4891146d7a976ee36fd07f1a6fb4ead4c6004820181905233602483015291519192610100900473ffffffffffffffffffffffffffffffffffffffff16916391d1485491604480820192602092909190829003018186803b15801561192b57600080fd5b505afa15801561193f573d6000803e3d6000fd5b505050506040513d602081101561195557600080fd5b50516119a8576040805162461bcd60e51b815260206004820152601d60248201527f436f72655265663a3a6f6e6c79526f6c653a204e6f74207065726d6974000000604482015290519081900360640190fd5b60026001541415611a00576040805162461bcd60e51b815260206004820152601f60248201527f5265656e7472616e637947756172643a207265656e7472616e742063616c6c00604482015290519081900360640190fd5b600260015560085460ff16611a5c576040805162461bcd60e51b815260206004820152601060248201527f6379636c65206e6f742061637469766500000000000000000000000000000000604482015290519081900360640190fd5b600654431015611ab3576040805162461bcd60e51b815260206004820152601160248201527f6379636c65206e6f742065787069726564000000000000000000000000000000604482015290519081900360640190fd5b611abb610f5d565b600880547fffffffffffffffffffffffffffffffffffffffffffffffffffffffffffffff00169055600782905560005b6009548110156117075760408051606081018252600080825260208083018281528385018381526007548452600b835285842087855290925293909120915182559151600180830191909155915160029091015501611aeb565b7ff66846415d2bf9eabda9e84793ff9c0ea96d87f50fc41e66aa16469c6a442f0581565b600054610100900473ffffffffffffffffffffffffffffffffffffffff1690565b60095460009082908110611be5576040805162461bcd60e51b815260206004820152601660248201527f76616c69646174655069643a204e6f7420657869737400000000000000000000604482015290519081900360640190fd5b600060098481548110611bf457fe5b60009182526020808320878452600a8252604080852073ffffffffffffffffffffffffffffffffffffffff8b1686528352808520600280820154808852600b86528388208c895290955291909520908101546007549290940195509291148015611c60575060085460ff165b8015611c6f5750816001015443115b8015611c7b5750815415155b15611cf2576000611ca38360010154600654431015611c9a5743611c9e565b6006545b61142a565b90506000611cca600454610a038860000154610f0e60035487611da490919063ffffffff16565b8454909150611ced90611ce690610a038464e8d4a51000611da4565b8490611d4a565b925050505b611d228360030154610a4d8560010154610a0964e8d4a51000610a03878a60000154611da490919063ffffffff16565b98975050505050505050565b60025473ffffffffffffffffffffffffffffffffffffffff1681565b600082820183811015611436576040805162461bcd60e51b815260206004820152601b60248201527f536166654d6174683a206164646974696f6e206f766572666c6f770000000000604482015290519081900360640190fd5b600082611db357506000611439565b82820282848281611dc057fe5b04146114365760405162461bcd60e51b81526004018080602001828103825260218152602001806122396021913960400191505060405180910390fd5b6000808211611e53576040805162461bcd60e51b815260206004820152601a60248201527f536166654d6174683a206469766973696f6e206279207a65726f000000000000604482015290519081900360640190fd5b818381611e5c57fe5b049392505050565b600082821115611ebb576040805162461bcd60e51b815260206004820152601e60248201527f536166654d6174683a207375627472616374696f6e206f766572666c6f770000604482015290519081900360640190fd5b50900390565b600254604080517f70a082310000000000000000000000000000000000000000000000000000000081523060048201529051600092839273ffffffffffffffffffffffffffffffffffffffff909116916370a0823191602480820192602092909190829003018186803b158015611f3757600080fd5b505afa158015611f4b573d6000803e3d6000fd5b505050506040513d6020811015611f6157600080fd5b50519050600081841115611f76575080611f79565b50825b600254604080517fa9059cbb00000000000000000000000000000000000000000000000000000000815273ffffffffffffffffffffffffffffffffffffffff8881166004830152602482018590529151919092169163a9059cbb9160448083019260209291908290030181600087803b158015611ff557600080fd5b505af1158015612009573d6000803e3d6000fd5b505050506040513d602081101561201f57600080fd5b505161205c5760405162461bcd60e51b81526004018080602001828103825260238152602001806122166023913960400191505060405180910390fd5b949350505050565b61206c610f4e565b6120bd576040805162461bcd60e51b815260206004820152601460248201527f5061757361626c653a206e6f7420706175736564000000000000000000000000604482015290519081900360640190fd5b600080547fffffffffffffffffffffffffffffffffffffffffffffffffffffffffffffff001690557f5db9ee0a495bf2e6ff9c91a7834c1ba4fdd244a5e8aa4e537bd38aeae4b073aa61210e6121e2565b6040805173ffffffffffffffffffffffffffffffffffffffff9092168252519081900360200190a1565b612140610f4e565b15612192576040805162461bcd60e51b815260206004820152601060248201527f5061757361626c653a2070617573656400000000000000000000000000000000604482015290519081900360640190fd5b600080547fffffffffffffffffffffffffffffffffffffffffffffffffffffffffffffff001660011790557f62e78cea01bee320cd4e420270b5ea74000d11b0c9f74754ebdbfc544b05a25861210e5b339056fe436f72655265663a3a6f6e6c79476f7665726e6f723a2043616c6c6572206973206e6f74206120676f7665726e6f72736166655265776172645472616e736665723a205472616e73666572206661696c6564536166654d6174683a206d756c7469706c69636174696f6e206f766572666c6f77436f72655265663a3a6f6e6c79477561726469616e4f72476f7665726e6f723a2043616c6c6572206973206e6f74206120677561726469616e206f7220676f7665726e6f72436f72655265663a3a6f6e6c7954696d656c6f636b3a2043616c6c6572206973206e6f7420612074696d656c6f636ba264697066735822122001d9eff6263715d04b23b9da72e16a46516c38cdd8475f310fa636ccd69bd0d264736f6c634300060c0033",
  "linkReferences": {},
  "deployedLinkReferences": {}
}