{
  "_format": "hh-sol-artifact-1",
  "contractName": "MultiStrategyToken",
  "sourceName": "contracts/strategy/MultiStrategyToke.sol",
  "abi": [
    {
      "inputs": [
        {
          "internalType": "address",
          "name": "_core",
          "type": "address"
        },
        {
          "internalType": "string",
          "name": "name_",
          "type": "string"
        },
        {
          "internalType": "string",
          "name": "symbol_",
          "type": "string"
        },
        {
          "internalType": "address",
          "name": "_token",
          "type": "address"
        },
        {
          "internalType": "address[]",
          "name": "_strategies",
          "type": "address[]"
        },
        {
          "internalType": "uint256[]",
          "name": "_ratios",
          "type": "uint256[]"
        }
      ],
      "stateMutability": "nonpayable",
      "type": "constructor"
    },
    {
      "anonymous": false,
      "inputs": [
        {
          "indexed": true,
          "internalType": "address",
          "name": "owner",
          "type": "address"
        },
        {
          "indexed": true,
          "internalType": "address",
          "name": "spender",
          "type": "address"
        },
        {
          "indexed": false,
          "internalType": "uint256",
          "name": "value",
          "type": "uint256"
        }
      ],
      "name": "Approval",
      "type": "event"
    },
    {
      "anonymous": false,
      "inputs": [
        {
          "indexed": true,
          "internalType": "address",
          "name": "_core",
          "type": "address"
        }
      ],
      "name": "CoreUpdate",
      "type": "event"
    },
    {
      "anonymous": false,
      "inputs": [
        {
          "indexed": false,
          "internalType": "address",
          "name": "tokenAddress",
          "type": "address"
        },
        {
          "indexed": false,
          "internalType": "uint256",
          "name": "depositAmount",
          "type": "uint256"
        },
        {
          "indexed": false,
          "internalType": "uint256",
          "name": "sharesMinted",
          "type": "uint256"
        }
      ],
      "name": "Deposit",
      "type": "event"
    },
    {
      "anonymous": false,
      "inputs": [
        {
          "indexed": false,
          "internalType": "address",
          "name": "account",
          "type": "address"
        }
      ],
      "name": "Paused",
      "type": "event"
    },
    {
      "anonymous": false,
      "inputs": [
        {
          "indexed": false,
          "internalType": "address",
          "name": "strategyAddress",
          "type": "address"
        },
        {
          "indexed": false,
          "internalType": "uint256",
          "name": "ratioBefore",
          "type": "uint256"
        },
        {
          "indexed": false,
          "internalType": "uint256",
          "name": "ratioAfter",
          "type": "uint256"
        }
      ],
      "name": "RatioChanged",
      "type": "event"
    },
    {
      "anonymous": false,
      "inputs": [
        {
          "indexed": true,
          "internalType": "address",
          "name": "from",
          "type": "address"
        },
        {
          "indexed": true,
          "internalType": "address",
          "name": "to",
          "type": "address"
        },
        {
          "indexed": false,
          "internalType": "uint256",
          "name": "value",
          "type": "uint256"
        }
      ],
      "name": "Transfer",
      "type": "event"
    },
    {
      "anonymous": false,
      "inputs": [
        {
          "indexed": false,
          "internalType": "address",
          "name": "account",
          "type": "address"
        }
      ],
      "name": "Unpaused",
      "type": "event"
    },
    {
      "anonymous": false,
      "inputs": [
        {
          "indexed": false,
          "internalType": "address",
          "name": "tokenAddress",
          "type": "address"
        },
        {
          "indexed": false,
          "internalType": "uint256",
          "name": "withdrawAmount",
          "type": "uint256"
        },
        {
          "indexed": false,
          "internalType": "uint256",
          "name": "sharesBurnt",
          "type": "uint256"
        }
      ],
      "name": "Withdraw",
      "type": "event"
    },
    {
      "inputs": [],
      "name": "TIMELOCK_ROLE",
      "outputs": [
        {
          "internalType": "bytes32",
          "name": "",
          "type": "bytes32"
        }
      ],
      "stateMutability": "view",
      "type": "function"
    },
    {
      "inputs": [
        {
          "internalType": "address",
          "name": "owner",
          "type": "address"
        },
        {
          "internalType": "address",
          "name": "spender",
          "type": "address"
        }
      ],
      "name": "allowance",
      "outputs": [
        {
          "internalType": "uint256",
          "name": "",
          "type": "uint256"
        }
      ],
      "stateMutability": "view",
      "type": "function"
    },
    {
      "inputs": [
        {
          "internalType": "uint256",
          "name": "_amount",
          "type": "uint256"
        }
      ],
      "name": "amountToShares",
      "outputs": [
        {
          "internalType": "uint256",
          "name": "shares",
          "type": "uint256"
        }
      ],
      "stateMutability": "view",
      "type": "function"
    },
    {
      "inputs": [
        {
          "internalType": "address",
          "name": "spender",
          "type": "address"
        },
        {
          "internalType": "uint256",
          "name": "amount",
          "type": "uint256"
        }
      ],
      "name": "approve",
      "outputs": [
        {
          "internalType": "bool",
          "name": "",
          "type": "bool"
        }
      ],
      "stateMutability": "nonpayable",
      "type": "function"
    },
    {
      "inputs": [],
      "name": "approveToken",
      "outputs": [],
      "stateMutability": "nonpayable",
      "type": "function"
    },
    {
      "inputs": [],
      "name": "balance",
      "outputs": [
        {
          "internalType": "uint256",
          "name": "",
          "type": "uint256"
        }
      ],
      "stateMutability": "view",
      "type": "function"
    },
    {
      "inputs": [
        {
          "internalType": "address",
          "name": "account",
          "type": "address"
        }
      ],
      "name": "balanceOf",
      "outputs": [
        {
          "internalType": "uint256",
          "name": "",
          "type": "uint256"
        }
      ],
      "stateMutability": "view",
      "type": "function"
    },
    {
      "inputs": [],
      "name": "balanceStrategy",
      "outputs": [
        {
          "internalType": "uint256",
          "name": "sum",
          "type": "uint256"
        }
      ],
      "stateMutability": "view",
      "type": "function"
    },
    {
      "inputs": [],
      "name": "calcPoolValueInToken",
      "outputs": [
        {
          "internalType": "uint256",
          "name": "",
          "type": "uint256"
        }
      ],
      "stateMutability": "view",
      "type": "function"
    },
    {
      "inputs": [
        {
          "internalType": "uint256",
          "name": "index",
          "type": "uint256"
        },
        {
          "internalType": "uint256",
          "name": "value",
          "type": "uint256"
        }
      ],
      "name": "changeRatio",
      "outputs": [],
      "stateMutability": "nonpayable",
      "type": "function"
    },
    {
      "inputs": [],
      "name": "core",
      "outputs": [
        {
          "internalType": "contract ICore",
          "name": "",
          "type": "address"
        }
      ],
      "stateMutability": "view",
      "type": "function"
    },
    {
      "inputs": [],
      "name": "decimals",
      "outputs": [
        {
          "internalType": "uint8",
          "name": "",
          "type": "uint8"
        }
      ],
      "stateMutability": "view",
      "type": "function"
    },
    {
      "inputs": [
        {
          "internalType": "address",
          "name": "spender",
          "type": "address"
        },
        {
          "internalType": "uint256",
          "name": "subtractedValue",
          "type": "uint256"
        }
      ],
      "name": "decreaseAllowance",
      "outputs": [
        {
          "internalType": "bool",
          "name": "",
          "type": "bool"
        }
      ],
      "stateMutability": "nonpayable",
      "type": "function"
    },
    {
      "inputs": [
        {
          "internalType": "uint256",
          "name": "_amount",
          "type": "uint256"
        },
        {
          "internalType": "uint256",
          "name": "_minShares",
          "type": "uint256"
        }
      ],
      "name": "deposit",
      "outputs": [],
      "stateMutability": "nonpayable",
      "type": "function"
    },
    {
      "inputs": [
        {
          "internalType": "address",
          "name": "strategyAddress",
          "type": "address"
        }
      ],
      "name": "getBalanceOfOneStrategy",
      "outputs": [
        {
          "internalType": "uint256",
          "name": "bal",
          "type": "uint256"
        }
      ],
      "stateMutability": "view",
      "type": "function"
    },
    {
      "inputs": [],
      "name": "getPricePerFullShare",
      "outputs": [
        {
          "internalType": "uint256",
          "name": "",
          "type": "uint256"
        }
      ],
      "stateMutability": "view",
      "type": "function"
    },
    {
      "inputs": [
        {
          "internalType": "address",
          "name": "_token",
          "type": "address"
        },
        {
          "internalType": "uint256",
          "name": "_amount",
          "type": "uint256"
        },
        {
          "internalType": "address",
          "name": "_to",
          "type": "address"
        }
      ],
      "name": "inCaseTokensGetStuck",
      "outputs": [],
      "stateMutability": "nonpayable",
      "type": "function"
    },
    {
      "inputs": [
        {
          "internalType": "address",
          "name": "spender",
          "type": "address"
        },
        {
          "internalType": "uint256",
          "name": "addedValue",
          "type": "uint256"
        }
      ],
      "name": "increaseAllowance",
      "outputs": [
        {
          "internalType": "bool",
          "name": "",
          "type": "bool"
        }
      ],
      "stateMutability": "nonpayable",
      "type": "function"
    },
    {
      "inputs": [],
      "name": "name",
      "outputs": [
        {
          "internalType": "string",
          "name": "",
          "type": "string"
        }
      ],
      "stateMutability": "view",
      "type": "function"
    },
    {
      "inputs": [],
      "name": "pause",
      "outputs": [],
      "stateMutability": "nonpayable",
      "type": "function"
    },
    {
      "inputs": [],
      "name": "paused",
      "outputs": [
        {
          "internalType": "bool",
          "name": "",
          "type": "bool"
        }
      ],
      "stateMutability": "view",
      "type": "function"
    },
    {
      "inputs": [],
      "name": "ratioTotal",
      "outputs": [
        {
          "internalType": "uint256",
          "name": "",
          "type": "uint256"
        }
      ],
      "stateMutability": "view",
      "type": "function"
    },
    {
      "inputs": [
        {
          "internalType": "address",
          "name": "",
          "type": "address"
        }
      ],
      "name": "ratios",
      "outputs": [
        {
          "internalType": "uint256",
          "name": "",
          "type": "uint256"
        }
      ],
      "stateMutability": "view",
      "type": "function"
    },
    {
      "inputs": [
        {
          "internalType": "address",
          "name": "core_",
          "type": "address"
        }
      ],
      "name": "setCore",
      "outputs": [],
      "stateMutability": "nonpayable",
      "type": "function"
    },
    {
      "inputs": [
        {
          "internalType": "uint256",
          "name": "_shares",
          "type": "uint256"
        }
      ],
      "name": "sharesToAmount",
      "outputs": [
        {
          "internalType": "uint256",
          "name": "",
          "type": "uint256"
        }
      ],
      "stateMutability": "view",
      "type": "function"
    },
    {
      "inputs": [
        {
          "internalType": "uint256",
          "name": "",
          "type": "uint256"
        }
      ],
      "name": "strategies",
      "outputs": [
        {
          "internalType": "address",
          "name": "",
          "type": "address"
        }
      ],
      "stateMutability": "view",
      "type": "function"
    },
    {
      "inputs": [],
      "name": "strategyCount",
      "outputs": [
        {
          "internalType": "uint256",
          "name": "",
          "type": "uint256"
        }
      ],
      "stateMutability": "view",
      "type": "function"
    },
    {
      "inputs": [],
      "name": "symbol",
      "outputs": [
        {
          "internalType": "string",
          "name": "",
          "type": "string"
        }
      ],
      "stateMutability": "view",
      "type": "function"
    },
    {
      "inputs": [],
      "name": "token",
      "outputs": [
        {
          "internalType": "address",
          "name": "",
          "type": "address"
        }
      ],
      "stateMutability": "view",
      "type": "function"
    },
    {
      "inputs": [],
      "name": "totalSupply",
      "outputs": [
        {
          "internalType": "uint256",
          "name": "",
          "type": "uint256"
        }
      ],
      "stateMutability": "view",
      "type": "function"
    },
    {
      "inputs": [
        {
          "internalType": "address",
          "name": "recipient",
          "type": "address"
        },
        {
          "internalType": "uint256",
          "name": "amount",
          "type": "uint256"
        }
      ],
      "name": "transfer",
      "outputs": [
        {
          "internalType": "bool",
          "name": "",
          "type": "bool"
        }
      ],
      "stateMutability": "nonpayable",
      "type": "function"
    },
    {
      "inputs": [
        {
          "internalType": "address",
          "name": "sender",
          "type": "address"
        },
        {
          "internalType": "address",
          "name": "recipient",
          "type": "address"
        },
        {
          "internalType": "uint256",
          "name": "amount",
          "type": "uint256"
        }
      ],
      "name": "transferFrom",
      "outputs": [
        {
          "internalType": "bool",
          "name": "",
          "type": "bool"
        }
      ],
      "stateMutability": "nonpayable",
      "type": "function"
    },
    {
      "inputs": [],
      "name": "unpause",
      "outputs": [],
      "stateMutability": "nonpayable",
      "type": "function"
    },
    {
      "inputs": [],
      "name": "updateAllStrategies",
      "outputs": [],
      "stateMutability": "nonpayable",
      "type": "function"
    },
    {
      "inputs": [
        {
          "internalType": "uint256",
          "name": "_shares",
          "type": "uint256"
        },
        {
          "internalType": "uint256",
          "name": "_minAmount",
          "type": "uint256"
        }
      ],
      "name": "withdraw",
      "outputs": [],
      "stateMutability": "nonpayable",
      "type": "function"
    }
  ],
  "bytecode": "0x60806040523480156200001157600080fd5b506040516200398938038062003989833981810160405260c08110156200003757600080fd5b8151602083018051604051929492938301929190846401000000008211156200005f57600080fd5b9083019060208201858111156200007557600080fd5b82516401000000008111828201881017156200009057600080fd5b82525081516020918201929091019080838360005b83811015620000bf578181015183820152602001620000a5565b50505050905090810190601f168015620000ed5780820380516001836020036101000a031916815260200191505b50604052602001805160405193929190846401000000008211156200011157600080fd5b9083019060208201858111156200012757600080fd5b82516401000000008111828201881017156200014257600080fd5b82525081516020918201929091019080838360005b838110156200017157818101518382015260200162000157565b50505050905090810190601f1680156200019f5780820380516001836020036101000a031916815260200191505b50604081815260208301519201805192949193919284640100000000821115620001c857600080fd5b908301906020820185811115620001de57600080fd5b8251866020820283011164010000000082111715620001fc57600080fd5b82525081516020918201928201910280838360005b838110156200022b57818101518382015260200162000211565b50505050905001604052602001805160405193929190846401000000008211156200025557600080fd5b9083019060208201858111156200026b57600080fd5b82518660208202830111640100000000821117156200028957600080fd5b82525081516020918201928201910280838360005b83811015620002b85781810151838201526020016200029e565b505050509050016040525050508585858160039080519060200190620002e0929190620009bf565b508051620002f6906004906020840190620009bf565b50506005805460ff19166012179055506001600655600780546001600160a01b03909216610100026001600160a81b0319909216919091179055805182511462000379576040805162461bcd60e51b815260206004820152600f60248201526e0c2e4e4c2f240dcdee840dac2e8c6d608b1b604482015290519081900360640190fd5b620003f7836001600160a01b031663313ce5676040518163ffffffff1660e01b815260040160206040518083038186803b158015620003b757600080fd5b505afa158015620003cc573d6000803e3d6000fd5b505050506040513d6020811015620003e357600080fd5b5051620004d8602090811b6200181817901c565b600880546001600160a01b0319166001600160a01b03851617905581516200042790600990602085019062000a44565b5060005b600954811015620004c1578181815181106200044357fe5b6020026020010151600a6000600984815481106200045d57fe5b60009182526020808320909101546001600160a01b031683528201929092526040019020558151620004b5908390839081106200049657fe5b6020026020010151600b54620004ee60201b6200184c1790919060201c565b600b556001016200042b565b50620004cc62000550565b50505050505062000ae2565b6005805460ff191660ff92909216919091179055565b60008282018381101562000549576040805162461bcd60e51b815260206004820152601b60248201527f536166654d6174683a206164646974696f6e206f766572666c6f770000000000604482015290519081900360640190fd5b9392505050565b60005b600954811015620005ab57620005a2600982815481106200057057fe5b600091825260209182902001546008546001600160a01b039081169291169060001990620018a6620005ae821b17901c565b60010162000553565b50565b80158062000638575060408051636eb1769f60e11b81523060048201526001600160a01b03848116602483015291519185169163dd62ed3e91604480820192602092909190829003018186803b1580156200060857600080fd5b505afa1580156200061d573d6000803e3d6000fd5b505050506040513d60208110156200063457600080fd5b5051155b620006755760405162461bcd60e51b8152600401808060200182810382526036815260200180620039536036913960400191505060405180910390fd5b604080516001600160a01b038416602482015260448082018490528251808303909101815260649091019091526020810180516001600160e01b0390811663095ea7b360e01b17909152620006cd918591620006d216565b505050565b60606200072e826040518060400160405280602081526020017f5361666545524332303a206c6f772d6c6576656c2063616c6c206661696c6564815250856001600160a01b03166200078e60201b62001a00179092919060201c565b805190915015620006cd578080602001905160208110156200074f57600080fd5b5051620006cd5760405162461bcd60e51b815260040180806020018281038252602a81526020018062003929602a913960400191505060405180910390fd5b60606200079f8484600085620007a7565b949350505050565b606082471015620007ea5760405162461bcd60e51b8152600401808060200182810382526026815260200180620039036026913960400191505060405180910390fd5b620007f5856200090f565b62000847576040805162461bcd60e51b815260206004820152601d60248201527f416464726573733a2063616c6c20746f206e6f6e2d636f6e7472616374000000604482015290519081900360640190fd5b60006060866001600160a01b031685876040518082805190602001908083835b60208310620008885780518252601f19909201916020918201910162000867565b6001836020036101000a03801982511681845116808217855250505050505090500191505060006040518083038185875af1925050503d8060008114620008ec576040519150601f19603f3d011682016040523d82523d6000602084013e620008f1565b606091505b5090925090506200090482828662000915565b979650505050505050565b3b151590565b606083156200092657508162000549565b825115620009375782518084602001fd5b8160405162461bcd60e51b81526004018080602001828103825283818151815260200191508051906020019080838360005b838110156200098357818101518382015260200162000969565b50505050905090810190601f168015620009b15780820380516001836020036101000a031916815260200191505b509250505060405180910390fd5b828054600181600116156101000203166002900490600052602060002090601f016020900481019282601f1062000a0257805160ff191683800117855562000a32565b8280016001018555821562000a32579182015b8281111562000a3257825182559160200191906001019062000a15565b5062000a4092915062000aaa565b5090565b82805482825590600052602060002090810192821562000a9c579160200282015b8281111562000a9c57825182546001600160a01b0319166001600160a01b0390911617825560209092019160019091019062000a65565b5062000a4092915062000ac1565b5b8082111562000a40576000815560010162000aab565b5b8082111562000a405780546001600160a01b031916815560010162000ac2565b612e118062000af26000396000f3fe608060405234801561001057600080fd5b50600436106102415760003560e01c806367206d4011610145578063a9059cbb116100bd578063dd62ed3e1161008c578063f288a2e211610071578063f288a2e21461062f578063f2f4eb2614610637578063fc0c546a1461063f57610241565b8063dd62ed3e146105de578063e2bbb1581461060c57610241565b8063a9059cbb14610554578063b69ef8a814610580578063b811540e14610588578063d574ea3d146105a557610241565b8063800096301161011457806395d89b41116100f957806395d89b411461051857806399b71d5c14610520578063a457c2d71461052857610241565b806380009630146104ea5780638456cb591461051057610241565b806367206d401461047e57806370a08231146104b45780637137ef99146104da57806377c7b8fc146104e257610241565b806339509351116101d8578063555d8ebb116101a75780635c975abb1161018c5780635c975abb146104485780635ed14a6d1461045057806363610d851461047657610241565b8063555d8ebb146104235780635af2ad0a1461044057610241565b806339509351146103a75780633f4ba83a146103d3578063441a3e70146103dd5780634d1387b41461040057610241565b806322068b441161021457806322068b441461032557806323b872dd1461032d57806324c71ece14610363578063313ce5671461038957610241565b806306fdde0314610246578063095ea7b3146102c357806318160ddd146103035780631bf7940d1461031d575b600080fd5b61024e610647565b6040805160208082528351818301528351919283929083019185019080838360005b83811015610288578181015183820152602001610270565b50505050905090810190601f1680156102b55780820380516001836020036101000a031916815260200191505b509250505060405180910390f35b6102ef600480360360408110156102d957600080fd5b506001600160a01b0381351690602001356106fb565b604080519115158252519081900360200190f35b61030b610719565b60408051918252519081900360200190f35b61030b61071f565b61030b610725565b6102ef6004803603606081101561034357600080fd5b506001600160a01b0381358116916020810135909116906040013561072b565b61030b6004803603602081101561037957600080fd5b50356001600160a01b03166107b3565b6103916107c5565b6040805160ff9092168252519081900360200190f35b6102ef600480360360408110156103bd57600080fd5b506001600160a01b0381351690602001356107ce565b6103db61081c565b005b6103db600480360360408110156103f357600080fd5b5080359060200135610990565b6103db6004803603604081101561041657600080fd5b50803590602001356109bb565b61030b6004803603602081101561043957600080fd5b5035610c18565b61030b610c3d565b6102ef610c8d565b61030b6004803603602081101561046657600080fd5b50356001600160a01b0316610c96565b6103db610ec0565b6103db6004803603606081101561049457600080fd5b506001600160a01b03813581169160208101359160409091013516610f62565b61030b600480360360208110156104ca57600080fd5b50356001600160a01b03166111ca565b61030b6111e5565b61030b6111f4565b6103db6004803603602081101561050057600080fd5b50356001600160a01b0316611224565b6103db61135c565b61024e6114ce565b6103db61154d565b6102ef6004803603604081101561053e57600080fd5b506001600160a01b0381351690602001356115b4565b6102ef6004803603604081101561056a57600080fd5b506001600160a01b03813516906020013561161c565b61030b611630565b61030b6004803603602081101561059e57600080fd5b50356116c5565b6105c2600480360360208110156105bb57600080fd5b5035611707565b604080516001600160a01b039092168252519081900360200190f35b61030b600480360360408110156105f457600080fd5b506001600160a01b038135811691602001351661172e565b6103db6004803603604081101561062257600080fd5b5080359060200135611759565b61030b6117d1565b6105c26117f5565b6105c2611809565b60038054604080516020601f60027fffffffffffffffffffffffffffffffffffffffffffffffffffffffffffffffff6101006001881615020190951694909404938401819004810282018101909252828152606093909290918301828280156106f15780601f106106c6576101008083540402835291602001916106f1565b820191906000526020600020905b8154815290600101906020018083116106d457829003601f168201915b5050505050905090565b600061070f610708611a17565b8484611a1b565b5060015b92915050565b60025490565b600b5481565b60095490565b6000610738848484611b07565b6107a884610744611a17565b6107a385604051806060016040528060288152602001612c51602891396001600160a01b038a16600090815260016020526040812090610782611a17565b6001600160a01b031681526020810191909152604001600020549190611c62565b611a1b565b5060015b9392505050565b600a6020526000908152604090205481565b60055460ff1690565b600061070f6107db611a17565b846107a385600160006107ec611a17565b6001600160a01b03908116825260208083019390935260409182016000908120918c16815292529020549061184c565b600754604080517fe43581b800000000000000000000000000000000000000000000000000000000815233600482015290516101009092046001600160a01b03169163e43581b891602480820192602092909190829003018186803b15801561088457600080fd5b505afa158015610898573d6000803e3d6000fd5b505050506040513d60208110156108ae57600080fd5b50518061094b5750600754604080517f0c68ba2100000000000000000000000000000000000000000000000000000000815233600482015290516101009092046001600160a01b031691630c68ba2191602480820192602092909190829003018186803b15801561091e57600080fd5b505afa158015610932573d6000803e3d6000fd5b505050506040513d602081101561094857600080fd5b50515b6109865760405162461bcd60e51b8152600401808060200182810382526045815260200180612c796045913960600191505060405180910390fd5b61098e611cf9565b565b600061099c8383611dc0565b6008549091506109b6906001600160a01b031633836120d4565b505050565b600754604080517f91d148540000000000000000000000000000000000000000000000000000000081527ff66846415d2bf9eabda9e84793ff9c0ea96d87f50fc41e66aa16469c6a442f05600482015233602482015290516101009092046001600160a01b0316916391d1485491604480820192602092909190829003018186803b158015610a4957600080fd5b505afa158015610a5d573d6000803e3d6000fd5b505050506040513d6020811015610a7357600080fd5b5051610ab05760405162461bcd60e51b815260040180806020018281038252602f815260200180612cbe602f913960400191505060405180910390fd5b6009548210610b06576040805162461bcd60e51b815260206004820152600d60248201527f696e76616c696420696e64657800000000000000000000000000000000000000604482015290519081900360640190fd5b6000600a600060098581548110610b1957fe5b9060005260206000200160009054906101000a90046001600160a01b03166001600160a01b03166001600160a01b0316815260200190815260200160002054905081600a600060098681548110610b6c57fe5b60009182526020808320909101546001600160a01b03168352820192909252604001902055600b54610baa908390610ba49084612154565b9061184c565b600b819055507f2366bd948623127f6005a8ce44e6e0b2ed41542181a49dd8b995633361585aae60098481548110610bde57fe5b60009182526020918290200154604080516001600160a01b03909216825291810184905280820185905290519081900360600190a1505050565b6000610713610c25610719565b610c37610c306111e5565b85906121b1565b9061220a565b6000805b600954811015610c8957610c7f610c7860098381548110610c5e57fe5b6000918252602090912001546001600160a01b0316610c96565b839061184c565b9150600101610c41565b5090565b60075460ff1690565b604080517f70a08231000000000000000000000000000000000000000000000000000000008152306004820152905160009183916001600160a01b038316916370a08231916024808301926020929190829003018186803b158015610cfa57600080fd5b505afa158015610d0e573d6000803e3d6000fd5b505050506040513d6020811015610d2457600080fd5b505115610eb557610eae816001600160a01b03166318160ddd6040518163ffffffff1660e01b815260040160206040518083038186803b158015610d6757600080fd5b505afa158015610d7b573d6000803e3d6000fd5b505050506040513d6020811015610d9157600080fd5b5051604080517f70a082310000000000000000000000000000000000000000000000000000000081523060048201529051610c37916001600160a01b038616916370a0823191602480820192602092909190829003018186803b158015610df757600080fd5b505afa158015610e0b573d6000803e3d6000fd5b505050506040513d6020811015610e2157600080fd5b5051604080517f7137ef9900000000000000000000000000000000000000000000000000000000815290516001600160a01b03871691637137ef99916004808301926020929190829003018186803b158015610e7c57600080fd5b505afa158015610e90573d6000803e3d6000fd5b505050506040513d6020811015610ea657600080fd5b5051906121b1565b9150610eba565b600091505b50919050565b60005b600954811015610f5f5760098181548110610eda57fe5b6000918252602082200154604080517f2fddd91300000000000000000000000000000000000000000000000000000000815290516001600160a01b0390921692632fddd9139260048084019382900301818387803b158015610f3b57600080fd5b505af1158015610f4f573d6000803e3d6000fd5b505060019092019150610ec39050565b50565b600754604080517f91d148540000000000000000000000000000000000000000000000000000000081527ff66846415d2bf9eabda9e84793ff9c0ea96d87f50fc41e66aa16469c6a442f05600482015233602482015290516101009092046001600160a01b0316916391d1485491604480820192602092909190829003018186803b158015610ff057600080fd5b505afa158015611004573d6000803e3d6000fd5b505050506040513d602081101561101a57600080fd5b50516110575760405162461bcd60e51b815260040180806020018281038252602f815260200180612cbe602f913960400191505060405180910390fd5b6001600160a01b0383163014156110b5576040805162461bcd60e51b815260206004820152600560248201527f2173616665000000000000000000000000000000000000000000000000000000604482015290519081900360640190fd5b60005b60095481101561114357600981815481106110cf57fe5b6000918252602090912001546001600160a01b038581169116141561113b576040805162461bcd60e51b815260206004820152600560248201527f2173616665000000000000000000000000000000000000000000000000000000604482015290519081900360640190fd5b6001016110b8565b506008546001600160a01b03848116911614156111b65781611163611630565b10156111b6576040805162461bcd60e51b815260206004820152601b60248201527f616d6f756e742067726561746572207468616e20686f6c64696e670000000000604482015290519081900360640190fd5b6109b66001600160a01b03841682846120d4565b6001600160a01b031660009081526020819052604090205490565b60006111ef610c3d565b905090565b6000806111ff6111e5565b905061121e61120c610719565b610c3783670de0b6b3a76400006121b1565b91505090565b600754604080517fe43581b800000000000000000000000000000000000000000000000000000000815233600482015290516101009092046001600160a01b03169163e43581b891602480820192602092909190829003018186803b15801561128c57600080fd5b505afa1580156112a0573d6000803e3d6000fd5b505050506040513d60208110156112b657600080fd5b50516112f35760405162461bcd60e51b815260040180806020018281038252602f815260200180612b91602f913960400191505060405180910390fd5b600780547fffffffffffffffffffffff0000000000000000000000000000000000000000ff166101006001600160a01b038416908102919091179091556040517fad9400e618eb1344fde53db22397a1b82c765527ecbba3a5c86bcac15090828b90600090a250565b600754604080517fe43581b800000000000000000000000000000000000000000000000000000000815233600482015290516101009092046001600160a01b03169163e43581b891602480820192602092909190829003018186803b1580156113c457600080fd5b505afa1580156113d8573d6000803e3d6000fd5b505050506040513d60208110156113ee57600080fd5b50518061148b5750600754604080517f0c68ba2100000000000000000000000000000000000000000000000000000000815233600482015290516101009092046001600160a01b031691630c68ba2191602480820192602092909190829003018186803b15801561145e57600080fd5b505afa158015611472573d6000803e3d6000fd5b505050506040513d602081101561148857600080fd5b50515b6114c65760405162461bcd60e51b8152600401808060200182810382526045815260200180612c796045913960600191505060405180910390fd5b61098e612271565b60048054604080516020601f60027fffffffffffffffffffffffffffffffffffffffffffffffffffffffffffffffff6101006001881615020190951694909404938401819004810282018101909252828152606093909290918301828280156106f15780601f106106c6576101008083540402835291602001916106f1565b60005b600954811015610f5f576115ac6009828154811061156a57fe5b6000918252602090912001546008546001600160a01b0390811691167fffffffffffffffffffffffffffffffffffffffffffffffffffffffffffffffff6118a6565b600101611550565b600061070f6115c1611a17565b846107a385604051806060016040528060258152602001612db760259139600160006115eb611a17565b6001600160a01b03908116825260208083019390935260409182016000908120918d16815292529020549190611c62565b600061070f611629611a17565b8484611b07565b600854604080517f70a0823100000000000000000000000000000000000000000000000000000000815230600482015290516000926001600160a01b0316916370a08231916024808301926020929190829003018186803b15801561169457600080fd5b505afa1580156116a8573d6000803e3d6000fd5b505050506040513d60208110156116be57600080fd5b5051905090565b6000806116d06111e5565b90506116da610719565b15806116e4575080155b156116f157829150610eba565b6107ac81610c37611700610719565b86906121b1565b6009818154811061171457fe5b6000918252602090912001546001600160a01b0316905081565b6001600160a01b03918216600090815260016020908152604080832093909416825291909152205490565b816117ab576040805162461bcd60e51b815260206004820152601e60248201527f6465706f736974206d7573742062652067726561746572207468616e20300000604482015290519081900360640190fd5b6008546117c3906001600160a01b031633308561231f565b6117cd82826123ad565b5050565b7ff66846415d2bf9eabda9e84793ff9c0ea96d87f50fc41e66aa16469c6a442f0581565b60075461010090046001600160a01b031690565b6008546001600160a01b031681565b600580547fffffffffffffffffffffffffffffffffffffffffffffffffffffffffffffff001660ff92909216919091179055565b6000828201838110156107ac576040805162461bcd60e51b815260206004820152601b60248201527f536166654d6174683a206164646974696f6e206f766572666c6f770000000000604482015290519081900360640190fd5b8015806119455750604080517fdd62ed3e0000000000000000000000000000000000000000000000000000000081523060048201526001600160a01b03848116602483015291519185169163dd62ed3e91604480820192602092909190829003018186803b15801561191757600080fd5b505afa15801561192b573d6000803e3d6000fd5b505050506040513d602081101561194157600080fd5b5051155b6119805760405162461bcd60e51b8152600401808060200182810382526036815260200180612d816036913960400191505060405180910390fd5b604080516001600160a01b038416602482015260448082018490528251808303909101815260649091019091526020810180517bffffffffffffffffffffffffffffffffffffffffffffffffffffffff167f095ea7b3000000000000000000000000000000000000000000000000000000001790526109b6908490612680565b6060611a0f8484600085612731565b949350505050565b3390565b6001600160a01b038316611a605760405162461bcd60e51b8152600401808060200182810382526024815260200180612d336024913960400191505060405180910390fd5b6001600160a01b038216611aa55760405162461bcd60e51b8152600401808060200182810382526022815260200180612b496022913960400191505060405180910390fd5b6001600160a01b03808416600081815260016020908152604080832094871680845294825291829020859055815185815291517f8c5be1e5ebec7d5bd14f71427d1e84f3dd0314c0f7b2291e5b200ac8c7c3b9259281900390910190a3505050565b6001600160a01b038316611b4c5760405162461bcd60e51b8152600401808060200182810382526025815260200180612d0e6025913960400191505060405180910390fd5b6001600160a01b038216611b915760405162461bcd60e51b8152600401808060200182810382526023815260200180612b046023913960400191505060405180910390fd5b611b9c8383836109b6565b611bd981604051806060016040528060268152602001612b6b602691396001600160a01b0386166000908152602081905260409020549190611c62565b6001600160a01b038085166000908152602081905260408082209390935590841681522054611c08908261184c565b6001600160a01b038084166000818152602081815260409182902094909455805185815290519193928716927fddf252ad1be2c89b69c2b068fc378daa952ba7f163c4a11628f55a4df523b3ef92918290030190a3505050565b60008184841115611cf15760405162461bcd60e51b81526004018080602001828103825283818151815260200191508051906020019080838360005b83811015611cb6578181015183820152602001611c9e565b50505050905090810190601f168015611ce35780820380516001836020036101000a031916815260200191505b509250505060405180910390fd5b505050900390565b611d01610c8d565b611d52576040805162461bcd60e51b815260206004820152601460248201527f5061757361626c653a206e6f7420706175736564000000000000000000000000604482015290519081900360640190fd5b600780547fffffffffffffffffffffffffffffffffffffffffffffffffffffffffffffff001690557f5db9ee0a495bf2e6ff9c91a7834c1ba4fdd244a5e8aa4e537bd38aeae4b073aa611da3611a17565b604080516001600160a01b039092168252519081900360200190a1565b600060026006541415611e1a576040805162461bcd60e51b815260206004820152601f60248201527f5265656e7472616e637947756172643a207265656e7472616e742063616c6c00604482015290519081900360640190fd5b600260065582611e71576040805162461bcd60e51b815260206004820152601d60248201527f736861726573206d7573742062652067726561746572207468616e2030000000604482015290519081900360640190fd5b6000611e7c336111ca565b905080841115611ed3576040805162461bcd60e51b815260206004820152601460248201527f696e73756666696369656e742062616c616e6365000000000000000000000000604482015290519081900360640190fd5b611edb610ec0565b6000611ee5611630565b905060005b60095481101561201d576000611f7a611f01610719565b610c378960098681548110611f1257fe5b60009182526020918290200154604080517f70a0823100000000000000000000000000000000000000000000000000000000815230600482015290516001600160a01b03909216926370a0823192602480840193829003018186803b158015610e7c57600080fd5b905060098281548110611f8957fe5b6000918252602082200154604080517f441a3e70000000000000000000000000000000000000000000000000000000008152600481018590526024810184905290516001600160a01b039092169263441a3e709260448084019382900301818387803b158015611ff857600080fd5b505af115801561200c573d6000803e3d6000fd5b505060019093019250611eea915050565b506120308161202a611630565b90612154565b9050838110156120715760405162461bcd60e51b8152600401808060200182810382526025815260200180612be66025913960400191505060405180910390fd5b61207b33866128ab565b600854604080516001600160a01b03909216825260208201839052818101879052517ff279e6a1f5e320cca91135676d9cb6e44ca8a08c0b88342bcdb1144f6511b5689181900360600190a16001600655949350505050565b604080516001600160a01b038416602482015260448082018490528251808303909101815260649091019091526020810180517bffffffffffffffffffffffffffffffffffffffffffffffffffffffff167fa9059cbb000000000000000000000000000000000000000000000000000000001790526109b6908490612680565b6000828211156121ab576040805162461bcd60e51b815260206004820152601e60248201527f536166654d6174683a207375627472616374696f6e206f766572666c6f770000604482015290519081900360640190fd5b50900390565b6000826121c057506000610713565b828202828482816121cd57fe5b04146107ac5760405162461bcd60e51b8152600401808060200182810382526021815260200180612c0b6021913960400191505060405180910390fd5b6000808211612260576040805162461bcd60e51b815260206004820152601a60248201527f536166654d6174683a206469766973696f6e206279207a65726f000000000000604482015290519081900360640190fd5b81838161226957fe5b049392505050565b612279610c8d565b156122cb576040805162461bcd60e51b815260206004820152601060248201527f5061757361626c653a2070617573656400000000000000000000000000000000604482015290519081900360640190fd5b600780547fffffffffffffffffffffffffffffffffffffffffffffffffffffffffffffff001660011790557f62e78cea01bee320cd4e420270b5ea74000d11b0c9f74754ebdbfc544b05a258611da3611a17565b604080516001600160a01b0380861660248301528416604482015260648082018490528251808303909101815260849091019091526020810180517bffffffffffffffffffffffffffffffffffffffffffffffffffffffff167f23b872dd000000000000000000000000000000000000000000000000000000001790526123a7908590612680565b50505050565b60026006541415612405576040805162461bcd60e51b815260206004820152601f60248201527f5265656e7472616e637947756172643a207265656e7472616e742063616c6c00604482015290519081900360640190fd5b6002600655612412610ec0565b600061241c6111e5565b905060005b60095481101561259c576000612473600b54610c37600a60006009878154811061244757fe5b60009182526020808320909101546001600160a01b0316835282019290925260400190205488906121b1565b90506009828154811061248257fe5b6000918252602082200154604080517fe2bbb158000000000000000000000000000000000000000000000000000000008152600481018590526024810184905290516001600160a01b039092169263e2bbb1589260448084019382900301818387803b1580156124f157600080fd5b505af1158015612505573d6000803e3d6000fd5b505050506009828154811061251657fe5b6000918252602082200154604080517fb233f04800000000000000000000000000000000000000000000000000000000815290516001600160a01b039092169263b233f0489260048084019382900301818387803b15801561257757600080fd5b505af115801561258b573d6000803e3d6000fd5b505060019093019250612421915050565b5060006125ab8261202a6111e5565b90506125b5610719565b158015906125c257508115155b156125e0576125dd82610c376125d6610719565b84906121b1565b90505b8281101561261f5760405162461bcd60e51b8152600401808060200182810382526025815260200180612c2c6025913960400191505060405180910390fd5b61262933826129a7565b600854604080516001600160a01b03909216825260208201869052818101839052517f90890809c654f11d6e72a28fa60149770a0d11ec6c92319d6ceb2bb0a4ea1a159181900360600190a1505060016006555050565b60606126d5826040518060400160405280602081526020017f5361666545524332303a206c6f772d6c6576656c2063616c6c206661696c6564815250856001600160a01b0316611a009092919063ffffffff16565b8051909150156109b6578080602001905160208110156126f457600080fd5b50516109b65760405162461bcd60e51b815260040180806020018281038252602a815260200180612d57602a913960400191505060405180910390fd5b6060824710156127725760405162461bcd60e51b8152600401808060200182810382526026815260200180612bc06026913960400191505060405180910390fd5b61277b85612a97565b6127cc576040805162461bcd60e51b815260206004820152601d60248201527f416464726573733a2063616c6c20746f206e6f6e2d636f6e7472616374000000604482015290519081900360640190fd5b60006060866001600160a01b031685876040518082805190602001908083835b6020831061282957805182527fffffffffffffffffffffffffffffffffffffffffffffffffffffffffffffffe090920191602091820191016127ec565b6001836020036101000a03801982511681845116808217855250505050505090500191505060006040518083038185875af1925050503d806000811461288b576040519150601f19603f3d011682016040523d82523d6000602084013e612890565b606091505b50915091506128a0828286612a9d565b979650505050505050565b6001600160a01b0382166128f05760405162461bcd60e51b8152600401808060200182810382526021815260200180612ced6021913960400191505060405180910390fd5b6128fc826000836109b6565b61293981604051806060016040528060228152602001612b27602291396001600160a01b0385166000908152602081905260409020549190611c62565b6001600160a01b03831660009081526020819052604090205560025461295f9082612154565b6002556040805182815290516000916001600160a01b038516917fddf252ad1be2c89b69c2b068fc378daa952ba7f163c4a11628f55a4df523b3ef9181900360200190a35050565b6001600160a01b038216612a02576040805162461bcd60e51b815260206004820152601f60248201527f45524332303a206d696e7420746f20746865207a65726f206164647265737300604482015290519081900360640190fd5b612a0e600083836109b6565b600254612a1b908261184c565b6002556001600160a01b038216600090815260208190526040902054612a41908261184c565b6001600160a01b0383166000818152602081815260408083209490945583518581529351929391927fddf252ad1be2c89b69c2b068fc378daa952ba7f163c4a11628f55a4df523b3ef9281900390910190a35050565b3b151590565b60608315612aac5750816107ac565b825115612abc5782518084602001fd5b60405162461bcd60e51b8152602060048201818152845160248401528451859391928392604401919085019080838360008315611cb6578181015183820152602001611c9e56fe45524332303a207472616e7366657220746f20746865207a65726f206164647265737345524332303a206275726e20616d6f756e7420657863656564732062616c616e636545524332303a20617070726f766520746f20746865207a65726f206164647265737345524332303a207472616e7366657220616d6f756e7420657863656564732062616c616e6365436f72655265663a3a6f6e6c79476f7665726e6f723a2043616c6c6572206973206e6f74206120676f7665726e6f72416464726573733a20696e73756666696369656e742062616c616e636520666f722063616c6c646964206e6f74206d656574206d696e696d756d20616d6f756e7420726571756573746564536166654d6174683a206d756c7469706c69636174696f6e206f766572666c6f77646964206e6f74206d656574206d696e696d756d207368617265732072657175657374656445524332303a207472616e7366657220616d6f756e74206578636565647320616c6c6f77616e6365436f72655265663a3a6f6e6c79477561726469616e4f72476f7665726e6f723a2043616c6c6572206973206e6f74206120677561726469616e206f7220676f7665726e6f72436f72655265663a3a6f6e6c7954696d656c6f636b3a2043616c6c6572206973206e6f7420612074696d656c6f636b45524332303a206275726e2066726f6d20746865207a65726f206164647265737345524332303a207472616e736665722066726f6d20746865207a65726f206164647265737345524332303a20617070726f76652066726f6d20746865207a65726f20616464726573735361666545524332303a204552433230206f7065726174696f6e20646964206e6f7420737563636565645361666545524332303a20617070726f76652066726f6d206e6f6e2d7a65726f20746f206e6f6e2d7a65726f20616c6c6f77616e636545524332303a2064656372656173656420616c6c6f77616e63652062656c6f77207a65726fa26469706673582212208cadc22ca16bd8a0b836ddf6c12be3f7dc9698c544e76aa93c1cda4774ed4d3464736f6c634300060c0033416464726573733a20696e73756666696369656e742062616c616e636520666f722063616c6c5361666545524332303a204552433230206f7065726174696f6e20646964206e6f7420737563636565645361666545524332303a20617070726f76652066726f6d206e6f6e2d7a65726f20746f206e6f6e2d7a65726f20616c6c6f77616e6365",
  "linkReferences": {},
  "deployedLinkReferences": {}
}