{
  "_format": "hh-sol-artifact-1",
  "contractName": "MultiStrategyToken",
  "sourceName": "contracts/strategy/MultiStrategyToke.sol",
  "abi": [
    {
      "inputs": [
        {
          "internalType": "address",
          "name": "_core",
          "type": "address"
        },
        {
          "internalType": "address",
          "name": "_token",
          "type": "address"
        },
        {
          "internalType": "address[]",
          "name": "_strategies",
          "type": "address[]"
        },
        {
          "internalType": "uint256[]",
          "name": "_ratios",
          "type": "uint256[]"
        }
      ],
      "stateMutability": "nonpayable",
      "type": "constructor"
    },
    {
      "anonymous": false,
      "inputs": [
        {
          "indexed": true,
          "internalType": "address",
          "name": "_core",
          "type": "address"
        }
      ],
      "name": "CoreUpdate",
      "type": "event"
    },
    {
      "anonymous": false,
      "inputs": [
        {
          "indexed": false,
          "internalType": "address",
          "name": "account",
          "type": "address"
        }
      ],
      "name": "Paused",
      "type": "event"
    },
    {
      "anonymous": false,
      "inputs": [
        {
          "indexed": false,
          "internalType": "address",
          "name": "strategyAddress",
          "type": "address"
        },
        {
          "indexed": false,
          "internalType": "uint256",
          "name": "ratioBefore",
          "type": "uint256"
        },
        {
          "indexed": false,
          "internalType": "uint256",
          "name": "ratioAfter",
          "type": "uint256"
        }
      ],
      "name": "RatioChanged",
      "type": "event"
    },
    {
      "anonymous": false,
      "inputs": [
        {
          "indexed": false,
          "internalType": "address",
          "name": "account",
          "type": "address"
        }
      ],
      "name": "Unpaused",
      "type": "event"
    },
    {
      "inputs": [],
      "name": "MASTER_ROLE",
      "outputs": [
        {
          "internalType": "bytes32",
          "name": "",
          "type": "bytes32"
        }
      ],
      "stateMutability": "view",
      "type": "function"
    },
    {
      "inputs": [],
      "name": "TIMELOCK_ROLE",
      "outputs": [
        {
          "internalType": "bytes32",
          "name": "",
          "type": "bytes32"
        }
      ],
      "stateMutability": "view",
      "type": "function"
    },
    {
      "inputs": [],
      "name": "approveToken",
      "outputs": [],
      "stateMutability": "nonpayable",
      "type": "function"
    },
    {
      "inputs": [
        {
          "internalType": "uint256",
          "name": "index",
          "type": "uint256"
        },
        {
          "internalType": "uint256",
          "name": "value",
          "type": "uint256"
        }
      ],
      "name": "changeRatio",
      "outputs": [],
      "stateMutability": "nonpayable",
      "type": "function"
    },
    {
      "inputs": [],
      "name": "core",
      "outputs": [
        {
          "internalType": "contract ICore",
          "name": "",
          "type": "address"
        }
      ],
      "stateMutability": "view",
      "type": "function"
    },
    {
      "inputs": [
        {
          "internalType": "uint256",
          "name": "_amount",
          "type": "uint256"
        }
      ],
      "name": "deposit",
      "outputs": [],
      "stateMutability": "nonpayable",
      "type": "function"
    },
    {
      "inputs": [
        {
          "internalType": "address",
          "name": "_token",
          "type": "address"
        },
        {
          "internalType": "uint256",
          "name": "_amount",
          "type": "uint256"
        },
        {
          "internalType": "address",
          "name": "_to",
          "type": "address"
        }
      ],
      "name": "inCaseTokensGetStuck",
      "outputs": [],
      "stateMutability": "nonpayable",
      "type": "function"
    },
    {
      "inputs": [],
      "name": "pause",
      "outputs": [],
      "stateMutability": "nonpayable",
      "type": "function"
    },
    {
      "inputs": [],
      "name": "paused",
      "outputs": [
        {
          "internalType": "bool",
          "name": "",
          "type": "bool"
        }
      ],
      "stateMutability": "view",
      "type": "function"
    },
    {
      "inputs": [],
      "name": "ratioTotal",
      "outputs": [
        {
          "internalType": "uint256",
          "name": "",
          "type": "uint256"
        }
      ],
      "stateMutability": "view",
      "type": "function"
    },
    {
      "inputs": [
        {
          "internalType": "address",
          "name": "",
          "type": "address"
        }
      ],
      "name": "ratios",
      "outputs": [
        {
          "internalType": "uint256",
          "name": "",
          "type": "uint256"
        }
      ],
      "stateMutability": "view",
      "type": "function"
    },
    {
      "inputs": [
        {
          "internalType": "address",
          "name": "core_",
          "type": "address"
        }
      ],
      "name": "setCore",
      "outputs": [],
      "stateMutability": "nonpayable",
      "type": "function"
    },
    {
      "inputs": [
        {
          "internalType": "uint256",
          "name": "",
          "type": "uint256"
        }
      ],
      "name": "strategies",
      "outputs": [
        {
          "internalType": "address",
          "name": "",
          "type": "address"
        }
      ],
      "stateMutability": "view",
      "type": "function"
    },
    {
      "inputs": [],
      "name": "strategyCount",
      "outputs": [
        {
          "internalType": "uint256",
          "name": "",
          "type": "uint256"
        }
      ],
      "stateMutability": "view",
      "type": "function"
    },
    {
      "inputs": [],
      "name": "token",
      "outputs": [
        {
          "internalType": "address",
          "name": "",
          "type": "address"
        }
      ],
      "stateMutability": "view",
      "type": "function"
    },
    {
      "inputs": [],
      "name": "unpause",
      "outputs": [],
      "stateMutability": "nonpayable",
      "type": "function"
    },
    {
      "inputs": [],
      "name": "updateAllStrategies",
      "outputs": [],
      "stateMutability": "nonpayable",
      "type": "function"
    },
    {
      "inputs": [],
      "name": "withdraw",
      "outputs": [],
      "stateMutability": "nonpayable",
      "type": "function"
    }
  ],
  "bytecode": "0x60806040523480156200001157600080fd5b506040516200255d3803806200255d833981810160405260808110156200003757600080fd5b815160208301516040808501805191519395929483019291846401000000008211156200006357600080fd5b9083019060208201858111156200007957600080fd5b82518660208202830111640100000000821117156200009757600080fd5b82525081516020918201928201910280838360005b83811015620000c6578181015183820152602001620000ac565b5050505090500160405260200180516040519392919084640100000000821115620000f057600080fd5b9083019060208201858111156200010657600080fd5b82518660208202830111640100000000821117156200012457600080fd5b82525081516020918201928201910280838360005b838110156200015357818101518382015260200162000139565b505050509190910160405250506001600081905580546001600160a81b0319166101006001600160a01b0389160217905550508051825114620001cf576040805162461bcd60e51b815260206004820152600f60248201526e0c2e4e4c2f240dcdee840dac2e8c6d608b1b604482015290519081900360640190fd5b600280546001600160a01b0319166001600160a01b0385161790558151620001ff9060039060208501906200077f565b5060005b60035481101562000299578181815181106200021b57fe5b602002602001015160046000600384815481106200023557fe5b60009182526020808320909101546001600160a01b0316835282019290925260400190205581516200028d908390839081106200026e57fe5b6020026020010151600554620002ae60201b6200111e1790919060201c565b60055560010162000203565b50620002a462000310565b505050506200080a565b60008282018381101562000309576040805162461bcd60e51b815260206004820152601b60248201527f536166654d6174683a206164646974696f6e206f766572666c6f770000000000604482015290519081900360640190fd5b9392505050565b60005b6003548110156200036b5762000362600382815481106200033057fe5b600091825260209182902001546002546001600160a01b039081169291169060001990620011816200036e821b17901c565b60010162000313565b50565b801580620003f8575060408051636eb1769f60e11b81523060048201526001600160a01b03848116602483015291519185169163dd62ed3e91604480820192602092909190829003018186803b158015620003c857600080fd5b505afa158015620003dd573d6000803e3d6000fd5b505050506040513d6020811015620003f457600080fd5b5051155b620004355760405162461bcd60e51b8152600401808060200182810382526036815260200180620025276036913960400191505060405180910390fd5b604080516001600160a01b038416602482015260448082018490528251808303909101815260649091019091526020810180516001600160e01b0390811663095ea7b360e01b179091526200048d9185916200049216565b505050565b6060620004ee826040518060400160405280602081526020017f5361666545524332303a206c6f772d6c6576656c2063616c6c206661696c6564815250856001600160a01b03166200054e60201b620012f5179092919060201c565b8051909150156200048d578080602001905160208110156200050f57600080fd5b50516200048d5760405162461bcd60e51b815260040180806020018281038252602a815260200180620024fd602a913960400191505060405180910390fd5b60606200055f848460008562000567565b949350505050565b606082471015620005aa5760405162461bcd60e51b8152600401808060200182810382526026815260200180620024d76026913960400191505060405180910390fd5b620005b585620006cf565b62000607576040805162461bcd60e51b815260206004820152601d60248201527f416464726573733a2063616c6c20746f206e6f6e2d636f6e7472616374000000604482015290519081900360640190fd5b60006060866001600160a01b031685876040518082805190602001908083835b60208310620006485780518252601f19909201916020918201910162000627565b6001836020036101000a03801982511681845116808217855250505050505090500191505060006040518083038185875af1925050503d8060008114620006ac576040519150601f19603f3d011682016040523d82523d6000602084013e620006b1565b606091505b509092509050620006c4828286620006d5565b979650505050505050565b3b151590565b60608315620006e657508162000309565b825115620006f75782518084602001fd5b8160405162461bcd60e51b81526004018080602001828103825283818151815260200191508051906020019080838360005b838110156200074357818101518382015260200162000729565b50505050905090810190601f168015620007715780820380516001836020036101000a031916815260200191505b509250505060405180910390fd5b828054828255906000526020600020908101928215620007d7579160200282015b82811115620007d757825182546001600160a01b0319166001600160a01b03909116178255602090920191600190910190620007a0565b50620007e5929150620007e9565b5090565b5b80821115620007e55780546001600160a01b0319168155600101620007ea565b611cbd806200081a6000396000f3fe608060405234801561001057600080fd5b50600436106101365760003560e01c806380009630116100b2578063d574ea3d11610081578063f288a2e211610066578063f288a2e2146102da578063f2f4eb26146102e2578063fc0c546a146102ea57610136565b8063d574ea3d1461028c578063dc224863146102d257610136565b8063800096301461022c5780638456cb591461025f57806399b71d5c14610267578063b6b55f251461026f57610136565b80633f4ba83a116101095780635c975abb116100ee5780635c975abb146101c557806363610d85146101e157806367206d40146101e957610136565b80633f4ba83a1461019a5780634d1387b4146101a257610136565b80631bf7940d1461013b57806322068b441461015557806324c71ece1461015d5780633ccfd60b14610190575b600080fd5b6101436102f2565b60408051918252519081900360200190f35b6101436102f8565b6101436004803603602081101561017357600080fd5b503573ffffffffffffffffffffffffffffffffffffffff166102fe565b610198610310565b005b61019861060a565b610198600480360360408110156101b857600080fd5b5080359060200135610798565b6101cd610a43565b604080519115158252519081900360200190f35b610198610a4c565b610198600480360360608110156101ff57600080fd5b5073ffffffffffffffffffffffffffffffffffffffff813581169160208101359160409091013516610afb565b6101986004803603602081101561024257600080fd5b503573ffffffffffffffffffffffffffffffffffffffff16610c93565b610198610de5565b610198610f71565b6101986004803603602081101561028557600080fd5b5035610fe5565b6102a9600480360360208110156102a257600080fd5b5035611065565b6040805173ffffffffffffffffffffffffffffffffffffffff9092168252519081900360200190f35b610143611099565b6101436110bd565b6102a96110e1565b6102a9611102565b60055481565b60035490565b60046020526000908152604090205481565b600154604080517f91d148540000000000000000000000000000000000000000000000000000000081527f8b8c0776df2c2176edf6f82391c35ea4891146d7a976ee36fd07f1a6fb4ead4c6004820181905233602483015291519192610100900473ffffffffffffffffffffffffffffffffffffffff16916391d1485491604480820192602092909190829003018186803b1580156103ae57600080fd5b505afa1580156103c2573d6000803e3d6000fd5b505050506040513d60208110156103d857600080fd5b505161042b576040805162461bcd60e51b815260206004820152601d60248201527f436f72655265663a3a6f6e6c79526f6c653a204e6f74207065726d6974000000604482015290519081900360640190fd5b60026000541415610483576040805162461bcd60e51b815260206004820152601f60248201527f5265656e7472616e637947756172643a207265656e7472616e742063616c6c00604482015290519081900360640190fd5b6002600055610490610a4c565b60005b60035481101561053c57600381815481106104aa57fe5b6000918252602082200154604080517f3ccfd60b000000000000000000000000000000000000000000000000000000008152905173ffffffffffffffffffffffffffffffffffffffff90921692633ccfd60b9260048084019382900301818387803b15801561051857600080fd5b505af115801561052c573d6000803e3d6000fd5b5050600190920191506104939050565b50600254604080517f70a08231000000000000000000000000000000000000000000000000000000008152306004820152905160009273ffffffffffffffffffffffffffffffffffffffff16916370a08231916024808301926020929190829003018186803b1580156105ae57600080fd5b505afa1580156105c2573d6000803e3d6000fd5b505050506040513d60208110156105d857600080fd5b50516002549091506106019073ffffffffffffffffffffffffffffffffffffffff16338361130e565b50506001600055565b600154604080517fe43581b8000000000000000000000000000000000000000000000000000000008152336004820152905161010090920473ffffffffffffffffffffffffffffffffffffffff169163e43581b891602480820192602092909190829003018186803b15801561067f57600080fd5b505afa158015610693573d6000803e3d6000fd5b505050506040513d60208110156106a957600080fd5b5051806107535750600154604080517f0c68ba21000000000000000000000000000000000000000000000000000000008152336004820152905161010090920473ffffffffffffffffffffffffffffffffffffffff1691630c68ba2191602480820192602092909190829003018186803b15801561072657600080fd5b505afa15801561073a573d6000803e3d6000fd5b505050506040513d602081101561075057600080fd5b50515b61078e5760405162461bcd60e51b8152600401808060200182810382526045815260200180611bb46045913960600191505060405180910390fd5b61079661139b565b565b600154604080517f91d148540000000000000000000000000000000000000000000000000000000081527ff66846415d2bf9eabda9e84793ff9c0ea96d87f50fc41e66aa16469c6a442f056004820152336024820152905161010090920473ffffffffffffffffffffffffffffffffffffffff16916391d1485491604480820192602092909190829003018186803b15801561083357600080fd5b505afa158015610847573d6000803e3d6000fd5b505050506040513d602081101561085d57600080fd5b505161089a5760405162461bcd60e51b815260040180806020018281038252602f815260200180611bf9602f913960400191505060405180910390fd5b60035482106108f0576040805162461bcd60e51b815260206004820152600d60248201527f696e76616c696420696e64657800000000000000000000000000000000000000604482015290519081900360640190fd5b6000600460006003858154811061090357fe5b9060005260206000200160009054906101000a900473ffffffffffffffffffffffffffffffffffffffff1673ffffffffffffffffffffffffffffffffffffffff1673ffffffffffffffffffffffffffffffffffffffff16815260200190815260200160002054905081600460006003868154811061097d57fe5b600091825260208083209091015473ffffffffffffffffffffffffffffffffffffffff1683528201929092526040019020556005546109c89083906109c2908461146f565b9061111e565b6005819055507f2366bd948623127f6005a8ce44e6e0b2ed41542181a49dd8b995633361585aae600384815481106109fc57fe5b600091825260209182902001546040805173ffffffffffffffffffffffffffffffffffffffff909216825291810184905280820185905290519081900360600190a1505050565b60015460ff1690565b60005b600354811015610af85760038181548110610a6657fe5b6000918252602082200154604080517f2fddd913000000000000000000000000000000000000000000000000000000008152905173ffffffffffffffffffffffffffffffffffffffff90921692632fddd9139260048084019382900301818387803b158015610ad457600080fd5b505af1158015610ae8573d6000803e3d6000fd5b505060019092019150610a4f9050565b50565b600154604080517f91d148540000000000000000000000000000000000000000000000000000000081527ff66846415d2bf9eabda9e84793ff9c0ea96d87f50fc41e66aa16469c6a442f056004820152336024820152905161010090920473ffffffffffffffffffffffffffffffffffffffff16916391d1485491604480820192602092909190829003018186803b158015610b9657600080fd5b505afa158015610baa573d6000803e3d6000fd5b505050506040513d6020811015610bc057600080fd5b5051610bfd5760405162461bcd60e51b815260040180806020018281038252602f815260200180611bf9602f913960400191505060405180910390fd5b60025473ffffffffffffffffffffffffffffffffffffffff84811691161415610c6d576040805162461bcd60e51b815260206004820152600560248201527f2173616665000000000000000000000000000000000000000000000000000000604482015290519081900360640190fd5b610c8e73ffffffffffffffffffffffffffffffffffffffff8416828461130e565b505050565b600154604080517fe43581b8000000000000000000000000000000000000000000000000000000008152336004820152905161010090920473ffffffffffffffffffffffffffffffffffffffff169163e43581b891602480820192602092909190829003018186803b158015610d0857600080fd5b505afa158015610d1c573d6000803e3d6000fd5b505050506040513d6020811015610d3257600080fd5b5051610d6f5760405162461bcd60e51b815260040180806020018281038252602f815260200180611b3e602f913960400191505060405180910390fd5b600180547fffffffffffffffffffffff0000000000000000000000000000000000000000ff1661010073ffffffffffffffffffffffffffffffffffffffff8416908102919091179091556040517fad9400e618eb1344fde53db22397a1b82c765527ecbba3a5c86bcac15090828b90600090a250565b600154604080517fe43581b8000000000000000000000000000000000000000000000000000000008152336004820152905161010090920473ffffffffffffffffffffffffffffffffffffffff169163e43581b891602480820192602092909190829003018186803b158015610e5a57600080fd5b505afa158015610e6e573d6000803e3d6000fd5b505050506040513d6020811015610e8457600080fd5b505180610f2e5750600154604080517f0c68ba21000000000000000000000000000000000000000000000000000000008152336004820152905161010090920473ffffffffffffffffffffffffffffffffffffffff1691630c68ba2191602480820192602092909190829003018186803b158015610f0157600080fd5b505afa158015610f15573d6000803e3d6000fd5b505050506040513d6020811015610f2b57600080fd5b50515b610f695760405162461bcd60e51b8152600401808060200182810382526045815260200180611bb46045913960600191505060405180910390fd5b6107966114cc565b60005b600354811015610af857610fdd60038281548110610f8e57fe5b60009182526020909120015460025473ffffffffffffffffffffffffffffffffffffffff90811691167fffffffffffffffffffffffffffffffffffffffffffffffffffffffffffffffff611181565b600101610f74565b80611037576040805162461bcd60e51b815260206004820152601e60248201527f6465706f736974206d7573742062652067726561746572207468616e20300000604482015290519081900360640190fd5b60025461105c9073ffffffffffffffffffffffffffffffffffffffff16333084611579565b610af881611614565b6003818154811061107257fe5b60009182526020909120015473ffffffffffffffffffffffffffffffffffffffff16905081565b7f8b8c0776df2c2176edf6f82391c35ea4891146d7a976ee36fd07f1a6fb4ead4c81565b7ff66846415d2bf9eabda9e84793ff9c0ea96d87f50fc41e66aa16469c6a442f0581565b600154610100900473ffffffffffffffffffffffffffffffffffffffff1690565b60025473ffffffffffffffffffffffffffffffffffffffff1681565b600082820183811015611178576040805162461bcd60e51b815260206004820152601b60248201527f536166654d6174683a206164646974696f6e206f766572666c6f770000000000604482015290519081900360640190fd5b90505b92915050565b80158061122d5750604080517fdd62ed3e00000000000000000000000000000000000000000000000000000000815230600482015273ffffffffffffffffffffffffffffffffffffffff848116602483015291519185169163dd62ed3e91604480820192602092909190829003018186803b1580156111ff57600080fd5b505afa158015611213573d6000803e3d6000fd5b505050506040513d602081101561122957600080fd5b5051155b6112685760405162461bcd60e51b8152600401808060200182810382526036815260200180611c526036913960400191505060405180910390fd5b6040805173ffffffffffffffffffffffffffffffffffffffff8416602482015260448082018490528251808303909101815260649091019091526020810180517bffffffffffffffffffffffffffffffffffffffffffffffffffffffff167f095ea7b300000000000000000000000000000000000000000000000000000000179052610c8e90849061178a565b60606113048484600085611848565b90505b9392505050565b6040805173ffffffffffffffffffffffffffffffffffffffff8416602482015260448082018490528251808303909101815260649091019091526020810180517bffffffffffffffffffffffffffffffffffffffffffffffffffffffff167fa9059cbb00000000000000000000000000000000000000000000000000000000179052610c8e90849061178a565b6113a3610a43565b6113f4576040805162461bcd60e51b815260206004820152601460248201527f5061757361626c653a206e6f7420706175736564000000000000000000000000604482015290519081900360640190fd5b600180547fffffffffffffffffffffffffffffffffffffffffffffffffffffffffffffff001690557f5db9ee0a495bf2e6ff9c91a7834c1ba4fdd244a5e8aa4e537bd38aeae4b073aa6114456119cf565b6040805173ffffffffffffffffffffffffffffffffffffffff9092168252519081900360200190a1565b6000828211156114c6576040805162461bcd60e51b815260206004820152601e60248201527f536166654d6174683a207375627472616374696f6e206f766572666c6f770000604482015290519081900360640190fd5b50900390565b6114d4610a43565b15611526576040805162461bcd60e51b815260206004820152601060248201527f5061757361626c653a2070617573656400000000000000000000000000000000604482015290519081900360640190fd5b600180547fffffffffffffffffffffffffffffffffffffffffffffffffffffffffffffff0016811790557f62e78cea01bee320cd4e420270b5ea74000d11b0c9f74754ebdbfc544b05a2586114456119cf565b6040805173ffffffffffffffffffffffffffffffffffffffff80861660248301528416604482015260648082018490528251808303909101815260849091019091526020810180517bffffffffffffffffffffffffffffffffffffffffffffffffffffffff167f23b872dd0000000000000000000000000000000000000000000000000000000017905261160e90859061178a565b50505050565b6002600054141561166c576040805162461bcd60e51b815260206004820152601f60248201527f5265656e7472616e637947756172643a207265656e7472616e742063616c6c00604482015290519081900360640190fd5b6002600055611679610a4c565b60005b6003548110156106015760006116e16005546116db60046000600387815481106116a257fe5b600091825260208083209091015473ffffffffffffffffffffffffffffffffffffffff16835282019290925260400190205486906119d3565b90611a2c565b9050600382815481106116f057fe5b6000918252602082200154604080517fb6b55f2500000000000000000000000000000000000000000000000000000000815260048101859052905173ffffffffffffffffffffffffffffffffffffffff9092169263b6b55f259260248084019382900301818387803b15801561176557600080fd5b505af1158015611779573d6000803e3d6000fd5b50506001909301925061167c915050565b60606117ec826040518060400160405280602081526020017f5361666545524332303a206c6f772d6c6576656c2063616c6c206661696c65648152508573ffffffffffffffffffffffffffffffffffffffff166112f59092919063ffffffff16565b805190915015610c8e5780806020019051602081101561180b57600080fd5b5051610c8e5760405162461bcd60e51b815260040180806020018281038252602a815260200180611c28602a913960400191505060405180910390fd5b6060824710156118895760405162461bcd60e51b8152600401808060200182810382526026815260200180611b6d6026913960400191505060405180910390fd5b61189285611a93565b6118e3576040805162461bcd60e51b815260206004820152601d60248201527f416464726573733a2063616c6c20746f206e6f6e2d636f6e7472616374000000604482015290519081900360640190fd5b600060608673ffffffffffffffffffffffffffffffffffffffff1685876040518082805190602001908083835b6020831061194d57805182527fffffffffffffffffffffffffffffffffffffffffffffffffffffffffffffffe09092019160209182019101611910565b6001836020036101000a03801982511681845116808217855250505050505090500191505060006040518083038185875af1925050503d80600081146119af576040519150601f19603f3d011682016040523d82523d6000602084013e6119b4565b606091505b50915091506119c4828286611a99565b979650505050505050565b3390565b6000826119e25750600061117b565b828202828482816119ef57fe5b04146111785760405162461bcd60e51b8152600401808060200182810382526021815260200180611b936021913960400191505060405180910390fd5b6000808211611a82576040805162461bcd60e51b815260206004820152601a60248201527f536166654d6174683a206469766973696f6e206279207a65726f000000000000604482015290519081900360640190fd5b818381611a8b57fe5b049392505050565b3b151590565b60608315611aa8575081611307565b825115611ab85782518084602001fd5b8160405162461bcd60e51b81526004018080602001828103825283818151815260200191508051906020019080838360005b83811015611b02578181015183820152602001611aea565b50505050905090810190601f168015611b2f5780820380516001836020036101000a031916815260200191505b509250505060405180910390fdfe436f72655265663a3a6f6e6c79476f7665726e6f723a2043616c6c6572206973206e6f74206120676f7665726e6f72416464726573733a20696e73756666696369656e742062616c616e636520666f722063616c6c536166654d6174683a206d756c7469706c69636174696f6e206f766572666c6f77436f72655265663a3a6f6e6c79477561726469616e4f72476f7665726e6f723a2043616c6c6572206973206e6f74206120677561726469616e206f7220676f7665726e6f72436f72655265663a3a6f6e6c7954696d656c6f636b3a2043616c6c6572206973206e6f7420612074696d656c6f636b5361666545524332303a204552433230206f7065726174696f6e20646964206e6f7420737563636565645361666545524332303a20617070726f76652066726f6d206e6f6e2d7a65726f20746f206e6f6e2d7a65726f20616c6c6f77616e6365a2646970667358221220e486a921edba2779742c34e531bfd879396512e4516285009076f957591bc73964736f6c634300060c0033416464726573733a20696e73756666696369656e742062616c616e636520666f722063616c6c5361666545524332303a204552433230206f7065726174696f6e20646964206e6f7420737563636565645361666545524332303a20617070726f76652066726f6d206e6f6e2d7a65726f20746f206e6f6e2d7a65726f20616c6c6f77616e6365",
  "linkReferences": {},
  "deployedLinkReferences": {}
}