{
  "_format": "hh-sol-artifact-1",
  "contractName": "Permissions",
  "sourceName": "contracts/core/Permissions.sol",
  "abi": [
    {
      "inputs": [],
      "stateMutability": "nonpayable",
      "type": "constructor"
    },
    {
      "anonymous": false,
      "inputs": [
        {
          "indexed": true,
          "internalType": "bytes32",
          "name": "role",
          "type": "bytes32"
        },
        {
          "indexed": true,
          "internalType": "bytes32",
          "name": "previousAdminRole",
          "type": "bytes32"
        },
        {
          "indexed": true,
          "internalType": "bytes32",
          "name": "newAdminRole",
          "type": "bytes32"
        }
      ],
      "name": "RoleAdminChanged",
      "type": "event"
    },
    {
      "anonymous": false,
      "inputs": [
        {
          "indexed": true,
          "internalType": "bytes32",
          "name": "role",
          "type": "bytes32"
        },
        {
          "indexed": true,
          "internalType": "address",
          "name": "account",
          "type": "address"
        },
        {
          "indexed": true,
          "internalType": "address",
          "name": "sender",
          "type": "address"
        }
      ],
      "name": "RoleGranted",
      "type": "event"
    },
    {
      "anonymous": false,
      "inputs": [
        {
          "indexed": true,
          "internalType": "bytes32",
          "name": "role",
          "type": "bytes32"
        },
        {
          "indexed": true,
          "internalType": "address",
          "name": "account",
          "type": "address"
        },
        {
          "indexed": true,
          "internalType": "address",
          "name": "sender",
          "type": "address"
        }
      ],
      "name": "RoleRevoked",
      "type": "event"
    },
    {
      "inputs": [],
      "name": "DEFAULT_ADMIN_ROLE",
      "outputs": [
        {
          "internalType": "bytes32",
          "name": "",
          "type": "bytes32"
        }
      ],
      "stateMutability": "view",
      "type": "function"
    },
    {
      "inputs": [],
      "name": "EXECUTOR_ROLE",
      "outputs": [
        {
          "internalType": "bytes32",
          "name": "",
          "type": "bytes32"
        }
      ],
      "stateMutability": "view",
      "type": "function"
    },
    {
      "inputs": [],
      "name": "GOVERN_ROLE",
      "outputs": [
        {
          "internalType": "bytes32",
          "name": "",
          "type": "bytes32"
        }
      ],
      "stateMutability": "view",
      "type": "function"
    },
    {
      "inputs": [],
      "name": "GUARDIAN_ROLE",
      "outputs": [
        {
          "internalType": "bytes32",
          "name": "",
          "type": "bytes32"
        }
      ],
      "stateMutability": "view",
      "type": "function"
    },
    {
      "inputs": [],
      "name": "MASTER_ROLE",
      "outputs": [
        {
          "internalType": "bytes32",
          "name": "",
          "type": "bytes32"
        }
      ],
      "stateMutability": "view",
      "type": "function"
    },
    {
      "inputs": [],
      "name": "PROPOSER_ROLE",
      "outputs": [
        {
          "internalType": "bytes32",
          "name": "",
          "type": "bytes32"
        }
      ],
      "stateMutability": "view",
      "type": "function"
    },
    {
      "inputs": [],
      "name": "TIMELOCK_ROLE",
      "outputs": [
        {
          "internalType": "bytes32",
          "name": "",
          "type": "bytes32"
        }
      ],
      "stateMutability": "view",
      "type": "function"
    },
    {
      "inputs": [
        {
          "internalType": "bytes32",
          "name": "role",
          "type": "bytes32"
        },
        {
          "internalType": "bytes32",
          "name": "adminRole",
          "type": "bytes32"
        }
      ],
      "name": "createRole",
      "outputs": [],
      "stateMutability": "nonpayable",
      "type": "function"
    },
    {
      "inputs": [
        {
          "internalType": "bytes32",
          "name": "role",
          "type": "bytes32"
        }
      ],
      "name": "getRoleAdmin",
      "outputs": [
        {
          "internalType": "bytes32",
          "name": "",
          "type": "bytes32"
        }
      ],
      "stateMutability": "view",
      "type": "function"
    },
    {
      "inputs": [
        {
          "internalType": "bytes32",
          "name": "role",
          "type": "bytes32"
        },
        {
          "internalType": "uint256",
          "name": "index",
          "type": "uint256"
        }
      ],
      "name": "getRoleMember",
      "outputs": [
        {
          "internalType": "address",
          "name": "",
          "type": "address"
        }
      ],
      "stateMutability": "view",
      "type": "function"
    },
    {
      "inputs": [
        {
          "internalType": "bytes32",
          "name": "role",
          "type": "bytes32"
        }
      ],
      "name": "getRoleMemberCount",
      "outputs": [
        {
          "internalType": "uint256",
          "name": "",
          "type": "uint256"
        }
      ],
      "stateMutability": "view",
      "type": "function"
    },
    {
      "inputs": [
        {
          "internalType": "address",
          "name": "governor",
          "type": "address"
        }
      ],
      "name": "grantGovernor",
      "outputs": [],
      "stateMutability": "nonpayable",
      "type": "function"
    },
    {
      "inputs": [
        {
          "internalType": "address",
          "name": "guardian",
          "type": "address"
        }
      ],
      "name": "grantGuardian",
      "outputs": [],
      "stateMutability": "nonpayable",
      "type": "function"
    },
    {
      "inputs": [
        {
          "internalType": "bytes32",
          "name": "role",
          "type": "bytes32"
        },
        {
          "internalType": "address",
          "name": "account",
          "type": "address"
        }
      ],
      "name": "grantRole",
      "outputs": [],
      "stateMutability": "nonpayable",
      "type": "function"
    },
    {
      "inputs": [
        {
          "internalType": "bytes32",
          "name": "role",
          "type": "bytes32"
        },
        {
          "internalType": "address",
          "name": "account",
          "type": "address"
        }
      ],
      "name": "hasRole",
      "outputs": [
        {
          "internalType": "bool",
          "name": "",
          "type": "bool"
        }
      ],
      "stateMutability": "view",
      "type": "function"
    },
    {
      "inputs": [
        {
          "internalType": "address",
          "name": "_address",
          "type": "address"
        }
      ],
      "name": "isGovernor",
      "outputs": [
        {
          "internalType": "bool",
          "name": "",
          "type": "bool"
        }
      ],
      "stateMutability": "view",
      "type": "function"
    },
    {
      "inputs": [
        {
          "internalType": "address",
          "name": "_address",
          "type": "address"
        }
      ],
      "name": "isGuardian",
      "outputs": [
        {
          "internalType": "bool",
          "name": "",
          "type": "bool"
        }
      ],
      "stateMutability": "view",
      "type": "function"
    },
    {
      "inputs": [
        {
          "internalType": "bytes32",
          "name": "role",
          "type": "bytes32"
        },
        {
          "internalType": "address",
          "name": "account",
          "type": "address"
        }
      ],
      "name": "renounceRole",
      "outputs": [],
      "stateMutability": "nonpayable",
      "type": "function"
    },
    {
      "inputs": [
        {
          "internalType": "address",
          "name": "governor",
          "type": "address"
        }
      ],
      "name": "revokeGovernor",
      "outputs": [],
      "stateMutability": "nonpayable",
      "type": "function"
    },
    {
      "inputs": [
        {
          "internalType": "address",
          "name": "guardian",
          "type": "address"
        }
      ],
      "name": "revokeGuardian",
      "outputs": [],
      "stateMutability": "nonpayable",
      "type": "function"
    },
    {
      "inputs": [
        {
          "internalType": "bytes32",
          "name": "role",
          "type": "bytes32"
        },
        {
          "internalType": "address",
          "name": "account",
          "type": "address"
        }
      ],
      "name": "revokeRole",
      "outputs": [],
      "stateMutability": "nonpayable",
      "type": "function"
    }
  ],
  "bytecode": "0x60806040523480156200001157600080fd5b506200001d3062000165565b620000386000805160206200111e8339815191528062000183565b620000737f55435dd261a4b9b3364963f7738a7a662ad9c84396d64be3365284bb7f0a50416000805160206200111e83398151915262000183565b620000ae7fb09aa5aeb3702cfd50b6b62bc4532604938f21248a27a1d5ca736082b6819cc16000805160206200111e83398151915262000183565b620000e97fd8aa0f3194971a2a116679f7c2090f6939c8d4e01a2a8d7e41d55e5351469e636000805160206200111e83398151915262000183565b620001247f8b8c0776df2c2176edf6f82391c35ea4891146d7a976ee36fd07f1a6fb4ead4c6000805160206200111e83398151915262000183565b6200015f7ff66846415d2bf9eabda9e84793ff9c0ea96d87f50fc41e66aa16469c6a442f056000805160206200111e83398151915262000183565b620002e9565b620001806000805160206200111e83398151915282620001d5565b50565b600082815260208190526040808220600201549051839285917fbd79b86ffe0ab8e8776151514217cd7cacd52c909f66475c3af44e129f0b00ff9190a460009182526020829052604090912060020155565b620001e18282620001e5565b5050565b6000828152602081815260409091206200020a918390620007b36200025e821b17901c565b15620001e1576200021a6200027e565b6001600160a01b0316816001600160a01b0316837f2f8788117e7eff1d82e926ec794901d17c78024a50270940304540a733656f0d60405160405180910390a45050565b600062000275836001600160a01b03841662000282565b90505b92915050565b3390565b6000620002908383620002d1565b620002c85750815460018181018455600084815260208082209093018490558454848252828601909352604090209190915562000278565b50600062000278565b60009081526001919091016020526040902054151590565b610e2580620002f96000396000f3fe608060405234801561001057600080fd5b50600436106101775760003560e01c80639010d07c116100d8578063ca15c8731161008c578063e43581b811610066578063e43581b8146102c2578063e6eb982f146102d5578063f288a2e2146102e857610177565b8063ca15c87314610294578063d547741f146102a7578063dc224863146102ba57610177565b806394b1d2c0116100bd57806394b1d2c014610266578063a217fddf14610279578063af648c3d1461028157610177565b80639010d07c1461023357806391d148541461025357610177565b806336568abe1161012f578063395c62e811610114578063395c62e8146102055780634c9f9384146102185780638f61f4f51461022b57610177565b806336568abe146101ea57806338b7f446146101fd57610177565b8063248a9ca311610160578063248a9ca3146101ba57806324ea54f4146101cd5780632f2ff15d146101d557610177565b806307bd02651461017c5780630c68ba211461019a575b600080fd5b6101846102f0565b6040516101919190610c15565b60405180910390f35b6101ad6101a8366004610b35565b610314565b6040516101919190610c0a565b6101846101c8366004610b69565b610346565b61018461035b565b6101e86101e3366004610b81565b61037f565b005b6101e86101f8366004610b81565b6103ea565b610184610460565b6101e8610213366004610b35565b610484565b6101e8610226366004610bc8565b6104f0565b610184610539565b610246610241366004610bc8565b61055d565b6040516101919190610be9565b6101ad610261366004610b81565b61057c565b6101e8610274366004610b35565b610594565b6101846105fd565b6101e861028f366004610b35565b610602565b6101846102a2366004610b69565b61066b565b6101e86102b5366004610b81565b610682565b6101846106d6565b6101ad6102d0366004610b35565b6106fa565b6101e86102e3366004610b35565b610726565b61018461078f565b7fd8aa0f3194971a2a116679f7c2090f6939c8d4e01a2a8d7e41d55e5351469e6381565b60006103407f55435dd261a4b9b3364963f7738a7a662ad9c84396d64be3365284bb7f0a50418361057c565b92915050565b60009081526020819052604090206002015490565b7f55435dd261a4b9b3364963f7738a7a662ad9c84396d64be3365284bb7f0a504181565b60008281526020819052604090206002015461039d906102616107d5565b6103dc576040517f08c379a00000000000000000000000000000000000000000000000000000000081526004016103d390610c7b565b60405180910390fd5b6103e682826107d9565b5050565b6103f26107d5565b73ffffffffffffffffffffffffffffffffffffffff168173ffffffffffffffffffffffffffffffffffffffff1614610456576040517f08c379a00000000000000000000000000000000000000000000000000000000081526004016103d390610d92565b6103e6828261085c565b7f899bd46557473cb80307a9dabc297131ced39608330a2d29b2d52b660c03923e81565b61048d336106fa565b6104c3576040517f08c379a00000000000000000000000000000000000000000000000000000000081526004016103d390610d35565b6104ed7f899bd46557473cb80307a9dabc297131ced39608330a2d29b2d52b660c03923e8261037f565b50565b6104f9336106fa565b61052f576040517f08c379a00000000000000000000000000000000000000000000000000000000081526004016103d390610d35565b6103e682826108df565b7fb09aa5aeb3702cfd50b6b62bc4532604938f21248a27a1d5ca736082b6819cc181565b60008281526020819052604081206105759083610931565b9392505050565b6000828152602081905260408120610575908361093d565b61059d336106fa565b6105d3576040517f08c379a00000000000000000000000000000000000000000000000000000000081526004016103d390610d35565b6104ed7f55435dd261a4b9b3364963f7738a7a662ad9c84396d64be3365284bb7f0a50418261037f565b600081565b61060b336106fa565b610641576040517f08c379a00000000000000000000000000000000000000000000000000000000081526004016103d390610d35565b6104ed7f55435dd261a4b9b3364963f7738a7a662ad9c84396d64be3365284bb7f0a504182610682565b60008181526020819052604081206103409061095f565b6000828152602081905260409020600201546106a0906102616107d5565b610456576040517f08c379a00000000000000000000000000000000000000000000000000000000081526004016103d390610cd8565b7f8b8c0776df2c2176edf6f82391c35ea4891146d7a976ee36fd07f1a6fb4ead4c81565b60006103407f899bd46557473cb80307a9dabc297131ced39608330a2d29b2d52b660c03923e8361057c565b61072f336106fa565b610765576040517f08c379a00000000000000000000000000000000000000000000000000000000081526004016103d390610d35565b6104ed7f899bd46557473cb80307a9dabc297131ced39608330a2d29b2d52b660c03923e82610682565b7ff66846415d2bf9eabda9e84793ff9c0ea96d87f50fc41e66aa16469c6a442f0581565b60006105758373ffffffffffffffffffffffffffffffffffffffff841661096a565b3390565b60008281526020819052604090206107f190826107b3565b156103e6576107fe6107d5565b73ffffffffffffffffffffffffffffffffffffffff168173ffffffffffffffffffffffffffffffffffffffff16837f2f8788117e7eff1d82e926ec794901d17c78024a50270940304540a733656f0d60405160405180910390a45050565b600082815260208190526040902061087490826109b4565b156103e6576108816107d5565b73ffffffffffffffffffffffffffffffffffffffff168173ffffffffffffffffffffffffffffffffffffffff16837ff6391f5c32d9c69d2a47ea670b442974b53935d1edc7fd64eb21e047a839171b60405160405180910390a45050565b600082815260208190526040808220600201549051839285917fbd79b86ffe0ab8e8776151514217cd7cacd52c909f66475c3af44e129f0b00ff9190a460009182526020829052604090912060020155565b600061057583836109d6565b60006105758373ffffffffffffffffffffffffffffffffffffffff8416610a35565b600061034082610a4d565b60006109768383610a35565b6109ac57508154600181810184556000848152602080822090930184905584548482528286019093526040902091909155610340565b506000610340565b60006105758373ffffffffffffffffffffffffffffffffffffffff8416610a51565b81546000908210610a13576040517f08c379a00000000000000000000000000000000000000000000000000000000081526004016103d390610c1e565b826000018281548110610a2257fe5b9060005260206000200154905092915050565b60009081526001919091016020526040902054151590565b5490565b60008181526001830160205260408120548015610b2b5783547fffffffffffffffffffffffffffffffffffffffffffffffffffffffffffffffff8083019190810190600090879083908110610aa257fe5b9060005260206000200154905080876000018481548110610abf57fe5b600091825260208083209091019290925582815260018981019092526040902090840190558654879080610aef57fe5b60019003818190600052602060002001600090559055866001016000878152602001908152602001600020600090556001945050505050610340565b6000915050610340565b600060208284031215610b46578081fd5b813573ffffffffffffffffffffffffffffffffffffffff81168114610575578182fd5b600060208284031215610b7a578081fd5b5035919050565b60008060408385031215610b93578081fd5b82359150602083013573ffffffffffffffffffffffffffffffffffffffff81168114610bbd578182fd5b809150509250929050565b60008060408385031215610bda578182fd5b50508035926020909101359150565b73ffffffffffffffffffffffffffffffffffffffff91909116815260200190565b901515815260200190565b90815260200190565b60208082526022908201527f456e756d657261626c655365743a20696e646578206f7574206f6620626f756e60408201527f6473000000000000000000000000000000000000000000000000000000000000606082015260800190565b6020808252602f908201527f416363657373436f6e74726f6c3a2073656e646572206d75737420626520616e60408201527f2061646d696e20746f206772616e740000000000000000000000000000000000606082015260800190565b60208082526030908201527f416363657373436f6e74726f6c3a2073656e646572206d75737420626520616e60408201527f2061646d696e20746f207265766f6b6500000000000000000000000000000000606082015260800190565b60208082526033908201527f5065726d697373696f6e733a3a6f6e6c79476f7665726e6f723a2043616c6c6560408201527f72206973206e6f74206120676f7665726e6f7200000000000000000000000000606082015260800190565b6020808252602f908201527f416363657373436f6e74726f6c3a2063616e206f6e6c792072656e6f756e636560408201527f20726f6c657320666f722073656c66000000000000000000000000000000000060608201526080019056fea264697066735822122024a5a2547fe3a3f52d469e364675d136b432ceea2adc16aeff75aec57c1cb89164736f6c634300060c0033899bd46557473cb80307a9dabc297131ced39608330a2d29b2d52b660c03923e",
  "linkReferences": {},
  "deployedLinkReferences": {}
}