{
  "_format": "hh-sol-artifact-1",
  "contractName": "StrategyAlpaca",
  "sourceName": "contracts/strategy/StrategyAlpaca.sol",
  "abi": [
    {
      "inputs": [
        {
          "internalType": "address",
          "name": "_core",
          "type": "address"
        },
        {
          "internalType": "address",
          "name": "_vaultAddress",
          "type": "address"
        },
        {
          "internalType": "address",
          "name": "_wantAddress",
          "type": "address"
        },
        {
          "internalType": "address",
          "name": "_uniRouterAddress",
          "type": "address"
        },
        {
          "internalType": "address[]",
          "name": "_earnedToWantPath",
          "type": "address[]"
        },
        {
          "internalType": "address[]",
          "name": "_farmAddress",
          "type": "address[]"
        },
        {
          "internalType": "uint256[]",
          "name": "_ratioArray",
          "type": "uint256[]"
        },
        {
          "internalType": "uint256[]",
          "name": "_pidArray",
          "type": "uint256[]"
        }
      ],
      "stateMutability": "nonpayable",
      "type": "constructor"
    },
    {
      "anonymous": false,
      "inputs": [
        {
          "indexed": true,
          "internalType": "address",
          "name": "_core",
          "type": "address"
        }
      ],
      "name": "CoreUpdate",
      "type": "event"
    },
    {
      "anonymous": false,
      "inputs": [
        {
          "indexed": true,
          "internalType": "address",
          "name": "previousOwner",
          "type": "address"
        },
        {
          "indexed": true,
          "internalType": "address",
          "name": "newOwner",
          "type": "address"
        }
      ],
      "name": "OwnershipTransferred",
      "type": "event"
    },
    {
      "anonymous": false,
      "inputs": [
        {
          "indexed": false,
          "internalType": "address",
          "name": "account",
          "type": "address"
        }
      ],
      "name": "Paused",
      "type": "event"
    },
    {
      "anonymous": false,
      "inputs": [
        {
          "indexed": false,
          "internalType": "address",
          "name": "account",
          "type": "address"
        }
      ],
      "name": "Unpaused",
      "type": "event"
    },
    {
      "inputs": [],
      "name": "TIMELOCK_ROLE",
      "outputs": [
        {
          "internalType": "bytes32",
          "name": "",
          "type": "bytes32"
        }
      ],
      "stateMutability": "view",
      "type": "function"
    },
    {
      "inputs": [],
      "name": "alpacaAddress",
      "outputs": [
        {
          "internalType": "address",
          "name": "",
          "type": "address"
        }
      ],
      "stateMutability": "view",
      "type": "function"
    },
    {
      "inputs": [
        {
          "internalType": "uint256",
          "name": "",
          "type": "uint256"
        }
      ],
      "name": "alpacaFarms",
      "outputs": [
        {
          "internalType": "address",
          "name": "tokenAddress",
          "type": "address"
        },
        {
          "internalType": "uint256",
          "name": "ratio",
          "type": "uint256"
        },
        {
          "internalType": "uint256",
          "name": "pid",
          "type": "uint256"
        }
      ],
      "stateMutability": "view",
      "type": "function"
    },
    {
      "inputs": [],
      "name": "core",
      "outputs": [
        {
          "internalType": "contract ICore",
          "name": "",
          "type": "address"
        }
      ],
      "stateMutability": "view",
      "type": "function"
    },
    {
      "inputs": [
        {
          "internalType": "uint256",
          "name": "_wantAmt",
          "type": "uint256"
        }
      ],
      "name": "deposit",
      "outputs": [],
      "stateMutability": "nonpayable",
      "type": "function"
    },
    {
      "inputs": [],
      "name": "earn",
      "outputs": [],
      "stateMutability": "nonpayable",
      "type": "function"
    },
    {
      "inputs": [
        {
          "internalType": "uint256",
          "name": "",
          "type": "uint256"
        }
      ],
      "name": "earnedToWantPath",
      "outputs": [
        {
          "internalType": "address",
          "name": "",
          "type": "address"
        }
      ],
      "stateMutability": "view",
      "type": "function"
    },
    {
      "inputs": [],
      "name": "fairLaunchAddress",
      "outputs": [
        {
          "internalType": "address",
          "name": "",
          "type": "address"
        }
      ],
      "stateMutability": "view",
      "type": "function"
    },
    {
      "inputs": [
        {
          "internalType": "address",
          "name": "_token",
          "type": "address"
        },
        {
          "internalType": "uint256",
          "name": "_amount",
          "type": "uint256"
        },
        {
          "internalType": "address",
          "name": "_to",
          "type": "address"
        }
      ],
      "name": "inCaseTokensGetStuck",
      "outputs": [],
      "stateMutability": "nonpayable",
      "type": "function"
    },
    {
      "inputs": [],
      "name": "lastEarnBlock",
      "outputs": [
        {
          "internalType": "uint256",
          "name": "",
          "type": "uint256"
        }
      ],
      "stateMutability": "view",
      "type": "function"
    },
    {
      "inputs": [],
      "name": "owner",
      "outputs": [
        {
          "internalType": "address",
          "name": "",
          "type": "address"
        }
      ],
      "stateMutability": "view",
      "type": "function"
    },
    {
      "inputs": [],
      "name": "pause",
      "outputs": [],
      "stateMutability": "nonpayable",
      "type": "function"
    },
    {
      "inputs": [],
      "name": "paused",
      "outputs": [
        {
          "internalType": "bool",
          "name": "",
          "type": "bool"
        }
      ],
      "stateMutability": "view",
      "type": "function"
    },
    {
      "inputs": [],
      "name": "renounceOwnership",
      "outputs": [],
      "stateMutability": "nonpayable",
      "type": "function"
    },
    {
      "inputs": [
        {
          "internalType": "address",
          "name": "core_",
          "type": "address"
        }
      ],
      "name": "setCore",
      "outputs": [],
      "stateMutability": "nonpayable",
      "type": "function"
    },
    {
      "inputs": [
        {
          "internalType": "address[]",
          "name": "newPath",
          "type": "address[]"
        }
      ],
      "name": "setEarnedToWantPath",
      "outputs": [],
      "stateMutability": "nonpayable",
      "type": "function"
    },
    {
      "inputs": [
        {
          "internalType": "uint256",
          "name": "_slippage",
          "type": "uint256"
        }
      ],
      "name": "setSlippage",
      "outputs": [],
      "stateMutability": "nonpayable",
      "type": "function"
    },
    {
      "inputs": [
        {
          "internalType": "address",
          "name": "newOwner",
          "type": "address"
        }
      ],
      "name": "transferOwnership",
      "outputs": [],
      "stateMutability": "nonpayable",
      "type": "function"
    },
    {
      "inputs": [],
      "name": "uniRouterAddress",
      "outputs": [
        {
          "internalType": "address",
          "name": "",
          "type": "address"
        }
      ],
      "stateMutability": "view",
      "type": "function"
    },
    {
      "inputs": [],
      "name": "unpause",
      "outputs": [],
      "stateMutability": "nonpayable",
      "type": "function"
    },
    {
      "inputs": [],
      "name": "updateStrategy",
      "outputs": [],
      "stateMutability": "nonpayable",
      "type": "function"
    },
    {
      "inputs": [],
      "name": "vaultAddress",
      "outputs": [
        {
          "internalType": "address",
          "name": "",
          "type": "address"
        }
      ],
      "stateMutability": "view",
      "type": "function"
    },
    {
      "inputs": [],
      "name": "wantAddress",
      "outputs": [
        {
          "internalType": "address",
          "name": "",
          "type": "address"
        }
      ],
      "stateMutability": "view",
      "type": "function"
    },
    {
      "inputs": [],
      "name": "wantLockedInHere",
      "outputs": [
        {
          "internalType": "uint256",
          "name": "",
          "type": "uint256"
        }
      ],
      "stateMutability": "view",
      "type": "function"
    },
    {
      "inputs": [],
      "name": "wbnbAddress",
      "outputs": [
        {
          "internalType": "address",
          "name": "",
          "type": "address"
        }
      ],
      "stateMutability": "view",
      "type": "function"
    },
    {
      "inputs": [],
      "name": "withdraw",
      "outputs": [],
      "stateMutability": "nonpayable",
      "type": "function"
    }
  ],
  "bytecode": "0x608060405260056003553480156200001657600080fd5b50604051620048b3380380620048b383398181016040526101008110156200003d57600080fd5b81516020830151604080850151606086015160808701805193519597949692959194919392820192846401000000008211156200007957600080fd5b9083019060208201858111156200008f57600080fd5b8251866020820283011164010000000082111715620000ad57600080fd5b82525081516020918201928201910280838360005b83811015620000dc578181015183820152602001620000c2565b50505050905001604052602001805160405193929190846401000000008211156200010657600080fd5b9083019060208201858111156200011c57600080fd5b82518660208202830111640100000000821117156200013a57600080fd5b82525081516020918201928201910280838360005b83811015620001695781810151838201526020016200014f565b50505050905001604052602001805160405193929190846401000000008211156200019357600080fd5b908301906020820185811115620001a957600080fd5b8251866020820283011164010000000082111715620001c757600080fd5b82525081516020918201928201910280838360005b83811015620001f6578181015183820152602001620001dc565b50505050905001604052602001805160405193929190846401000000008211156200022057600080fd5b9083019060208201858111156200023657600080fd5b82518660208202830111640100000000821117156200025457600080fd5b82525081516020918201928201910280838360005b838110156200028357818101518382015260200162000269565b505050509050016040525050508760016000819055506000620002ab6200066d60201b60201c565b600180546001600160a01b0319166001600160a01b038316908117909155604051919250906000907f8be0079c531659141344cd1fd0a4f28419497f9722a3daafe3b4186f6b6457e0908290a3506001805460ff60a01b19169055600280546001600160a01b03199081166001600160a01b03938416179091556006805482168a84161790556007805490911691881691909117905583516200035690600890602087019062000a84565b50600580546001600160a01b0319166001600160a01b0387161790556040805160608101909152835160099190819086906000906200039157fe5b60200260200101516001600160a01b0316815260200184600081518110620003b557fe5b6020026020010151815260200183600081518110620003d057fe5b602090810291909101810151909152825460018082018555600094855293829020835160039092020180546001600160a01b0319166001600160a01b0390921691909117815590820151818401556040918201516002909101558051606081019091528451600992829187919081106200044657fe5b60200260200101516001600160a01b03168152602001846001815181106200046a57fe5b60200260200101518152602001836001815181106200048557fe5b602090810291909101810151909152825460018082018555600094855293829020835160039092020180546001600160a01b0319166001600160a01b039092169190911781559082015192810192909255604090810151600292830155805160608101909152845160099282918791908110620004fe57fe5b60200260200101516001600160a01b03168152602001846002815181106200052257fe5b60200260200101518152602001836002815181106200053d57fe5b602090810291909101810151909152825460018082018555600094855293829020835160039092020180546001600160a01b0319166001600160a01b039283161781558383015194810194909455604090920151600290930192909255600554620005d092738f0528ce5ef7b51152a59745befdd91d97091d2f9291909116906000199062000671811b6200236017901c565b600554620005fa906001600160a01b03888116911660001962000671602090811b6200236017901c565b60065462000624906001600160a01b03888116911660001962000671602090811b6200236017901c565b6006546200065f906001600160a01b031673a625ab01b08ce023b2a342dbb12a16f2c8489a8f60001962000671602090811b6200236017901c565b505050505050505062000b0f565b3390565b801580620006fb575060408051636eb1769f60e11b81523060048201526001600160a01b03848116602483015291519185169163dd62ed3e91604480820192602092909190829003018186803b158015620006cb57600080fd5b505afa158015620006e0573d6000803e3d6000fd5b505050506040513d6020811015620006f757600080fd5b5051155b620007385760405162461bcd60e51b81526004018080602001828103825260368152602001806200487d6036913960400191505060405180910390fd5b604080516001600160a01b038416602482015260448082018490528251808303909101815260649091019091526020810180516001600160e01b0390811663095ea7b360e01b17909152620007909185916200079516565b505050565b6060620007f1826040518060400160405280602081526020017f5361666545524332303a206c6f772d6c6576656c2063616c6c206661696c6564815250856001600160a01b03166200085160201b620024ba179092919060201c565b80519091501562000790578080602001905160208110156200081257600080fd5b5051620007905760405162461bcd60e51b815260040180806020018281038252602a81526020018062004853602a913960400191505060405180910390fd5b60606200086284846000856200086c565b90505b9392505050565b606082471015620008af5760405162461bcd60e51b81526004018080602001828103825260268152602001806200482d6026913960400191505060405180910390fd5b620008ba85620009d4565b6200090c576040805162461bcd60e51b815260206004820152601d60248201527f416464726573733a2063616c6c20746f206e6f6e2d636f6e7472616374000000604482015290519081900360640190fd5b60006060866001600160a01b031685876040518082805190602001908083835b602083106200094d5780518252601f1990920191602091820191016200092c565b6001836020036101000a03801982511681845116808217855250505050505090500191505060006040518083038185875af1925050503d8060008114620009b1576040519150601f19603f3d011682016040523d82523d6000602084013e620009b6565b606091505b509092509050620009c9828286620009da565b979650505050505050565b3b151590565b60608315620009eb57508162000865565b825115620009fc5782518084602001fd5b8160405162461bcd60e51b81526004018080602001828103825283818151815260200191508051906020019080838360005b8381101562000a4857818101518382015260200162000a2e565b50505050905090810190601f16801562000a765780820380516001836020036101000a031916815260200191505b509250505060405180910390fd5b82805482825590600052602060002090810192821562000adc579160200282015b8281111562000adc57825182546001600160a01b0319166001600160a01b0390911617825560209092019160019091019062000aa5565b5062000aea92915062000aee565b5090565b5b8082111562000aea5780546001600160a01b031916815560010162000aef565b613d0e8062000b1f6000396000f3fe608060405234801561001057600080fd5b50600436106101ae5760003560e01c80638456cb59116100ee578063d389800f11610097578063f0fa55a911610071578063f0fa55a9146103f5578063f288a2e214610412578063f2f4eb261461041a578063f2fde38b14610422576101ae565b8063d389800f14610342578063dbdb96261461034a578063e7a03679146103ed576101ae565b8063b6b55f25116100c8578063b6b55f25146102d8578063bb845c4a146102f5578063d1cc182d146102fd576101ae565b80638456cb59146102c05780638da5cb5b146102c857806393790113146102d0576101ae565b80635c975abb1161015b57806367206d401161013557806367206d4014610254578063693a090b1461028a578063715018a614610292578063800096301461029a576101ae565b80635c975abb14610228578063609c2ef41461024457806363fe3e3a1461024c576101ae565b80633ccfd60b1161018c5780633ccfd60b146102105780633f4ba83a14610218578063430bf08a14610220576101ae565b80630fa4e01e146101b35780632fddd913146101cd57806338946a8c146101d7575b600080fd5b6101bb610448565b60408051918252519081900360200190f35b6101d561044e565b005b6101f4600480360360208110156101ed57600080fd5b5035610450565b604080516001600160a01b039092168252519081900360200190f35b6101d5610477565b6101d5610eba565b6101f4611024565b610230611033565b604080519115158252519081900360200190f35b6101f4611054565b6101f461106c565b6101d56004803603606081101561026a57600080fd5b506001600160a01b03813581169160208101359160409091013516611084565b6101f46112c6565b6101d56112d5565b6101d5600480360360208110156102b057600080fd5b50356001600160a01b03166113ab565b6101d56114d8565b6101f4611642565b6101bb611651565b6101d5600480360360208110156102ee57600080fd5b50356116e6565b6101f46117cd565b61031a6004803603602081101561031357600080fd5b50356117e5565b604080516001600160a01b039094168452602084019290925282820152519081900360600190f35b6101d561181f565b6101d56004803603602081101561036057600080fd5b81019060208101813564010000000081111561037b57600080fd5b82018360208201111561038d57600080fd5b803590602001918460208302840111640100000000831117156103af57600080fd5b919080806020026020016040519081016040528093929190818152602001838360200280828437600092019190915250929550611f5e945050505050565b6101f4612066565b6101d56004803603602081101561040b57600080fd5b5035612075565b6101bb612200565b6101f4612224565b6101d56004803603602081101561043857600080fd5b50356001600160a01b0316612233565b60045481565b565b6008818154811061045d57fe5b6000918252602090912001546001600160a01b0316905081565b61047f6124d3565b6001600160a01b0316610490611642565b6001600160a01b0316146104eb576040805162461bcd60e51b815260206004820181905260248201527f4f776e61626c653a2063616c6c6572206973206e6f7420746865206f776e6572604482015290519081900360640190fd5b60026000541415610543576040805162461bcd60e51b815260206004820152601f60248201527f5265656e7472616e637947756172643a207265656e7472616e742063616c6c00604482015290519081900360640190fd5b600260009081556009805473a625ab01b08ce023b2a342dbb12a16f2c8489a8f916393f1a40b91849061057257fe5b906000526020600020906003020160020154306040518363ffffffff1660e01b815260040180838152602001826001600160a01b031681526020019250505060806040518083038186803b1580156105c957600080fd5b505afa1580156105dd573d6000803e3d6000fd5b505050506040513d60808110156105f357600080fd5b50516009805491925073a625ab01b08ce023b2a342dbb12a16f2c8489a8f9163b5c5f67291309160009061062357fe5b906000526020600020906003020160020154846040518463ffffffff1660e01b815260040180846001600160a01b031681526020018381526020018281526020019350505050600060405180830381600087803b15801561068357600080fd5b505af1158015610697573d6000803e3d6000fd5b50505050600073a625ab01b08ce023b2a342dbb12a16f2c8489a8f6001600160a01b03166393f1a40b60096001815481106106ce57fe5b906000526020600020906003020160020154306040518363ffffffff1660e01b815260040180838152602001826001600160a01b031681526020019250505060806040518083038186803b15801561072557600080fd5b505afa158015610739573d6000803e3d6000fd5b505050506040513d608081101561074f57600080fd5b50516009805491925073a625ab01b08ce023b2a342dbb12a16f2c8489a8f9163b5c5f672913091600190811061078157fe5b906000526020600020906003020160020154846040518463ffffffff1660e01b815260040180846001600160a01b031681526020018381526020018281526020019350505050600060405180830381600087803b1580156107e157600080fd5b505af11580156107f5573d6000803e3d6000fd5b50505050600073a625ab01b08ce023b2a342dbb12a16f2c8489a8f6001600160a01b03166393f1a40b600960028154811061082c57fe5b906000526020600020906003020160020154306040518363ffffffff1660e01b815260040180838152602001826001600160a01b031681526020019250505060806040518083038186803b15801561088357600080fd5b505afa158015610897573d6000803e3d6000fd5b505050506040513d60808110156108ad57600080fd5b50516009805491925073a625ab01b08ce023b2a342dbb12a16f2c8489a8f9163b5c5f67291309160029081106108df57fe5b906000526020600020906003020160020154846040518463ffffffff1660e01b815260040180846001600160a01b031681526020018381526020018281526020019350505050600060405180830381600087803b15801561093f57600080fd5b505af1158015610953573d6000803e3d6000fd5b5050600654604080517f70a0823100000000000000000000000000000000000000000000000000000000815230600482015290516001600160a01b039092169350632e1a7d4d925083916370a0823191602480820192602092909190829003018186803b1580156109c357600080fd5b505afa1580156109d7573d6000803e3d6000fd5b505050506040513d60208110156109ed57600080fd5b5051604080517fffffffff0000000000000000000000000000000000000000000000000000000060e085901b168152600481019290925251602480830192600092919082900301818387803b158015610a4557600080fd5b505af1158015610a59573d6000803e3d6000fd5b5050604080517f70a08231000000000000000000000000000000000000000000000000000000008152306004820152905160009350738f0528ce5ef7b51152a59745befdd91d97091d2f92506370a0823191602480820192602092909190829003018186803b158015610acb57600080fd5b505afa158015610adf573d6000803e3d6000fd5b505050506040513d6020811015610af557600080fd5b50516007549091506001600160a01b0316738f0528ce5ef7b51152a59745befdd91d97091d2f14801590610b2857508015155b15610e8457600554604080517fd06ca61f000000000000000000000000000000000000000000000000000000008152600481018481526024820192835260088054604484018190526000956001600160a01b03169463d06ca61f9488949260649091019084908015610bc357602002820191906000526020600020905b81546001600160a01b03168152600190910190602001808311610ba5575b5050935050505060006040518083038186803b158015610be257600080fd5b505afa158015610bf6573d6000803e3d6000fd5b505050506040513d6000823e601f3d908101601f191682016040526020811015610c1f57600080fd5b8101908080516040519392919084640100000000821115610c3f57600080fd5b908301906020820185811115610c5457600080fd5b8251866020820283011164010000000082111715610c7157600080fd5b82525081516020918201928201910280838360005b83811015610c9e578181015183820152602001610c86565b5050505090500160405250505060016008805490500381518110610cbe57fe5b602002602001015190506000610cef6103e8610ce96003546103e803856124d790919063ffffffff16565b90612539565b6005549091506001600160a01b03166338ed17398483600830610d14426102586125a0565b6040518663ffffffff1660e01b81526004018086815260200185815260200180602001846001600160a01b031681526020018381526020018281038252858181548152602001915080548015610d9357602002820191906000526020600020905b81546001600160a01b03168152600190910190602001808311610d75575b50509650505050505050600060405180830381600087803b158015610db757600080fd5b505af1158015610dcb573d6000803e3d6000fd5b505050506040513d6000823e601f3d908101601f191682016040526020811015610df457600080fd5b8101908080516040519392919084640100000000821115610e1457600080fd5b908301906020820185811115610e2957600080fd5b8251866020820283011164010000000082111715610e4657600080fd5b82525081516020918201928201910280838360005b83811015610e73578181015183820152602001610e5b565b505050509050016040525050505050505b6000610e8e611651565b9050610eae610e9b611642565b6007546001600160a01b031690836125fa565b50506001600055505050565b600254604080517fe43581b800000000000000000000000000000000000000000000000000000000815233600482015290516001600160a01b039092169163e43581b891602480820192602092909190829003018186803b158015610f1e57600080fd5b505afa158015610f32573d6000803e3d6000fd5b505050506040513d6020811015610f4857600080fd5b505180610fe15750600254604080517f0c68ba2100000000000000000000000000000000000000000000000000000000815233600482015290516001600160a01b0390921691630c68ba2191602480820192602092909190829003018186803b158015610fb457600080fd5b505afa158015610fc8573d6000803e3d6000fd5b505050506040513d6020811015610fde57600080fd5b50515b61101c5760405162461bcd60e51b8152600401808060200182810382526045815260200180613c056045913960600191505060405180910390fd5b61044e61267a565b6006546001600160a01b031681565b60015474010000000000000000000000000000000000000000900460ff1690565b73a625ab01b08ce023b2a342dbb12a16f2c8489a8f81565b73bb4cdb9cbd36b01bd1cbaebf2de08d9173bc095c81565b600254604080517f91d148540000000000000000000000000000000000000000000000000000000081527ff66846415d2bf9eabda9e84793ff9c0ea96d87f50fc41e66aa16469c6a442f05600482015233602482015290516001600160a01b03909216916391d1485491604480820192602092909190829003018186803b15801561110e57600080fd5b505afa158015611122573d6000803e3d6000fd5b505050506040513d602081101561113857600080fd5b50516111755760405162461bcd60e51b815260040180806020018281038252602f815260200180613c4a602f913960400191505060405180910390fd5b6001600160a01b038316738f0528ce5ef7b51152a59745befdd91d97091d2f14156111e7576040805162461bcd60e51b815260206004820152600560248201527f2173616665000000000000000000000000000000000000000000000000000000604482015290519081900360640190fd5b6007546001600160a01b038481169116141561124a576040805162461bcd60e51b815260206004820152600560248201527f2173616665000000000000000000000000000000000000000000000000000000604482015290519081900360640190fd5b6006546001600160a01b03848116911614156112ad576040805162461bcd60e51b815260206004820152600560248201527f2173616665000000000000000000000000000000000000000000000000000000604482015290519081900360640190fd5b6112c16001600160a01b03841682846125fa565b505050565b6005546001600160a01b031681565b6112dd6124d3565b6001600160a01b03166112ee611642565b6001600160a01b031614611349576040805162461bcd60e51b815260206004820181905260248201527f4f776e61626c653a2063616c6c6572206973206e6f7420746865206f776e6572604482015290519081900360640190fd5b6001546040516000916001600160a01b0316907f8be0079c531659141344cd1fd0a4f28419497f9722a3daafe3b4186f6b6457e0908390a3600180547fffffffffffffffffffffffff0000000000000000000000000000000000000000169055565b600254604080517fe43581b800000000000000000000000000000000000000000000000000000000815233600482015290516001600160a01b039092169163e43581b891602480820192602092909190829003018186803b15801561140f57600080fd5b505afa158015611423573d6000803e3d6000fd5b505050506040513d602081101561143957600080fd5b50516114765760405162461bcd60e51b815260040180806020018281038252602f815260200180613b6b602f913960400191505060405180910390fd5b600280547fffffffffffffffffffffffff0000000000000000000000000000000000000000166001600160a01b0383169081179091556040517fad9400e618eb1344fde53db22397a1b82c765527ecbba3a5c86bcac15090828b90600090a250565b600254604080517fe43581b800000000000000000000000000000000000000000000000000000000815233600482015290516001600160a01b039092169163e43581b891602480820192602092909190829003018186803b15801561153c57600080fd5b505afa158015611550573d6000803e3d6000fd5b505050506040513d602081101561156657600080fd5b5051806115ff5750600254604080517f0c68ba2100000000000000000000000000000000000000000000000000000000815233600482015290516001600160a01b0390921691630c68ba2191602480820192602092909190829003018186803b1580156115d257600080fd5b505afa1580156115e6573d6000803e3d6000fd5b505050506040513d60208110156115fc57600080fd5b50515b61163a5760405162461bcd60e51b8152600401808060200182810382526045815260200180613c056045913960600191505060405180910390fd5b61044e612748565b6001546001600160a01b031690565b600754604080517f70a0823100000000000000000000000000000000000000000000000000000000815230600482015290516000926001600160a01b0316916370a08231916024808301926020929190829003018186803b1580156116b557600080fd5b505afa1580156116c9573d6000803e3d6000fd5b505050506040513d60208110156116df57600080fd5b5051905090565b6002600054141561173e576040805162461bcd60e51b815260206004820152601f60248201527f5265656e7472616e637947756172643a207265656e7472616e742063616c6c00604482015290519081900360640190fd5b600260005561174b611033565b1561179d576040805162461bcd60e51b815260206004820152601060248201527f5061757361626c653a2070617573656400000000000000000000000000000000604482015290519081900360640190fd5b6007546117b5906001600160a01b03163330846127b9565b6117c56117c0611651565b612847565b506001600055565b738f0528ce5ef7b51152a59745befdd91d97091d2f81565b600981815481106117f257fe5b60009182526020909120600390910201805460018201546002909201546001600160a01b03909116925083565b611827611033565b15611879576040805162461bcd60e51b815260206004820152601060248201527f5061757361626c653a2070617573656400000000000000000000000000000000604482015290519081900360640190fd5b600254604080517f91d148540000000000000000000000000000000000000000000000000000000081527ff66846415d2bf9eabda9e84793ff9c0ea96d87f50fc41e66aa16469c6a442f05600482015233602482015290516001600160a01b03909216916391d1485491604480820192602092909190829003018186803b15801561190357600080fd5b505afa158015611917573d6000803e3d6000fd5b505050506040513d602081101561192d57600080fd5b505161196a5760405162461bcd60e51b815260040180806020018281038252602f815260200180613c4a602f913960400191505060405180910390fd5b73a625ab01b08ce023b2a342dbb12a16f2c8489a8f6001600160a01b031663ddc63262600960008154811061199b57fe5b9060005260206000209060030201600201546040518263ffffffff1660e01b815260040180828152602001915050600060405180830381600087803b1580156119e357600080fd5b505af11580156119f7573d6000803e3d6000fd5b5050505073a625ab01b08ce023b2a342dbb12a16f2c8489a8f6001600160a01b031663ddc632626009600181548110611a2c57fe5b9060005260206000209060030201600201546040518263ffffffff1660e01b815260040180828152602001915050600060405180830381600087803b158015611a7457600080fd5b505af1158015611a88573d6000803e3d6000fd5b5050505073a625ab01b08ce023b2a342dbb12a16f2c8489a8f6001600160a01b031663ddc632626009600281548110611abd57fe5b9060005260206000209060030201600201546040518263ffffffff1660e01b815260040180828152602001915050600060405180830381600087803b158015611b0557600080fd5b505af1158015611b19573d6000803e3d6000fd5b5050604080517f70a08231000000000000000000000000000000000000000000000000000000008152306004820152905160009350738f0528ce5ef7b51152a59745befdd91d97091d2f92506370a0823191602480820192602092909190829003018186803b158015611b8b57600080fd5b505afa158015611b9f573d6000803e3d6000fd5b505050506040513d6020811015611bb557600080fd5b50516007549091506001600160a01b0316738f0528ce5ef7b51152a59745befdd91d97091d2f14801590611be857508015155b15611f3e57600554604080517fd06ca61f000000000000000000000000000000000000000000000000000000008152600481018481526024820192835260088054604484018190526000956001600160a01b03169463d06ca61f9488949260649091019084908015611c8357602002820191906000526020600020905b81546001600160a01b03168152600190910190602001808311611c65575b5050935050505060006040518083038186803b158015611ca257600080fd5b505afa158015611cb6573d6000803e3d6000fd5b505050506040513d6000823e601f3d908101601f191682016040526020811015611cdf57600080fd5b8101908080516040519392919084640100000000821115611cff57600080fd5b908301906020820185811115611d1457600080fd5b8251866020820283011164010000000082111715611d3157600080fd5b82525081516020918201928201910280838360005b83811015611d5e578181015183820152602001611d46565b5050505090500160405250505060016008805490500381518110611d7e57fe5b602002602001015190506000611da96103e8610ce96003546103e803856124d790919063ffffffff16565b6005549091506001600160a01b03166338ed17398483600830611dce426102586125a0565b6040518663ffffffff1660e01b81526004018086815260200185815260200180602001846001600160a01b031681526020018381526020018281038252858181548152602001915080548015611e4d57602002820191906000526020600020905b81546001600160a01b03168152600190910190602001808311611e2f575b50509650505050505050600060405180830381600087803b158015611e7157600080fd5b505af1158015611e85573d6000803e3d6000fd5b505050506040513d6000823e601f3d908101601f191682016040526020811015611eae57600080fd5b8101908080516040519392919084640100000000821115611ece57600080fd5b908301906020820185811115611ee357600080fd5b8251866020820283011164010000000082111715611f0057600080fd5b82525081516020918201928201910280838360005b83811015611f2d578181015183820152602001611f15565b505050509050016040525050505050505b611f46611651565b90508015611f5757611f5781612847565b5043600455565b600254604080517f91d148540000000000000000000000000000000000000000000000000000000081527ff66846415d2bf9eabda9e84793ff9c0ea96d87f50fc41e66aa16469c6a442f05600482015233602482015290516001600160a01b03909216916391d1485491604480820192602092909190829003018186803b158015611fe857600080fd5b505afa158015611ffc573d6000803e3d6000fd5b505050506040513d602081101561201257600080fd5b505161204f5760405162461bcd60e51b815260040180806020018281038252602f815260200180613c4a602f913960400191505060405180910390fd5b8051612062906008906020840190613a90565b5050565b6007546001600160a01b031681565b600254604080517f91d148540000000000000000000000000000000000000000000000000000000081527ff66846415d2bf9eabda9e84793ff9c0ea96d87f50fc41e66aa16469c6a442f05600482015233602482015290516001600160a01b03909216916391d1485491604480820192602092909190829003018186803b1580156120ff57600080fd5b505afa158015612113573d6000803e3d6000fd5b505050506040513d602081101561212957600080fd5b50516121665760405162461bcd60e51b815260040180806020018281038252602f815260200180613c4a602f913960400191505060405180910390fd5b600081116121a55760405162461bcd60e51b8152600401808060200182810382526024815260200180613bc06024913960400191505060405180910390fd5b60058111156121fb576040805162461bcd60e51b815260206004820152601460248201527f536c69707061676520697320746f6f2068696768000000000000000000000000604482015290519081900360640190fd5b600355565b7ff66846415d2bf9eabda9e84793ff9c0ea96d87f50fc41e66aa16469c6a442f0581565b6002546001600160a01b031690565b61223b6124d3565b6001600160a01b031661224c611642565b6001600160a01b0316146122a7576040805162461bcd60e51b815260206004820181905260248201527f4f776e61626c653a2063616c6c6572206973206e6f7420746865206f776e6572604482015290519081900360640190fd5b6001600160a01b0381166122ec5760405162461bcd60e51b8152600401808060200182810382526026815260200180613b456026913960400191505060405180910390fd5b6001546040516001600160a01b038084169216907f8be0079c531659141344cd1fd0a4f28419497f9722a3daafe3b4186f6b6457e090600090a3600180547fffffffffffffffffffffffff0000000000000000000000000000000000000000166001600160a01b0392909216919091179055565b8015806123ff5750604080517fdd62ed3e0000000000000000000000000000000000000000000000000000000081523060048201526001600160a01b03848116602483015291519185169163dd62ed3e91604480820192602092909190829003018186803b1580156123d157600080fd5b505afa1580156123e5573d6000803e3d6000fd5b505050506040513d60208110156123fb57600080fd5b5051155b61243a5760405162461bcd60e51b8152600401808060200182810382526036815260200180613ca36036913960400191505060405180910390fd5b604080516001600160a01b038416602482015260448082018490528251808303909101815260649091019091526020810180517bffffffffffffffffffffffffffffffffffffffffffffffffffffffff167f095ea7b3000000000000000000000000000000000000000000000000000000001790526112c1908490613650565b60606124c98484600085613701565b90505b9392505050565b3390565b6000826124e657506000612533565b828202828482816124f357fe5b04146125305760405162461bcd60e51b8152600401808060200182810382526021815260200180613be46021913960400191505060405180910390fd5b90505b92915050565b600080821161258f576040805162461bcd60e51b815260206004820152601a60248201527f536166654d6174683a206469766973696f6e206279207a65726f000000000000604482015290519081900360640190fd5b81838161259857fe5b049392505050565b600082820183811015612530576040805162461bcd60e51b815260206004820152601b60248201527f536166654d6174683a206164646974696f6e206f766572666c6f770000000000604482015290519081900360640190fd5b604080516001600160a01b038416602482015260448082018490528251808303909101815260649091019091526020810180517bffffffffffffffffffffffffffffffffffffffffffffffffffffffff167fa9059cbb000000000000000000000000000000000000000000000000000000001790526112c1908490613650565b61268261385d565b6005546126ce90738f0528ce5ef7b51152a59745befdd91d97091d2f906001600160a01b03167fffffffffffffffffffffffffffffffffffffffffffffffffffffffffffffffff612360565b60055460075461270b916001600160a01b0391821691167fffffffffffffffffffffffffffffffffffffffffffffffffffffffffffffffff612360565b60065460075461044e916001600160a01b0391821691167fffffffffffffffffffffffffffffffffffffffffffffffffffffffffffffffff612360565b612750613924565b60055461277d90738f0528ce5ef7b51152a59745befdd91d97091d2f906001600160a01b03166000612360565b60055460075461279b916001600160a01b0391821691166000612360565b60065460075461044e916001600160a01b0391821691166000612360565b604080516001600160a01b0380861660248301528416604482015260648082018490528251808303909101815260849091019091526020810180517bffffffffffffffffffffffffffffffffffffffffffffffffffffffff167f23b872dd00000000000000000000000000000000000000000000000000000000179052612841908590613650565b50505050565b60006064600960008154811061285957fe5b90600052602060002090600302016001015483028161287457fe5b04905060006064600960018154811061288957fe5b9060005260206000209060030201600101548402816128a457fe5b0490506000606460096002815481106128b957fe5b9060005260206000209060030201600101548502816128d457fe5b604080516002808252606080830184529490930494509190602083019080368337019050509050600960008154811061290957fe5b6000918252602082206003909102015482516001600160a01b0390911691839161292f57fe5b60200260200101906001600160a01b031690816001600160a01b031681525050600960018154811061295d57fe5b600091825260209091206003909102015481516001600160a01b03909116908290600190811061298957fe5b6001600160a01b039290921660209283029190910190910152604080516002808252606082810190935281602001602082028036833701905050905060096000815481106129d357fe5b6000918252602082206003909102015482516001600160a01b039091169183916129f957fe5b60200260200101906001600160a01b031690816001600160a01b0316815250506009600281548110612a2757fe5b600091825260209091206003909102015481516001600160a01b039091169082906001908110612a5357fe5b6001600160a01b03928316602091820292909201810191909152600554604080517fd06ca61f0000000000000000000000000000000000000000000000000000000081526004810189815260248201928352875160448301528751600096949094169463d06ca61f948b948a94909260649091019185820191028083838c5b83811015612aea578181015183820152602001612ad2565b50505050905001935050505060006040518083038186803b158015612b0e57600080fd5b505afa158015612b22573d6000803e3d6000fd5b505050506040513d6000823e601f3d908101601f191682016040526020811015612b4b57600080fd5b8101908080516040519392919084640100000000821115612b6b57600080fd5b908301906020820185811115612b8057600080fd5b8251866020820283011164010000000082111715612b9d57600080fd5b82525081516020918201928201910280838360005b83811015612bca578181015183820152602001612bb2565b50505050905001604052505050600181518110612be357fe5b602002602001015190506000612c0e6103e8610ce96003546103e803856124d790919063ffffffff16565b600554604080517fd06ca61f00000000000000000000000000000000000000000000000000000000815260048101898152602482019283528751604483015287519495506000946001600160a01b039094169363d06ca61f938b938a9392606490910190602080860191028083838c5b83811015612c96578181015183820152602001612c7e565b50505050905001935050505060006040518083038186803b158015612cba57600080fd5b505afa158015612cce573d6000803e3d6000fd5b505050506040513d6000823e601f3d908101601f191682016040526020811015612cf757600080fd5b8101908080516040519392919084640100000000821115612d1757600080fd5b908301906020820185811115612d2c57600080fd5b8251866020820283011164010000000082111715612d4957600080fd5b82525081516020918201928201910280838360005b83811015612d76578181015183820152602001612d5e565b50505050905001604052505050600181518110612d8f57fe5b602002602001015190506000612dba6103e8610ce96003546103e803856124d790919063ffffffff16565b6005549091506001600160a01b03166338ed173989838930612dde426102586125a0565b6040518663ffffffff1660e01b81526004018086815260200185815260200180602001846001600160a01b03168152602001838152602001828103825285818151815260200191508051906020019060200280838360005b83811015612e4e578181015183820152602001612e36565b505050509050019650505050505050600060405180830381600087803b158015612e7757600080fd5b505af1158015612e8b573d6000803e3d6000fd5b505050506040513d6000823e601f3d908101601f191682016040526020811015612eb457600080fd5b8101908080516040519392919084640100000000821115612ed457600080fd5b908301906020820185811115612ee957600080fd5b8251866020820283011164010000000082111715612f0657600080fd5b82525081516020918201928201910280838360005b83811015612f33578181015183820152602001612f1b565b505050509190910160405250506005546001600160a01b031692506338ed17399150899050858830612f67426102586125a0565b6040518663ffffffff1660e01b81526004018086815260200185815260200180602001846001600160a01b03168152602001838152602001828103825285818151815260200191508051906020019060200280838360005b83811015612fd7578181015183820152602001612fbf565b505050509050019650505050505050600060405180830381600087803b15801561300057600080fd5b505af1158015613014573d6000803e3d6000fd5b505050506040513d6000823e601f3d908101601f19168201604052602081101561303d57600080fd5b810190808051604051939291908464010000000082111561305d57600080fd5b90830190602082018581111561307257600080fd5b825186602082028301116401000000008211171561308f57600080fd5b82525081516020918201928201910280838360005b838110156130bc5781810151838201526020016130a4565b5050505090500160405250505050600660009054906101000a90046001600160a01b03166001600160a01b031663b6b55f258a6040518263ffffffff1660e01b815260040180828152602001915050600060405180830381600087803b15801561312557600080fd5b505af1158015613139573d6000803e3d6000fd5b5050505073a625ab01b08ce023b2a342dbb12a16f2c8489a8f6001600160a01b0316630efe6a8b30600960008154811061316f57fe5b600091825260209182902060026003909202010154600654604080517f70a08231000000000000000000000000000000000000000000000000000000008152306004820152905192936001600160a01b03909216926370a0823192602480840193919291829003018186803b1580156131e757600080fd5b505afa1580156131fb573d6000803e3d6000fd5b505050506040513d602081101561321157600080fd5b5051604080517fffffffff0000000000000000000000000000000000000000000000000000000060e087901b1681526001600160a01b0390941660048501526024840192909252604483015251606480830192600092919082900301818387803b15801561327e57600080fd5b505af1158015613292573d6000803e3d6000fd5b5050600654604080517fb6b55f25000000000000000000000000000000000000000000000000000000008152600481018d905290516001600160a01b03909216935063b6b55f25925060248082019260009290919082900301818387803b1580156132fc57600080fd5b505af1158015613310573d6000803e3d6000fd5b5050505073a625ab01b08ce023b2a342dbb12a16f2c8489a8f6001600160a01b0316630efe6a8b30600960018154811061334657fe5b600091825260209182902060026003909202010154600654604080517f70a08231000000000000000000000000000000000000000000000000000000008152306004820152905192936001600160a01b03909216926370a0823192602480840193919291829003018186803b1580156133be57600080fd5b505afa1580156133d2573d6000803e3d6000fd5b505050506040513d60208110156133e857600080fd5b5051604080517fffffffff0000000000000000000000000000000000000000000000000000000060e087901b1681526001600160a01b0390941660048501526024840192909252604483015251606480830192600092919082900301818387803b15801561345557600080fd5b505af1158015613469573d6000803e3d6000fd5b5050600654604080517fb6b55f25000000000000000000000000000000000000000000000000000000008152600481018c905290516001600160a01b03909216935063b6b55f25925060248082019260009290919082900301818387803b1580156134d357600080fd5b505af11580156134e7573d6000803e3d6000fd5b5050505073a625ab01b08ce023b2a342dbb12a16f2c8489a8f6001600160a01b0316630efe6a8b30600960028154811061351d57fe5b600091825260209182902060026003909202010154600654604080517f70a08231000000000000000000000000000000000000000000000000000000008152306004820152905192936001600160a01b03909216926370a0823192602480840193919291829003018186803b15801561359557600080fd5b505afa1580156135a9573d6000803e3d6000fd5b505050506040513d60208110156135bf57600080fd5b5051604080517fffffffff0000000000000000000000000000000000000000000000000000000060e087901b1681526001600160a01b0390941660048501526024840192909252604483015251606480830192600092919082900301818387803b15801561362c57600080fd5b505af1158015613640573d6000803e3d6000fd5b5050505050505050505050505050565b60606136a5826040518060400160405280602081526020017f5361666545524332303a206c6f772d6c6576656c2063616c6c206661696c6564815250856001600160a01b03166124ba9092919063ffffffff16565b8051909150156112c1578080602001905160208110156136c457600080fd5b50516112c15760405162461bcd60e51b815260040180806020018281038252602a815260200180613c79602a913960400191505060405180910390fd5b6060824710156137425760405162461bcd60e51b8152600401808060200182810382526026815260200180613b9a6026913960400191505060405180910390fd5b61374b856139e6565b61379c576040805162461bcd60e51b815260206004820152601d60248201527f416464726573733a2063616c6c20746f206e6f6e2d636f6e7472616374000000604482015290519081900360640190fd5b60006060866001600160a01b031685876040518082805190602001908083835b602083106137db5780518252601f1990920191602091820191016137bc565b6001836020036101000a03801982511681845116808217855250505050505090500191505060006040518083038185875af1925050503d806000811461383d576040519150601f19603f3d011682016040523d82523d6000602084013e613842565b606091505b50915091506138528282866139ec565b979650505050505050565b613865611033565b6138b6576040805162461bcd60e51b815260206004820152601460248201527f5061757361626c653a206e6f7420706175736564000000000000000000000000604482015290519081900360640190fd5b600180547fffffffffffffffffffffff00ffffffffffffffffffffffffffffffffffffffff1690557f5db9ee0a495bf2e6ff9c91a7834c1ba4fdd244a5e8aa4e537bd38aeae4b073aa6139076124d3565b604080516001600160a01b039092168252519081900360200190a1565b61392c611033565b1561397e576040805162461bcd60e51b815260206004820152601060248201527f5061757361626c653a2070617573656400000000000000000000000000000000604482015290519081900360640190fd5b600180547fffffffffffffffffffffff00ffffffffffffffffffffffffffffffffffffffff16740100000000000000000000000000000000000000001790557f62e78cea01bee320cd4e420270b5ea74000d11b0c9f74754ebdbfc544b05a2586139076124d3565b3b151590565b606083156139fb5750816124cc565b825115613a0b5782518084602001fd5b8160405162461bcd60e51b81526004018080602001828103825283818151815260200191508051906020019080838360005b83811015613a55578181015183820152602001613a3d565b50505050905090810190601f168015613a825780820380516001836020036101000a031916815260200191505b509250505060405180910390fd5b828054828255906000526020600020908101928215613afd579160200282015b82811115613afd57825182547fffffffffffffffffffffffff0000000000000000000000000000000000000000166001600160a01b03909116178255602090920191600190910190613ab0565b50613b09929150613b0d565b5090565b5b80821115613b095780547fffffffffffffffffffffffff0000000000000000000000000000000000000000168155600101613b0e56fe4f776e61626c653a206e6577206f776e657220697320746865207a65726f2061646472657373436f72655265663a3a6f6e6c79476f7665726e6f723a2043616c6c6572206973206e6f74206120676f7665726e6f72416464726573733a20696e73756666696369656e742062616c616e636520666f722063616c6c536c6970706167652073686f756c642062652067726561746572207468616e207a65726f536166654d6174683a206d756c7469706c69636174696f6e206f766572666c6f77436f72655265663a3a6f6e6c79477561726469616e4f72476f7665726e6f723a2043616c6c6572206973206e6f74206120677561726469616e206f7220676f7665726e6f72436f72655265663a3a6f6e6c7954696d656c6f636b3a2043616c6c6572206973206e6f7420612074696d656c6f636b5361666545524332303a204552433230206f7065726174696f6e20646964206e6f7420737563636565645361666545524332303a20617070726f76652066726f6d206e6f6e2d7a65726f20746f206e6f6e2d7a65726f20616c6c6f77616e6365a26469706673582212207be35dc4d2bb214e85ea4da319c3536ad875d7ad8e06fca383ede8233775989564736f6c634300060c0033416464726573733a20696e73756666696369656e742062616c616e636520666f722063616c6c5361666545524332303a204552433230206f7065726174696f6e20646964206e6f7420737563636565645361666545524332303a20617070726f76652066726f6d206e6f6e2d7a65726f20746f206e6f6e2d7a65726f20616c6c6f77616e6365",
  "linkReferences": {},
  "deployedLinkReferences": {}
}