{
  "_format": "hh-sol-artifact-1",
  "contractName": "StrategyVenus",
  "sourceName": "contracts/strategy/StrategyVenus.sol",
  "abi": [
    {
      "inputs": [
        {
          "internalType": "address",
          "name": "_core",
          "type": "address"
        },
        {
          "internalType": "address",
          "name": "_wantAddress",
          "type": "address"
        },
        {
          "internalType": "address",
          "name": "_vTokenAddress",
          "type": "address"
        },
        {
          "internalType": "address",
          "name": "_uniRouterAddress",
          "type": "address"
        },
        {
          "internalType": "address",
          "name": "_earnedAddress",
          "type": "address"
        },
        {
          "internalType": "address",
          "name": "_distributionAddress",
          "type": "address"
        },
        {
          "internalType": "address[]",
          "name": "_earnedToWantPath",
          "type": "address[]"
        },
        {
          "internalType": "bool",
          "name": "_isComp",
          "type": "bool"
        }
      ],
      "stateMutability": "nonpayable",
      "type": "constructor"
    },
    {
      "anonymous": false,
      "inputs": [
        {
          "indexed": true,
          "internalType": "address",
          "name": "_core",
          "type": "address"
        }
      ],
      "name": "CoreUpdate",
      "type": "event"
    },
    {
      "anonymous": false,
      "inputs": [
        {
          "indexed": false,
          "internalType": "address",
          "name": "wantAddress",
          "type": "address"
        },
        {
          "indexed": false,
          "internalType": "uint256",
          "name": "amountReceived",
          "type": "uint256"
        },
        {
          "indexed": false,
          "internalType": "uint256",
          "name": "amountDeposited",
          "type": "uint256"
        }
      ],
      "name": "Deposit",
      "type": "event"
    },
    {
      "anonymous": false,
      "inputs": [
        {
          "indexed": true,
          "internalType": "address",
          "name": "previousOwner",
          "type": "address"
        },
        {
          "indexed": true,
          "internalType": "address",
          "name": "newOwner",
          "type": "address"
        }
      ],
      "name": "OwnershipTransferred",
      "type": "event"
    },
    {
      "anonymous": false,
      "inputs": [
        {
          "indexed": false,
          "internalType": "address",
          "name": "account",
          "type": "address"
        }
      ],
      "name": "Paused",
      "type": "event"
    },
    {
      "anonymous": false,
      "inputs": [
        {
          "indexed": false,
          "internalType": "address",
          "name": "account",
          "type": "address"
        }
      ],
      "name": "Unpaused",
      "type": "event"
    },
    {
      "anonymous": false,
      "inputs": [
        {
          "indexed": false,
          "internalType": "address",
          "name": "wantAddress",
          "type": "address"
        },
        {
          "indexed": false,
          "internalType": "uint256",
          "name": "amountRequested",
          "type": "uint256"
        },
        {
          "indexed": false,
          "internalType": "uint256",
          "name": "amountWithdrawn",
          "type": "uint256"
        }
      ],
      "name": "Withdraw",
      "type": "event"
    },
    {
      "inputs": [],
      "name": "TIMELOCK_ROLE",
      "outputs": [
        {
          "internalType": "bytes32",
          "name": "",
          "type": "bytes32"
        }
      ],
      "stateMutability": "view",
      "type": "function"
    },
    {
      "inputs": [],
      "name": "borrowRate",
      "outputs": [
        {
          "internalType": "uint256",
          "name": "",
          "type": "uint256"
        }
      ],
      "stateMutability": "view",
      "type": "function"
    },
    {
      "inputs": [],
      "name": "core",
      "outputs": [
        {
          "internalType": "contract ICore",
          "name": "",
          "type": "address"
        }
      ],
      "stateMutability": "view",
      "type": "function"
    },
    {
      "inputs": [
        {
          "internalType": "uint256",
          "name": "_amount",
          "type": "uint256"
        }
      ],
      "name": "deleverage",
      "outputs": [],
      "stateMutability": "nonpayable",
      "type": "function"
    },
    {
      "inputs": [
        {
          "internalType": "uint256",
          "name": "redeemFeeAmt",
          "type": "uint256"
        }
      ],
      "name": "deleverageAll",
      "outputs": [],
      "stateMutability": "nonpayable",
      "type": "function"
    },
    {
      "inputs": [
        {
          "internalType": "uint256",
          "name": "_wantAmt",
          "type": "uint256"
        }
      ],
      "name": "deposit",
      "outputs": [
        {
          "internalType": "uint256",
          "name": "",
          "type": "uint256"
        }
      ],
      "stateMutability": "nonpayable",
      "type": "function"
    },
    {
      "inputs": [],
      "name": "distributionAddress",
      "outputs": [
        {
          "internalType": "address",
          "name": "",
          "type": "address"
        }
      ],
      "stateMutability": "view",
      "type": "function"
    },
    {
      "inputs": [],
      "name": "earn",
      "outputs": [],
      "stateMutability": "nonpayable",
      "type": "function"
    },
    {
      "inputs": [],
      "name": "earnedAddress",
      "outputs": [
        {
          "internalType": "address",
          "name": "",
          "type": "address"
        }
      ],
      "stateMutability": "view",
      "type": "function"
    },
    {
      "inputs": [
        {
          "internalType": "uint256",
          "name": "",
          "type": "uint256"
        }
      ],
      "name": "earnedToWantPath",
      "outputs": [
        {
          "internalType": "address",
          "name": "",
          "type": "address"
        }
      ],
      "stateMutability": "view",
      "type": "function"
    },
    {
      "inputs": [
        {
          "internalType": "address",
          "name": "_token",
          "type": "address"
        },
        {
          "internalType": "uint256",
          "name": "_amount",
          "type": "uint256"
        },
        {
          "internalType": "address",
          "name": "_to",
          "type": "address"
        }
      ],
      "name": "inCaseTokensGetStuck",
      "outputs": [],
      "stateMutability": "nonpayable",
      "type": "function"
    },
    {
      "inputs": [],
      "name": "isComp",
      "outputs": [
        {
          "internalType": "bool",
          "name": "",
          "type": "bool"
        }
      ],
      "stateMutability": "view",
      "type": "function"
    },
    {
      "inputs": [],
      "name": "lastEarnBlock",
      "outputs": [
        {
          "internalType": "uint256",
          "name": "",
          "type": "uint256"
        }
      ],
      "stateMutability": "view",
      "type": "function"
    },
    {
      "inputs": [
        {
          "internalType": "uint256",
          "name": "_amount",
          "type": "uint256"
        }
      ],
      "name": "leverage",
      "outputs": [],
      "stateMutability": "nonpayable",
      "type": "function"
    },
    {
      "inputs": [
        {
          "internalType": "uint256",
          "name": "",
          "type": "uint256"
        }
      ],
      "name": "markets",
      "outputs": [
        {
          "internalType": "address",
          "name": "",
          "type": "address"
        }
      ],
      "stateMutability": "view",
      "type": "function"
    },
    {
      "inputs": [],
      "name": "owner",
      "outputs": [
        {
          "internalType": "address",
          "name": "",
          "type": "address"
        }
      ],
      "stateMutability": "view",
      "type": "function"
    },
    {
      "inputs": [],
      "name": "pause",
      "outputs": [],
      "stateMutability": "nonpayable",
      "type": "function"
    },
    {
      "inputs": [],
      "name": "paused",
      "outputs": [
        {
          "internalType": "bool",
          "name": "",
          "type": "bool"
        }
      ],
      "stateMutability": "view",
      "type": "function"
    },
    {
      "inputs": [],
      "name": "renounceOwnership",
      "outputs": [],
      "stateMutability": "nonpayable",
      "type": "function"
    },
    {
      "inputs": [
        {
          "internalType": "uint256",
          "name": "_borrowRate",
          "type": "uint256"
        }
      ],
      "name": "setBorrowRate",
      "outputs": [],
      "stateMutability": "nonpayable",
      "type": "function"
    },
    {
      "inputs": [
        {
          "internalType": "address",
          "name": "core_",
          "type": "address"
        }
      ],
      "name": "setCore",
      "outputs": [],
      "stateMutability": "nonpayable",
      "type": "function"
    },
    {
      "inputs": [
        {
          "internalType": "address[]",
          "name": "newPath",
          "type": "address[]"
        }
      ],
      "name": "setEarnedToWantPath",
      "outputs": [],
      "stateMutability": "nonpayable",
      "type": "function"
    },
    {
      "inputs": [
        {
          "internalType": "address",
          "name": "newOwner",
          "type": "address"
        }
      ],
      "name": "transferOwnership",
      "outputs": [],
      "stateMutability": "nonpayable",
      "type": "function"
    },
    {
      "inputs": [],
      "name": "uniRouterAddress",
      "outputs": [
        {
          "internalType": "address",
          "name": "",
          "type": "address"
        }
      ],
      "stateMutability": "view",
      "type": "function"
    },
    {
      "inputs": [],
      "name": "unpause",
      "outputs": [],
      "stateMutability": "nonpayable",
      "type": "function"
    },
    {
      "inputs": [],
      "name": "updateBalance",
      "outputs": [
        {
          "internalType": "uint256",
          "name": "sup",
          "type": "uint256"
        },
        {
          "internalType": "uint256",
          "name": "brw",
          "type": "uint256"
        },
        {
          "internalType": "uint256",
          "name": "supMin",
          "type": "uint256"
        }
      ],
      "stateMutability": "view",
      "type": "function"
    },
    {
      "inputs": [],
      "name": "updateStrategy",
      "outputs": [],
      "stateMutability": "nonpayable",
      "type": "function"
    },
    {
      "inputs": [],
      "name": "vTokenAddress",
      "outputs": [
        {
          "internalType": "address",
          "name": "",
          "type": "address"
        }
      ],
      "stateMutability": "view",
      "type": "function"
    },
    {
      "inputs": [],
      "name": "wantAddress",
      "outputs": [
        {
          "internalType": "address",
          "name": "",
          "type": "address"
        }
      ],
      "stateMutability": "view",
      "type": "function"
    },
    {
      "inputs": [],
      "name": "wantLockedInHere",
      "outputs": [
        {
          "internalType": "uint256",
          "name": "",
          "type": "uint256"
        }
      ],
      "stateMutability": "view",
      "type": "function"
    },
    {
      "inputs": [],
      "name": "wantLockedTotal",
      "outputs": [
        {
          "internalType": "uint256",
          "name": "",
          "type": "uint256"
        }
      ],
      "stateMutability": "view",
      "type": "function"
    },
    {
      "inputs": [],
      "name": "wbnbAddress",
      "outputs": [
        {
          "internalType": "address",
          "name": "",
          "type": "address"
        }
      ],
      "stateMutability": "view",
      "type": "function"
    },
    {
      "inputs": [
        {
          "internalType": "uint256",
          "name": "_wantAmt",
          "type": "uint256"
        }
      ],
      "name": "withdraw",
      "outputs": [
        {
          "internalType": "uint256",
          "name": "",
          "type": "uint256"
        }
      ],
      "stateMutability": "nonpayable",
      "type": "function"
    }
  ],
  "bytecode": "0x60806040523480156200001157600080fd5b506040516200399e3803806200399e83398181016040526101008110156200003857600080fd5b815160208301516040808501516060860151608087015160a088015160c089018051955197999698949793969295919483019291846401000000008211156200008057600080fd5b9083019060208201858111156200009657600080fd5b8251866020820283011164010000000082111715620000b457600080fd5b82525081516020918201928201910280838360005b83811015620000e3578181015183820152602001620000c9565b50505050919091016040525060200151600160009081559092508991506200010a6200037a565b600180546001600160a01b0319166001600160a01b038316908117909155604051919250906000907f8be0079c531659141344cd1fd0a4f28419497f9722a3daafe3b4186f6b6457e0908290a3506001805460ff60a01b19169055600280546001600160a01b03199081166001600160a01b0393841617909155610249600b55600480549091169189169190911790558151620001af90600a90602085019062000791565b50600880546001600160a01b038087166001600160a01b0319928316179092556009805486841690831617905560058054898416921691909117908190556040805160208101909152911681526200020c90600690600162000791565b50600780546001600160a01b0319166001600160a01b038781169190911791829055600c805460ff19168415151790556008546200025e9290821691166000196200037e602090811b62001f3217901c565b6007546004546200028b916001600160a01b0391821691166000196200037e602090811b62001f3217901c565b600554600454620002b8916001600160a01b0391821691166000196200037e602090811b62001f3217901c565b600954604051631853304760e31b815260206004820190815260068054602484018190526001600160a01b039094169363c2998238939192918291604490910190849080156200033257602002820191906000526020600020905b81546001600160a01b0316815260019091019060200180831162000313575b505092505050600060405180830381600087803b1580156200035357600080fd5b505af115801562000368573d6000803e3d6000fd5b5050505050505050505050506200081c565b3390565b80158062000408575060408051636eb1769f60e11b81523060048201526001600160a01b03848116602483015291519185169163dd62ed3e91604480820192602092909190829003018186803b158015620003d857600080fd5b505afa158015620003ed573d6000803e3d6000fd5b505050506040513d60208110156200040457600080fd5b5051155b620004455760405162461bcd60e51b8152600401808060200182810382526036815260200180620039686036913960400191505060405180910390fd5b604080516001600160a01b038416602482015260448082018490528251808303909101815260649091019091526020810180516001600160e01b0390811663095ea7b360e01b179091526200049d918591620004a216565b505050565b6060620004fe826040518060400160405280602081526020017f5361666545524332303a206c6f772d6c6576656c2063616c6c206661696c6564815250856001600160a01b03166200055e60201b6200208c179092919060201c565b8051909150156200049d578080602001905160208110156200051f57600080fd5b50516200049d5760405162461bcd60e51b815260040180806020018281038252602a8152602001806200393e602a913960400191505060405180910390fd5b60606200056f848460008562000579565b90505b9392505050565b606082471015620005bc5760405162461bcd60e51b8152600401808060200182810382526026815260200180620039186026913960400191505060405180910390fd5b620005c785620006e1565b62000619576040805162461bcd60e51b815260206004820152601d60248201527f416464726573733a2063616c6c20746f206e6f6e2d636f6e7472616374000000604482015290519081900360640190fd5b60006060866001600160a01b031685876040518082805190602001908083835b602083106200065a5780518252601f19909201916020918201910162000639565b6001836020036101000a03801982511681845116808217855250505050505090500191505060006040518083038185875af1925050503d8060008114620006be576040519150601f19603f3d011682016040523d82523d6000602084013e620006c3565b606091505b509092509050620006d6828286620006e7565b979650505050505050565b3b151590565b60608315620006f857508162000572565b825115620007095782518084602001fd5b8160405162461bcd60e51b81526004018080602001828103825283818151815260200191508051906020019080838360005b83811015620007555781810151838201526020016200073b565b50505050905090810190601f168015620007835780820380516001836020036101000a031916815260200191505b509250505060405180910390fd5b828054828255906000526020600020908101928215620007e9579160200282015b82811115620007e957825182546001600160a01b0319166001600160a01b03909116178255602090920191600190910190620007b2565b50620007f7929150620007fb565b5090565b5b80821115620007f75780546001600160a01b0319168155600101620007fc565b6130ec806200082c6000396000f3fe608060405234801561001057600080fd5b506004361061020b5760003560e01c80638da5cb5b1161012a578063c914b437116100bd578063e71984741161008c578063f288a2e211610071578063f288a2e2146104f1578063f2f4eb26146104f9578063f2fde38b146105015761020b565b8063e7198474146104e1578063e7a03679146104e95761020b565b8063c914b43714610411578063d389800f14610419578063dbdb962614610421578063dd3eaf04146104c45761020b565b8063a9559dd7116100f9578063a9559dd714610394578063acd431a8146103ba578063b1283e77146103d7578063b6b55f25146103f45761020b565b80638da5cb5b1461035f57806392942dba14610367578063937901131461036f5780639fdabec2146103775761020b565b806342da4eb3116101a2578063693a090b11610171578063693a090b14610321578063715018a61461032957806380009630146103315780638456cb59146103575761020b565b806342da4eb3146102bf5780635c975abb146102c757806363fe3e3a146102e357806367206d40146102eb5761020b565b8063303ffe8b116101de578063303ffe8b1461027557806337fb7e211461029257806338946a8c1461029a5780633f4ba83a146102b75761020b565b80630fa4e01e146102105780632792bd571461022a5780632e1a7d4d1461024e5780632fddd9131461026b575b600080fd5b610218610527565b60408051918252519081900360200190f35b61023261052d565b604080516001600160a01b039092168252519081900360200190f35b6102186004803603602081101561026457600080fd5b503561053c565b610273610699565b005b6102736004803603602081101561028b57600080fd5b5035610721565b6102326108c6565b610232600480360360208110156102b057600080fd5b50356108d5565b6102736108fc565b610218610a66565b6102cf610a9b565b604080519115158252519081900360200190f35b610232610abc565b6102736004803603606081101561030157600080fd5b506001600160a01b03813581169160208101359160409091013516610ad4565b610232610d07565b610273610d16565b6102736004803603602081101561034757600080fd5b50356001600160a01b0316610dec565b610273610f19565b610232611083565b6102cf611092565b61021861109b565b6102736004803603602081101561038d57600080fd5b5035611134565b61039c611231565b60408051938452602084019290925282820152519081900360600190f35b610273600480360360208110156103d057600080fd5b5035611382565b610232600480360360208110156103ed57600080fd5b503561147c565b6102186004803603602081101561040a57600080fd5b5035611489565b610218611687565b61027361168d565b6102736004803603602081101561043757600080fd5b81019060208101813564010000000081111561045257600080fd5b82018360208201111561046457600080fd5b8035906020019184602083028401116401000000008311171561048657600080fd5b919080806020026020016040519081016040528093929190818152602001838360200280828437600092019190915250929550611b5f945050505050565b610273600480360360208110156104da57600080fd5b5035611c67565b610232611db4565b610232611dc3565b610218611dd2565b610232611df6565b6102736004803603602081101561051757600080fd5b50356001600160a01b0316611e05565b60035481565b6005546001600160a01b031681565b60006105466120a5565b6001600160a01b0316610557611083565b6001600160a01b0316146105b2576040805162461bcd60e51b815260206004820181905260248201527f4f776e61626c653a2063616c6c6572206973206e6f7420746865206f776e6572604482015290519081900360640190fd5b6002600054141561060a576040805162461bcd60e51b815260206004820152601f60248201527f5265656e7472616e637947756172643a207265656e7472616e742063616c6c00604482015290519081900360640190fd5b6002600055610618826120a9565b600061062261109b565b905061064261062f611083565b6004546001600160a01b0316908361214a565b600454604080516001600160a01b03909216825260208201859052818101839052517ff279e6a1f5e320cca91135676d9cb6e44ca8a08c0b88342bcdb1144f6511b5689181900360600190a1600160005592915050565b600560009054906101000a90046001600160a01b03166001600160a01b031663a6afed956040518163ffffffff1660e01b8152600401602060405180830381600087803b1580156106e957600080fd5b505af11580156106fd573d6000803e3d6000fd5b505050506040513d602081101561071357600080fd5b50511561071f57600080fd5b565b600254604080517f91d148540000000000000000000000000000000000000000000000000000000081527ff66846415d2bf9eabda9e84793ff9c0ea96d87f50fc41e66aa16469c6a442f05600482015233602482015290516001600160a01b03909216916391d1485491604480820192602092909190829003018186803b1580156107ab57600080fd5b505afa1580156107bf573d6000803e3d6000fd5b505050506040513d60208110156107d557600080fd5b50516108125760405162461bcd60e51b815260040180806020018281038252602f815260200180613028602f913960400191505060405180910390fd5b61081a610699565b6000806000610827611231565b9194509250905061083883826121ca565b610842838661222c565b1115610895576040805162461bcd60e51b815260206004820152600e60248201527f616d6f756e7420746f6f20626967000000000000000000000000000000000000604482015290519081900360640190fd5b6108a76108a2838661222c565b612286565b6108b08261236b565b6108c06108bb61109b565b612450565b50505050565b6009546001600160a01b031681565b600a81815481106108e257fe5b6000918252602090912001546001600160a01b0316905081565b600254604080517fe43581b800000000000000000000000000000000000000000000000000000000815233600482015290516001600160a01b039092169163e43581b891602480820192602092909190829003018186803b15801561096057600080fd5b505afa158015610974573d6000803e3d6000fd5b505050506040513d602081101561098a57600080fd5b505180610a235750600254604080517f0c68ba2100000000000000000000000000000000000000000000000000000000815233600482015290516001600160a01b0390921691630c68ba2191602480820192602092909190829003018186803b1580156109f657600080fd5b505afa158015610a0a573d6000803e3d6000fd5b505050506040513d6020811015610a2057600080fd5b50515b610a5e5760405162461bcd60e51b8152600401808060200182810382526045815260200180612fe36045913960600191505060405180910390fd5b61071f612535565b6000806000610a73611231565b5091509150610a9481610a8e84610a8861109b565b9061222c565b906121ca565b9250505090565b60015474010000000000000000000000000000000000000000900460ff1690565b73bb4cdb9cbd36b01bd1cbaebf2de08d9173bc095c81565b600254604080517f91d148540000000000000000000000000000000000000000000000000000000081527ff66846415d2bf9eabda9e84793ff9c0ea96d87f50fc41e66aa16469c6a442f05600482015233602482015290516001600160a01b03909216916391d1485491604480820192602092909190829003018186803b158015610b5e57600080fd5b505afa158015610b72573d6000803e3d6000fd5b505050506040513d6020811015610b8857600080fd5b5051610bc55760405162461bcd60e51b815260040180806020018281038252602f815260200180613028602f913960400191505060405180910390fd5b6008546001600160a01b0384811691161415610c28576040805162461bcd60e51b815260206004820152600560248201527f2173616665000000000000000000000000000000000000000000000000000000604482015290519081900360640190fd5b6004546001600160a01b0384811691161415610c8b576040805162461bcd60e51b815260206004820152600560248201527f2173616665000000000000000000000000000000000000000000000000000000604482015290519081900360640190fd5b6005546001600160a01b0384811691161415610cee576040805162461bcd60e51b815260206004820152600560248201527f2173616665000000000000000000000000000000000000000000000000000000604482015290519081900360640190fd5b610d026001600160a01b038416828461214a565b505050565b6007546001600160a01b031681565b610d1e6120a5565b6001600160a01b0316610d2f611083565b6001600160a01b031614610d8a576040805162461bcd60e51b815260206004820181905260248201527f4f776e61626c653a2063616c6c6572206973206e6f7420746865206f776e6572604482015290519081900360640190fd5b6001546040516000916001600160a01b0316907f8be0079c531659141344cd1fd0a4f28419497f9722a3daafe3b4186f6b6457e0908390a3600180547fffffffffffffffffffffffff0000000000000000000000000000000000000000169055565b600254604080517fe43581b800000000000000000000000000000000000000000000000000000000815233600482015290516001600160a01b039092169163e43581b891602480820192602092909190829003018186803b158015610e5057600080fd5b505afa158015610e64573d6000803e3d6000fd5b505050506040513d6020811015610e7a57600080fd5b5051610eb75760405162461bcd60e51b815260040180806020018281038252602f815260200180612f6d602f913960400191505060405180910390fd5b600280547fffffffffffffffffffffffff0000000000000000000000000000000000000000166001600160a01b0383169081179091556040517fad9400e618eb1344fde53db22397a1b82c765527ecbba3a5c86bcac15090828b90600090a250565b600254604080517fe43581b800000000000000000000000000000000000000000000000000000000815233600482015290516001600160a01b039092169163e43581b891602480820192602092909190829003018186803b158015610f7d57600080fd5b505afa158015610f91573d6000803e3d6000fd5b505050506040513d6020811015610fa757600080fd5b5051806110405750600254604080517f0c68ba2100000000000000000000000000000000000000000000000000000000815233600482015290516001600160a01b0390921691630c68ba2191602480820192602092909190829003018186803b15801561101357600080fd5b505afa158015611027573d6000803e3d6000fd5b505050506040513d602081101561103d57600080fd5b50515b61107b5760405162461bcd60e51b8152600401808060200182810382526045815260200180612fe36045913960600191505060405180910390fd5b61071f6125f4565b6001546001600160a01b031690565b600c5460ff1681565b60048054604080517f70a082310000000000000000000000000000000000000000000000000000000081523093810193909352516000926001600160a01b03909216916370a08231916024808301926020929190829003018186803b15801561110357600080fd5b505afa158015611117573d6000803e3d6000fd5b505050506040513d602081101561112d57600080fd5b5051905090565b600254604080517f91d148540000000000000000000000000000000000000000000000000000000081527ff66846415d2bf9eabda9e84793ff9c0ea96d87f50fc41e66aa16469c6a442f05600482015233602482015290516001600160a01b03909216916391d1485491604480820192602092909190829003018186803b1580156111be57600080fd5b505afa1580156111d2573d6000803e3d6000fd5b505050506040513d60208110156111e857600080fd5b50516112255760405162461bcd60e51b815260040180806020018281038252602f815260200180613028602f913960400191505060405180910390fd5b61122e81612656565b50565b600554604080517fc37f68e200000000000000000000000000000000000000000000000000000000815230600482015290516000928392839283928392839283926001600160a01b03169163c37f68e2916024808301926080929190829003018186803b1580156112a157600080fd5b505afa1580156112b5573d6000803e3d6000fd5b505050506040513d60808110156112cb57600080fd5b5080516020820151604083015160609093015191965094509092509050831561133b576040805162461bcd60e51b815260206004820152600d60248201527f56656e757320457272436f646500000000000000000000000000000000000000604482015290519081900360640190fd5b611357670de0b6b3a7640000611351858461273e565b90612797565b9650819550611377600b546113516103e88961273e90919063ffffffff16565b945050505050909192565b600254604080517f91d148540000000000000000000000000000000000000000000000000000000081527ff66846415d2bf9eabda9e84793ff9c0ea96d87f50fc41e66aa16469c6a442f05600482015233602482015290516001600160a01b03909216916391d1485491604480820192602092909190829003018186803b15801561140c57600080fd5b505afa158015611420573d6000803e3d6000fd5b505050506040513d602081101561143657600080fd5b50516114735760405162461bcd60e51b815260040180806020018281038252602f815260200180613028602f913960400191505060405180910390fd5b61122e816127fe565b600681815481106108e257fe5b60006114936120a5565b6001600160a01b03166114a4611083565b6001600160a01b0316146114ff576040805162461bcd60e51b815260206004820181905260248201527f4f776e61626c653a2063616c6c6572206973206e6f7420746865206f776e6572604482015290519081900360640190fd5b60026000541415611557576040805162461bcd60e51b815260206004820152601f60248201527f5265656e7472616e637947756172643a207265656e7472616e742063616c6c00604482015290519081900360640190fd5b6002600055611564610a9b565b156115b6576040805162461bcd60e51b815260206004820152601060248201527f5061757361626c653a2070617573656400000000000000000000000000000000604482015290519081900360640190fd5b6000806115c1611231565b509150915060006115d882610a8e85610a8861109b565b6004549091506115f3906001600160a01b03163330886128a3565b6115fe6108bb61109b565b611606611231565b509093509150600061162082610a8e858188610a8861109b565b90508581111561162d5750845b600454604080516001600160a01b03909216825260208201889052818101839052517f90890809c654f11d6e72a28fa60149770a0d11ec6c92319d6ceb2bb0a4ea1a159181900360600190a1600160005595945050505050565b600b5481565b611695610a9b565b156116e7576040805162461bcd60e51b815260206004820152601060248201527f5061757361626c653a2070617573656400000000000000000000000000000000604482015290519081900360640190fd5b600254604080517f91d148540000000000000000000000000000000000000000000000000000000081527ff66846415d2bf9eabda9e84793ff9c0ea96d87f50fc41e66aa16469c6a442f05600482015233602482015290516001600160a01b03909216916391d1485491604480820192602092909190829003018186803b15801561177157600080fd5b505afa158015611785573d6000803e3d6000fd5b505050506040513d602081101561179b57600080fd5b50516117d85760405162461bcd60e51b815260040180806020018281038252602f815260200180613028602f913960400191505060405180910390fd5b600c5460ff161561186557600954604080517fe9af029200000000000000000000000000000000000000000000000000000000815230600482015290516001600160a01b039092169163e9af02929160248082019260009290919082900301818387803b15801561184857600080fd5b505af115801561185c573d6000803e3d6000fd5b505050506118e3565b600954604080517fadcd5fb900000000000000000000000000000000000000000000000000000000815230600482015290516001600160a01b039092169163adcd5fb99160248082019260009290919082900301818387803b1580156118ca57600080fd5b505af11580156118de573d6000803e3d6000fd5b505050505b600854604080517f70a0823100000000000000000000000000000000000000000000000000000000815230600482015290516000926001600160a01b0316916370a08231916024808301926020929190829003018186803b15801561194757600080fd5b505afa15801561195b573d6000803e3d6000fd5b505050506040513d602081101561197157600080fd5b505190508015611b42576004546008546001600160a01b03908116911614611b42576007546001600160a01b03166338ed1739826000600a306119b64261025861222c565b6040518663ffffffff1660e01b81526004018086815260200185815260200180602001846001600160a01b031681526020018381526020018281038252858181548152602001915080548015611a3557602002820191906000526020600020905b81546001600160a01b03168152600190910190602001808311611a17575b50509650505050505050600060405180830381600087803b158015611a5957600080fd5b505af1158015611a6d573d6000803e3d6000fd5b505050506040513d6000823e601f3d9081017fffffffffffffffffffffffffffffffffffffffffffffffffffffffffffffffe01682016040526020811015611ab457600080fd5b8101908080516040519392919084640100000000821115611ad457600080fd5b908301906020820185811115611ae957600080fd5b8251866020820283011164010000000082111715611b0657600080fd5b82525081516020918201928201910280838360005b83811015611b33578181015183820152602001611b1b565b50505050905001604052505050505b43600355611b4e61109b565b9050801561122e5761122e81612450565b600254604080517f91d148540000000000000000000000000000000000000000000000000000000081527ff66846415d2bf9eabda9e84793ff9c0ea96d87f50fc41e66aa16469c6a442f05600482015233602482015290516001600160a01b03909216916391d1485491604480820192602092909190829003018186803b158015611be957600080fd5b505afa158015611bfd573d6000803e3d6000fd5b505050506040513d6020811015611c1357600080fd5b5051611c505760405162461bcd60e51b815260040180806020018281038252602f815260200180613028602f913960400191505060405180910390fd5b8051611c6390600a906020840190612e6a565b5050565b600254604080517f91d148540000000000000000000000000000000000000000000000000000000081527ff66846415d2bf9eabda9e84793ff9c0ea96d87f50fc41e66aa16469c6a442f05600482015233602482015290516001600160a01b03909216916391d1485491604480820192602092909190829003018186803b158015611cf157600080fd5b505afa158015611d05573d6000803e3d6000fd5b505050506040513d6020811015611d1b57600080fd5b5051611d585760405162461bcd60e51b815260040180806020018281038252602f815260200180613028602f913960400191505060405180910390fd5b611d60610699565b600b819055600080611d70611231565b925050915080821015610d025760405162461bcd60e51b8152600401808060200182810382526028815260200180612f456028913960400191505060405180910390fd5b6008546001600160a01b031681565b6004546001600160a01b031681565b7ff66846415d2bf9eabda9e84793ff9c0ea96d87f50fc41e66aa16469c6a442f0581565b6002546001600160a01b031690565b611e0d6120a5565b6001600160a01b0316611e1e611083565b6001600160a01b031614611e79576040805162461bcd60e51b815260206004820181905260248201527f4f776e61626c653a2063616c6c6572206973206e6f7420746865206f776e6572604482015290519081900360640190fd5b6001600160a01b038116611ebe5760405162461bcd60e51b8152600401808060200182810382526026815260200180612f1f6026913960400191505060405180910390fd5b6001546040516001600160a01b038084169216907f8be0079c531659141344cd1fd0a4f28419497f9722a3daafe3b4186f6b6457e090600090a3600180547fffffffffffffffffffffffff0000000000000000000000000000000000000000166001600160a01b0392909216919091179055565b801580611fd15750604080517fdd62ed3e0000000000000000000000000000000000000000000000000000000081523060048201526001600160a01b03848116602483015291519185169163dd62ed3e91604480820192602092909190829003018186803b158015611fa357600080fd5b505afa158015611fb7573d6000803e3d6000fd5b505050506040513d6020811015611fcd57600080fd5b5051155b61200c5760405162461bcd60e51b81526004018080602001828103825260368152602001806130816036913960400191505060405180910390fd5b604080516001600160a01b038416602482015260448082018490528251808303909101815260649091019091526020810180517bffffffffffffffffffffffffffffffffffffffffffffffffffffffff167f095ea7b300000000000000000000000000000000000000000000000000000000179052610d02908490612927565b606061209b84846000856129d8565b90505b9392505050565b3390565b60008060006120b6611231565b9194509250905060006120c984836121ca565b90505b8085111561212e5782811115612105576120e583612656565b6120ed611231565b919550935091506120fe84836121ca565b905061212e565b61210e81612656565b612116611231565b9195509350915061212784836121ca565b90506120cc565b8085111561213a578094505b61214385612286565b5050505050565b604080516001600160a01b038416602482015260448082018490528251808303909101815260649091019091526020810180517bffffffffffffffffffffffffffffffffffffffffffffffffffffffff167fa9059cbb00000000000000000000000000000000000000000000000000000000179052610d02908490612927565b600082821115612221576040805162461bcd60e51b815260206004820152601e60248201527f536166654d6174683a207375627472616374696f6e206f766572666c6f770000604482015290519081900360640190fd5b508082035b92915050565b60008282018381101561209e576040805162461bcd60e51b815260206004820152601b60248201527f536166654d6174683a206164646974696f6e206f766572666c6f770000000000604482015290519081900360640190fd5b600554604080517f852a12e30000000000000000000000000000000000000000000000000000000081526004810184905290516001600160a01b039092169163852a12e3916024808201926020929091908290030181600087803b1580156122ed57600080fd5b505af1158015612301573d6000803e3d6000fd5b505050506040513d602081101561231757600080fd5b50511561122e576040805162461bcd60e51b815260206004820152601460248201527f72656465656d556e6465726c79696e6720457272000000000000000000000000604482015290519081900360640190fd5b600554604080517f0e7527020000000000000000000000000000000000000000000000000000000081526004810184905290516001600160a01b0390921691630e752702916024808201926020929091908290030181600087803b1580156123d257600080fd5b505af11580156123e6573d6000803e3d6000fd5b505050506040513d60208110156123fc57600080fd5b50511561122e576040805162461bcd60e51b815260206004820152600f60248201527f7265706179426f72726f77204572720000000000000000000000000000000000604482015290519081900360640190fd5b600554604080517fa0712d680000000000000000000000000000000000000000000000000000000081526004810184905290516001600160a01b039092169163a0712d68916024808201926020929091908290030181600087803b1580156124b757600080fd5b505af11580156124cb573d6000803e3d6000fd5b505050506040513d60208110156124e157600080fd5b50511561122e576040805162461bcd60e51b815260206004820152600860248201527f6d696e7420457272000000000000000000000000000000000000000000000000604482015290519081900360640190fd5b61253d612b52565b60075460085461257a916001600160a01b0391821691167fffffffffffffffffffffffffffffffffffffffffffffffffffffffffffffffff611f32565b6007546004546125b7916001600160a01b0391821691167fffffffffffffffffffffffffffffffffffffffffffffffffffffffffffffffff611f32565b60055460045461071f916001600160a01b0391821691167fffffffffffffffffffffffffffffffffffffffffffffffffffffffffffffffff611f32565b6125fc612c19565b60075460085461261a916001600160a01b0391821691166000611f32565b600754600454612638916001600160a01b0391821691166000611f32565b60055460045461071f916001600160a01b0391821691166000611f32565b61265e610699565b600080600061266b611231565b9194509250905061267c83826121ca565b8411156126d0576040805162461bcd60e51b815260206004820152600e60248201527f616d6f756e7420746f6f20626967000000000000000000000000000000000000604482015290519081900360640190fd5b81841115612725576040805162461bcd60e51b815260206004820152600e60248201527f616d6f756e7420746f6f20626967000000000000000000000000000000000000604482015290519081900360640190fd5b61272e84612286565b6108c061273961109b565b61236b565b60008261274d57506000612226565b8282028284828161275a57fe5b041461209e5760405162461bcd60e51b8152600401808060200182810382526021815260200180612fc26021913960400191505060405180910390fd5b60008082116127ed576040805162461bcd60e51b815260206004820152601a60248201527f536166654d6174683a206469766973696f6e206279207a65726f000000000000604482015290519081900360640190fd5b8183816127f657fe5b049392505050565b612806610699565b600080612811611231565b50915091508161283c600b546113516103e8612836888761222c90919063ffffffff16565b9061273e565b111561288f576040805162461bcd60e51b815260206004820152600c60248201527f6c747620746f6f20686967680000000000000000000000000000000000000000604482015290519081900360640190fd5b61289883612cdb565b610d026108bb61109b565b604080516001600160a01b0380861660248301528416604482015260648082018490528251808303909101815260849091019091526020810180517bffffffffffffffffffffffffffffffffffffffffffffffffffffffff167f23b872dd000000000000000000000000000000000000000000000000000000001790526108c09085905b606061297c826040518060400160405280602081526020017f5361666545524332303a206c6f772d6c6576656c2063616c6c206661696c6564815250856001600160a01b031661208c9092919063ffffffff16565b805190915015610d025780806020019051602081101561299b57600080fd5b5051610d025760405162461bcd60e51b815260040180806020018281038252602a815260200180613057602a913960400191505060405180910390fd5b606082471015612a195760405162461bcd60e51b8152600401808060200182810382526026815260200180612f9c6026913960400191505060405180910390fd5b612a2285612dc0565b612a73576040805162461bcd60e51b815260206004820152601d60248201527f416464726573733a2063616c6c20746f206e6f6e2d636f6e7472616374000000604482015290519081900360640190fd5b60006060866001600160a01b031685876040518082805190602001908083835b60208310612ad057805182527fffffffffffffffffffffffffffffffffffffffffffffffffffffffffffffffe09092019160209182019101612a93565b6001836020036101000a03801982511681845116808217855250505050505090500191505060006040518083038185875af1925050503d8060008114612b32576040519150601f19603f3d011682016040523d82523d6000602084013e612b37565b606091505b5091509150612b47828286612dc6565b979650505050505050565b612b5a610a9b565b612bab576040805162461bcd60e51b815260206004820152601460248201527f5061757361626c653a206e6f7420706175736564000000000000000000000000604482015290519081900360640190fd5b600180547fffffffffffffffffffffff00ffffffffffffffffffffffffffffffffffffffff1690557f5db9ee0a495bf2e6ff9c91a7834c1ba4fdd244a5e8aa4e537bd38aeae4b073aa612bfc6120a5565b604080516001600160a01b039092168252519081900360200190a1565b612c21610a9b565b15612c73576040805162461bcd60e51b815260206004820152601060248201527f5061757361626c653a2070617573656400000000000000000000000000000000604482015290519081900360640190fd5b600180547fffffffffffffffffffffff00ffffffffffffffffffffffffffffffffffffffff16740100000000000000000000000000000000000000001790557f62e78cea01bee320cd4e420270b5ea74000d11b0c9f74754ebdbfc544b05a258612bfc6120a5565b600554604080517fc5ebeaec0000000000000000000000000000000000000000000000000000000081526004810184905290516001600160a01b039092169163c5ebeaec916024808201926020929091908290030181600087803b158015612d4257600080fd5b505af1158015612d56573d6000803e3d6000fd5b505050506040513d6020811015612d6c57600080fd5b50511561122e576040805162461bcd60e51b815260206004820152600a60248201527f626f72726f772045727200000000000000000000000000000000000000000000604482015290519081900360640190fd5b3b151590565b60608315612dd557508161209e565b825115612de55782518084602001fd5b8160405162461bcd60e51b81526004018080602001828103825283818151815260200191508051906020019080838360005b83811015612e2f578181015183820152602001612e17565b50505050905090810190601f168015612e5c5780820380516001836020036101000a031916815260200191505b509250505060405180910390fd5b828054828255906000526020600020908101928215612ed7579160200282015b82811115612ed757825182547fffffffffffffffffffffffff0000000000000000000000000000000000000000166001600160a01b03909116178255602090920191600190910190612e8a565b50612ee3929150612ee7565b5090565b5b80821115612ee35780547fffffffffffffffffffffffff0000000000000000000000000000000000000000168155600101612ee856fe4f776e61626c653a206e6577206f776e657220697320746865207a65726f2061646472657373737570706c792073686f756c642062652067726561746572207468616e20737570706c79206d696e436f72655265663a3a6f6e6c79476f7665726e6f723a2043616c6c6572206973206e6f74206120676f7665726e6f72416464726573733a20696e73756666696369656e742062616c616e636520666f722063616c6c536166654d6174683a206d756c7469706c69636174696f6e206f766572666c6f77436f72655265663a3a6f6e6c79477561726469616e4f72476f7665726e6f723a2043616c6c6572206973206e6f74206120677561726469616e206f7220676f7665726e6f72436f72655265663a3a6f6e6c7954696d656c6f636b3a2043616c6c6572206973206e6f7420612074696d656c6f636b5361666545524332303a204552433230206f7065726174696f6e20646964206e6f7420737563636565645361666545524332303a20617070726f76652066726f6d206e6f6e2d7a65726f20746f206e6f6e2d7a65726f20616c6c6f77616e6365a26469706673582212207016bec2af35697a1f0c5260c54da63a4c23bcbc586201b43c667fa103ec1cf964736f6c634300060c0033416464726573733a20696e73756666696369656e742062616c616e636520666f722063616c6c5361666545524332303a204552433230206f7065726174696f6e20646964206e6f7420737563636565645361666545524332303a20617070726f76652066726f6d206e6f6e2d7a65726f20746f206e6f6e2d7a65726f20616c6c6f77616e6365",
  "linkReferences": {},
  "deployedLinkReferences": {}
}