{
  "_format": "hh-sol-artifact-1",
  "contractName": "StrategyAlpaca",
  "sourceName": "contracts/strategy/StrategyAlpaca.sol",
  "abi": [
    {
      "inputs": [
        {
          "internalType": "address",
          "name": "_core",
          "type": "address"
        },
        {
          "internalType": "address",
          "name": "_vaultAddress",
          "type": "address"
        },
        {
          "internalType": "address",
          "name": "_wantAddress",
          "type": "address"
        },
        {
          "internalType": "address",
          "name": "_uniRouterAddress",
          "type": "address"
        },
        {
          "internalType": "uint256",
          "name": "_poolId",
          "type": "uint256"
        },
        {
          "internalType": "address[]",
          "name": "_earnedToWantPath",
          "type": "address[]"
        }
      ],
      "stateMutability": "nonpayable",
      "type": "constructor"
    },
    {
      "anonymous": false,
      "inputs": [
        {
          "indexed": true,
          "internalType": "address",
          "name": "_core",
          "type": "address"
        }
      ],
      "name": "CoreUpdate",
      "type": "event"
    },
    {
      "anonymous": false,
      "inputs": [
        {
          "indexed": false,
          "internalType": "address",
          "name": "wantAddress",
          "type": "address"
        },
        {
          "indexed": false,
          "internalType": "uint256",
          "name": "amountReceived",
          "type": "uint256"
        },
        {
          "indexed": false,
          "internalType": "uint256",
          "name": "amountDeposited",
          "type": "uint256"
        }
      ],
      "name": "Deposit",
      "type": "event"
    },
    {
      "anonymous": false,
      "inputs": [
        {
          "indexed": true,
          "internalType": "address",
          "name": "previousOwner",
          "type": "address"
        },
        {
          "indexed": true,
          "internalType": "address",
          "name": "newOwner",
          "type": "address"
        }
      ],
      "name": "OwnershipTransferred",
      "type": "event"
    },
    {
      "anonymous": false,
      "inputs": [
        {
          "indexed": false,
          "internalType": "address",
          "name": "account",
          "type": "address"
        }
      ],
      "name": "Paused",
      "type": "event"
    },
    {
      "anonymous": false,
      "inputs": [
        {
          "indexed": false,
          "internalType": "address",
          "name": "account",
          "type": "address"
        }
      ],
      "name": "Unpaused",
      "type": "event"
    },
    {
      "anonymous": false,
      "inputs": [
        {
          "indexed": false,
          "internalType": "address",
          "name": "wantAddress",
          "type": "address"
        },
        {
          "indexed": false,
          "internalType": "uint256",
          "name": "amountRequested",
          "type": "uint256"
        },
        {
          "indexed": false,
          "internalType": "uint256",
          "name": "amountWithdrawn",
          "type": "uint256"
        }
      ],
      "name": "Withdraw",
      "type": "event"
    },
    {
      "inputs": [],
      "name": "TIMELOCK_ROLE",
      "outputs": [
        {
          "internalType": "bytes32",
          "name": "",
          "type": "bytes32"
        }
      ],
      "stateMutability": "view",
      "type": "function"
    },
    {
      "inputs": [],
      "name": "_stakedWantTokens",
      "outputs": [
        {
          "internalType": "uint256",
          "name": "",
          "type": "uint256"
        }
      ],
      "stateMutability": "view",
      "type": "function"
    },
    {
      "inputs": [],
      "name": "alpacaAddress",
      "outputs": [
        {
          "internalType": "address",
          "name": "",
          "type": "address"
        }
      ],
      "stateMutability": "view",
      "type": "function"
    },
    {
      "inputs": [],
      "name": "balanceSnapshot",
      "outputs": [
        {
          "internalType": "uint256",
          "name": "",
          "type": "uint256"
        }
      ],
      "stateMutability": "view",
      "type": "function"
    },
    {
      "inputs": [],
      "name": "core",
      "outputs": [
        {
          "internalType": "contract ICore",
          "name": "",
          "type": "address"
        }
      ],
      "stateMutability": "view",
      "type": "function"
    },
    {
      "inputs": [
        {
          "internalType": "uint256",
          "name": "_wantAmt",
          "type": "uint256"
        }
      ],
      "name": "deposit",
      "outputs": [
        {
          "internalType": "uint256",
          "name": "",
          "type": "uint256"
        }
      ],
      "stateMutability": "nonpayable",
      "type": "function"
    },
    {
      "inputs": [],
      "name": "earn",
      "outputs": [],
      "stateMutability": "nonpayable",
      "type": "function"
    },
    {
      "inputs": [
        {
          "internalType": "uint256",
          "name": "",
          "type": "uint256"
        }
      ],
      "name": "earnedToWantPath",
      "outputs": [
        {
          "internalType": "address",
          "name": "",
          "type": "address"
        }
      ],
      "stateMutability": "view",
      "type": "function"
    },
    {
      "inputs": [],
      "name": "fairLaunchAddress",
      "outputs": [
        {
          "internalType": "address",
          "name": "",
          "type": "address"
        }
      ],
      "stateMutability": "view",
      "type": "function"
    },
    {
      "inputs": [
        {
          "internalType": "address",
          "name": "_token",
          "type": "address"
        },
        {
          "internalType": "uint256",
          "name": "_amount",
          "type": "uint256"
        },
        {
          "internalType": "address",
          "name": "_to",
          "type": "address"
        }
      ],
      "name": "inCaseTokensGetStuck",
      "outputs": [],
      "stateMutability": "nonpayable",
      "type": "function"
    },
    {
      "inputs": [],
      "name": "lastEarnBlock",
      "outputs": [
        {
          "internalType": "uint256",
          "name": "",
          "type": "uint256"
        }
      ],
      "stateMutability": "view",
      "type": "function"
    },
    {
      "inputs": [],
      "name": "owner",
      "outputs": [
        {
          "internalType": "address",
          "name": "",
          "type": "address"
        }
      ],
      "stateMutability": "view",
      "type": "function"
    },
    {
      "inputs": [],
      "name": "pause",
      "outputs": [],
      "stateMutability": "nonpayable",
      "type": "function"
    },
    {
      "inputs": [],
      "name": "paused",
      "outputs": [
        {
          "internalType": "bool",
          "name": "",
          "type": "bool"
        }
      ],
      "stateMutability": "view",
      "type": "function"
    },
    {
      "inputs": [],
      "name": "poolId",
      "outputs": [
        {
          "internalType": "uint256",
          "name": "",
          "type": "uint256"
        }
      ],
      "stateMutability": "view",
      "type": "function"
    },
    {
      "inputs": [],
      "name": "renounceOwnership",
      "outputs": [],
      "stateMutability": "nonpayable",
      "type": "function"
    },
    {
      "inputs": [
        {
          "internalType": "address",
          "name": "core_",
          "type": "address"
        }
      ],
      "name": "setCore",
      "outputs": [],
      "stateMutability": "nonpayable",
      "type": "function"
    },
    {
      "inputs": [
        {
          "internalType": "address[]",
          "name": "newPath",
          "type": "address[]"
        }
      ],
      "name": "setEarnedToWantPath",
      "outputs": [],
      "stateMutability": "nonpayable",
      "type": "function"
    },
    {
      "inputs": [
        {
          "internalType": "address",
          "name": "newOwner",
          "type": "address"
        }
      ],
      "name": "transferOwnership",
      "outputs": [],
      "stateMutability": "nonpayable",
      "type": "function"
    },
    {
      "inputs": [],
      "name": "uniRouterAddress",
      "outputs": [
        {
          "internalType": "address",
          "name": "",
          "type": "address"
        }
      ],
      "stateMutability": "view",
      "type": "function"
    },
    {
      "inputs": [],
      "name": "unpause",
      "outputs": [],
      "stateMutability": "nonpayable",
      "type": "function"
    },
    {
      "inputs": [],
      "name": "updateStrategy",
      "outputs": [],
      "stateMutability": "nonpayable",
      "type": "function"
    },
    {
      "inputs": [],
      "name": "vaultAddress",
      "outputs": [
        {
          "internalType": "address",
          "name": "",
          "type": "address"
        }
      ],
      "stateMutability": "view",
      "type": "function"
    },
    {
      "inputs": [],
      "name": "wantAddress",
      "outputs": [
        {
          "internalType": "address",
          "name": "",
          "type": "address"
        }
      ],
      "stateMutability": "view",
      "type": "function"
    },
    {
      "inputs": [],
      "name": "wantLockedInHere",
      "outputs": [
        {
          "internalType": "uint256",
          "name": "",
          "type": "uint256"
        }
      ],
      "stateMutability": "view",
      "type": "function"
    },
    {
      "inputs": [],
      "name": "wantLockedTotal",
      "outputs": [
        {
          "internalType": "uint256",
          "name": "",
          "type": "uint256"
        }
      ],
      "stateMutability": "view",
      "type": "function"
    },
    {
      "inputs": [],
      "name": "wbnbAddress",
      "outputs": [
        {
          "internalType": "address",
          "name": "",
          "type": "address"
        }
      ],
      "stateMutability": "view",
      "type": "function"
    },
    {
      "inputs": [
        {
          "internalType": "uint256",
          "name": "_wantAmt",
          "type": "uint256"
        }
      ],
      "name": "withdraw",
      "outputs": [
        {
          "internalType": "uint256",
          "name": "",
          "type": "uint256"
        }
      ],
      "stateMutability": "nonpayable",
      "type": "function"
    }
  ],
  "bytecode": "0x60806040523480156200001157600080fd5b506040516200324238038062003242833981810160405260c08110156200003757600080fd5b815160208301516040808501516060860151608087015160a0880180519451969895979396929591949293820192846401000000008211156200007957600080fd5b9083019060208201858111156200008f57600080fd5b8251866020820283011164010000000082111715620000ad57600080fd5b82525081516020918201928201910280838360005b83811015620000dc578181015183820152602001620000c2565b50505050905001604052505050856001600081905550600062000104620002a260201b60201c565b600180546001600160a01b0319166001600160a01b038316908117909155604051919250906000907f8be0079c531659141344cd1fd0a4f28419497f9722a3daafe3b4186f6b6457e0908290a3506001805460ff60a01b19169055600280546001600160a01b03199081166001600160a01b03938416179091556005805482168884161790556006805490911691861691909117905560088290558051620001b4906009906020840190620006b9565b50600480546001600160a01b0319166001600160a01b0385811691909117918290556200020791738f0528ce5ef7b51152a59745befdd91d97091d2f9116600019620002a6602090811b62001a0717901c565b60045462000231906001600160a01b038681169116600019620002a6602090811b62001a0717901c565b6005546200025b906001600160a01b038681169116600019620002a6602090811b62001a0717901c565b60055462000296906001600160a01b031673a625ab01b08ce023b2a342dbb12a16f2c8489a8f600019620002a6602090811b62001a0717901c565b50505050505062000744565b3390565b80158062000330575060408051636eb1769f60e11b81523060048201526001600160a01b03848116602483015291519185169163dd62ed3e91604480820192602092909190829003018186803b1580156200030057600080fd5b505afa15801562000315573d6000803e3d6000fd5b505050506040513d60208110156200032c57600080fd5b5051155b6200036d5760405162461bcd60e51b81526004018080602001828103825260368152602001806200320c6036913960400191505060405180910390fd5b604080516001600160a01b038416602482015260448082018490528251808303909101815260649091019091526020810180516001600160e01b0390811663095ea7b360e01b17909152620003c5918591620003ca16565b505050565b606062000426826040518060400160405280602081526020017f5361666545524332303a206c6f772d6c6576656c2063616c6c206661696c6564815250856001600160a01b03166200048660201b62001b61179092919060201c565b805190915015620003c5578080602001905160208110156200044757600080fd5b5051620003c55760405162461bcd60e51b815260040180806020018281038252602a815260200180620031e2602a913960400191505060405180910390fd5b6060620004978484600085620004a1565b90505b9392505050565b606082471015620004e45760405162461bcd60e51b8152600401808060200182810382526026815260200180620031bc6026913960400191505060405180910390fd5b620004ef8562000609565b62000541576040805162461bcd60e51b815260206004820152601d60248201527f416464726573733a2063616c6c20746f206e6f6e2d636f6e7472616374000000604482015290519081900360640190fd5b60006060866001600160a01b031685876040518082805190602001908083835b60208310620005825780518252601f19909201916020918201910162000561565b6001836020036101000a03801982511681845116808217855250505050505090500191505060006040518083038185875af1925050503d8060008114620005e6576040519150601f19603f3d011682016040523d82523d6000602084013e620005eb565b606091505b509092509050620005fe8282866200060f565b979650505050505050565b3b151590565b60608315620006205750816200049a565b825115620006315782518084602001fd5b8160405162461bcd60e51b81526004018080602001828103825283818151815260200191508051906020019080838360005b838110156200067d57818101518382015260200162000663565b50505050905090810190601f168015620006ab5780820380516001836020036101000a031916815260200191505b509250505060405180910390fd5b82805482825590600052602060002090810192821562000711579160200282015b828111156200071157825182546001600160a01b0319166001600160a01b03909116178255602090920191600190910190620006da565b506200071f92915062000723565b5090565b5b808211156200071f5780546001600160a01b031916815560010162000724565b612a6880620007546000396000f3fe608060405234801561001057600080fd5b50600436106101c45760003560e01c8063693a090b116100f9578063bb845c4a11610097578063e7a0367911610071578063e7a03679146103f3578063f288a2e2146103fb578063f2f4eb2614610403578063f2fde38b1461040b576101c4565b8063bb845c4a14610340578063d389800f14610348578063dbdb962614610350576101c4565b80638456cb59116100d35780638456cb591461030b5780638da5cb5b14610313578063937901131461031b578063b6b55f2514610323576101c4565b8063693a090b146102d5578063715018a6146102dd57806380009630146102e5576101c4565b806342da4eb3116101665780635c975abb116101405780635c975abb14610273578063609c2ef41461028f57806363fe3e3a1461029757806367206d401461029f576101c4565b806342da4eb31461025b578063430bf08a146102635780635132124c1461026b576101c4565b806335415436116101a2578063354154361461020a57806338946a8c146102125780633e0dc34e1461024b5780633f4ba83a14610253576101c4565b80630fa4e01e146101c95780632e1a7d4d146101e35780632fddd91314610200575b600080fd5b6101d1610431565b60408051918252519081900360200190f35b6101d1600480360360208110156101f957600080fd5b5035610437565b610208610661565b005b6101d1610663565b61022f6004803603602081101561022857600080fd5b5035610837565b604080516001600160a01b039092168252519081900360200190f35b6101d161085e565b610208610864565b6101d16109ce565b61022f6109e9565b6101d16109f8565b61027b6109fe565b604080519115158252519081900360200190f35b61022f610a1f565b61022f610a37565b610208600480360360608110156102b557600080fd5b506001600160a01b03813581169160208101359160409091013516610a4f565b61022f610c91565b610208610ca0565b610208600480360360208110156102fb57600080fd5b50356001600160a01b0316610d76565b610208610ea3565b61022f61100d565b6101d161101c565b6101d16004803603602081101561033957600080fd5b50356110b1565b61022f611294565b6102086112ac565b6102086004803603602081101561036657600080fd5b81019060208101813564010000000081111561038157600080fd5b82018360208201111561039357600080fd5b803590602001918460208302840111640100000000831117156103b557600080fd5b919080806020026020016040519081016040528093929190818152602001838360200280828437600092019190915250929550611790945050505050565b61022f611898565b6101d16118a7565b61022f6118cb565b6102086004803603602081101561042157600080fd5b50356001600160a01b03166118da565b60035481565b6000610441611b7a565b6001600160a01b031661045261100d565b6001600160a01b0316146104ad576040805162461bcd60e51b815260206004820181905260248201527f4f776e61626c653a2063616c6c6572206973206e6f7420746865206f776e6572604482015290519081900360640190fd5b60026000541415610505576040805162461bcd60e51b815260206004820152601f60248201527f5265656e7472616e637947756172643a207265656e7472616e742063616c6c00604482015290519081900360640190fd5b6002600090815561051461101c565b83111561054f5761053961053061052961101c565b8590611b7e565b60075490611b7e565b60075561054f61054a61052961101c565b611be0565b600654604080517f70a0823100000000000000000000000000000000000000000000000000000000815230600482015290516001600160a01b03909216916370a0823191602480820192602092909190829003018186803b1580156105b357600080fd5b505afa1580156105c7573d6000803e3d6000fd5b505050506040513d60208110156105dd57600080fd5b50519050828111156105ec5750815b61060a6105f761100d565b6006546001600160a01b03169083611e93565b600654604080516001600160a01b03909216825260208201859052818101839052517ff279e6a1f5e320cca91135676d9cb6e44ca8a08c0b88342bcdb1144f6511b5689181900360600190a1600160005592915050565b565b600854604080517f93f1a40b000000000000000000000000000000000000000000000000000000008152600481019290925230602483015251600091829173a625ab01b08ce023b2a342dbb12a16f2c8489a8f916393f1a40b916044808301926080929190829003018186803b1580156106dc57600080fd5b505afa1580156106f0573d6000803e3d6000fd5b505050506040513d608081101561070657600080fd5b5051600554604080517f18160ddd0000000000000000000000000000000000000000000000000000000081529051929350610831926001600160a01b03909216916318160ddd91600480820192602092909190829003018186803b15801561076d57600080fd5b505afa158015610781573d6000803e3d6000fd5b505050506040513d602081101561079757600080fd5b5051600554604080517f626be567000000000000000000000000000000000000000000000000000000008152905161082b926001600160a01b03169163626be567916004808301926020929190829003018186803b1580156107f857600080fd5b505afa15801561080c573d6000803e3d6000fd5b505050506040513d602081101561082257600080fd5b50518490611f13565b90611f6c565b91505090565b6009818154811061084457fe5b6000918252602090912001546001600160a01b0316905081565b60085481565b600254604080517fe43581b800000000000000000000000000000000000000000000000000000000815233600482015290516001600160a01b039092169163e43581b891602480820192602092909190829003018186803b1580156108c857600080fd5b505afa1580156108dc573d6000803e3d6000fd5b505050506040513d60208110156108f257600080fd5b50518061098b5750600254604080517f0c68ba2100000000000000000000000000000000000000000000000000000000815233600482015290516001600160a01b0390921691630c68ba2191602480820192602092909190829003018186803b15801561095e57600080fd5b505afa158015610972573d6000803e3d6000fd5b505050506040513d602081101561098857600080fd5b50515b6109c65760405162461bcd60e51b815260040180806020018281038252604581526020018061295f6045913960600191505060405180910390fd5b610661611fd3565b60006109e46007546109de61101c565b906120a1565b905090565b6005546001600160a01b031681565b60075481565b60015474010000000000000000000000000000000000000000900460ff1690565b73a625ab01b08ce023b2a342dbb12a16f2c8489a8f81565b73bb4cdb9cbd36b01bd1cbaebf2de08d9173bc095c81565b600254604080517f91d148540000000000000000000000000000000000000000000000000000000081527ff66846415d2bf9eabda9e84793ff9c0ea96d87f50fc41e66aa16469c6a442f05600482015233602482015290516001600160a01b03909216916391d1485491604480820192602092909190829003018186803b158015610ad957600080fd5b505afa158015610aed573d6000803e3d6000fd5b505050506040513d6020811015610b0357600080fd5b5051610b405760405162461bcd60e51b815260040180806020018281038252602f8152602001806129a4602f913960400191505060405180910390fd5b6001600160a01b038316738f0528ce5ef7b51152a59745befdd91d97091d2f1415610bb2576040805162461bcd60e51b815260206004820152600560248201527f2173616665000000000000000000000000000000000000000000000000000000604482015290519081900360640190fd5b6006546001600160a01b0384811691161415610c15576040805162461bcd60e51b815260206004820152600560248201527f2173616665000000000000000000000000000000000000000000000000000000604482015290519081900360640190fd5b6005546001600160a01b0384811691161415610c78576040805162461bcd60e51b815260206004820152600560248201527f2173616665000000000000000000000000000000000000000000000000000000604482015290519081900360640190fd5b610c8c6001600160a01b0384168284611e93565b505050565b6004546001600160a01b031681565b610ca8611b7a565b6001600160a01b0316610cb961100d565b6001600160a01b031614610d14576040805162461bcd60e51b815260206004820181905260248201527f4f776e61626c653a2063616c6c6572206973206e6f7420746865206f776e6572604482015290519081900360640190fd5b6001546040516000916001600160a01b0316907f8be0079c531659141344cd1fd0a4f28419497f9722a3daafe3b4186f6b6457e0908390a3600180547fffffffffffffffffffffffff0000000000000000000000000000000000000000169055565b600254604080517fe43581b800000000000000000000000000000000000000000000000000000000815233600482015290516001600160a01b039092169163e43581b891602480820192602092909190829003018186803b158015610dda57600080fd5b505afa158015610dee573d6000803e3d6000fd5b505050506040513d6020811015610e0457600080fd5b5051610e415760405162461bcd60e51b815260040180806020018281038252602f8152602001806128e9602f913960400191505060405180910390fd5b600280547fffffffffffffffffffffffff0000000000000000000000000000000000000000166001600160a01b0383169081179091556040517fad9400e618eb1344fde53db22397a1b82c765527ecbba3a5c86bcac15090828b90600090a250565b600254604080517fe43581b800000000000000000000000000000000000000000000000000000000815233600482015290516001600160a01b039092169163e43581b891602480820192602092909190829003018186803b158015610f0757600080fd5b505afa158015610f1b573d6000803e3d6000fd5b505050506040513d6020811015610f3157600080fd5b505180610fca5750600254604080517f0c68ba2100000000000000000000000000000000000000000000000000000000815233600482015290516001600160a01b0390921691630c68ba2191602480820192602092909190829003018186803b158015610f9d57600080fd5b505afa158015610fb1573d6000803e3d6000fd5b505050506040513d6020811015610fc757600080fd5b50515b6110055760405162461bcd60e51b815260040180806020018281038252604581526020018061295f6045913960600191505060405180910390fd5b6106616120fb565b6001546001600160a01b031690565b600654604080517f70a0823100000000000000000000000000000000000000000000000000000000815230600482015290516000926001600160a01b0316916370a08231916024808301926020929190829003018186803b15801561108057600080fd5b505afa158015611094573d6000803e3d6000fd5b505050506040513d60208110156110aa57600080fd5b5051905090565b60006110bb611b7a565b6001600160a01b03166110cc61100d565b6001600160a01b031614611127576040805162461bcd60e51b815260206004820181905260248201527f4f776e61626c653a2063616c6c6572206973206e6f7420746865206f776e6572604482015290519081900360640190fd5b6002600054141561117f576040805162461bcd60e51b815260206004820152601f60248201527f5265656e7472616e637947756172643a207265656e7472616e742063616c6c00604482015290519081900360640190fd5b600260005561118c6109fe565b156111de576040805162461bcd60e51b815260206004820152601060248201527f5061757361626c653a2070617573656400000000000000000000000000000000604482015290519081900360640190fd5b6006546111f6906001600160a01b031633308561216c565b6000611200610663565b905061120b836121fa565b600061121f82611219610663565b90611b7e565b90508381111561122c5750825b60075461123990826120a1565b600755600654604080516001600160a01b03909216825260208201869052818101839052517f90890809c654f11d6e72a28fa60149770a0d11ec6c92319d6ceb2bb0a4ea1a159181900360600190a160016000559392505050565b738f0528ce5ef7b51152a59745befdd91d97091d2f81565b6112b46109fe565b15611306576040805162461bcd60e51b815260206004820152601060248201527f5061757361626c653a2070617573656400000000000000000000000000000000604482015290519081900360640190fd5b600254604080517f91d148540000000000000000000000000000000000000000000000000000000081527ff66846415d2bf9eabda9e84793ff9c0ea96d87f50fc41e66aa16469c6a442f05600482015233602482015290516001600160a01b03909216916391d1485491604480820192602092909190829003018186803b15801561139057600080fd5b505afa1580156113a4573d6000803e3d6000fd5b505050506040513d60208110156113ba57600080fd5b50516113f75760405162461bcd60e51b815260040180806020018281038252602f8152602001806129a4602f913960400191505060405180910390fd5b73a625ab01b08ce023b2a342dbb12a16f2c8489a8f6001600160a01b031663ddc632626008546040518263ffffffff1660e01b815260040180828152602001915050600060405180830381600087803b15801561145357600080fd5b505af1158015611467573d6000803e3d6000fd5b5050604080517f70a08231000000000000000000000000000000000000000000000000000000008152306004820152905160009350738f0528ce5ef7b51152a59745befdd91d97091d2f92506370a0823191602480820192602092909190829003018186803b1580156114d957600080fd5b505afa1580156114ed573d6000803e3d6000fd5b505050506040513d602081101561150357600080fd5b50516006549091506001600160a01b0316738f0528ce5ef7b51152a59745befdd91d97091d2f146116dd576004546001600160a01b03166338ed1739826000600930611551426102586120a1565b6040518663ffffffff1660e01b81526004018086815260200185815260200180602001846001600160a01b0316815260200183815260200182810382528581815481526020019150805480156115d057602002820191906000526020600020905b81546001600160a01b031681526001909101906020018083116115b2575b50509650505050505050600060405180830381600087803b1580156115f457600080fd5b505af1158015611608573d6000803e3d6000fd5b505050506040513d6000823e601f3d9081017fffffffffffffffffffffffffffffffffffffffffffffffffffffffffffffffe0168201604052602081101561164f57600080fd5b810190808051604051939291908464010000000082111561166f57600080fd5b90830190602082018581111561168457600080fd5b82518660208202830111640100000000821117156116a157600080fd5b82525081516020918201928201910280838360005b838110156116ce5781810151838201526020016116b6565b50505050905001604052505050505b600654604080517f70a0823100000000000000000000000000000000000000000000000000000000815230600482015290516001600160a01b03909216916370a0823191602480820192602092909190829003018186803b15801561174157600080fd5b505afa158015611755573d6000803e3d6000fd5b505050506040513d602081101561176b57600080fd5b50519050801561177e5761177e816121fa565b611786610663565b6007555043600355565b600254604080517f91d148540000000000000000000000000000000000000000000000000000000081527ff66846415d2bf9eabda9e84793ff9c0ea96d87f50fc41e66aa16469c6a442f05600482015233602482015290516001600160a01b03909216916391d1485491604480820192602092909190829003018186803b15801561181a57600080fd5b505afa15801561182e573d6000803e3d6000fd5b505050506040513d602081101561184457600080fd5b50516118815760405162461bcd60e51b815260040180806020018281038252602f8152602001806129a4602f913960400191505060405180910390fd5b805161189490600990602084019061280e565b5050565b6006546001600160a01b031681565b7ff66846415d2bf9eabda9e84793ff9c0ea96d87f50fc41e66aa16469c6a442f0581565b6002546001600160a01b031690565b6118e2611b7a565b6001600160a01b03166118f361100d565b6001600160a01b03161461194e576040805162461bcd60e51b815260206004820181905260248201527f4f776e61626c653a2063616c6c6572206973206e6f7420746865206f776e6572604482015290519081900360640190fd5b6001600160a01b0381166119935760405162461bcd60e51b81526004018080602001828103825260268152602001806128c36026913960400191505060405180910390fd5b6001546040516001600160a01b038084169216907f8be0079c531659141344cd1fd0a4f28419497f9722a3daafe3b4186f6b6457e090600090a3600180547fffffffffffffffffffffffff0000000000000000000000000000000000000000166001600160a01b0392909216919091179055565b801580611aa65750604080517fdd62ed3e0000000000000000000000000000000000000000000000000000000081523060048201526001600160a01b03848116602483015291519185169163dd62ed3e91604480820192602092909190829003018186803b158015611a7857600080fd5b505afa158015611a8c573d6000803e3d6000fd5b505050506040513d6020811015611aa257600080fd5b5051155b611ae15760405162461bcd60e51b81526004018080602001828103825260368152602001806129fd6036913960400191505060405180910390fd5b604080516001600160a01b038416602482015260448082018490528251808303909101815260649091019091526020810180517bffffffffffffffffffffffffffffffffffffffffffffffffffffffff167f095ea7b300000000000000000000000000000000000000000000000000000000179052610c8c9084906123b0565b6060611b708484600085612461565b90505b9392505050565b3390565b600082821115611bd5576040805162461bcd60e51b815260206004820152601e60248201527f536166654d6174683a207375627472616374696f6e206f766572666c6f770000604482015290519081900360640190fd5b508082035b92915050565b6000611cf1600560009054906101000a90046001600160a01b03166001600160a01b031663626be5676040518163ffffffff1660e01b815260040160206040518083038186803b158015611c3357600080fd5b505afa158015611c47573d6000803e3d6000fd5b505050506040513d6020811015611c5d57600080fd5b5051600554604080517f18160ddd000000000000000000000000000000000000000000000000000000008152905161082b926001600160a01b0316916318160ddd916004808301926020929190829003018186803b158015611cbe57600080fd5b505afa158015611cd2573d6000803e3d6000fd5b505050506040513d6020811015611ce857600080fd5b50518590611f13565b600854604080517fb5c5f6720000000000000000000000000000000000000000000000000000000081523060048201526024810192909252604482018390525191925073a625ab01b08ce023b2a342dbb12a16f2c8489a8f9163b5c5f6729160648082019260009290919082900301818387803b158015611d7157600080fd5b505af1158015611d85573d6000803e3d6000fd5b5050600554604080517f70a0823100000000000000000000000000000000000000000000000000000000815230600482015290516001600160a01b039092169350632e1a7d4d925083916370a0823191602480820192602092909190829003018186803b158015611df557600080fd5b505afa158015611e09573d6000803e3d6000fd5b505050506040513d6020811015611e1f57600080fd5b5051604080517fffffffff0000000000000000000000000000000000000000000000000000000060e085901b168152600481019290925251602480830192600092919082900301818387803b158015611e7757600080fd5b505af1158015611e8b573d6000803e3d6000fd5b505050505050565b604080516001600160a01b038416602482015260448082018490528251808303909101815260649091019091526020810180517bffffffffffffffffffffffffffffffffffffffffffffffffffffffff167fa9059cbb00000000000000000000000000000000000000000000000000000000179052610c8c9084906123b0565b600082611f2257506000611bda565b82820282848281611f2f57fe5b0414611b735760405162461bcd60e51b815260040180806020018281038252602181526020018061293e6021913960400191505060405180910390fd5b6000808211611fc2576040805162461bcd60e51b815260206004820152601a60248201527f536166654d6174683a206469766973696f6e206279207a65726f000000000000604482015290519081900360640190fd5b818381611fcb57fe5b049392505050565b611fdb6125db565b60045461202790738f0528ce5ef7b51152a59745befdd91d97091d2f906001600160a01b03167fffffffffffffffffffffffffffffffffffffffffffffffffffffffffffffffff611a07565b600454600654612064916001600160a01b0391821691167fffffffffffffffffffffffffffffffffffffffffffffffffffffffffffffffff611a07565b600554600654610661916001600160a01b0391821691167fffffffffffffffffffffffffffffffffffffffffffffffffffffffffffffffff611a07565b600082820183811015611b73576040805162461bcd60e51b815260206004820152601b60248201527f536166654d6174683a206164646974696f6e206f766572666c6f770000000000604482015290519081900360640190fd5b6121036126a2565b60045461213090738f0528ce5ef7b51152a59745befdd91d97091d2f906001600160a01b03166000611a07565b60045460065461214e916001600160a01b0391821691166000611a07565b600554600654610661916001600160a01b0391821691166000611a07565b604080516001600160a01b0380861660248301528416604482015260648082018490528251808303909101815260849091019091526020810180517bffffffffffffffffffffffffffffffffffffffffffffffffffffffff167f23b872dd000000000000000000000000000000000000000000000000000000001790526121f49085906123b0565b50505050565b600554604080517fb6b55f250000000000000000000000000000000000000000000000000000000081526004810184905290516001600160a01b039092169163b6b55f259160248082019260009290919082900301818387803b15801561226057600080fd5b505af1158015612274573d6000803e3d6000fd5b5050600854600554604080517f70a082310000000000000000000000000000000000000000000000000000000081523060048201819052915173a625ab01b08ce023b2a342dbb12a16f2c8489a8f9650630efe6a8b95509193926001600160a01b0316916370a0823191602480820192602092909190829003018186803b1580156122fe57600080fd5b505afa158015612312573d6000803e3d6000fd5b505050506040513d602081101561232857600080fd5b5051604080517fffffffff0000000000000000000000000000000000000000000000000000000060e087901b1681526001600160a01b0390941660048501526024840192909252604483015251606480830192600092919082900301818387803b15801561239557600080fd5b505af11580156123a9573d6000803e3d6000fd5b5050505050565b6060612405826040518060400160405280602081526020017f5361666545524332303a206c6f772d6c6576656c2063616c6c206661696c6564815250856001600160a01b0316611b619092919063ffffffff16565b805190915015610c8c5780806020019051602081101561242457600080fd5b5051610c8c5760405162461bcd60e51b815260040180806020018281038252602a8152602001806129d3602a913960400191505060405180910390fd5b6060824710156124a25760405162461bcd60e51b81526004018080602001828103825260268152602001806129186026913960400191505060405180910390fd5b6124ab85612764565b6124fc576040805162461bcd60e51b815260206004820152601d60248201527f416464726573733a2063616c6c20746f206e6f6e2d636f6e7472616374000000604482015290519081900360640190fd5b60006060866001600160a01b031685876040518082805190602001908083835b6020831061255957805182527fffffffffffffffffffffffffffffffffffffffffffffffffffffffffffffffe0909201916020918201910161251c565b6001836020036101000a03801982511681845116808217855250505050505090500191505060006040518083038185875af1925050503d80600081146125bb576040519150601f19603f3d011682016040523d82523d6000602084013e6125c0565b606091505b50915091506125d082828661276a565b979650505050505050565b6125e36109fe565b612634576040805162461bcd60e51b815260206004820152601460248201527f5061757361626c653a206e6f7420706175736564000000000000000000000000604482015290519081900360640190fd5b600180547fffffffffffffffffffffff00ffffffffffffffffffffffffffffffffffffffff1690557f5db9ee0a495bf2e6ff9c91a7834c1ba4fdd244a5e8aa4e537bd38aeae4b073aa612685611b7a565b604080516001600160a01b039092168252519081900360200190a1565b6126aa6109fe565b156126fc576040805162461bcd60e51b815260206004820152601060248201527f5061757361626c653a2070617573656400000000000000000000000000000000604482015290519081900360640190fd5b600180547fffffffffffffffffffffff00ffffffffffffffffffffffffffffffffffffffff16740100000000000000000000000000000000000000001790557f62e78cea01bee320cd4e420270b5ea74000d11b0c9f74754ebdbfc544b05a258612685611b7a565b3b151590565b60608315612779575081611b73565b8251156127895782518084602001fd5b8160405162461bcd60e51b81526004018080602001828103825283818151815260200191508051906020019080838360005b838110156127d35781810151838201526020016127bb565b50505050905090810190601f1680156128005780820380516001836020036101000a031916815260200191505b509250505060405180910390fd5b82805482825590600052602060002090810192821561287b579160200282015b8281111561287b57825182547fffffffffffffffffffffffff0000000000000000000000000000000000000000166001600160a01b0390911617825560209092019160019091019061282e565b5061288792915061288b565b5090565b5b808211156128875780547fffffffffffffffffffffffff000000000000000000000000000000000000000016815560010161288c56fe4f776e61626c653a206e6577206f776e657220697320746865207a65726f2061646472657373436f72655265663a3a6f6e6c79476f7665726e6f723a2043616c6c6572206973206e6f74206120676f7665726e6f72416464726573733a20696e73756666696369656e742062616c616e636520666f722063616c6c536166654d6174683a206d756c7469706c69636174696f6e206f766572666c6f77436f72655265663a3a6f6e6c79477561726469616e4f72476f7665726e6f723a2043616c6c6572206973206e6f74206120677561726469616e206f7220676f7665726e6f72436f72655265663a3a6f6e6c7954696d656c6f636b3a2043616c6c6572206973206e6f7420612074696d656c6f636b5361666545524332303a204552433230206f7065726174696f6e20646964206e6f7420737563636565645361666545524332303a20617070726f76652066726f6d206e6f6e2d7a65726f20746f206e6f6e2d7a65726f20616c6c6f77616e6365a2646970667358221220de016ecc922da5977f2481a6457e410b693c9de76c9682e0e33682b6026d7eef64736f6c634300060c0033416464726573733a20696e73756666696369656e742062616c616e636520666f722063616c6c5361666545524332303a204552433230206f7065726174696f6e20646964206e6f7420737563636565645361666545524332303a20617070726f76652066726f6d206e6f6e2d7a65726f20746f206e6f6e2d7a65726f20616c6c6f77616e6365",
  "linkReferences": {},
  "deployedLinkReferences": {}
}