{
  "_format": "hh-sol-artifact-1",
  "contractName": "StrategyVenus",
  "sourceName": "contracts/strategy/StrategyVenus.sol",
  "abi": [
    {
      "inputs": [
        {
          "internalType": "address",
          "name": "_core",
          "type": "address"
        },
        {
          "internalType": "address",
          "name": "_wantAddress",
          "type": "address"
        },
        {
          "internalType": "address",
          "name": "_vTokenAddress",
          "type": "address"
        },
        {
          "internalType": "address",
          "name": "_uniRouterAddress",
          "type": "address"
        },
        {
          "internalType": "address",
          "name": "_earnedAddress",
          "type": "address"
        },
        {
          "internalType": "address",
          "name": "_distributionAddress",
          "type": "address"
        },
        {
          "internalType": "address[]",
          "name": "_earnedToWantPath",
          "type": "address[]"
        },
        {
          "internalType": "bool",
          "name": "_isComp",
          "type": "bool"
        }
      ],
      "stateMutability": "nonpayable",
      "type": "constructor"
    },
    {
      "anonymous": false,
      "inputs": [
        {
          "indexed": true,
          "internalType": "address",
          "name": "_core",
          "type": "address"
        }
      ],
      "name": "CoreUpdate",
      "type": "event"
    },
    {
      "anonymous": false,
      "inputs": [
        {
          "indexed": true,
          "internalType": "address",
          "name": "previousOwner",
          "type": "address"
        },
        {
          "indexed": true,
          "internalType": "address",
          "name": "newOwner",
          "type": "address"
        }
      ],
      "name": "OwnershipTransferred",
      "type": "event"
    },
    {
      "anonymous": false,
      "inputs": [
        {
          "indexed": false,
          "internalType": "address",
          "name": "account",
          "type": "address"
        }
      ],
      "name": "Paused",
      "type": "event"
    },
    {
      "anonymous": false,
      "inputs": [
        {
          "indexed": false,
          "internalType": "address",
          "name": "account",
          "type": "address"
        }
      ],
      "name": "Unpaused",
      "type": "event"
    },
    {
      "inputs": [],
      "name": "TIMELOCK_ROLE",
      "outputs": [
        {
          "internalType": "bytes32",
          "name": "",
          "type": "bytes32"
        }
      ],
      "stateMutability": "view",
      "type": "function"
    },
    {
      "inputs": [],
      "name": "borrowRate",
      "outputs": [
        {
          "internalType": "uint256",
          "name": "",
          "type": "uint256"
        }
      ],
      "stateMutability": "view",
      "type": "function"
    },
    {
      "inputs": [],
      "name": "core",
      "outputs": [
        {
          "internalType": "contract ICore",
          "name": "",
          "type": "address"
        }
      ],
      "stateMutability": "view",
      "type": "function"
    },
    {
      "inputs": [
        {
          "internalType": "uint256",
          "name": "_amount",
          "type": "uint256"
        }
      ],
      "name": "deleverage",
      "outputs": [],
      "stateMutability": "nonpayable",
      "type": "function"
    },
    {
      "inputs": [
        {
          "internalType": "uint256",
          "name": "redeemFeeAmt",
          "type": "uint256"
        }
      ],
      "name": "deleverageAll",
      "outputs": [],
      "stateMutability": "nonpayable",
      "type": "function"
    },
    {
      "inputs": [
        {
          "internalType": "uint256",
          "name": "_wantAmt",
          "type": "uint256"
        }
      ],
      "name": "deposit",
      "outputs": [],
      "stateMutability": "nonpayable",
      "type": "function"
    },
    {
      "inputs": [],
      "name": "distributionAddress",
      "outputs": [
        {
          "internalType": "address",
          "name": "",
          "type": "address"
        }
      ],
      "stateMutability": "view",
      "type": "function"
    },
    {
      "inputs": [],
      "name": "earn",
      "outputs": [],
      "stateMutability": "nonpayable",
      "type": "function"
    },
    {
      "inputs": [],
      "name": "earnedAddress",
      "outputs": [
        {
          "internalType": "address",
          "name": "",
          "type": "address"
        }
      ],
      "stateMutability": "view",
      "type": "function"
    },
    {
      "inputs": [
        {
          "internalType": "uint256",
          "name": "",
          "type": "uint256"
        }
      ],
      "name": "earnedToWantPath",
      "outputs": [
        {
          "internalType": "address",
          "name": "",
          "type": "address"
        }
      ],
      "stateMutability": "view",
      "type": "function"
    },
    {
      "inputs": [
        {
          "internalType": "address",
          "name": "_token",
          "type": "address"
        },
        {
          "internalType": "uint256",
          "name": "_amount",
          "type": "uint256"
        },
        {
          "internalType": "address",
          "name": "_to",
          "type": "address"
        }
      ],
      "name": "inCaseTokensGetStuck",
      "outputs": [],
      "stateMutability": "nonpayable",
      "type": "function"
    },
    {
      "inputs": [],
      "name": "isComp",
      "outputs": [
        {
          "internalType": "bool",
          "name": "",
          "type": "bool"
        }
      ],
      "stateMutability": "view",
      "type": "function"
    },
    {
      "inputs": [],
      "name": "lastEarnBlock",
      "outputs": [
        {
          "internalType": "uint256",
          "name": "",
          "type": "uint256"
        }
      ],
      "stateMutability": "view",
      "type": "function"
    },
    {
      "inputs": [
        {
          "internalType": "uint256",
          "name": "_amount",
          "type": "uint256"
        }
      ],
      "name": "leverage",
      "outputs": [],
      "stateMutability": "nonpayable",
      "type": "function"
    },
    {
      "inputs": [
        {
          "internalType": "uint256",
          "name": "",
          "type": "uint256"
        }
      ],
      "name": "markets",
      "outputs": [
        {
          "internalType": "address",
          "name": "",
          "type": "address"
        }
      ],
      "stateMutability": "view",
      "type": "function"
    },
    {
      "inputs": [],
      "name": "owner",
      "outputs": [
        {
          "internalType": "address",
          "name": "",
          "type": "address"
        }
      ],
      "stateMutability": "view",
      "type": "function"
    },
    {
      "inputs": [],
      "name": "pause",
      "outputs": [],
      "stateMutability": "nonpayable",
      "type": "function"
    },
    {
      "inputs": [],
      "name": "paused",
      "outputs": [
        {
          "internalType": "bool",
          "name": "",
          "type": "bool"
        }
      ],
      "stateMutability": "view",
      "type": "function"
    },
    {
      "inputs": [],
      "name": "renounceOwnership",
      "outputs": [],
      "stateMutability": "nonpayable",
      "type": "function"
    },
    {
      "inputs": [
        {
          "internalType": "uint256",
          "name": "_borrowRate",
          "type": "uint256"
        }
      ],
      "name": "setBorrowRate",
      "outputs": [],
      "stateMutability": "nonpayable",
      "type": "function"
    },
    {
      "inputs": [
        {
          "internalType": "address",
          "name": "core_",
          "type": "address"
        }
      ],
      "name": "setCore",
      "outputs": [],
      "stateMutability": "nonpayable",
      "type": "function"
    },
    {
      "inputs": [
        {
          "internalType": "address[]",
          "name": "newPath",
          "type": "address[]"
        }
      ],
      "name": "setEarnedToWantPath",
      "outputs": [],
      "stateMutability": "nonpayable",
      "type": "function"
    },
    {
      "inputs": [
        {
          "internalType": "uint256",
          "name": "_slippage",
          "type": "uint256"
        }
      ],
      "name": "setSlippage",
      "outputs": [],
      "stateMutability": "nonpayable",
      "type": "function"
    },
    {
      "inputs": [
        {
          "internalType": "address",
          "name": "newOwner",
          "type": "address"
        }
      ],
      "name": "transferOwnership",
      "outputs": [],
      "stateMutability": "nonpayable",
      "type": "function"
    },
    {
      "inputs": [],
      "name": "uniRouterAddress",
      "outputs": [
        {
          "internalType": "address",
          "name": "",
          "type": "address"
        }
      ],
      "stateMutability": "view",
      "type": "function"
    },
    {
      "inputs": [],
      "name": "unpause",
      "outputs": [],
      "stateMutability": "nonpayable",
      "type": "function"
    },
    {
      "inputs": [],
      "name": "updateBalance",
      "outputs": [
        {
          "internalType": "uint256",
          "name": "sup",
          "type": "uint256"
        },
        {
          "internalType": "uint256",
          "name": "brw",
          "type": "uint256"
        },
        {
          "internalType": "uint256",
          "name": "supMin",
          "type": "uint256"
        }
      ],
      "stateMutability": "view",
      "type": "function"
    },
    {
      "inputs": [],
      "name": "updateStrategy",
      "outputs": [],
      "stateMutability": "nonpayable",
      "type": "function"
    },
    {
      "inputs": [],
      "name": "vTokenAddress",
      "outputs": [
        {
          "internalType": "address",
          "name": "",
          "type": "address"
        }
      ],
      "stateMutability": "view",
      "type": "function"
    },
    {
      "inputs": [],
      "name": "wantAddress",
      "outputs": [
        {
          "internalType": "address",
          "name": "",
          "type": "address"
        }
      ],
      "stateMutability": "view",
      "type": "function"
    },
    {
      "inputs": [],
      "name": "wantLockedInHere",
      "outputs": [
        {
          "internalType": "uint256",
          "name": "",
          "type": "uint256"
        }
      ],
      "stateMutability": "view",
      "type": "function"
    },
    {
      "inputs": [],
      "name": "wantLockedTotal",
      "outputs": [
        {
          "internalType": "uint256",
          "name": "",
          "type": "uint256"
        }
      ],
      "stateMutability": "view",
      "type": "function"
    },
    {
      "inputs": [],
      "name": "wbnbAddress",
      "outputs": [
        {
          "internalType": "address",
          "name": "",
          "type": "address"
        }
      ],
      "stateMutability": "view",
      "type": "function"
    },
    {
      "inputs": [],
      "name": "withdraw",
      "outputs": [],
      "stateMutability": "nonpayable",
      "type": "function"
    }
  ],
  "bytecode": "0x608060405260056003553480156200001657600080fd5b506040516200415e3803806200415e83398181016040526101008110156200003d57600080fd5b815160208301516040808501516060860151608087015160a088015160c089018051955197999698949793969295919483019291846401000000008211156200008557600080fd5b9083019060208201858111156200009b57600080fd5b8251866020820283011164010000000082111715620000b957600080fd5b82525081516020918201928201910280838360005b83811015620000e8578181015183820152602001620000ce565b50505050919091016040525060200151600160009081559092508991506200010f6200037f565b600180546001600160a01b0319166001600160a01b038316908117909155604051919250906000907f8be0079c531659141344cd1fd0a4f28419497f9722a3daafe3b4186f6b6457e0908290a3506001805460ff60a01b19169055600280546001600160a01b03199081166001600160a01b0393841617909155610249600c55600580549091169189169190911790558151620001b490600b90602085019062000796565b50600980546001600160a01b038087166001600160a01b031992831617909255600a805486841690831617905560068054898416921691909117908190556040805160208101909152911681526200021190600790600162000796565b50600880546001600160a01b0319166001600160a01b038781169190911791829055600d805460ff19168415151790556009546200026392908216911660001962000383602090811b620026bb17901c565b60085460055462000290916001600160a01b03918216911660001962000383602090811b620026bb17901c565b600654600554620002bd916001600160a01b03918216911660001962000383602090811b620026bb17901c565b600a54604051631853304760e31b815260206004820190815260078054602484018190526001600160a01b039094169363c2998238939192918291604490910190849080156200033757602002820191906000526020600020905b81546001600160a01b0316815260019091019060200180831162000318575b505092505050600060405180830381600087803b1580156200035857600080fd5b505af11580156200036d573d6000803e3d6000fd5b50505050505050505050505062000821565b3390565b8015806200040d575060408051636eb1769f60e11b81523060048201526001600160a01b03848116602483015291519185169163dd62ed3e91604480820192602092909190829003018186803b158015620003dd57600080fd5b505afa158015620003f2573d6000803e3d6000fd5b505050506040513d60208110156200040957600080fd5b5051155b6200044a5760405162461bcd60e51b8152600401808060200182810382526036815260200180620041286036913960400191505060405180910390fd5b604080516001600160a01b038416602482015260448082018490528251808303909101815260649091019091526020810180516001600160e01b0390811663095ea7b360e01b17909152620004a2918591620004a716565b505050565b606062000503826040518060400160405280602081526020017f5361666545524332303a206c6f772d6c6576656c2063616c6c206661696c6564815250856001600160a01b03166200056360201b62002815179092919060201c565b805190915015620004a2578080602001905160208110156200052457600080fd5b5051620004a25760405162461bcd60e51b815260040180806020018281038252602a815260200180620040fe602a913960400191505060405180910390fd5b60606200057484846000856200057e565b90505b9392505050565b606082471015620005c15760405162461bcd60e51b8152600401808060200182810382526026815260200180620040d86026913960400191505060405180910390fd5b620005cc85620006e6565b6200061e576040805162461bcd60e51b815260206004820152601d60248201527f416464726573733a2063616c6c20746f206e6f6e2d636f6e7472616374000000604482015290519081900360640190fd5b60006060866001600160a01b031685876040518082805190602001908083835b602083106200065f5780518252601f1990920191602091820191016200063e565b6001836020036101000a03801982511681845116808217855250505050505090500191505060006040518083038185875af1925050503d8060008114620006c3576040519150601f19603f3d011682016040523d82523d6000602084013e620006c8565b606091505b509092509050620006db828286620006ec565b979650505050505050565b3b151590565b60608315620006fd57508162000577565b8251156200070e5782518084602001fd5b8160405162461bcd60e51b81526004018080602001828103825283818151815260200191508051906020019080838360005b838110156200075a57818101518382015260200162000740565b50505050905090810190601f168015620007885780820380516001836020036101000a031916815260200191505b509250505060405180910390fd5b828054828255906000526020600020908101928215620007ee579160200282015b82811115620007ee57825182546001600160a01b0319166001600160a01b03909116178255602090920191600190910190620007b7565b50620007fc92915062000800565b5090565b5b80821115620007fc5780546001600160a01b031916815560010162000801565b6138a780620008316000396000f3fe608060405234801561001057600080fd5b50600436106102265760003560e01c806392942dba1161012a578063d389800f116100bd578063e7a036791161008c578063f288a2e211610071578063f288a2e214610514578063f2f4eb261461051c578063f2fde38b1461052457610226565b8063e7a03679146104ef578063f0fa55a9146104f757610226565b8063d389800f1461041f578063dbdb962614610427578063dd3eaf04146104ca578063e7198474146104e757610226565b8063acd431a8116100f9578063acd431a8146103c0578063b1283e77146103dd578063b6b55f25146103fa578063c914b4371461041757610226565b806392942dba1461036d57806393790113146103755780639fdabec21461037d578063a9559dd71461039a57610226565b806342da4eb3116101bd578063693a090b1161018c578063800096301161017157806380009630146103375780638456cb591461035d5780638da5cb5b1461036557610226565b8063693a090b14610327578063715018a61461032f57610226565b806342da4eb3146102c55780635c975abb146102cd57806363fe3e3a146102e957806367206d40146102f157610226565b806337fb7e21116101f957806337fb7e211461029057806338946a8c146102985780633ccfd60b146102b55780633f4ba83a146102bd57610226565b80630fa4e01e1461022b5780632792bd57146102455780632fddd91314610269578063303ffe8b14610273575b600080fd5b61023361054a565b60408051918252519081900360200190f35b61024d610550565b604080516001600160a01b039092168252519081900360200190f35b61027161055f565b005b6102716004803603602081101561028957600080fd5b50356105e7565b61024d61078c565b61024d600480360360208110156102ae57600080fd5b503561079b565b6102716107c2565b610271610e24565b610233610f8e565b6102d5610fc3565b604080519115158252519081900360200190f35b61024d610fe4565b6102716004803603606081101561030757600080fd5b506001600160a01b03813581169160208101359160409091013516610ffc565b61024d61122f565b61027161123e565b6102716004803603602081101561034d57600080fd5b50356001600160a01b0316611314565b610271611441565b61024d6115ab565b6102d56115ba565b6102336115c3565b6102716004803603602081101561039357600080fd5b5035611658565b6103a2611755565b60408051938452602084019290925282820152519081900360600190f35b610271600480360360208110156103d657600080fd5b50356118a0565b61024d600480360360208110156103f357600080fd5b503561199a565b6102716004803603602081101561041057600080fd5b50356119a7565b610233611a9c565b610271611aa2565b6102716004803603602081101561043d57600080fd5b81019060208101813564010000000081111561045857600080fd5b82018360208201111561046a57600080fd5b8035906020019184602083028401116401000000008311171561048c57600080fd5b91908080602002602001604051908101604052809392919081815260200183836020028082843760009201919091525092955061215d945050505050565b610271600480360360208110156104e057600080fd5b5035612265565b61024d6123b2565b61024d6123c1565b6102716004803603602081101561050d57600080fd5b50356123d0565b61023361255b565b61024d61257f565b6102716004803603602081101561053a57600080fd5b50356001600160a01b031661258e565b60045481565b6006546001600160a01b031681565b600660009054906101000a90046001600160a01b03166001600160a01b031663a6afed956040518163ffffffff1660e01b8152600401602060405180830381600087803b1580156105af57600080fd5b505af11580156105c3573d6000803e3d6000fd5b505050506040513d60208110156105d957600080fd5b5051156105e557600080fd5b565b600254604080517f91d148540000000000000000000000000000000000000000000000000000000081527ff66846415d2bf9eabda9e84793ff9c0ea96d87f50fc41e66aa16469c6a442f05600482015233602482015290516001600160a01b03909216916391d1485491604480820192602092909190829003018186803b15801561067157600080fd5b505afa158015610685573d6000803e3d6000fd5b505050506040513d602081101561069b57600080fd5b50516106d85760405162461bcd60e51b815260040180806020018281038252602f8152602001806137e3602f913960400191505060405180910390fd5b6106e061055f565b60008060006106ed611755565b919450925090506106fe838261282e565b6107088386612890565b111561075b576040805162461bcd60e51b815260206004820152600e60248201527f616d6f756e7420746f6f20626967000000000000000000000000000000000000604482015290519081900360640190fd5b61076d6107688386612890565b6128ea565b610776826129cf565b6107866107816115c3565b612ab4565b50505050565b600a546001600160a01b031681565b600b81815481106107a857fe5b6000918252602090912001546001600160a01b0316905081565b6107ca612b99565b6001600160a01b03166107db6115ab565b6001600160a01b031614610836576040805162461bcd60e51b815260206004820181905260248201527f4f776e61626c653a2063616c6c6572206973206e6f7420746865206f776e6572604482015290519081900360640190fd5b6002600054141561088e576040805162461bcd60e51b815260206004820152601f60248201527f5265656e7472616e637947756172643a207265656e7472616e742063616c6c00604482015290519081900360640190fd5b600260005561089b612b9d565b600d5460ff161561092857600a54604080517fe9af029200000000000000000000000000000000000000000000000000000000815230600482015290516001600160a01b039092169163e9af02929160248082019260009290919082900301818387803b15801561090b57600080fd5b505af115801561091f573d6000803e3d6000fd5b505050506109a6565b600a54604080517fadcd5fb900000000000000000000000000000000000000000000000000000000815230600482015290516001600160a01b039092169163adcd5fb99160248082019260009290919082900301818387803b15801561098d57600080fd5b505af11580156109a1573d6000803e3d6000fd5b505050505b600954604080517f70a0823100000000000000000000000000000000000000000000000000000000815230600482015290516000926001600160a01b0316916370a08231916024808301926020929190829003018186803b158015610a0a57600080fd5b505afa158015610a1e573d6000803e3d6000fd5b505050506040513d6020811015610a3457600080fd5b50516005546009549192506001600160a01b03918216911614801590610a5957508015155b15610df157600854604080517fd06ca61f0000000000000000000000000000000000000000000000000000000081526004810184815260248201928352600b8054604484018190526000956001600160a01b03169463d06ca61f9488949260649091019084908015610af457602002820191906000526020600020905b81546001600160a01b03168152600190910190602001808311610ad6575b5050935050505060006040518083038186803b158015610b1357600080fd5b505afa158015610b27573d6000803e3d6000fd5b505050506040513d6000823e601f3d9081017fffffffffffffffffffffffffffffffffffffffffffffffffffffffffffffffe01682016040526020811015610b6e57600080fd5b8101908080516040519392919084640100000000821115610b8e57600080fd5b908301906020820185811115610ba357600080fd5b8251866020820283011164010000000082111715610bc057600080fd5b82525081516020918201928201910280838360005b83811015610bed578181015183820152602001610bd5565b505050509050016040525050506001600b805490500381518110610c0d57fe5b602002602001015190506000610c3e6103e8610c386003546103e80385612c4c90919063ffffffff16565b90612ca5565b6008549091506001600160a01b03166338ed17398483600b30610c6342610258612890565b6040518663ffffffff1660e01b81526004018086815260200185815260200180602001846001600160a01b031681526020018381526020018281038252858181548152602001915080548015610ce257602002820191906000526020600020905b81546001600160a01b03168152600190910190602001808311610cc4575b50509650505050505050600060405180830381600087803b158015610d0657600080fd5b505af1158015610d1a573d6000803e3d6000fd5b505050506040513d6000823e601f3d9081017fffffffffffffffffffffffffffffffffffffffffffffffffffffffffffffffe01682016040526020811015610d6157600080fd5b8101908080516040519392919084640100000000821115610d8157600080fd5b908301906020820185811115610d9657600080fd5b8251866020820283011164010000000082111715610db357600080fd5b82525081516020918201928201910280838360005b83811015610de0578181015183820152602001610dc8565b505050509050016040525050505050505b6000610dfb6115c3565b9050610e1b610e086115ab565b6005546001600160a01b03169083612d0c565b50506001600055565b600254604080517fe43581b800000000000000000000000000000000000000000000000000000000815233600482015290516001600160a01b039092169163e43581b891602480820192602092909190829003018186803b158015610e8857600080fd5b505afa158015610e9c573d6000803e3d6000fd5b505050506040513d6020811015610eb257600080fd5b505180610f4b5750600254604080517f0c68ba2100000000000000000000000000000000000000000000000000000000815233600482015290516001600160a01b0390921691630c68ba2191602480820192602092909190829003018186803b158015610f1e57600080fd5b505afa158015610f32573d6000803e3d6000fd5b505050506040513d6020811015610f4857600080fd5b50515b610f865760405162461bcd60e51b815260040180806020018281038252604581526020018061379e6045913960600191505060405180910390fd5b6105e5612d8c565b6000806000610f9b611755565b5091509150610fbc81610fb684610fb06115c3565b90612890565b9061282e565b9250505090565b60015474010000000000000000000000000000000000000000900460ff1690565b73bb4cdb9cbd36b01bd1cbaebf2de08d9173bc095c81565b600254604080517f91d148540000000000000000000000000000000000000000000000000000000081527ff66846415d2bf9eabda9e84793ff9c0ea96d87f50fc41e66aa16469c6a442f05600482015233602482015290516001600160a01b03909216916391d1485491604480820192602092909190829003018186803b15801561108657600080fd5b505afa15801561109a573d6000803e3d6000fd5b505050506040513d60208110156110b057600080fd5b50516110ed5760405162461bcd60e51b815260040180806020018281038252602f8152602001806137e3602f913960400191505060405180910390fd5b6009546001600160a01b0384811691161415611150576040805162461bcd60e51b815260206004820152600560248201527f2173616665000000000000000000000000000000000000000000000000000000604482015290519081900360640190fd5b6005546001600160a01b03848116911614156111b3576040805162461bcd60e51b815260206004820152600560248201527f2173616665000000000000000000000000000000000000000000000000000000604482015290519081900360640190fd5b6006546001600160a01b0384811691161415611216576040805162461bcd60e51b815260206004820152600560248201527f2173616665000000000000000000000000000000000000000000000000000000604482015290519081900360640190fd5b61122a6001600160a01b0384168284612d0c565b505050565b6008546001600160a01b031681565b611246612b99565b6001600160a01b03166112576115ab565b6001600160a01b0316146112b2576040805162461bcd60e51b815260206004820181905260248201527f4f776e61626c653a2063616c6c6572206973206e6f7420746865206f776e6572604482015290519081900360640190fd5b6001546040516000916001600160a01b0316907f8be0079c531659141344cd1fd0a4f28419497f9722a3daafe3b4186f6b6457e0908390a3600180547fffffffffffffffffffffffff0000000000000000000000000000000000000000169055565b600254604080517fe43581b800000000000000000000000000000000000000000000000000000000815233600482015290516001600160a01b039092169163e43581b891602480820192602092909190829003018186803b15801561137857600080fd5b505afa15801561138c573d6000803e3d6000fd5b505050506040513d60208110156113a257600080fd5b50516113df5760405162461bcd60e51b815260040180806020018281038252602f815260200180613704602f913960400191505060405180910390fd5b600280547fffffffffffffffffffffffff0000000000000000000000000000000000000000166001600160a01b0383169081179091556040517fad9400e618eb1344fde53db22397a1b82c765527ecbba3a5c86bcac15090828b90600090a250565b600254604080517fe43581b800000000000000000000000000000000000000000000000000000000815233600482015290516001600160a01b039092169163e43581b891602480820192602092909190829003018186803b1580156114a557600080fd5b505afa1580156114b9573d6000803e3d6000fd5b505050506040513d60208110156114cf57600080fd5b5051806115685750600254604080517f0c68ba2100000000000000000000000000000000000000000000000000000000815233600482015290516001600160a01b0390921691630c68ba2191602480820192602092909190829003018186803b15801561153b57600080fd5b505afa15801561154f573d6000803e3d6000fd5b505050506040513d602081101561156557600080fd5b50515b6115a35760405162461bcd60e51b815260040180806020018281038252604581526020018061379e6045913960600191505060405180910390fd5b6105e5612e4b565b6001546001600160a01b031690565b600d5460ff1681565b600554604080517f70a0823100000000000000000000000000000000000000000000000000000000815230600482015290516000926001600160a01b0316916370a08231916024808301926020929190829003018186803b15801561162757600080fd5b505afa15801561163b573d6000803e3d6000fd5b505050506040513d602081101561165157600080fd5b5051905090565b600254604080517f91d148540000000000000000000000000000000000000000000000000000000081527ff66846415d2bf9eabda9e84793ff9c0ea96d87f50fc41e66aa16469c6a442f05600482015233602482015290516001600160a01b03909216916391d1485491604480820192602092909190829003018186803b1580156116e257600080fd5b505afa1580156116f6573d6000803e3d6000fd5b505050506040513d602081101561170c57600080fd5b50516117495760405162461bcd60e51b815260040180806020018281038252602f8152602001806137e3602f913960400191505060405180910390fd5b61175281612ead565b50565b600654604080517fc37f68e200000000000000000000000000000000000000000000000000000000815230600482015290516000928392839283928392839283926001600160a01b03169163c37f68e2916024808301926080929190829003018186803b1580156117c557600080fd5b505afa1580156117d9573d6000803e3d6000fd5b505050506040513d60808110156117ef57600080fd5b5080516020820151604083015160609093015191965094509092509050831561185f576040805162461bcd60e51b815260206004820152600d60248201527f56656e757320457272436f646500000000000000000000000000000000000000604482015290519081900360640190fd5b611875670de0b6b3a7640000610c388584612c4c565b9650819550611895600c54610c386103e889612c4c90919063ffffffff16565b945050505050909192565b600254604080517f91d148540000000000000000000000000000000000000000000000000000000081527ff66846415d2bf9eabda9e84793ff9c0ea96d87f50fc41e66aa16469c6a442f05600482015233602482015290516001600160a01b03909216916391d1485491604480820192602092909190829003018186803b15801561192a57600080fd5b505afa15801561193e573d6000803e3d6000fd5b505050506040513d602081101561195457600080fd5b50516119915760405162461bcd60e51b815260040180806020018281038252602f8152602001806137e3602f913960400191505060405180910390fd5b61175281612f95565b600781815481106107a857fe5b600260005414156119ff576040805162461bcd60e51b815260206004820152601f60248201527f5265656e7472616e637947756172643a207265656e7472616e742063616c6c00604482015290519081900360640190fd5b6002600055611a0c610fc3565b15611a5e576040805162461bcd60e51b815260206004820152601060248201527f5061757361626c653a2070617573656400000000000000000000000000000000604482015290519081900360640190fd5b600080611a69611755565b506005549193509150611a87906001600160a01b031633308661303a565b611a926107816115c3565b5050600160005550565b600c5481565b611aaa610fc3565b15611afc576040805162461bcd60e51b815260206004820152601060248201527f5061757361626c653a2070617573656400000000000000000000000000000000604482015290519081900360640190fd5b600254604080517f91d148540000000000000000000000000000000000000000000000000000000081527ff66846415d2bf9eabda9e84793ff9c0ea96d87f50fc41e66aa16469c6a442f05600482015233602482015290516001600160a01b03909216916391d1485491604480820192602092909190829003018186803b158015611b8657600080fd5b505afa158015611b9a573d6000803e3d6000fd5b505050506040513d6020811015611bb057600080fd5b5051611bed5760405162461bcd60e51b815260040180806020018281038252602f8152602001806137e3602f913960400191505060405180910390fd5b600d5460ff1615611c7a57600a54604080517fe9af029200000000000000000000000000000000000000000000000000000000815230600482015290516001600160a01b039092169163e9af02929160248082019260009290919082900301818387803b158015611c5d57600080fd5b505af1158015611c71573d6000803e3d6000fd5b50505050611cf8565b600a54604080517fadcd5fb900000000000000000000000000000000000000000000000000000000815230600482015290516001600160a01b039092169163adcd5fb99160248082019260009290919082900301818387803b158015611cdf57600080fd5b505af1158015611cf3573d6000803e3d6000fd5b505050505b600954604080517f70a0823100000000000000000000000000000000000000000000000000000000815230600482015290516000926001600160a01b0316916370a08231916024808301926020929190829003018186803b158015611d5c57600080fd5b505afa158015611d70573d6000803e3d6000fd5b505050506040513d6020811015611d8657600080fd5b50516005546009549192506001600160a01b03918216911614801590611dab57508015155b1561213d57600854604080517fd06ca61f0000000000000000000000000000000000000000000000000000000081526004810184815260248201928352600b8054604484018190526000956001600160a01b03169463d06ca61f9488949260649091019084908015611e4657602002820191906000526020600020905b81546001600160a01b03168152600190910190602001808311611e28575b5050935050505060006040518083038186803b158015611e6557600080fd5b505afa158015611e79573d6000803e3d6000fd5b505050506040513d6000823e601f3d9081017fffffffffffffffffffffffffffffffffffffffffffffffffffffffffffffffe01682016040526020811015611ec057600080fd5b8101908080516040519392919084640100000000821115611ee057600080fd5b908301906020820185811115611ef557600080fd5b8251866020820283011164010000000082111715611f1257600080fd5b82525081516020918201928201910280838360005b83811015611f3f578181015183820152602001611f27565b505050509050016040525050506001600b805490500381518110611f5f57fe5b602002602001015190506000611f8a6103e8610c386003546103e80385612c4c90919063ffffffff16565b6008549091506001600160a01b03166338ed17398483600b30611faf42610258612890565b6040518663ffffffff1660e01b81526004018086815260200185815260200180602001846001600160a01b03168152602001838152602001828103825285818154815260200191508054801561202e57602002820191906000526020600020905b81546001600160a01b03168152600190910190602001808311612010575b50509650505050505050600060405180830381600087803b15801561205257600080fd5b505af1158015612066573d6000803e3d6000fd5b505050506040513d6000823e601f3d9081017fffffffffffffffffffffffffffffffffffffffffffffffffffffffffffffffe016820160405260208110156120ad57600080fd5b81019080805160405193929190846401000000008211156120cd57600080fd5b9083019060208201858111156120e257600080fd5b82518660208202830111640100000000821117156120ff57600080fd5b82525081516020918201928201910280838360005b8381101561212c578181015183820152602001612114565b505050509050016040525050505050505b6121456115c3565b905080156121565761215681612ab4565b5043600455565b600254604080517f91d148540000000000000000000000000000000000000000000000000000000081527ff66846415d2bf9eabda9e84793ff9c0ea96d87f50fc41e66aa16469c6a442f05600482015233602482015290516001600160a01b03909216916391d1485491604480820192602092909190829003018186803b1580156121e757600080fd5b505afa1580156121fb573d6000803e3d6000fd5b505050506040513d602081101561221157600080fd5b505161224e5760405162461bcd60e51b815260040180806020018281038252602f8152602001806137e3602f913960400191505060405180910390fd5b805161226190600b906020840190613601565b5050565b600254604080517f91d148540000000000000000000000000000000000000000000000000000000081527ff66846415d2bf9eabda9e84793ff9c0ea96d87f50fc41e66aa16469c6a442f05600482015233602482015290516001600160a01b03909216916391d1485491604480820192602092909190829003018186803b1580156122ef57600080fd5b505afa158015612303573d6000803e3d6000fd5b505050506040513d602081101561231957600080fd5b50516123565760405162461bcd60e51b815260040180806020018281038252602f8152602001806137e3602f913960400191505060405180910390fd5b61235e61055f565b600c81905560008061236e611755565b92505091508082101561122a5760405162461bcd60e51b81526004018080602001828103825260288152602001806136dc6028913960400191505060405180910390fd5b6009546001600160a01b031681565b6005546001600160a01b031681565b600254604080517f91d148540000000000000000000000000000000000000000000000000000000081527ff66846415d2bf9eabda9e84793ff9c0ea96d87f50fc41e66aa16469c6a442f05600482015233602482015290516001600160a01b03909216916391d1485491604480820192602092909190829003018186803b15801561245a57600080fd5b505afa15801561246e573d6000803e3d6000fd5b505050506040513d602081101561248457600080fd5b50516124c15760405162461bcd60e51b815260040180806020018281038252602f8152602001806137e3602f913960400191505060405180910390fd5b600081116125005760405162461bcd60e51b81526004018080602001828103825260248152602001806137596024913960400191505060405180910390fd5b6005811115612556576040805162461bcd60e51b815260206004820152601460248201527f536c69707061676520697320746f6f2068696768000000000000000000000000604482015290519081900360640190fd5b600355565b7ff66846415d2bf9eabda9e84793ff9c0ea96d87f50fc41e66aa16469c6a442f0581565b6002546001600160a01b031690565b612596612b99565b6001600160a01b03166125a76115ab565b6001600160a01b031614612602576040805162461bcd60e51b815260206004820181905260248201527f4f776e61626c653a2063616c6c6572206973206e6f7420746865206f776e6572604482015290519081900360640190fd5b6001600160a01b0381166126475760405162461bcd60e51b81526004018080602001828103825260268152602001806136b66026913960400191505060405180910390fd5b6001546040516001600160a01b038084169216907f8be0079c531659141344cd1fd0a4f28419497f9722a3daafe3b4186f6b6457e090600090a3600180547fffffffffffffffffffffffff0000000000000000000000000000000000000000166001600160a01b0392909216919091179055565b80158061275a5750604080517fdd62ed3e0000000000000000000000000000000000000000000000000000000081523060048201526001600160a01b03848116602483015291519185169163dd62ed3e91604480820192602092909190829003018186803b15801561272c57600080fd5b505afa158015612740573d6000803e3d6000fd5b505050506040513d602081101561275657600080fd5b5051155b6127955760405162461bcd60e51b815260040180806020018281038252603681526020018061383c6036913960400191505060405180910390fd5b604080516001600160a01b038416602482015260448082018490528251808303909101815260649091019091526020810180517bffffffffffffffffffffffffffffffffffffffffffffffffffffffff167f095ea7b30000000000000000000000000000000000000000000000000000000017905261122a9084906130be565b6060612824848460008561316f565b90505b9392505050565b600082821115612885576040805162461bcd60e51b815260206004820152601e60248201527f536166654d6174683a207375627472616374696f6e206f766572666c6f770000604482015290519081900360640190fd5b508082035b92915050565b600082820183811015612827576040805162461bcd60e51b815260206004820152601b60248201527f536166654d6174683a206164646974696f6e206f766572666c6f770000000000604482015290519081900360640190fd5b600654604080517f852a12e30000000000000000000000000000000000000000000000000000000081526004810184905290516001600160a01b039092169163852a12e3916024808201926020929091908290030181600087803b15801561295157600080fd5b505af1158015612965573d6000803e3d6000fd5b505050506040513d602081101561297b57600080fd5b505115611752576040805162461bcd60e51b815260206004820152601460248201527f72656465656d556e6465726c79696e6720457272000000000000000000000000604482015290519081900360640190fd5b600654604080517f0e7527020000000000000000000000000000000000000000000000000000000081526004810184905290516001600160a01b0390921691630e752702916024808201926020929091908290030181600087803b158015612a3657600080fd5b505af1158015612a4a573d6000803e3d6000fd5b505050506040513d6020811015612a6057600080fd5b505115611752576040805162461bcd60e51b815260206004820152600f60248201527f7265706179426f72726f77204572720000000000000000000000000000000000604482015290519081900360640190fd5b600654604080517fa0712d680000000000000000000000000000000000000000000000000000000081526004810184905290516001600160a01b039092169163a0712d68916024808201926020929091908290030181600087803b158015612b1b57600080fd5b505af1158015612b2f573d6000803e3d6000fd5b505050506040513d6020811015612b4557600080fd5b505115611752576040805162461bcd60e51b815260206004820152600860248201527f6d696e7420457272000000000000000000000000000000000000000000000000604482015290519081900360640190fd5b3390565b6000806000612baa611755565b919450925090506000612bbd848461282e565b90506000612bcb858461282e565b90505b80821115612c305783811115612c0757612be784612ead565b612bef611755565b91965094509250612c00858461282e565b9050612c30565b612c1081612ead565b612c18611755565b91965094509250612c29858461282e565b9050612bce565b80821115612c3c578091505b612c45826128ea565b5050505050565b600082612c5b5750600061288a565b82820282848281612c6857fe5b04146128275760405162461bcd60e51b815260040180806020018281038252602181526020018061377d6021913960400191505060405180910390fd5b6000808211612cfb576040805162461bcd60e51b815260206004820152601a60248201527f536166654d6174683a206469766973696f6e206279207a65726f000000000000604482015290519081900360640190fd5b818381612d0457fe5b049392505050565b604080516001600160a01b038416602482015260448082018490528251808303909101815260649091019091526020810180517bffffffffffffffffffffffffffffffffffffffffffffffffffffffff167fa9059cbb0000000000000000000000000000000000000000000000000000000017905261122a9084906130be565b612d946132e9565b600854600954612dd1916001600160a01b0391821691167fffffffffffffffffffffffffffffffffffffffffffffffffffffffffffffffff6126bb565b600854600554612e0e916001600160a01b0391821691167fffffffffffffffffffffffffffffffffffffffffffffffffffffffffffffffff6126bb565b6006546005546105e5916001600160a01b0391821691167fffffffffffffffffffffffffffffffffffffffffffffffffffffffffffffffff6126bb565b612e536133b0565b600854600954612e71916001600160a01b03918216911660006126bb565b600854600554612e8f916001600160a01b03918216911660006126bb565b6006546005546105e5916001600160a01b03918216911660006126bb565b612eb561055f565b6000806000612ec2611755565b91945092509050612ed3838261282e565b841115612f27576040805162461bcd60e51b815260206004820152600e60248201527f616d6f756e7420746f6f20626967000000000000000000000000000000000000604482015290519081900360640190fd5b81841115612f7c576040805162461bcd60e51b815260206004820152600e60248201527f616d6f756e7420746f6f20626967000000000000000000000000000000000000604482015290519081900360640190fd5b612f85846128ea565b610786612f906115c3565b6129cf565b612f9d61055f565b600080612fa8611755565b509150915081612fd3600c54610c386103e8612fcd888761289090919063ffffffff16565b90612c4c565b1115613026576040805162461bcd60e51b815260206004820152600c60248201527f6c747620746f6f20686967680000000000000000000000000000000000000000604482015290519081900360640190fd5b61302f83613472565b61122a6107816115c3565b604080516001600160a01b0380861660248301528416604482015260648082018490528251808303909101815260849091019091526020810180517bffffffffffffffffffffffffffffffffffffffffffffffffffffffff167f23b872dd000000000000000000000000000000000000000000000000000000001790526107869085905b6060613113826040518060400160405280602081526020017f5361666545524332303a206c6f772d6c6576656c2063616c6c206661696c6564815250856001600160a01b03166128159092919063ffffffff16565b80519091501561122a5780806020019051602081101561313257600080fd5b505161122a5760405162461bcd60e51b815260040180806020018281038252602a815260200180613812602a913960400191505060405180910390fd5b6060824710156131b05760405162461bcd60e51b81526004018080602001828103825260268152602001806137336026913960400191505060405180910390fd5b6131b985613557565b61320a576040805162461bcd60e51b815260206004820152601d60248201527f416464726573733a2063616c6c20746f206e6f6e2d636f6e7472616374000000604482015290519081900360640190fd5b60006060866001600160a01b031685876040518082805190602001908083835b6020831061326757805182527fffffffffffffffffffffffffffffffffffffffffffffffffffffffffffffffe0909201916020918201910161322a565b6001836020036101000a03801982511681845116808217855250505050505090500191505060006040518083038185875af1925050503d80600081146132c9576040519150601f19603f3d011682016040523d82523d6000602084013e6132ce565b606091505b50915091506132de82828661355d565b979650505050505050565b6132f1610fc3565b613342576040805162461bcd60e51b815260206004820152601460248201527f5061757361626c653a206e6f7420706175736564000000000000000000000000604482015290519081900360640190fd5b600180547fffffffffffffffffffffff00ffffffffffffffffffffffffffffffffffffffff1690557f5db9ee0a495bf2e6ff9c91a7834c1ba4fdd244a5e8aa4e537bd38aeae4b073aa613393612b99565b604080516001600160a01b039092168252519081900360200190a1565b6133b8610fc3565b1561340a576040805162461bcd60e51b815260206004820152601060248201527f5061757361626c653a2070617573656400000000000000000000000000000000604482015290519081900360640190fd5b600180547fffffffffffffffffffffff00ffffffffffffffffffffffffffffffffffffffff16740100000000000000000000000000000000000000001790557f62e78cea01bee320cd4e420270b5ea74000d11b0c9f74754ebdbfc544b05a258613393612b99565b600654604080517fc5ebeaec0000000000000000000000000000000000000000000000000000000081526004810184905290516001600160a01b039092169163c5ebeaec916024808201926020929091908290030181600087803b1580156134d957600080fd5b505af11580156134ed573d6000803e3d6000fd5b505050506040513d602081101561350357600080fd5b505115611752576040805162461bcd60e51b815260206004820152600a60248201527f626f72726f772045727200000000000000000000000000000000000000000000604482015290519081900360640190fd5b3b151590565b6060831561356c575081612827565b82511561357c5782518084602001fd5b8160405162461bcd60e51b81526004018080602001828103825283818151815260200191508051906020019080838360005b838110156135c65781810151838201526020016135ae565b50505050905090810190601f1680156135f35780820380516001836020036101000a031916815260200191505b509250505060405180910390fd5b82805482825590600052602060002090810192821561366e579160200282015b8281111561366e57825182547fffffffffffffffffffffffff0000000000000000000000000000000000000000166001600160a01b03909116178255602090920191600190910190613621565b5061367a92915061367e565b5090565b5b8082111561367a5780547fffffffffffffffffffffffff000000000000000000000000000000000000000016815560010161367f56fe4f776e61626c653a206e6577206f776e657220697320746865207a65726f2061646472657373737570706c792073686f756c642062652067726561746572207468616e20737570706c79206d696e436f72655265663a3a6f6e6c79476f7665726e6f723a2043616c6c6572206973206e6f74206120676f7665726e6f72416464726573733a20696e73756666696369656e742062616c616e636520666f722063616c6c536c6970706167652073686f756c642062652067726561746572207468616e207a65726f536166654d6174683a206d756c7469706c69636174696f6e206f766572666c6f77436f72655265663a3a6f6e6c79477561726469616e4f72476f7665726e6f723a2043616c6c6572206973206e6f74206120677561726469616e206f7220676f7665726e6f72436f72655265663a3a6f6e6c7954696d656c6f636b3a2043616c6c6572206973206e6f7420612074696d656c6f636b5361666545524332303a204552433230206f7065726174696f6e20646964206e6f7420737563636565645361666545524332303a20617070726f76652066726f6d206e6f6e2d7a65726f20746f206e6f6e2d7a65726f20616c6c6f77616e6365a2646970667358221220eca46bc69762c94caa312b68efa368d87ac1279c67cee5f6dc168a0379f331f064736f6c634300060c0033416464726573733a20696e73756666696369656e742062616c616e636520666f722063616c6c5361666545524332303a204552433230206f7065726174696f6e20646964206e6f7420737563636565645361666545524332303a20617070726f76652066726f6d206e6f6e2d7a65726f20746f206e6f6e2d7a65726f20616c6c6f77616e6365",
  "linkReferences": {},
  "deployedLinkReferences": {}
}