{
  "_format": "hh-sol-artifact-1",
  "contractName": "StrategyAlpaca",
  "sourceName": "contracts/strategy/StrategyAlpaca.sol",
  "abi": [
    {
      "inputs": [
        {
          "internalType": "address",
          "name": "_core",
          "type": "address"
        },
        {
          "internalType": "address",
          "name": "_vaultAddress",
          "type": "address"
        },
        {
          "internalType": "address",
          "name": "_wantAddress",
          "type": "address"
        },
        {
          "internalType": "address",
          "name": "_uniRouterAddress",
          "type": "address"
        },
        {
          "internalType": "uint256",
          "name": "_poolId",
          "type": "uint256"
        },
        {
          "internalType": "address[]",
          "name": "_earnedToWantPath",
          "type": "address[]"
        }
      ],
      "stateMutability": "nonpayable",
      "type": "constructor"
    },
    {
      "anonymous": false,
      "inputs": [
        {
          "indexed": true,
          "internalType": "address",
          "name": "_core",
          "type": "address"
        }
      ],
      "name": "CoreUpdate",
      "type": "event"
    },
    {
      "anonymous": false,
      "inputs": [
        {
          "indexed": true,
          "internalType": "address",
          "name": "previousOwner",
          "type": "address"
        },
        {
          "indexed": true,
          "internalType": "address",
          "name": "newOwner",
          "type": "address"
        }
      ],
      "name": "OwnershipTransferred",
      "type": "event"
    },
    {
      "anonymous": false,
      "inputs": [
        {
          "indexed": false,
          "internalType": "address",
          "name": "account",
          "type": "address"
        }
      ],
      "name": "Paused",
      "type": "event"
    },
    {
      "anonymous": false,
      "inputs": [
        {
          "indexed": false,
          "internalType": "address",
          "name": "account",
          "type": "address"
        }
      ],
      "name": "Unpaused",
      "type": "event"
    },
    {
      "inputs": [],
      "name": "TIMELOCK_ROLE",
      "outputs": [
        {
          "internalType": "bytes32",
          "name": "",
          "type": "bytes32"
        }
      ],
      "stateMutability": "view",
      "type": "function"
    },
    {
      "inputs": [],
      "name": "alpacaAddress",
      "outputs": [
        {
          "internalType": "address",
          "name": "",
          "type": "address"
        }
      ],
      "stateMutability": "view",
      "type": "function"
    },
    {
      "inputs": [],
      "name": "core",
      "outputs": [
        {
          "internalType": "contract ICore",
          "name": "",
          "type": "address"
        }
      ],
      "stateMutability": "view",
      "type": "function"
    },
    {
      "inputs": [
        {
          "internalType": "uint256",
          "name": "_wantAmt",
          "type": "uint256"
        }
      ],
      "name": "deposit",
      "outputs": [],
      "stateMutability": "nonpayable",
      "type": "function"
    },
    {
      "inputs": [],
      "name": "earn",
      "outputs": [],
      "stateMutability": "nonpayable",
      "type": "function"
    },
    {
      "inputs": [
        {
          "internalType": "uint256",
          "name": "",
          "type": "uint256"
        }
      ],
      "name": "earnedToWantPath",
      "outputs": [
        {
          "internalType": "address",
          "name": "",
          "type": "address"
        }
      ],
      "stateMutability": "view",
      "type": "function"
    },
    {
      "inputs": [],
      "name": "fairLaunchAddress",
      "outputs": [
        {
          "internalType": "address",
          "name": "",
          "type": "address"
        }
      ],
      "stateMutability": "view",
      "type": "function"
    },
    {
      "inputs": [
        {
          "internalType": "address",
          "name": "_token",
          "type": "address"
        },
        {
          "internalType": "uint256",
          "name": "_amount",
          "type": "uint256"
        },
        {
          "internalType": "address",
          "name": "_to",
          "type": "address"
        }
      ],
      "name": "inCaseTokensGetStuck",
      "outputs": [],
      "stateMutability": "nonpayable",
      "type": "function"
    },
    {
      "inputs": [],
      "name": "lastEarnBlock",
      "outputs": [
        {
          "internalType": "uint256",
          "name": "",
          "type": "uint256"
        }
      ],
      "stateMutability": "view",
      "type": "function"
    },
    {
      "inputs": [],
      "name": "owner",
      "outputs": [
        {
          "internalType": "address",
          "name": "",
          "type": "address"
        }
      ],
      "stateMutability": "view",
      "type": "function"
    },
    {
      "inputs": [],
      "name": "pause",
      "outputs": [],
      "stateMutability": "nonpayable",
      "type": "function"
    },
    {
      "inputs": [],
      "name": "paused",
      "outputs": [
        {
          "internalType": "bool",
          "name": "",
          "type": "bool"
        }
      ],
      "stateMutability": "view",
      "type": "function"
    },
    {
      "inputs": [],
      "name": "poolId",
      "outputs": [
        {
          "internalType": "uint256",
          "name": "",
          "type": "uint256"
        }
      ],
      "stateMutability": "view",
      "type": "function"
    },
    {
      "inputs": [],
      "name": "renounceOwnership",
      "outputs": [],
      "stateMutability": "nonpayable",
      "type": "function"
    },
    {
      "inputs": [
        {
          "internalType": "address",
          "name": "core_",
          "type": "address"
        }
      ],
      "name": "setCore",
      "outputs": [],
      "stateMutability": "nonpayable",
      "type": "function"
    },
    {
      "inputs": [
        {
          "internalType": "address[]",
          "name": "newPath",
          "type": "address[]"
        }
      ],
      "name": "setEarnedToWantPath",
      "outputs": [],
      "stateMutability": "nonpayable",
      "type": "function"
    },
    {
      "inputs": [
        {
          "internalType": "address",
          "name": "newOwner",
          "type": "address"
        }
      ],
      "name": "transferOwnership",
      "outputs": [],
      "stateMutability": "nonpayable",
      "type": "function"
    },
    {
      "inputs": [],
      "name": "uniRouterAddress",
      "outputs": [
        {
          "internalType": "address",
          "name": "",
          "type": "address"
        }
      ],
      "stateMutability": "view",
      "type": "function"
    },
    {
      "inputs": [],
      "name": "unpause",
      "outputs": [],
      "stateMutability": "nonpayable",
      "type": "function"
    },
    {
      "inputs": [],
      "name": "updateStrategy",
      "outputs": [],
      "stateMutability": "nonpayable",
      "type": "function"
    },
    {
      "inputs": [],
      "name": "vaultAddress",
      "outputs": [
        {
          "internalType": "address",
          "name": "",
          "type": "address"
        }
      ],
      "stateMutability": "view",
      "type": "function"
    },
    {
      "inputs": [],
      "name": "wantAddress",
      "outputs": [
        {
          "internalType": "address",
          "name": "",
          "type": "address"
        }
      ],
      "stateMutability": "view",
      "type": "function"
    },
    {
      "inputs": [],
      "name": "wantLockedInHere",
      "outputs": [
        {
          "internalType": "uint256",
          "name": "",
          "type": "uint256"
        }
      ],
      "stateMutability": "view",
      "type": "function"
    },
    {
      "inputs": [],
      "name": "wbnbAddress",
      "outputs": [
        {
          "internalType": "address",
          "name": "",
          "type": "address"
        }
      ],
      "stateMutability": "view",
      "type": "function"
    },
    {
      "inputs": [],
      "name": "withdraw",
      "outputs": [],
      "stateMutability": "nonpayable",
      "type": "function"
    }
  ],
  "bytecode": "0x60806040523480156200001157600080fd5b5060405162002e1438038062002e14833981810160405260c08110156200003757600080fd5b815160208301516040808501516060860151608087015160a0880180519451969895979396929591949293820192846401000000008211156200007957600080fd5b9083019060208201858111156200008f57600080fd5b8251866020820283011164010000000082111715620000ad57600080fd5b82525081516020918201928201910280838360005b83811015620000dc578181015183820152602001620000c2565b50505050905001604052505050856001600081905550600062000104620002a260201b60201c565b600180546001600160a01b0319166001600160a01b038316908117909155604051919250906000907f8be0079c531659141344cd1fd0a4f28419497f9722a3daafe3b4186f6b6457e0908290a3506001805460ff60a01b19169055600280546001600160a01b03199081166001600160a01b03938416179091556005805482168884161790556006805490911691861691909117905560078290558051620001b4906008906020840190620006b9565b50600480546001600160a01b0319166001600160a01b0385811691909117918290556200020791738f0528ce5ef7b51152a59745befdd91d97091d2f9116600019620002a6602090811b620019cf17901c565b60045462000231906001600160a01b038681169116600019620002a6602090811b620019cf17901c565b6005546200025b906001600160a01b038681169116600019620002a6602090811b620019cf17901c565b60055462000296906001600160a01b031673a625ab01b08ce023b2a342dbb12a16f2c8489a8f600019620002a6602090811b620019cf17901c565b50505050505062000744565b3390565b80158062000330575060408051636eb1769f60e11b81523060048201526001600160a01b03848116602483015291519185169163dd62ed3e91604480820192602092909190829003018186803b1580156200030057600080fd5b505afa15801562000315573d6000803e3d6000fd5b505050506040513d60208110156200032c57600080fd5b5051155b6200036d5760405162461bcd60e51b815260040180806020018281038252603681526020018062002dde6036913960400191505060405180910390fd5b604080516001600160a01b038416602482015260448082018490528251808303909101815260649091019091526020810180516001600160e01b0390811663095ea7b360e01b17909152620003c5918591620003ca16565b505050565b606062000426826040518060400160405280602081526020017f5361666545524332303a206c6f772d6c6576656c2063616c6c206661696c6564815250856001600160a01b03166200048660201b62001b29179092919060201c565b805190915015620003c5578080602001905160208110156200044757600080fd5b5051620003c55760405162461bcd60e51b815260040180806020018281038252602a81526020018062002db4602a913960400191505060405180910390fd5b6060620004978484600085620004a1565b90505b9392505050565b606082471015620004e45760405162461bcd60e51b815260040180806020018281038252602681526020018062002d8e6026913960400191505060405180910390fd5b620004ef8562000609565b62000541576040805162461bcd60e51b815260206004820152601d60248201527f416464726573733a2063616c6c20746f206e6f6e2d636f6e7472616374000000604482015290519081900360640190fd5b60006060866001600160a01b031685876040518082805190602001908083835b60208310620005825780518252601f19909201916020918201910162000561565b6001836020036101000a03801982511681845116808217855250505050505090500191505060006040518083038185875af1925050503d8060008114620005e6576040519150601f19603f3d011682016040523d82523d6000602084013e620005eb565b606091505b509092509050620005fe8282866200060f565b979650505050505050565b3b151590565b60608315620006205750816200049a565b825115620006315782518084602001fd5b8160405162461bcd60e51b81526004018080602001828103825283818151815260200191508051906020019080838360005b838110156200067d57818101518382015260200162000663565b50505050905090810190601f168015620006ab5780820380516001836020036101000a031916815260200191505b509250505060405180910390fd5b82805482825590600052602060002090810192821562000711579160200282015b828111156200071157825182546001600160a01b0319166001600160a01b03909116178255602090920191600190910190620006da565b506200071f92915062000723565b5090565b5b808211156200071f5780546001600160a01b031916815560010162000724565b61263a80620007546000396000f3fe608060405234801561001057600080fd5b50600436106101a35760003560e01c8063715018a6116100ee578063bb845c4a11610097578063e7a0367911610071578063e7a03679146103a5578063f288a2e2146103ad578063f2f4eb26146103b5578063f2fde38b146103bd576101a3565b8063bb845c4a146102f2578063d389800f146102fa578063dbdb962614610302576101a3565b80638da5cb5b116100c85780638da5cb5b146102c557806393790113146102cd578063b6b55f25146102d5576101a3565b8063715018a61461028f57806380009630146102975780638456cb59146102bd576101a3565b8063430bf08a1161015057806363fe3e3a1161012a57806363fe3e3a1461024957806367206d4014610251578063693a090b14610287576101a3565b8063430bf08a1461021d5780635c975abb14610225578063609c2ef414610241576101a3565b80633ccfd60b116101815780633ccfd60b146102055780633e0dc34e1461020d5780633f4ba83a14610215576101a3565b80630fa4e01e146101a85780632fddd913146101c257806338946a8c146101cc575b600080fd5b6101b06103e3565b60408051918252519081900360200190f35b6101ca6103e9565b005b6101e9600480360360208110156101e257600080fd5b50356103eb565b604080516001600160a01b039092168252519081900360200190f35b6101ca610412565b6101b06109d6565b6101ca6109dc565b6101e9610b46565b61022d610b55565b604080519115158252519081900360200190f35b6101e9610b76565b6101e9610b8e565b6101ca6004803603606081101561026757600080fd5b506001600160a01b03813581169160208101359160409091013516610ba6565b6101e9610de8565b6101ca610df7565b6101ca600480360360208110156102ad57600080fd5b50356001600160a01b0316610ecd565b6101ca610ffa565b6101e9611164565b6101b0611173565b6101ca600480360360208110156102eb57600080fd5b5035611208565b6101e96112ef565b6101ca611307565b6101ca6004803603602081101561031857600080fd5b81019060208101813564010000000081111561033357600080fd5b82018360208201111561034557600080fd5b8035906020019184602083028401116401000000008311171561036757600080fd5b919080806020026020016040519081016040528093929190818152602001838360200280828437600092019190915250929550611758945050505050565b6101e9611860565b6101b061186f565b6101e9611893565b6101ca600480360360208110156103d357600080fd5b50356001600160a01b03166118a2565b60035481565b565b600881815481106103f857fe5b6000918252602090912001546001600160a01b0316905081565b61041a611b42565b6001600160a01b031661042b611164565b6001600160a01b031614610486576040805162461bcd60e51b815260206004820181905260248201527f4f776e61626c653a2063616c6c6572206973206e6f7420746865206f776e6572604482015290519081900360640190fd5b600260005414156104de576040805162461bcd60e51b815260206004820152601f60248201527f5265656e7472616e637947756172643a207265656e7472616e742063616c6c00604482015290519081900360640190fd5b60026000908155600754604080517f93f1a40b00000000000000000000000000000000000000000000000000000000815260048101929092523060248301525173a625ab01b08ce023b2a342dbb12a16f2c8489a8f916393f1a40b916044808301926080929190829003018186803b15801561055957600080fd5b505afa15801561056d573d6000803e3d6000fd5b505050506040513d608081101561058357600080fd5b5051600754604080517fb5c5f6720000000000000000000000000000000000000000000000000000000081523060048201526024810192909252604482018390525191925073a625ab01b08ce023b2a342dbb12a16f2c8489a8f9163b5c5f6729160648082019260009290919082900301818387803b15801561060557600080fd5b505af1158015610619573d6000803e3d6000fd5b5050600554604080517f70a0823100000000000000000000000000000000000000000000000000000000815230600482015290516001600160a01b039092169350632e1a7d4d925083916370a0823191602480820192602092909190829003018186803b15801561068957600080fd5b505afa15801561069d573d6000803e3d6000fd5b505050506040513d60208110156106b357600080fd5b5051604080517fffffffff0000000000000000000000000000000000000000000000000000000060e085901b168152600481019290925251602480830192600092919082900301818387803b15801561070b57600080fd5b505af115801561071f573d6000803e3d6000fd5b5050604080517f70a08231000000000000000000000000000000000000000000000000000000008152306004820152905160009350738f0528ce5ef7b51152a59745befdd91d97091d2f92506370a0823191602480820192602092909190829003018186803b15801561079157600080fd5b505afa1580156107a5573d6000803e3d6000fd5b505050506040513d60208110156107bb57600080fd5b50516006549091506001600160a01b0316738f0528ce5ef7b51152a59745befdd91d97091d2f148015906107ee57508015155b156109a2576004546001600160a01b03166338ed173982600060083061081642610258611b46565b6040518663ffffffff1660e01b81526004018086815260200185815260200180602001846001600160a01b03168152602001838152602001828103825285818154815260200191508054801561089557602002820191906000526020600020905b81546001600160a01b03168152600190910190602001808311610877575b50509650505050505050600060405180830381600087803b1580156108b957600080fd5b505af11580156108cd573d6000803e3d6000fd5b505050506040513d6000823e601f3d9081017fffffffffffffffffffffffffffffffffffffffffffffffffffffffffffffffe0168201604052602081101561091457600080fd5b810190808051604051939291908464010000000082111561093457600080fd5b90830190602082018581111561094957600080fd5b825186602082028301116401000000008211171561096657600080fd5b82525081516020918201928201910280838360005b8381101561099357818101518382015260200161097b565b50505050905001604052505050505b60006109ac611173565b90506109cc6109b9611164565b6006546001600160a01b03169083611ba0565b5050600160005550565b60075481565b600254604080517fe43581b800000000000000000000000000000000000000000000000000000000815233600482015290516001600160a01b039092169163e43581b891602480820192602092909190829003018186803b158015610a4057600080fd5b505afa158015610a54573d6000803e3d6000fd5b505050506040513d6020811015610a6a57600080fd5b505180610b035750600254604080517f0c68ba2100000000000000000000000000000000000000000000000000000000815233600482015290516001600160a01b0390921691630c68ba2191602480820192602092909190829003018186803b158015610ad657600080fd5b505afa158015610aea573d6000803e3d6000fd5b505050506040513d6020811015610b0057600080fd5b50515b610b3e5760405162461bcd60e51b81526004018080602001828103825260458152602001806125316045913960600191505060405180910390fd5b6103e9611c20565b6005546001600160a01b031681565b60015474010000000000000000000000000000000000000000900460ff1690565b73a625ab01b08ce023b2a342dbb12a16f2c8489a8f81565b73bb4cdb9cbd36b01bd1cbaebf2de08d9173bc095c81565b600254604080517f91d148540000000000000000000000000000000000000000000000000000000081527ff66846415d2bf9eabda9e84793ff9c0ea96d87f50fc41e66aa16469c6a442f05600482015233602482015290516001600160a01b03909216916391d1485491604480820192602092909190829003018186803b158015610c3057600080fd5b505afa158015610c44573d6000803e3d6000fd5b505050506040513d6020811015610c5a57600080fd5b5051610c975760405162461bcd60e51b815260040180806020018281038252602f815260200180612576602f913960400191505060405180910390fd5b6001600160a01b038316738f0528ce5ef7b51152a59745befdd91d97091d2f1415610d09576040805162461bcd60e51b815260206004820152600560248201527f2173616665000000000000000000000000000000000000000000000000000000604482015290519081900360640190fd5b6006546001600160a01b0384811691161415610d6c576040805162461bcd60e51b815260206004820152600560248201527f2173616665000000000000000000000000000000000000000000000000000000604482015290519081900360640190fd5b6005546001600160a01b0384811691161415610dcf576040805162461bcd60e51b815260206004820152600560248201527f2173616665000000000000000000000000000000000000000000000000000000604482015290519081900360640190fd5b610de36001600160a01b0384168284611ba0565b505050565b6004546001600160a01b031681565b610dff611b42565b6001600160a01b0316610e10611164565b6001600160a01b031614610e6b576040805162461bcd60e51b815260206004820181905260248201527f4f776e61626c653a2063616c6c6572206973206e6f7420746865206f776e6572604482015290519081900360640190fd5b6001546040516000916001600160a01b0316907f8be0079c531659141344cd1fd0a4f28419497f9722a3daafe3b4186f6b6457e0908390a3600180547fffffffffffffffffffffffff0000000000000000000000000000000000000000169055565b600254604080517fe43581b800000000000000000000000000000000000000000000000000000000815233600482015290516001600160a01b039092169163e43581b891602480820192602092909190829003018186803b158015610f3157600080fd5b505afa158015610f45573d6000803e3d6000fd5b505050506040513d6020811015610f5b57600080fd5b5051610f985760405162461bcd60e51b815260040180806020018281038252602f8152602001806124dc602f913960400191505060405180910390fd5b600280547fffffffffffffffffffffffff0000000000000000000000000000000000000000166001600160a01b0383169081179091556040517fad9400e618eb1344fde53db22397a1b82c765527ecbba3a5c86bcac15090828b90600090a250565b600254604080517fe43581b800000000000000000000000000000000000000000000000000000000815233600482015290516001600160a01b039092169163e43581b891602480820192602092909190829003018186803b15801561105e57600080fd5b505afa158015611072573d6000803e3d6000fd5b505050506040513d602081101561108857600080fd5b5051806111215750600254604080517f0c68ba2100000000000000000000000000000000000000000000000000000000815233600482015290516001600160a01b0390921691630c68ba2191602480820192602092909190829003018186803b1580156110f457600080fd5b505afa158015611108573d6000803e3d6000fd5b505050506040513d602081101561111e57600080fd5b50515b61115c5760405162461bcd60e51b81526004018080602001828103825260458152602001806125316045913960600191505060405180910390fd5b6103e9611cee565b6001546001600160a01b031690565b600654604080517f70a0823100000000000000000000000000000000000000000000000000000000815230600482015290516000926001600160a01b0316916370a08231916024808301926020929190829003018186803b1580156111d757600080fd5b505afa1580156111eb573d6000803e3d6000fd5b505050506040513d602081101561120157600080fd5b5051905090565b60026000541415611260576040805162461bcd60e51b815260206004820152601f60248201527f5265656e7472616e637947756172643a207265656e7472616e742063616c6c00604482015290519081900360640190fd5b600260005561126d610b55565b156112bf576040805162461bcd60e51b815260206004820152601060248201527f5061757361626c653a2070617573656400000000000000000000000000000000604482015290519081900360640190fd5b6006546112d7906001600160a01b0316333084611d5f565b6112e76112e2611173565b611ded565b506001600055565b738f0528ce5ef7b51152a59745befdd91d97091d2f81565b61130f610b55565b15611361576040805162461bcd60e51b815260206004820152601060248201527f5061757361626c653a2070617573656400000000000000000000000000000000604482015290519081900360640190fd5b600254604080517f91d148540000000000000000000000000000000000000000000000000000000081527ff66846415d2bf9eabda9e84793ff9c0ea96d87f50fc41e66aa16469c6a442f05600482015233602482015290516001600160a01b03909216916391d1485491604480820192602092909190829003018186803b1580156113eb57600080fd5b505afa1580156113ff573d6000803e3d6000fd5b505050506040513d602081101561141557600080fd5b50516114525760405162461bcd60e51b815260040180806020018281038252602f815260200180612576602f913960400191505060405180910390fd5b73a625ab01b08ce023b2a342dbb12a16f2c8489a8f6001600160a01b031663ddc632626007546040518263ffffffff1660e01b815260040180828152602001915050600060405180830381600087803b1580156114ae57600080fd5b505af11580156114c2573d6000803e3d6000fd5b5050604080517f70a08231000000000000000000000000000000000000000000000000000000008152306004820152905160009350738f0528ce5ef7b51152a59745befdd91d97091d2f92506370a0823191602480820192602092909190829003018186803b15801561153457600080fd5b505afa158015611548573d6000803e3d6000fd5b505050506040513d602081101561155e57600080fd5b50516006549091506001600160a01b0316738f0528ce5ef7b51152a59745befdd91d97091d2f14611738576004546001600160a01b03166338ed17398260006008306115ac42610258611b46565b6040518663ffffffff1660e01b81526004018086815260200185815260200180602001846001600160a01b03168152602001838152602001828103825285818154815260200191508054801561162b57602002820191906000526020600020905b81546001600160a01b0316815260019091019060200180831161160d575b50509650505050505050600060405180830381600087803b15801561164f57600080fd5b505af1158015611663573d6000803e3d6000fd5b505050506040513d6000823e601f3d9081017fffffffffffffffffffffffffffffffffffffffffffffffffffffffffffffffe016820160405260208110156116aa57600080fd5b81019080805160405193929190846401000000008211156116ca57600080fd5b9083019060208201858111156116df57600080fd5b82518660208202830111640100000000821117156116fc57600080fd5b82525081516020918201928201910280838360005b83811015611729578181015183820152602001611711565b50505050905001604052505050505b611740611173565b905080156117515761175181611ded565b5043600355565b600254604080517f91d148540000000000000000000000000000000000000000000000000000000081527ff66846415d2bf9eabda9e84793ff9c0ea96d87f50fc41e66aa16469c6a442f05600482015233602482015290516001600160a01b03909216916391d1485491604480820192602092909190829003018186803b1580156117e257600080fd5b505afa1580156117f6573d6000803e3d6000fd5b505050506040513d602081101561180c57600080fd5b50516118495760405162461bcd60e51b815260040180806020018281038252602f815260200180612576602f913960400191505060405180910390fd5b805161185c906008906020840190612401565b5050565b6006546001600160a01b031681565b7ff66846415d2bf9eabda9e84793ff9c0ea96d87f50fc41e66aa16469c6a442f0581565b6002546001600160a01b031690565b6118aa611b42565b6001600160a01b03166118bb611164565b6001600160a01b031614611916576040805162461bcd60e51b815260206004820181905260248201527f4f776e61626c653a2063616c6c6572206973206e6f7420746865206f776e6572604482015290519081900360640190fd5b6001600160a01b03811661195b5760405162461bcd60e51b81526004018080602001828103825260268152602001806124b66026913960400191505060405180910390fd5b6001546040516001600160a01b038084169216907f8be0079c531659141344cd1fd0a4f28419497f9722a3daafe3b4186f6b6457e090600090a3600180547fffffffffffffffffffffffff0000000000000000000000000000000000000000166001600160a01b0392909216919091179055565b801580611a6e5750604080517fdd62ed3e0000000000000000000000000000000000000000000000000000000081523060048201526001600160a01b03848116602483015291519185169163dd62ed3e91604480820192602092909190829003018186803b158015611a4057600080fd5b505afa158015611a54573d6000803e3d6000fd5b505050506040513d6020811015611a6a57600080fd5b5051155b611aa95760405162461bcd60e51b81526004018080602001828103825260368152602001806125cf6036913960400191505060405180910390fd5b604080516001600160a01b038416602482015260448082018490528251808303909101815260649091019091526020810180517bffffffffffffffffffffffffffffffffffffffffffffffffffffffff167f095ea7b300000000000000000000000000000000000000000000000000000000179052610de3908490611fa3565b6060611b388484600085612054565b90505b9392505050565b3390565b600082820183811015611b3b576040805162461bcd60e51b815260206004820152601b60248201527f536166654d6174683a206164646974696f6e206f766572666c6f770000000000604482015290519081900360640190fd5b604080516001600160a01b038416602482015260448082018490528251808303909101815260649091019091526020810180517bffffffffffffffffffffffffffffffffffffffffffffffffffffffff167fa9059cbb00000000000000000000000000000000000000000000000000000000179052610de3908490611fa3565b611c286121ce565b600454611c7490738f0528ce5ef7b51152a59745befdd91d97091d2f906001600160a01b03167fffffffffffffffffffffffffffffffffffffffffffffffffffffffffffffffff6119cf565b600454600654611cb1916001600160a01b0391821691167fffffffffffffffffffffffffffffffffffffffffffffffffffffffffffffffff6119cf565b6005546006546103e9916001600160a01b0391821691167fffffffffffffffffffffffffffffffffffffffffffffffffffffffffffffffff6119cf565b611cf6612295565b600454611d2390738f0528ce5ef7b51152a59745befdd91d97091d2f906001600160a01b031660006119cf565b600454600654611d41916001600160a01b03918216911660006119cf565b6005546006546103e9916001600160a01b03918216911660006119cf565b604080516001600160a01b0380861660248301528416604482015260648082018490528251808303909101815260849091019091526020810180517bffffffffffffffffffffffffffffffffffffffffffffffffffffffff167f23b872dd00000000000000000000000000000000000000000000000000000000179052611de7908590611fa3565b50505050565b600554604080517fb6b55f250000000000000000000000000000000000000000000000000000000081526004810184905290516001600160a01b039092169163b6b55f259160248082019260009290919082900301818387803b158015611e5357600080fd5b505af1158015611e67573d6000803e3d6000fd5b5050600754600554604080517f70a082310000000000000000000000000000000000000000000000000000000081523060048201819052915173a625ab01b08ce023b2a342dbb12a16f2c8489a8f9650630efe6a8b95509193926001600160a01b0316916370a0823191602480820192602092909190829003018186803b158015611ef157600080fd5b505afa158015611f05573d6000803e3d6000fd5b505050506040513d6020811015611f1b57600080fd5b5051604080517fffffffff0000000000000000000000000000000000000000000000000000000060e087901b1681526001600160a01b0390941660048501526024840192909252604483015251606480830192600092919082900301818387803b158015611f8857600080fd5b505af1158015611f9c573d6000803e3d6000fd5b5050505050565b6060611ff8826040518060400160405280602081526020017f5361666545524332303a206c6f772d6c6576656c2063616c6c206661696c6564815250856001600160a01b0316611b299092919063ffffffff16565b805190915015610de35780806020019051602081101561201757600080fd5b5051610de35760405162461bcd60e51b815260040180806020018281038252602a8152602001806125a5602a913960400191505060405180910390fd5b6060824710156120955760405162461bcd60e51b815260040180806020018281038252602681526020018061250b6026913960400191505060405180910390fd5b61209e85612357565b6120ef576040805162461bcd60e51b815260206004820152601d60248201527f416464726573733a2063616c6c20746f206e6f6e2d636f6e7472616374000000604482015290519081900360640190fd5b60006060866001600160a01b031685876040518082805190602001908083835b6020831061214c57805182527fffffffffffffffffffffffffffffffffffffffffffffffffffffffffffffffe0909201916020918201910161210f565b6001836020036101000a03801982511681845116808217855250505050505090500191505060006040518083038185875af1925050503d80600081146121ae576040519150601f19603f3d011682016040523d82523d6000602084013e6121b3565b606091505b50915091506121c382828661235d565b979650505050505050565b6121d6610b55565b612227576040805162461bcd60e51b815260206004820152601460248201527f5061757361626c653a206e6f7420706175736564000000000000000000000000604482015290519081900360640190fd5b600180547fffffffffffffffffffffff00ffffffffffffffffffffffffffffffffffffffff1690557f5db9ee0a495bf2e6ff9c91a7834c1ba4fdd244a5e8aa4e537bd38aeae4b073aa612278611b42565b604080516001600160a01b039092168252519081900360200190a1565b61229d610b55565b156122ef576040805162461bcd60e51b815260206004820152601060248201527f5061757361626c653a2070617573656400000000000000000000000000000000604482015290519081900360640190fd5b600180547fffffffffffffffffffffff00ffffffffffffffffffffffffffffffffffffffff16740100000000000000000000000000000000000000001790557f62e78cea01bee320cd4e420270b5ea74000d11b0c9f74754ebdbfc544b05a258612278611b42565b3b151590565b6060831561236c575081611b3b565b82511561237c5782518084602001fd5b8160405162461bcd60e51b81526004018080602001828103825283818151815260200191508051906020019080838360005b838110156123c65781810151838201526020016123ae565b50505050905090810190601f1680156123f35780820380516001836020036101000a031916815260200191505b509250505060405180910390fd5b82805482825590600052602060002090810192821561246e579160200282015b8281111561246e57825182547fffffffffffffffffffffffff0000000000000000000000000000000000000000166001600160a01b03909116178255602090920191600190910190612421565b5061247a92915061247e565b5090565b5b8082111561247a5780547fffffffffffffffffffffffff000000000000000000000000000000000000000016815560010161247f56fe4f776e61626c653a206e6577206f776e657220697320746865207a65726f2061646472657373436f72655265663a3a6f6e6c79476f7665726e6f723a2043616c6c6572206973206e6f74206120676f7665726e6f72416464726573733a20696e73756666696369656e742062616c616e636520666f722063616c6c436f72655265663a3a6f6e6c79477561726469616e4f72476f7665726e6f723a2043616c6c6572206973206e6f74206120677561726469616e206f7220676f7665726e6f72436f72655265663a3a6f6e6c7954696d656c6f636b3a2043616c6c6572206973206e6f7420612074696d656c6f636b5361666545524332303a204552433230206f7065726174696f6e20646964206e6f7420737563636565645361666545524332303a20617070726f76652066726f6d206e6f6e2d7a65726f20746f206e6f6e2d7a65726f20616c6c6f77616e6365a2646970667358221220f96babc9b024290e9bf7b5cfc35353dc586c38314349ab1ea10167437ee2100f64736f6c634300060c0033416464726573733a20696e73756666696369656e742062616c616e636520666f722063616c6c5361666545524332303a204552433230206f7065726174696f6e20646964206e6f7420737563636565645361666545524332303a20617070726f76652066726f6d206e6f6e2d7a65726f20746f206e6f6e2d7a65726f20616c6c6f77616e6365",
  "linkReferences": {},
  "deployedLinkReferences": {}
}