{
  "_format": "hh-sol-artifact-1",
  "contractName": "StrategyVenus",
  "sourceName": "contracts/strategy/StrategyVenus.sol",
  "abi": [
    {
      "inputs": [
        {
          "internalType": "address",
          "name": "_core",
          "type": "address"
        },
        {
          "internalType": "address",
          "name": "_wantAddress",
          "type": "address"
        },
        {
          "internalType": "address",
          "name": "_vTokenAddress",
          "type": "address"
        },
        {
          "internalType": "address",
          "name": "_uniRouterAddress",
          "type": "address"
        },
        {
          "internalType": "address",
          "name": "_earnedAddress",
          "type": "address"
        },
        {
          "internalType": "address",
          "name": "_distributionAddress",
          "type": "address"
        },
        {
          "internalType": "address[]",
          "name": "_earnedToWantPath",
          "type": "address[]"
        },
        {
          "internalType": "bool",
          "name": "_isComp",
          "type": "bool"
        }
      ],
      "stateMutability": "nonpayable",
      "type": "constructor"
    },
    {
      "anonymous": false,
      "inputs": [
        {
          "indexed": true,
          "internalType": "address",
          "name": "_core",
          "type": "address"
        }
      ],
      "name": "CoreUpdate",
      "type": "event"
    },
    {
      "anonymous": false,
      "inputs": [
        {
          "indexed": true,
          "internalType": "address",
          "name": "previousOwner",
          "type": "address"
        },
        {
          "indexed": true,
          "internalType": "address",
          "name": "newOwner",
          "type": "address"
        }
      ],
      "name": "OwnershipTransferred",
      "type": "event"
    },
    {
      "anonymous": false,
      "inputs": [
        {
          "indexed": false,
          "internalType": "address",
          "name": "account",
          "type": "address"
        }
      ],
      "name": "Paused",
      "type": "event"
    },
    {
      "anonymous": false,
      "inputs": [
        {
          "indexed": false,
          "internalType": "address",
          "name": "account",
          "type": "address"
        }
      ],
      "name": "Unpaused",
      "type": "event"
    },
    {
      "inputs": [],
      "name": "TIMELOCK_ROLE",
      "outputs": [
        {
          "internalType": "bytes32",
          "name": "",
          "type": "bytes32"
        }
      ],
      "stateMutability": "view",
      "type": "function"
    },
    {
      "inputs": [],
      "name": "borrowRate",
      "outputs": [
        {
          "internalType": "uint256",
          "name": "",
          "type": "uint256"
        }
      ],
      "stateMutability": "view",
      "type": "function"
    },
    {
      "inputs": [],
      "name": "core",
      "outputs": [
        {
          "internalType": "contract ICore",
          "name": "",
          "type": "address"
        }
      ],
      "stateMutability": "view",
      "type": "function"
    },
    {
      "inputs": [
        {
          "internalType": "uint256",
          "name": "_amount",
          "type": "uint256"
        }
      ],
      "name": "deleverage",
      "outputs": [],
      "stateMutability": "nonpayable",
      "type": "function"
    },
    {
      "inputs": [
        {
          "internalType": "uint256",
          "name": "redeemFeeAmt",
          "type": "uint256"
        }
      ],
      "name": "deleverageAll",
      "outputs": [],
      "stateMutability": "nonpayable",
      "type": "function"
    },
    {
      "inputs": [
        {
          "internalType": "uint256",
          "name": "_wantAmt",
          "type": "uint256"
        }
      ],
      "name": "deposit",
      "outputs": [],
      "stateMutability": "nonpayable",
      "type": "function"
    },
    {
      "inputs": [],
      "name": "distributionAddress",
      "outputs": [
        {
          "internalType": "address",
          "name": "",
          "type": "address"
        }
      ],
      "stateMutability": "view",
      "type": "function"
    },
    {
      "inputs": [],
      "name": "earn",
      "outputs": [],
      "stateMutability": "nonpayable",
      "type": "function"
    },
    {
      "inputs": [],
      "name": "earnedAddress",
      "outputs": [
        {
          "internalType": "address",
          "name": "",
          "type": "address"
        }
      ],
      "stateMutability": "view",
      "type": "function"
    },
    {
      "inputs": [
        {
          "internalType": "uint256",
          "name": "",
          "type": "uint256"
        }
      ],
      "name": "earnedToWantPath",
      "outputs": [
        {
          "internalType": "address",
          "name": "",
          "type": "address"
        }
      ],
      "stateMutability": "view",
      "type": "function"
    },
    {
      "inputs": [
        {
          "internalType": "address",
          "name": "_token",
          "type": "address"
        },
        {
          "internalType": "uint256",
          "name": "_amount",
          "type": "uint256"
        },
        {
          "internalType": "address",
          "name": "_to",
          "type": "address"
        }
      ],
      "name": "inCaseTokensGetStuck",
      "outputs": [],
      "stateMutability": "nonpayable",
      "type": "function"
    },
    {
      "inputs": [],
      "name": "isComp",
      "outputs": [
        {
          "internalType": "bool",
          "name": "",
          "type": "bool"
        }
      ],
      "stateMutability": "view",
      "type": "function"
    },
    {
      "inputs": [],
      "name": "lastEarnBlock",
      "outputs": [
        {
          "internalType": "uint256",
          "name": "",
          "type": "uint256"
        }
      ],
      "stateMutability": "view",
      "type": "function"
    },
    {
      "inputs": [
        {
          "internalType": "uint256",
          "name": "_amount",
          "type": "uint256"
        }
      ],
      "name": "leverage",
      "outputs": [],
      "stateMutability": "nonpayable",
      "type": "function"
    },
    {
      "inputs": [
        {
          "internalType": "uint256",
          "name": "",
          "type": "uint256"
        }
      ],
      "name": "markets",
      "outputs": [
        {
          "internalType": "address",
          "name": "",
          "type": "address"
        }
      ],
      "stateMutability": "view",
      "type": "function"
    },
    {
      "inputs": [],
      "name": "owner",
      "outputs": [
        {
          "internalType": "address",
          "name": "",
          "type": "address"
        }
      ],
      "stateMutability": "view",
      "type": "function"
    },
    {
      "inputs": [],
      "name": "pause",
      "outputs": [],
      "stateMutability": "nonpayable",
      "type": "function"
    },
    {
      "inputs": [],
      "name": "paused",
      "outputs": [
        {
          "internalType": "bool",
          "name": "",
          "type": "bool"
        }
      ],
      "stateMutability": "view",
      "type": "function"
    },
    {
      "inputs": [],
      "name": "renounceOwnership",
      "outputs": [],
      "stateMutability": "nonpayable",
      "type": "function"
    },
    {
      "inputs": [
        {
          "internalType": "uint256",
          "name": "_borrowRate",
          "type": "uint256"
        }
      ],
      "name": "setBorrowRate",
      "outputs": [],
      "stateMutability": "nonpayable",
      "type": "function"
    },
    {
      "inputs": [
        {
          "internalType": "address",
          "name": "core_",
          "type": "address"
        }
      ],
      "name": "setCore",
      "outputs": [],
      "stateMutability": "nonpayable",
      "type": "function"
    },
    {
      "inputs": [
        {
          "internalType": "address[]",
          "name": "newPath",
          "type": "address[]"
        }
      ],
      "name": "setEarnedToWantPath",
      "outputs": [],
      "stateMutability": "nonpayable",
      "type": "function"
    },
    {
      "inputs": [
        {
          "internalType": "address",
          "name": "newOwner",
          "type": "address"
        }
      ],
      "name": "transferOwnership",
      "outputs": [],
      "stateMutability": "nonpayable",
      "type": "function"
    },
    {
      "inputs": [],
      "name": "uniRouterAddress",
      "outputs": [
        {
          "internalType": "address",
          "name": "",
          "type": "address"
        }
      ],
      "stateMutability": "view",
      "type": "function"
    },
    {
      "inputs": [],
      "name": "unpause",
      "outputs": [],
      "stateMutability": "nonpayable",
      "type": "function"
    },
    {
      "inputs": [],
      "name": "updateBalance",
      "outputs": [
        {
          "internalType": "uint256",
          "name": "sup",
          "type": "uint256"
        },
        {
          "internalType": "uint256",
          "name": "brw",
          "type": "uint256"
        },
        {
          "internalType": "uint256",
          "name": "supMin",
          "type": "uint256"
        }
      ],
      "stateMutability": "view",
      "type": "function"
    },
    {
      "inputs": [],
      "name": "updateStrategy",
      "outputs": [],
      "stateMutability": "nonpayable",
      "type": "function"
    },
    {
      "inputs": [],
      "name": "vTokenAddress",
      "outputs": [
        {
          "internalType": "address",
          "name": "",
          "type": "address"
        }
      ],
      "stateMutability": "view",
      "type": "function"
    },
    {
      "inputs": [],
      "name": "wantAddress",
      "outputs": [
        {
          "internalType": "address",
          "name": "",
          "type": "address"
        }
      ],
      "stateMutability": "view",
      "type": "function"
    },
    {
      "inputs": [],
      "name": "wantLockedInHere",
      "outputs": [
        {
          "internalType": "uint256",
          "name": "",
          "type": "uint256"
        }
      ],
      "stateMutability": "view",
      "type": "function"
    },
    {
      "inputs": [],
      "name": "wantLockedTotal",
      "outputs": [
        {
          "internalType": "uint256",
          "name": "",
          "type": "uint256"
        }
      ],
      "stateMutability": "view",
      "type": "function"
    },
    {
      "inputs": [],
      "name": "wbnbAddress",
      "outputs": [
        {
          "internalType": "address",
          "name": "",
          "type": "address"
        }
      ],
      "stateMutability": "view",
      "type": "function"
    },
    {
      "inputs": [],
      "name": "withdraw",
      "outputs": [],
      "stateMutability": "nonpayable",
      "type": "function"
    }
  ],
  "bytecode": "0x60806040523480156200001157600080fd5b5060405162003bba38038062003bba83398181016040526101008110156200003857600080fd5b815160208301516040808501516060860151608087015160a088015160c089018051955197999698949793969295919483019291846401000000008211156200008057600080fd5b9083019060208201858111156200009657600080fd5b8251866020820283011164010000000082111715620000b457600080fd5b82525081516020918201928201910280838360005b83811015620000e3578181015183820152602001620000c9565b50505050919091016040525060200151600160009081559092508991506200010a6200037a565b600180546001600160a01b0319166001600160a01b038316908117909155604051919250906000907f8be0079c531659141344cd1fd0a4f28419497f9722a3daafe3b4186f6b6457e0908290a3506001805460ff60a01b19169055600280546001600160a01b03199081166001600160a01b0393841617909155610249600b55600480549091169189169190911790558151620001af90600a90602085019062000791565b50600880546001600160a01b038087166001600160a01b0319928316179092556009805486841690831617905560058054898416921691909117908190556040805160208101909152911681526200020c90600690600162000791565b50600780546001600160a01b0319166001600160a01b038781169190911791829055600c805460ff19168415151790556008546200025e9290821691166000196200037e602090811b6200214017901c565b6007546004546200028b916001600160a01b0391821691166000196200037e602090811b6200214017901c565b600554600454620002b8916001600160a01b0391821691166000196200037e602090811b6200214017901c565b600954604051631853304760e31b815260206004820190815260068054602484018190526001600160a01b039094169363c2998238939192918291604490910190849080156200033257602002820191906000526020600020905b81546001600160a01b0316815260019091019060200180831162000313575b505092505050600060405180830381600087803b1580156200035357600080fd5b505af115801562000368573d6000803e3d6000fd5b5050505050505050505050506200081c565b3390565b80158062000408575060408051636eb1769f60e11b81523060048201526001600160a01b03848116602483015291519185169163dd62ed3e91604480820192602092909190829003018186803b158015620003d857600080fd5b505afa158015620003ed573d6000803e3d6000fd5b505050506040513d60208110156200040457600080fd5b5051155b620004455760405162461bcd60e51b815260040180806020018281038252603681526020018062003b846036913960400191505060405180910390fd5b604080516001600160a01b038416602482015260448082018490528251808303909101815260649091019091526020810180516001600160e01b0390811663095ea7b360e01b179091526200049d918591620004a216565b505050565b6060620004fe826040518060400160405280602081526020017f5361666545524332303a206c6f772d6c6576656c2063616c6c206661696c6564815250856001600160a01b03166200055e60201b6200229a179092919060201c565b8051909150156200049d578080602001905160208110156200051f57600080fd5b50516200049d5760405162461bcd60e51b815260040180806020018281038252602a81526020018062003b5a602a913960400191505060405180910390fd5b60606200056f848460008562000579565b90505b9392505050565b606082471015620005bc5760405162461bcd60e51b815260040180806020018281038252602681526020018062003b346026913960400191505060405180910390fd5b620005c785620006e1565b62000619576040805162461bcd60e51b815260206004820152601d60248201527f416464726573733a2063616c6c20746f206e6f6e2d636f6e7472616374000000604482015290519081900360640190fd5b60006060866001600160a01b031685876040518082805190602001908083835b602083106200065a5780518252601f19909201916020918201910162000639565b6001836020036101000a03801982511681845116808217855250505050505090500191505060006040518083038185875af1925050503d8060008114620006be576040519150601f19603f3d011682016040523d82523d6000602084013e620006c3565b606091505b509092509050620006d6828286620006e7565b979650505050505050565b3b151590565b60608315620006f857508162000572565b825115620007095782518084602001fd5b8160405162461bcd60e51b81526004018080602001828103825283818151815260200191508051906020019080838360005b83811015620007555781810151838201526020016200073b565b50505050905090810190601f168015620007835780820380516001836020036101000a031916815260200191505b509250505060405180910390fd5b828054828255906000526020600020908101928215620007e9579160200282015b82811115620007e957825182546001600160a01b0319166001600160a01b03909116178255602090920191600190910190620007b2565b50620007f7929150620007fb565b5090565b5b80821115620007f75780546001600160a01b0319168155600101620007fc565b613308806200082c6000396000f3fe608060405234801561001057600080fd5b506004361061020b5760003560e01c80638da5cb5b1161012a578063c914b437116100bd578063e71984741161008c578063f288a2e211610071578063f288a2e2146104dc578063f2f4eb26146104e4578063f2fde38b146104ec5761020b565b8063e7198474146104cc578063e7a03679146104d45761020b565b8063c914b437146103fc578063d389800f14610404578063dbdb96261461040c578063dd3eaf04146104af5761020b565b8063a9559dd7116100f9578063a9559dd71461037f578063acd431a8146103a5578063b1283e77146103c2578063b6b55f25146103df5761020b565b80638da5cb5b1461034a57806392942dba14610352578063937901131461035a5780639fdabec2146103625761020b565b806342da4eb3116101a2578063693a090b11610171578063693a090b1461030c578063715018a614610314578063800096301461031c5780638456cb59146103425761020b565b806342da4eb3146102aa5780635c975abb146102b257806363fe3e3a146102ce57806367206d40146102d65761020b565b806337fb7e21116101de57806337fb7e211461027557806338946a8c1461027d5780633ccfd60b1461029a5780633f4ba83a146102a25761020b565b80630fa4e01e146102105780632792bd571461022a5780632fddd9131461024e578063303ffe8b14610258575b600080fd5b610218610512565b60408051918252519081900360200190f35b610232610518565b604080516001600160a01b039092168252519081900360200190f35b610256610527565b005b6102566004803603602081101561026e57600080fd5b50356105af565b610232610754565b6102326004803603602081101561029357600080fd5b5035610763565b61025661078a565b610256610c08565b610218610d72565b6102ba610da7565b604080519115158252519081900360200190f35b610232610dc8565b610256600480360360608110156102ec57600080fd5b506001600160a01b03813581169160208101359160409091013516610de0565b610232611013565b610256611022565b6102566004803603602081101561033257600080fd5b50356001600160a01b03166110f8565b610256611225565b61023261138f565b6102ba61139e565b6102186113a7565b6102566004803603602081101561037857600080fd5b5035611440565b61038761153d565b60408051938452602084019290925282820152519081900360600190f35b610256600480360360208110156103bb57600080fd5b503561168e565b610232600480360360208110156103d857600080fd5b5035611788565b610256600480360360208110156103f557600080fd5b5035611795565b61021861188a565b610256611890565b6102566004803603602081101561042257600080fd5b81019060208101813564010000000081111561043d57600080fd5b82018360208201111561044f57600080fd5b8035906020019184602083028401116401000000008311171561047157600080fd5b919080806020026020016040519081016040528093929190818152602001838360200280828437600092019190915250929550611d6d945050505050565b610256600480360360208110156104c557600080fd5b5035611e75565b610232611fc2565b610232611fd1565b610218611fe0565b610232612004565b6102566004803603602081101561050257600080fd5b50356001600160a01b0316612013565b60035481565b6005546001600160a01b031681565b600560009054906101000a90046001600160a01b03166001600160a01b031663a6afed956040518163ffffffff1660e01b8152600401602060405180830381600087803b15801561057757600080fd5b505af115801561058b573d6000803e3d6000fd5b505050506040513d60208110156105a157600080fd5b5051156105ad57600080fd5b565b600254604080517f91d148540000000000000000000000000000000000000000000000000000000081527ff66846415d2bf9eabda9e84793ff9c0ea96d87f50fc41e66aa16469c6a442f05600482015233602482015290516001600160a01b03909216916391d1485491604480820192602092909190829003018186803b15801561063957600080fd5b505afa15801561064d573d6000803e3d6000fd5b505050506040513d602081101561066357600080fd5b50516106a05760405162461bcd60e51b815260040180806020018281038252602f815260200180613244602f913960400191505060405180910390fd5b6106a8610527565b60008060006106b561153d565b919450925090506106c683826122b3565b6106d08386612315565b1115610723576040805162461bcd60e51b815260206004820152600e60248201527f616d6f756e7420746f6f20626967000000000000000000000000000000000000604482015290519081900360640190fd5b6107356107308386612315565b61236f565b61073e82612454565b61074e6107496113a7565b612539565b50505050565b6009546001600160a01b031681565b600a818154811061077057fe5b6000918252602090912001546001600160a01b0316905081565b61079261261e565b6001600160a01b03166107a361138f565b6001600160a01b0316146107fe576040805162461bcd60e51b815260206004820181905260248201527f4f776e61626c653a2063616c6c6572206973206e6f7420746865206f776e6572604482015290519081900360640190fd5b60026000541415610856576040805162461bcd60e51b815260206004820152601f60248201527f5265656e7472616e637947756172643a207265656e7472616e742063616c6c00604482015290519081900360640190fd5b6002600055610863612622565b600c5460ff16156108f057600954604080517fe9af029200000000000000000000000000000000000000000000000000000000815230600482015290516001600160a01b039092169163e9af02929160248082019260009290919082900301818387803b1580156108d357600080fd5b505af11580156108e7573d6000803e3d6000fd5b5050505061096e565b600954604080517fadcd5fb900000000000000000000000000000000000000000000000000000000815230600482015290516001600160a01b039092169163adcd5fb99160248082019260009290919082900301818387803b15801561095557600080fd5b505af1158015610969573d6000803e3d6000fd5b505050505b600854604080517f70a0823100000000000000000000000000000000000000000000000000000000815230600482015290516000926001600160a01b0316916370a08231916024808301926020929190829003018186803b1580156109d257600080fd5b505afa1580156109e6573d6000803e3d6000fd5b505050506040513d60208110156109fc57600080fd5b50516004546008549192506001600160a01b03918216911614801590610a2157508015155b15610bd5576007546001600160a01b03166338ed1739826000600a30610a4942610258612315565b6040518663ffffffff1660e01b81526004018086815260200185815260200180602001846001600160a01b031681526020018381526020018281038252858181548152602001915080548015610ac857602002820191906000526020600020905b81546001600160a01b03168152600190910190602001808311610aaa575b50509650505050505050600060405180830381600087803b158015610aec57600080fd5b505af1158015610b00573d6000803e3d6000fd5b505050506040513d6000823e601f3d9081017fffffffffffffffffffffffffffffffffffffffffffffffffffffffffffffffe01682016040526020811015610b4757600080fd5b8101908080516040519392919084640100000000821115610b6757600080fd5b908301906020820185811115610b7c57600080fd5b8251866020820283011164010000000082111715610b9957600080fd5b82525081516020918201928201910280838360005b83811015610bc6578181015183820152602001610bae565b50505050905001604052505050505b6000610bdf6113a7565b9050610bff610bec61138f565b6004546001600160a01b031690836126d1565b50506001600055565b600254604080517fe43581b800000000000000000000000000000000000000000000000000000000815233600482015290516001600160a01b039092169163e43581b891602480820192602092909190829003018186803b158015610c6c57600080fd5b505afa158015610c80573d6000803e3d6000fd5b505050506040513d6020811015610c9657600080fd5b505180610d2f5750600254604080517f0c68ba2100000000000000000000000000000000000000000000000000000000815233600482015290516001600160a01b0390921691630c68ba2191602480820192602092909190829003018186803b158015610d0257600080fd5b505afa158015610d16573d6000803e3d6000fd5b505050506040513d6020811015610d2c57600080fd5b50515b610d6a5760405162461bcd60e51b81526004018080602001828103825260458152602001806131ff6045913960600191505060405180910390fd5b6105ad612751565b6000806000610d7f61153d565b5091509150610da081610d9a84610d946113a7565b90612315565b906122b3565b9250505090565b60015474010000000000000000000000000000000000000000900460ff1690565b73bb4cdb9cbd36b01bd1cbaebf2de08d9173bc095c81565b600254604080517f91d148540000000000000000000000000000000000000000000000000000000081527ff66846415d2bf9eabda9e84793ff9c0ea96d87f50fc41e66aa16469c6a442f05600482015233602482015290516001600160a01b03909216916391d1485491604480820192602092909190829003018186803b158015610e6a57600080fd5b505afa158015610e7e573d6000803e3d6000fd5b505050506040513d6020811015610e9457600080fd5b5051610ed15760405162461bcd60e51b815260040180806020018281038252602f815260200180613244602f913960400191505060405180910390fd5b6008546001600160a01b0384811691161415610f34576040805162461bcd60e51b815260206004820152600560248201527f2173616665000000000000000000000000000000000000000000000000000000604482015290519081900360640190fd5b6004546001600160a01b0384811691161415610f97576040805162461bcd60e51b815260206004820152600560248201527f2173616665000000000000000000000000000000000000000000000000000000604482015290519081900360640190fd5b6005546001600160a01b0384811691161415610ffa576040805162461bcd60e51b815260206004820152600560248201527f2173616665000000000000000000000000000000000000000000000000000000604482015290519081900360640190fd5b61100e6001600160a01b03841682846126d1565b505050565b6007546001600160a01b031681565b61102a61261e565b6001600160a01b031661103b61138f565b6001600160a01b031614611096576040805162461bcd60e51b815260206004820181905260248201527f4f776e61626c653a2063616c6c6572206973206e6f7420746865206f776e6572604482015290519081900360640190fd5b6001546040516000916001600160a01b0316907f8be0079c531659141344cd1fd0a4f28419497f9722a3daafe3b4186f6b6457e0908390a3600180547fffffffffffffffffffffffff0000000000000000000000000000000000000000169055565b600254604080517fe43581b800000000000000000000000000000000000000000000000000000000815233600482015290516001600160a01b039092169163e43581b891602480820192602092909190829003018186803b15801561115c57600080fd5b505afa158015611170573d6000803e3d6000fd5b505050506040513d602081101561118657600080fd5b50516111c35760405162461bcd60e51b815260040180806020018281038252602f815260200180613189602f913960400191505060405180910390fd5b600280547fffffffffffffffffffffffff0000000000000000000000000000000000000000166001600160a01b0383169081179091556040517fad9400e618eb1344fde53db22397a1b82c765527ecbba3a5c86bcac15090828b90600090a250565b600254604080517fe43581b800000000000000000000000000000000000000000000000000000000815233600482015290516001600160a01b039092169163e43581b891602480820192602092909190829003018186803b15801561128957600080fd5b505afa15801561129d573d6000803e3d6000fd5b505050506040513d60208110156112b357600080fd5b50518061134c5750600254604080517f0c68ba2100000000000000000000000000000000000000000000000000000000815233600482015290516001600160a01b0390921691630c68ba2191602480820192602092909190829003018186803b15801561131f57600080fd5b505afa158015611333573d6000803e3d6000fd5b505050506040513d602081101561134957600080fd5b50515b6113875760405162461bcd60e51b81526004018080602001828103825260458152602001806131ff6045913960600191505060405180910390fd5b6105ad612810565b6001546001600160a01b031690565b600c5460ff1681565b60048054604080517f70a082310000000000000000000000000000000000000000000000000000000081523093810193909352516000926001600160a01b03909216916370a08231916024808301926020929190829003018186803b15801561140f57600080fd5b505afa158015611423573d6000803e3d6000fd5b505050506040513d602081101561143957600080fd5b5051905090565b600254604080517f91d148540000000000000000000000000000000000000000000000000000000081527ff66846415d2bf9eabda9e84793ff9c0ea96d87f50fc41e66aa16469c6a442f05600482015233602482015290516001600160a01b03909216916391d1485491604480820192602092909190829003018186803b1580156114ca57600080fd5b505afa1580156114de573d6000803e3d6000fd5b505050506040513d60208110156114f457600080fd5b50516115315760405162461bcd60e51b815260040180806020018281038252602f815260200180613244602f913960400191505060405180910390fd5b61153a81612872565b50565b600554604080517fc37f68e200000000000000000000000000000000000000000000000000000000815230600482015290516000928392839283928392839283926001600160a01b03169163c37f68e2916024808301926080929190829003018186803b1580156115ad57600080fd5b505afa1580156115c1573d6000803e3d6000fd5b505050506040513d60808110156115d757600080fd5b50805160208201516040830151606090930151919650945090925090508315611647576040805162461bcd60e51b815260206004820152600d60248201527f56656e757320457272436f646500000000000000000000000000000000000000604482015290519081900360640190fd5b611663670de0b6b3a764000061165d858461295a565b906129b3565b9650819550611683600b5461165d6103e88961295a90919063ffffffff16565b945050505050909192565b600254604080517f91d148540000000000000000000000000000000000000000000000000000000081527ff66846415d2bf9eabda9e84793ff9c0ea96d87f50fc41e66aa16469c6a442f05600482015233602482015290516001600160a01b03909216916391d1485491604480820192602092909190829003018186803b15801561171857600080fd5b505afa15801561172c573d6000803e3d6000fd5b505050506040513d602081101561174257600080fd5b505161177f5760405162461bcd60e51b815260040180806020018281038252602f815260200180613244602f913960400191505060405180910390fd5b61153a81612a1a565b6006818154811061077057fe5b600260005414156117ed576040805162461bcd60e51b815260206004820152601f60248201527f5265656e7472616e637947756172643a207265656e7472616e742063616c6c00604482015290519081900360640190fd5b60026000556117fa610da7565b1561184c576040805162461bcd60e51b815260206004820152601060248201527f5061757361626c653a2070617573656400000000000000000000000000000000604482015290519081900360640190fd5b60008061185761153d565b506004549193509150611875906001600160a01b0316333086612abf565b6118806107496113a7565b5050600160005550565b600b5481565b611898610da7565b156118ea576040805162461bcd60e51b815260206004820152601060248201527f5061757361626c653a2070617573656400000000000000000000000000000000604482015290519081900360640190fd5b600254604080517f91d148540000000000000000000000000000000000000000000000000000000081527ff66846415d2bf9eabda9e84793ff9c0ea96d87f50fc41e66aa16469c6a442f05600482015233602482015290516001600160a01b03909216916391d1485491604480820192602092909190829003018186803b15801561197457600080fd5b505afa158015611988573d6000803e3d6000fd5b505050506040513d602081101561199e57600080fd5b50516119db5760405162461bcd60e51b815260040180806020018281038252602f815260200180613244602f913960400191505060405180910390fd5b600c5460ff1615611a6857600954604080517fe9af029200000000000000000000000000000000000000000000000000000000815230600482015290516001600160a01b039092169163e9af02929160248082019260009290919082900301818387803b158015611a4b57600080fd5b505af1158015611a5f573d6000803e3d6000fd5b50505050611ae6565b600954604080517fadcd5fb900000000000000000000000000000000000000000000000000000000815230600482015290516001600160a01b039092169163adcd5fb99160248082019260009290919082900301818387803b158015611acd57600080fd5b505af1158015611ae1573d6000803e3d6000fd5b505050505b600854604080517f70a0823100000000000000000000000000000000000000000000000000000000815230600482015290516000926001600160a01b0316916370a08231916024808301926020929190829003018186803b158015611b4a57600080fd5b505afa158015611b5e573d6000803e3d6000fd5b505050506040513d6020811015611b7457600080fd5b50516004546008549192506001600160a01b03918216911614801590611b9957508015155b15611d4d576007546001600160a01b03166338ed1739826000600a30611bc142610258612315565b6040518663ffffffff1660e01b81526004018086815260200185815260200180602001846001600160a01b031681526020018381526020018281038252858181548152602001915080548015611c4057602002820191906000526020600020905b81546001600160a01b03168152600190910190602001808311611c22575b50509650505050505050600060405180830381600087803b158015611c6457600080fd5b505af1158015611c78573d6000803e3d6000fd5b505050506040513d6000823e601f3d9081017fffffffffffffffffffffffffffffffffffffffffffffffffffffffffffffffe01682016040526020811015611cbf57600080fd5b8101908080516040519392919084640100000000821115611cdf57600080fd5b908301906020820185811115611cf457600080fd5b8251866020820283011164010000000082111715611d1157600080fd5b82525081516020918201928201910280838360005b83811015611d3e578181015183820152602001611d26565b50505050905001604052505050505b611d556113a7565b90508015611d6657611d6681612539565b5043600355565b600254604080517f91d148540000000000000000000000000000000000000000000000000000000081527ff66846415d2bf9eabda9e84793ff9c0ea96d87f50fc41e66aa16469c6a442f05600482015233602482015290516001600160a01b03909216916391d1485491604480820192602092909190829003018186803b158015611df757600080fd5b505afa158015611e0b573d6000803e3d6000fd5b505050506040513d6020811015611e2157600080fd5b5051611e5e5760405162461bcd60e51b815260040180806020018281038252602f815260200180613244602f913960400191505060405180910390fd5b8051611e7190600a906020840190613086565b5050565b600254604080517f91d148540000000000000000000000000000000000000000000000000000000081527ff66846415d2bf9eabda9e84793ff9c0ea96d87f50fc41e66aa16469c6a442f05600482015233602482015290516001600160a01b03909216916391d1485491604480820192602092909190829003018186803b158015611eff57600080fd5b505afa158015611f13573d6000803e3d6000fd5b505050506040513d6020811015611f2957600080fd5b5051611f665760405162461bcd60e51b815260040180806020018281038252602f815260200180613244602f913960400191505060405180910390fd5b611f6e610527565b600b819055600080611f7e61153d565b92505091508082101561100e5760405162461bcd60e51b81526004018080602001828103825260288152602001806131616028913960400191505060405180910390fd5b6008546001600160a01b031681565b6004546001600160a01b031681565b7ff66846415d2bf9eabda9e84793ff9c0ea96d87f50fc41e66aa16469c6a442f0581565b6002546001600160a01b031690565b61201b61261e565b6001600160a01b031661202c61138f565b6001600160a01b031614612087576040805162461bcd60e51b815260206004820181905260248201527f4f776e61626c653a2063616c6c6572206973206e6f7420746865206f776e6572604482015290519081900360640190fd5b6001600160a01b0381166120cc5760405162461bcd60e51b815260040180806020018281038252602681526020018061313b6026913960400191505060405180910390fd5b6001546040516001600160a01b038084169216907f8be0079c531659141344cd1fd0a4f28419497f9722a3daafe3b4186f6b6457e090600090a3600180547fffffffffffffffffffffffff0000000000000000000000000000000000000000166001600160a01b0392909216919091179055565b8015806121df5750604080517fdd62ed3e0000000000000000000000000000000000000000000000000000000081523060048201526001600160a01b03848116602483015291519185169163dd62ed3e91604480820192602092909190829003018186803b1580156121b157600080fd5b505afa1580156121c5573d6000803e3d6000fd5b505050506040513d60208110156121db57600080fd5b5051155b61221a5760405162461bcd60e51b815260040180806020018281038252603681526020018061329d6036913960400191505060405180910390fd5b604080516001600160a01b038416602482015260448082018490528251808303909101815260649091019091526020810180517bffffffffffffffffffffffffffffffffffffffffffffffffffffffff167f095ea7b30000000000000000000000000000000000000000000000000000000017905261100e908490612b43565b60606122a98484600085612bf4565b90505b9392505050565b60008282111561230a576040805162461bcd60e51b815260206004820152601e60248201527f536166654d6174683a207375627472616374696f6e206f766572666c6f770000604482015290519081900360640190fd5b508082035b92915050565b6000828201838110156122ac576040805162461bcd60e51b815260206004820152601b60248201527f536166654d6174683a206164646974696f6e206f766572666c6f770000000000604482015290519081900360640190fd5b600554604080517f852a12e30000000000000000000000000000000000000000000000000000000081526004810184905290516001600160a01b039092169163852a12e3916024808201926020929091908290030181600087803b1580156123d657600080fd5b505af11580156123ea573d6000803e3d6000fd5b505050506040513d602081101561240057600080fd5b50511561153a576040805162461bcd60e51b815260206004820152601460248201527f72656465656d556e6465726c79696e6720457272000000000000000000000000604482015290519081900360640190fd5b600554604080517f0e7527020000000000000000000000000000000000000000000000000000000081526004810184905290516001600160a01b0390921691630e752702916024808201926020929091908290030181600087803b1580156124bb57600080fd5b505af11580156124cf573d6000803e3d6000fd5b505050506040513d60208110156124e557600080fd5b50511561153a576040805162461bcd60e51b815260206004820152600f60248201527f7265706179426f72726f77204572720000000000000000000000000000000000604482015290519081900360640190fd5b600554604080517fa0712d680000000000000000000000000000000000000000000000000000000081526004810184905290516001600160a01b039092169163a0712d68916024808201926020929091908290030181600087803b1580156125a057600080fd5b505af11580156125b4573d6000803e3d6000fd5b505050506040513d60208110156125ca57600080fd5b50511561153a576040805162461bcd60e51b815260206004820152600860248201527f6d696e7420457272000000000000000000000000000000000000000000000000604482015290519081900360640190fd5b3390565b600080600061262f61153d565b91945092509050600061264284846122b3565b9050600061265085846122b3565b90505b808211156126b5578381111561268c5761266c84612872565b61267461153d565b9196509450925061268585846122b3565b90506126b5565b61269581612872565b61269d61153d565b919650945092506126ae85846122b3565b9050612653565b808211156126c1578091505b6126ca8261236f565b5050505050565b604080516001600160a01b038416602482015260448082018490528251808303909101815260649091019091526020810180517bffffffffffffffffffffffffffffffffffffffffffffffffffffffff167fa9059cbb0000000000000000000000000000000000000000000000000000000017905261100e908490612b43565b612759612d6e565b600754600854612796916001600160a01b0391821691167fffffffffffffffffffffffffffffffffffffffffffffffffffffffffffffffff612140565b6007546004546127d3916001600160a01b0391821691167fffffffffffffffffffffffffffffffffffffffffffffffffffffffffffffffff612140565b6005546004546105ad916001600160a01b0391821691167fffffffffffffffffffffffffffffffffffffffffffffffffffffffffffffffff612140565b612818612e35565b600754600854612836916001600160a01b0391821691166000612140565b600754600454612854916001600160a01b0391821691166000612140565b6005546004546105ad916001600160a01b0391821691166000612140565b61287a610527565b600080600061288761153d565b9194509250905061289883826122b3565b8411156128ec576040805162461bcd60e51b815260206004820152600e60248201527f616d6f756e7420746f6f20626967000000000000000000000000000000000000604482015290519081900360640190fd5b81841115612941576040805162461bcd60e51b815260206004820152600e60248201527f616d6f756e7420746f6f20626967000000000000000000000000000000000000604482015290519081900360640190fd5b61294a8461236f565b61074e6129556113a7565b612454565b6000826129695750600061230f565b8282028284828161297657fe5b04146122ac5760405162461bcd60e51b81526004018080602001828103825260218152602001806131de6021913960400191505060405180910390fd5b6000808211612a09576040805162461bcd60e51b815260206004820152601a60248201527f536166654d6174683a206469766973696f6e206279207a65726f000000000000604482015290519081900360640190fd5b818381612a1257fe5b049392505050565b612a22610527565b600080612a2d61153d565b509150915081612a58600b5461165d6103e8612a52888761231590919063ffffffff16565b9061295a565b1115612aab576040805162461bcd60e51b815260206004820152600c60248201527f6c747620746f6f20686967680000000000000000000000000000000000000000604482015290519081900360640190fd5b612ab483612ef7565b61100e6107496113a7565b604080516001600160a01b0380861660248301528416604482015260648082018490528251808303909101815260849091019091526020810180517bffffffffffffffffffffffffffffffffffffffffffffffffffffffff167f23b872dd0000000000000000000000000000000000000000000000000000000017905261074e9085905b6060612b98826040518060400160405280602081526020017f5361666545524332303a206c6f772d6c6576656c2063616c6c206661696c6564815250856001600160a01b031661229a9092919063ffffffff16565b80519091501561100e57808060200190516020811015612bb757600080fd5b505161100e5760405162461bcd60e51b815260040180806020018281038252602a815260200180613273602a913960400191505060405180910390fd5b606082471015612c355760405162461bcd60e51b81526004018080602001828103825260268152602001806131b86026913960400191505060405180910390fd5b612c3e85612fdc565b612c8f576040805162461bcd60e51b815260206004820152601d60248201527f416464726573733a2063616c6c20746f206e6f6e2d636f6e7472616374000000604482015290519081900360640190fd5b60006060866001600160a01b031685876040518082805190602001908083835b60208310612cec57805182527fffffffffffffffffffffffffffffffffffffffffffffffffffffffffffffffe09092019160209182019101612caf565b6001836020036101000a03801982511681845116808217855250505050505090500191505060006040518083038185875af1925050503d8060008114612d4e576040519150601f19603f3d011682016040523d82523d6000602084013e612d53565b606091505b5091509150612d63828286612fe2565b979650505050505050565b612d76610da7565b612dc7576040805162461bcd60e51b815260206004820152601460248201527f5061757361626c653a206e6f7420706175736564000000000000000000000000604482015290519081900360640190fd5b600180547fffffffffffffffffffffff00ffffffffffffffffffffffffffffffffffffffff1690557f5db9ee0a495bf2e6ff9c91a7834c1ba4fdd244a5e8aa4e537bd38aeae4b073aa612e1861261e565b604080516001600160a01b039092168252519081900360200190a1565b612e3d610da7565b15612e8f576040805162461bcd60e51b815260206004820152601060248201527f5061757361626c653a2070617573656400000000000000000000000000000000604482015290519081900360640190fd5b600180547fffffffffffffffffffffff00ffffffffffffffffffffffffffffffffffffffff16740100000000000000000000000000000000000000001790557f62e78cea01bee320cd4e420270b5ea74000d11b0c9f74754ebdbfc544b05a258612e1861261e565b600554604080517fc5ebeaec0000000000000000000000000000000000000000000000000000000081526004810184905290516001600160a01b039092169163c5ebeaec916024808201926020929091908290030181600087803b158015612f5e57600080fd5b505af1158015612f72573d6000803e3d6000fd5b505050506040513d6020811015612f8857600080fd5b50511561153a576040805162461bcd60e51b815260206004820152600a60248201527f626f72726f772045727200000000000000000000000000000000000000000000604482015290519081900360640190fd5b3b151590565b60608315612ff15750816122ac565b8251156130015782518084602001fd5b8160405162461bcd60e51b81526004018080602001828103825283818151815260200191508051906020019080838360005b8381101561304b578181015183820152602001613033565b50505050905090810190601f1680156130785780820380516001836020036101000a031916815260200191505b509250505060405180910390fd5b8280548282559060005260206000209081019282156130f3579160200282015b828111156130f357825182547fffffffffffffffffffffffff0000000000000000000000000000000000000000166001600160a01b039091161782556020909201916001909101906130a6565b506130ff929150613103565b5090565b5b808211156130ff5780547fffffffffffffffffffffffff000000000000000000000000000000000000000016815560010161310456fe4f776e61626c653a206e6577206f776e657220697320746865207a65726f2061646472657373737570706c792073686f756c642062652067726561746572207468616e20737570706c79206d696e436f72655265663a3a6f6e6c79476f7665726e6f723a2043616c6c6572206973206e6f74206120676f7665726e6f72416464726573733a20696e73756666696369656e742062616c616e636520666f722063616c6c536166654d6174683a206d756c7469706c69636174696f6e206f766572666c6f77436f72655265663a3a6f6e6c79477561726469616e4f72476f7665726e6f723a2043616c6c6572206973206e6f74206120677561726469616e206f7220676f7665726e6f72436f72655265663a3a6f6e6c7954696d656c6f636b3a2043616c6c6572206973206e6f7420612074696d656c6f636b5361666545524332303a204552433230206f7065726174696f6e20646964206e6f7420737563636565645361666545524332303a20617070726f76652066726f6d206e6f6e2d7a65726f20746f206e6f6e2d7a65726f20616c6c6f77616e6365a26469706673582212205254ef9de3f106dcd67ff8ac20a630fdddf2b4a4c63f6cab729adad7fe4d7e6364736f6c634300060c0033416464726573733a20696e73756666696369656e742062616c616e636520666f722063616c6c5361666545524332303a204552433230206f7065726174696f6e20646964206e6f7420737563636565645361666545524332303a20617070726f76652066726f6d206e6f6e2d7a65726f20746f206e6f6e2d7a65726f20616c6c6f77616e6365",
  "linkReferences": {},
  "deployedLinkReferences": {}
}