{
  "_format": "hh-sol-artifact-1",
  "contractName": "TimelockController",
  "sourceName": "contracts/main/TimelockController.sol",
  "abi": [
    {
      "inputs": [
        {
          "internalType": "address",
          "name": "_core",
          "type": "address"
        },
        {
          "internalType": "uint256",
          "name": "_minDelay",
          "type": "uint256"
        }
      ],
      "stateMutability": "nonpayable",
      "type": "constructor"
    },
    {
      "anonymous": false,
      "inputs": [
        {
          "indexed": true,
          "internalType": "bytes32",
          "name": "id",
          "type": "bytes32"
        },
        {
          "indexed": true,
          "internalType": "uint256",
          "name": "index",
          "type": "uint256"
        },
        {
          "indexed": false,
          "internalType": "address",
          "name": "target",
          "type": "address"
        },
        {
          "indexed": false,
          "internalType": "uint256",
          "name": "value",
          "type": "uint256"
        },
        {
          "indexed": false,
          "internalType": "bytes",
          "name": "data",
          "type": "bytes"
        }
      ],
      "name": "CallExecuted",
      "type": "event"
    },
    {
      "anonymous": false,
      "inputs": [
        {
          "indexed": true,
          "internalType": "bytes32",
          "name": "id",
          "type": "bytes32"
        },
        {
          "indexed": true,
          "internalType": "uint256",
          "name": "index",
          "type": "uint256"
        },
        {
          "indexed": false,
          "internalType": "address",
          "name": "target",
          "type": "address"
        },
        {
          "indexed": false,
          "internalType": "uint256",
          "name": "value",
          "type": "uint256"
        },
        {
          "indexed": false,
          "internalType": "bytes",
          "name": "data",
          "type": "bytes"
        },
        {
          "indexed": false,
          "internalType": "bytes32",
          "name": "predecessor",
          "type": "bytes32"
        },
        {
          "indexed": false,
          "internalType": "uint256",
          "name": "delay",
          "type": "uint256"
        }
      ],
      "name": "CallScheduled",
      "type": "event"
    },
    {
      "anonymous": false,
      "inputs": [
        {
          "indexed": true,
          "internalType": "bytes32",
          "name": "id",
          "type": "bytes32"
        }
      ],
      "name": "Cancelled",
      "type": "event"
    },
    {
      "anonymous": false,
      "inputs": [
        {
          "indexed": true,
          "internalType": "address",
          "name": "_core",
          "type": "address"
        }
      ],
      "name": "CoreUpdate",
      "type": "event"
    },
    {
      "anonymous": false,
      "inputs": [
        {
          "indexed": false,
          "internalType": "uint256",
          "name": "oldDuration",
          "type": "uint256"
        },
        {
          "indexed": false,
          "internalType": "uint256",
          "name": "newDuration",
          "type": "uint256"
        }
      ],
      "name": "MinDelayChange",
      "type": "event"
    },
    {
      "anonymous": false,
      "inputs": [
        {
          "indexed": false,
          "internalType": "address",
          "name": "account",
          "type": "address"
        }
      ],
      "name": "Paused",
      "type": "event"
    },
    {
      "anonymous": false,
      "inputs": [
        {
          "indexed": false,
          "internalType": "address",
          "name": "account",
          "type": "address"
        }
      ],
      "name": "Unpaused",
      "type": "event"
    },
    {
      "inputs": [],
      "name": "EXECUTOR_ROLE",
      "outputs": [
        {
          "internalType": "bytes32",
          "name": "",
          "type": "bytes32"
        }
      ],
      "stateMutability": "view",
      "type": "function"
    },
    {
      "inputs": [],
      "name": "PROPOSER_ROLE",
      "outputs": [
        {
          "internalType": "bytes32",
          "name": "",
          "type": "bytes32"
        }
      ],
      "stateMutability": "view",
      "type": "function"
    },
    {
      "inputs": [],
      "name": "TIMELOCK_ROLE",
      "outputs": [
        {
          "internalType": "bytes32",
          "name": "",
          "type": "bytes32"
        }
      ],
      "stateMutability": "view",
      "type": "function"
    },
    {
      "inputs": [
        {
          "internalType": "bytes32",
          "name": "id",
          "type": "bytes32"
        }
      ],
      "name": "cancel",
      "outputs": [],
      "stateMutability": "nonpayable",
      "type": "function"
    },
    {
      "inputs": [
        {
          "internalType": "address",
          "name": "_token",
          "type": "address"
        },
        {
          "internalType": "uint256",
          "name": "_index",
          "type": "uint256"
        },
        {
          "internalType": "uint256",
          "name": "_value",
          "type": "uint256"
        }
      ],
      "name": "changeRatio",
      "outputs": [],
      "stateMutability": "nonpayable",
      "type": "function"
    },
    {
      "inputs": [],
      "name": "core",
      "outputs": [
        {
          "internalType": "contract ICore",
          "name": "",
          "type": "address"
        }
      ],
      "stateMutability": "view",
      "type": "function"
    },
    {
      "inputs": [
        {
          "internalType": "address",
          "name": "_strategy",
          "type": "address"
        },
        {
          "internalType": "uint256",
          "name": "_amount",
          "type": "uint256"
        }
      ],
      "name": "deleverage",
      "outputs": [],
      "stateMutability": "nonpayable",
      "type": "function"
    },
    {
      "inputs": [
        {
          "internalType": "address",
          "name": "_strategy",
          "type": "address"
        },
        {
          "internalType": "uint256",
          "name": "_amount",
          "type": "uint256"
        }
      ],
      "name": "deleverageAll",
      "outputs": [],
      "stateMutability": "nonpayable",
      "type": "function"
    },
    {
      "inputs": [
        {
          "internalType": "address",
          "name": "_strategy",
          "type": "address"
        }
      ],
      "name": "earn",
      "outputs": [],
      "stateMutability": "nonpayable",
      "type": "function"
    },
    {
      "inputs": [
        {
          "internalType": "address",
          "name": "target",
          "type": "address"
        },
        {
          "internalType": "uint256",
          "name": "value",
          "type": "uint256"
        },
        {
          "internalType": "bytes",
          "name": "data",
          "type": "bytes"
        },
        {
          "internalType": "bytes32",
          "name": "predecessor",
          "type": "bytes32"
        },
        {
          "internalType": "bytes32",
          "name": "salt",
          "type": "bytes32"
        }
      ],
      "name": "execute",
      "outputs": [],
      "stateMutability": "payable",
      "type": "function"
    },
    {
      "inputs": [
        {
          "internalType": "address[]",
          "name": "targets",
          "type": "address[]"
        },
        {
          "internalType": "uint256[]",
          "name": "values",
          "type": "uint256[]"
        },
        {
          "internalType": "bytes[]",
          "name": "datas",
          "type": "bytes[]"
        },
        {
          "internalType": "bytes32",
          "name": "predecessor",
          "type": "bytes32"
        },
        {
          "internalType": "bytes32",
          "name": "salt",
          "type": "bytes32"
        }
      ],
      "name": "executeBatch",
      "outputs": [],
      "stateMutability": "payable",
      "type": "function"
    },
    {
      "inputs": [
        {
          "internalType": "bytes32",
          "name": "id",
          "type": "bytes32"
        }
      ],
      "name": "getTimestamp",
      "outputs": [
        {
          "internalType": "uint256",
          "name": "timestamp",
          "type": "uint256"
        }
      ],
      "stateMutability": "view",
      "type": "function"
    },
    {
      "inputs": [
        {
          "internalType": "address",
          "name": "target",
          "type": "address"
        },
        {
          "internalType": "uint256",
          "name": "value",
          "type": "uint256"
        },
        {
          "internalType": "bytes",
          "name": "data",
          "type": "bytes"
        },
        {
          "internalType": "bytes32",
          "name": "predecessor",
          "type": "bytes32"
        },
        {
          "internalType": "bytes32",
          "name": "salt",
          "type": "bytes32"
        }
      ],
      "name": "hashOperation",
      "outputs": [
        {
          "internalType": "bytes32",
          "name": "hash",
          "type": "bytes32"
        }
      ],
      "stateMutability": "pure",
      "type": "function"
    },
    {
      "inputs": [
        {
          "internalType": "address[]",
          "name": "targets",
          "type": "address[]"
        },
        {
          "internalType": "uint256[]",
          "name": "values",
          "type": "uint256[]"
        },
        {
          "internalType": "bytes[]",
          "name": "datas",
          "type": "bytes[]"
        },
        {
          "internalType": "bytes32",
          "name": "predecessor",
          "type": "bytes32"
        },
        {
          "internalType": "bytes32",
          "name": "salt",
          "type": "bytes32"
        }
      ],
      "name": "hashOperationBatch",
      "outputs": [
        {
          "internalType": "bytes32",
          "name": "hash",
          "type": "bytes32"
        }
      ],
      "stateMutability": "pure",
      "type": "function"
    },
    {
      "inputs": [
        {
          "internalType": "address",
          "name": "_strategy",
          "type": "address"
        },
        {
          "internalType": "address",
          "name": "_token",
          "type": "address"
        },
        {
          "internalType": "uint256",
          "name": "_amount",
          "type": "uint256"
        },
        {
          "internalType": "address",
          "name": "_to",
          "type": "address"
        }
      ],
      "name": "inCaseTokensGetStuck",
      "outputs": [],
      "stateMutability": "nonpayable",
      "type": "function"
    },
    {
      "inputs": [
        {
          "internalType": "bytes32",
          "name": "id",
          "type": "bytes32"
        }
      ],
      "name": "isOperation",
      "outputs": [
        {
          "internalType": "bool",
          "name": "pending",
          "type": "bool"
        }
      ],
      "stateMutability": "view",
      "type": "function"
    },
    {
      "inputs": [
        {
          "internalType": "bytes32",
          "name": "id",
          "type": "bytes32"
        }
      ],
      "name": "isOperationDone",
      "outputs": [
        {
          "internalType": "bool",
          "name": "done",
          "type": "bool"
        }
      ],
      "stateMutability": "view",
      "type": "function"
    },
    {
      "inputs": [
        {
          "internalType": "bytes32",
          "name": "id",
          "type": "bytes32"
        }
      ],
      "name": "isOperationPending",
      "outputs": [
        {
          "internalType": "bool",
          "name": "pending",
          "type": "bool"
        }
      ],
      "stateMutability": "view",
      "type": "function"
    },
    {
      "inputs": [
        {
          "internalType": "bytes32",
          "name": "id",
          "type": "bytes32"
        }
      ],
      "name": "isOperationReady",
      "outputs": [
        {
          "internalType": "bool",
          "name": "ready",
          "type": "bool"
        }
      ],
      "stateMutability": "view",
      "type": "function"
    },
    {
      "inputs": [
        {
          "internalType": "address",
          "name": "_strategy",
          "type": "address"
        },
        {
          "internalType": "uint256",
          "name": "_amount",
          "type": "uint256"
        }
      ],
      "name": "leverage",
      "outputs": [],
      "stateMutability": "nonpayable",
      "type": "function"
    },
    {
      "inputs": [],
      "name": "minDelay",
      "outputs": [
        {
          "internalType": "uint256",
          "name": "",
          "type": "uint256"
        }
      ],
      "stateMutability": "view",
      "type": "function"
    },
    {
      "inputs": [],
      "name": "pause",
      "outputs": [],
      "stateMutability": "nonpayable",
      "type": "function"
    },
    {
      "inputs": [],
      "name": "paused",
      "outputs": [
        {
          "internalType": "bool",
          "name": "",
          "type": "bool"
        }
      ],
      "stateMutability": "view",
      "type": "function"
    },
    {
      "inputs": [
        {
          "internalType": "address",
          "name": "target",
          "type": "address"
        },
        {
          "internalType": "uint256",
          "name": "value",
          "type": "uint256"
        },
        {
          "internalType": "bytes",
          "name": "data",
          "type": "bytes"
        },
        {
          "internalType": "bytes32",
          "name": "predecessor",
          "type": "bytes32"
        },
        {
          "internalType": "bytes32",
          "name": "salt",
          "type": "bytes32"
        },
        {
          "internalType": "uint256",
          "name": "delay",
          "type": "uint256"
        }
      ],
      "name": "schedule",
      "outputs": [],
      "stateMutability": "nonpayable",
      "type": "function"
    },
    {
      "inputs": [
        {
          "internalType": "address[]",
          "name": "targets",
          "type": "address[]"
        },
        {
          "internalType": "uint256[]",
          "name": "values",
          "type": "uint256[]"
        },
        {
          "internalType": "bytes[]",
          "name": "datas",
          "type": "bytes[]"
        },
        {
          "internalType": "bytes32",
          "name": "predecessor",
          "type": "bytes32"
        },
        {
          "internalType": "bytes32",
          "name": "salt",
          "type": "bytes32"
        },
        {
          "internalType": "uint256",
          "name": "delay",
          "type": "uint256"
        }
      ],
      "name": "scheduleBatch",
      "outputs": [],
      "stateMutability": "nonpayable",
      "type": "function"
    },
    {
      "inputs": [
        {
          "internalType": "address",
          "name": "_strategy",
          "type": "address"
        },
        {
          "internalType": "uint256",
          "name": "_borrowRate",
          "type": "uint256"
        }
      ],
      "name": "setBorrowRate",
      "outputs": [],
      "stateMutability": "nonpayable",
      "type": "function"
    },
    {
      "inputs": [
        {
          "internalType": "address",
          "name": "core_",
          "type": "address"
        }
      ],
      "name": "setCore",
      "outputs": [],
      "stateMutability": "nonpayable",
      "type": "function"
    },
    {
      "inputs": [
        {
          "internalType": "address",
          "name": "_strategy",
          "type": "address"
        },
        {
          "internalType": "address[]",
          "name": "newPath",
          "type": "address[]"
        }
      ],
      "name": "setEarnedToWantPath",
      "outputs": [],
      "stateMutability": "nonpayable",
      "type": "function"
    },
    {
      "inputs": [
        {
          "internalType": "address",
          "name": "_master",
          "type": "address"
        },
        {
          "internalType": "uint256",
          "name": "_pid",
          "type": "uint256"
        },
        {
          "internalType": "uint256",
          "name": "_allocPoint",
          "type": "uint256"
        },
        {
          "internalType": "bool",
          "name": "_withUpdate",
          "type": "bool"
        }
      ],
      "name": "setMasterWTF",
      "outputs": [],
      "stateMutability": "nonpayable",
      "type": "function"
    },
    {
      "inputs": [
        {
          "internalType": "address",
          "name": "_trancheMaster",
          "type": "address"
        },
        {
          "internalType": "uint256",
          "name": "_tid",
          "type": "uint256"
        },
        {
          "internalType": "uint256",
          "name": "_target",
          "type": "uint256"
        },
        {
          "internalType": "uint256",
          "name": "_apy",
          "type": "uint256"
        },
        {
          "internalType": "uint256",
          "name": "_fee",
          "type": "uint256"
        }
      ],
      "name": "setTrancheMaster",
      "outputs": [],
      "stateMutability": "nonpayable",
      "type": "function"
    },
    {
      "inputs": [
        {
          "internalType": "address",
          "name": "_trancheMaster",
          "type": "address"
        }
      ],
      "name": "stop",
      "outputs": [],
      "stateMutability": "nonpayable",
      "type": "function"
    },
    {
      "inputs": [],
      "name": "unpause",
      "outputs": [],
      "stateMutability": "nonpayable",
      "type": "function"
    },
    {
      "inputs": [
        {
          "internalType": "uint256",
          "name": "newDelay",
          "type": "uint256"
        }
      ],
      "name": "updateDelay",
      "outputs": [],
      "stateMutability": "nonpayable",
      "type": "function"
    },
    {
      "inputs": [
        {
          "internalType": "address",
          "name": "_master",
          "type": "address"
        },
        {
          "internalType": "uint256",
          "name": "_rewardPerBlock",
          "type": "uint256"
        }
      ],
      "name": "updateRewardPerBlock",
      "outputs": [],
      "stateMutability": "nonpayable",
      "type": "function"
    },
    {
      "stateMutability": "payable",
      "type": "receive"
    }
  ],
  "bytecode": "0x60806040523480156200001157600080fd5b5060405162002f4338038062002f4383398101604081905262000034916200009e565b600080546001600160a81b0319166101006001600160a01b038516021781556001805560038290556040517f11c24f4ead16507c69ac467fbd5e4eed5fb5c699626d2cc6d66421df253886d5916200008e918490620000d8565b60405180910390a15050620000e6565b60008060408385031215620000b1578182fd5b82516001600160a01b0381168114620000c8578283fd5b6020939093015192949293505050565b918252602082015260400190565b612e4d80620000f66000396000f3fe60806040526004361061021d5760003560e01c8063656cb0bc1161011d5780638f61f4f5116100b0578063d45c44351161007f578063f288a2e211610064578063f288a2e2146105d2578063f2f4eb26146105e7578063fdb5fefc1461060957610224565b8063d45c44351461059f578063e38335e5146105bf57610224565b80638f61f4f514610535578063b1c5f4271461054a578063c4d252f51461056a578063c63c4e9b1461058a57610224565b80638065657f116100ec5780638065657f146104c05780638328716e146104e05780638456cb59146105005780638f2a0bb01461051557610224565b8063656cb0bc146104405780637367e2f9146104605780638000963014610480578063803a3554146104a057610224565b80632ebdc22e116101b0578063460679cf1161017f578063584b153e11610164578063584b153e146103eb5780635c975abb1461040b57806364d623531461042057610224565b8063460679cf146103ab57806355e46f9e146103cb57610224565b80632ebdc22e1461033657806331d50750146103565780633d9a46f0146103765780633f4ba83a1461039657610224565b806313bc9f20116101ec57806313bc9f20146102a957806314faecd4146102d6578063268a9ed4146102f65780632ab0f5291461031657610224565b806301d5062a1461022957806307bd02651461024b57806307c4902f14610276578063134008d31461029657610224565b3661022457005b600080fd5b34801561023557600080fd5b50610249610244366004612238565b610629565b005b34801561025757600080fd5b50610260610786565b60405161026d9190612802565b60405180910390f35b34801561028257600080fd5b506102496102913660046121a2565b6107aa565b6102496102a43660046121cc565b610851565b3480156102b557600080fd5b506102c96102c43660046124ce565b610a2a565b60405161026d91906127f7565b3480156102e257600080fd5b506102496102f13660046120f1565b610a4f565b34801561030257600080fd5b5061024961031136600461209f565b610bc1565b34801561032257600080fd5b506102c96103313660046124ce565b610c64565b34801561034257600080fd5b506102496103513660046121a2565b610c78565b34801561036257600080fd5b506102c96103713660046124ce565b610ce9565b34801561038257600080fd5b506102496103913660046121a2565b610cfc565b3480156103a257600080fd5b50610249610d6d565b3480156103b757600080fd5b506102496103c636600461231c565b610eed565b3480156103d757600080fd5b506102496103e63660046122df565b610f9d565b3480156103f757600080fd5b506102c96104063660046124ce565b611012565b34801561041757600080fd5b506102c961101f565b34801561042c57600080fd5b5061024961043b3660046124ce565b611028565b34801561044c57600080fd5b5061024961045b366004612084565b611087565b34801561046c57600080fd5b5061024961047b3660046121a2565b611109565b34801561048c57600080fd5b5061024961049b366004612084565b61117a565b3480156104ac57600080fd5b506102496104bb3660046121a2565b6112b4565b3480156104cc57600080fd5b506102606104db3660046121cc565b611325565b3480156104ec57600080fd5b506102496104fb3660046122ac565b611364565b34801561050c57600080fd5b506102496113d7565b34801561052157600080fd5b50610249610530366004612404565b611555565b34801561054157600080fd5b5061026061174c565b34801561055657600080fd5b5061026061056536600461235f565b611770565b34801561057657600080fd5b506102496105853660046124ce565b6117b5565b34801561059657600080fd5b506102606118ff565b3480156105ab57600080fd5b506102606105ba3660046124ce565b611905565b6102496105cd36600461235f565b611917565b3480156105de57600080fd5b50610260611b93565b3480156105f357600080fd5b506105fc611bb7565b60405161026d9190612605565b34801561061557600080fd5b50610249610624366004612084565b611bd8565b6000546040517f91d148540000000000000000000000000000000000000000000000000000000081527fb09aa5aeb3702cfd50b6b62bc4532604938f21248a27a1d5ca736082b6819cc191610100900473ffffffffffffffffffffffffffffffffffffffff16906391d14854906106a6908490339060040161280b565b60206040518083038186803b1580156106be57600080fd5b505afa1580156106d2573d6000803e3d6000fd5b505050506040513d601f19601f820116820180604052508101906106f691906124b2565b61071b5760405162461bcd60e51b8152600401610712906129da565b60405180910390fd5b600061072b898989898989611325565b90506107378184611d09565b6000817f4cf4410cc57040e44862ef0f45f3dd5a5e02db8eb8add648d4b0e236f1d07dca8b8b8b8b8b8a60405161077396959493929190612696565b60405180910390a3505050505050505050565b7fd8aa0f3194971a2a116679f7c2090f6939c8d4e01a2a8d7e41d55e5351469e6381565b3330146107c95760405162461bcd60e51b81526004016107129061282f565b6040517f9fdabec200000000000000000000000000000000000000000000000000000000815273ffffffffffffffffffffffffffffffffffffffff831690639fdabec29061081b908490600401612802565b600060405180830381600087803b15801561083557600080fd5b505af1158015610849573d6000803e3d6000fd5b505050505050565b600080546040517f91d148540000000000000000000000000000000000000000000000000000000081527fd8aa0f3194971a2a116679f7c2090f6939c8d4e01a2a8d7e41d55e5351469e639261010090920473ffffffffffffffffffffffffffffffffffffffff16916391d14854916108ce91859160040161280b565b60206040518083038186803b1580156108e657600080fd5b505afa1580156108fa573d6000803e3d6000fd5b505050506040513d601f19601f8201168201806040525081019061091e91906124b2565b806109d057506000546040517f91d1485400000000000000000000000000000000000000000000000000000000815261010090910473ffffffffffffffffffffffffffffffffffffffff16906391d1485490610980908490339060040161280b565b60206040518083038186803b15801561099857600080fd5b505afa1580156109ac573d6000803e3d6000fd5b505050506040513d601f19601f820116820180604052508101906109d091906124b2565b6109ec5760405162461bcd60e51b8152600401610712906128e9565b60006109fc888888888888611325565b9050610a088185611d68565b610a178160008a8a8a8a611dbe565b610a2081611e93565b5050505050505050565b600080610a3683611905565b9050600181118015610a485750428111155b9392505050565b6000546040517f91d148540000000000000000000000000000000000000000000000000000000081527fd8aa0f3194971a2a116679f7c2090f6939c8d4e01a2a8d7e41d55e5351469e6391610100900473ffffffffffffffffffffffffffffffffffffffff16906391d1485490610acc908490339060040161280b565b60206040518083038186803b158015610ae457600080fd5b505afa158015610af8573d6000803e3d6000fd5b505050506040513d601f19601f82011682018060405250810190610b1c91906124b2565b610b385760405162461bcd60e51b8152600401610712906129da565b6040517fdbdb962600000000000000000000000000000000000000000000000000000000815273ffffffffffffffffffffffffffffffffffffffff84169063dbdb962690610b8a90859060040161279d565b600060405180830381600087803b158015610ba457600080fd5b505af1158015610bb8573d6000803e3d6000fd5b50505050505050565b333014610be05760405162461bcd60e51b81526004016107129061282f565b6040517f67206d4000000000000000000000000000000000000000000000000000000000815273ffffffffffffffffffffffffffffffffffffffff8516906367206d4090610c3690869086908690600401612626565b600060405180830381600087803b158015610c5057600080fd5b505af1158015610a20573d6000803e3d6000fd5b60006001610c7183611905565b1492915050565b333014610c975760405162461bcd60e51b81526004016107129061282f565b6040517facd431a800000000000000000000000000000000000000000000000000000000815273ffffffffffffffffffffffffffffffffffffffff83169063acd431a89061081b908490600401612802565b600080610cf583611905565b1192915050565b333014610d1b5760405162461bcd60e51b81526004016107129061282f565b6040517f01f8a97600000000000000000000000000000000000000000000000000000000815273ffffffffffffffffffffffffffffffffffffffff8316906301f8a9769061081b908490600401612802565b6000546040517fe43581b800000000000000000000000000000000000000000000000000000000815261010090910473ffffffffffffffffffffffffffffffffffffffff169063e43581b890610dc7903390600401612605565b60206040518083038186803b158015610ddf57600080fd5b505afa158015610df3573d6000803e3d6000fd5b505050506040513d601f19601f82011682018060405250810190610e1791906124b2565b80610ec757506000546040517f0c68ba2100000000000000000000000000000000000000000000000000000000815261010090910473ffffffffffffffffffffffffffffffffffffffff1690630c68ba2190610e77903390600401612605565b60206040518083038186803b158015610e8f57600080fd5b505afa158015610ea3573d6000803e3d6000fd5b505050506040513d601f19601f82011682018060405250810190610ec791906124b2565b610ee35760405162461bcd60e51b815260040161071290612b02565b610eeb611ecc565b565b333014610f0c5760405162461bcd60e51b81526004016107129061282f565b6040517f606ce3bf00000000000000000000000000000000000000000000000000000000815273ffffffffffffffffffffffffffffffffffffffff86169063606ce3bf90610f64908790879087908790600401612d1f565b600060405180830381600087803b158015610f7e57600080fd5b505af1158015610f92573d6000803e3d6000fd5b505050505050505050565b333014610fbc5760405162461bcd60e51b81526004016107129061282f565b6040517f64482f7900000000000000000000000000000000000000000000000000000000815273ffffffffffffffffffffffffffffffffffffffff8516906364482f7990610c3690869086908690600401612d07565b60006001610cf583611905565b60005460ff1690565b3330146110475760405162461bcd60e51b81526004016107129061282f565b7f11c24f4ead16507c69ac467fbd5e4eed5fb5c699626d2cc6d66421df253886d56003548260405161107a929190612cf9565b60405180910390a1600355565b3330146110a65760405162461bcd60e51b81526004016107129061282f565b8073ffffffffffffffffffffffffffffffffffffffff166307da68f56040518163ffffffff1660e01b8152600401600060405180830381600087803b1580156110ee57600080fd5b505af1158015611102573d6000803e3d6000fd5b5050505050565b3330146111285760405162461bcd60e51b81526004016107129061282f565b6040517fdd3eaf0400000000000000000000000000000000000000000000000000000000815273ffffffffffffffffffffffffffffffffffffffff83169063dd3eaf049061081b908490600401612802565b6000546040517fe43581b800000000000000000000000000000000000000000000000000000000815261010090910473ffffffffffffffffffffffffffffffffffffffff169063e43581b8906111d4903390600401612605565b60206040518083038186803b1580156111ec57600080fd5b505afa158015611200573d6000803e3d6000fd5b505050506040513d601f19601f8201168201806040525081019061122491906124b2565b6112405760405162461bcd60e51b815260040161071290612a11565b600080547fffffffffffffffffffffff0000000000000000000000000000000000000000ff1661010073ffffffffffffffffffffffffffffffffffffffff841690810291909117825560405190917fad9400e618eb1344fde53db22397a1b82c765527ecbba3a5c86bcac15090828b91a250565b3330146112d35760405162461bcd60e51b81526004016107129061282f565b6040517f303ffe8b00000000000000000000000000000000000000000000000000000000815273ffffffffffffffffffffffffffffffffffffffff83169063303ffe8b9061081b908490600401612802565b600086868686868660405160200161134296959493929190612696565b6040516020818303038152906040528051906020012090509695505050505050565b3330146113835760405162461bcd60e51b81526004016107129061282f565b6040517f4d1387b400000000000000000000000000000000000000000000000000000000815273ffffffffffffffffffffffffffffffffffffffff841690634d1387b490610b8a9085908590600401612cf9565b6000546040517fe43581b800000000000000000000000000000000000000000000000000000000815261010090910473ffffffffffffffffffffffffffffffffffffffff169063e43581b890611431903390600401612605565b60206040518083038186803b15801561144957600080fd5b505afa15801561145d573d6000803e3d6000fd5b505050506040513d601f19601f8201168201806040525081019061148191906124b2565b8061153157506000546040517f0c68ba2100000000000000000000000000000000000000000000000000000000815261010090910473ffffffffffffffffffffffffffffffffffffffff1690630c68ba21906114e1903390600401612605565b60206040518083038186803b1580156114f957600080fd5b505afa15801561150d573d6000803e3d6000fd5b505050506040513d601f19601f8201168201806040525081019061153191906124b2565b61154d5760405162461bcd60e51b815260040161071290612b02565b610eeb611f58565b6000546040517f91d148540000000000000000000000000000000000000000000000000000000081527fb09aa5aeb3702cfd50b6b62bc4532604938f21248a27a1d5ca736082b6819cc191610100900473ffffffffffffffffffffffffffffffffffffffff16906391d14854906115d2908490339060040161280b565b60206040518083038186803b1580156115ea57600080fd5b505afa1580156115fe573d6000803e3d6000fd5b505050506040513d601f19601f8201168201806040525081019061162291906124b2565b61163e5760405162461bcd60e51b8152600401610712906129da565b88871461165d5760405162461bcd60e51b815260040161071290612946565b88851461167c5760405162461bcd60e51b815260040161071290612946565b600061168e8b8b8b8b8b8b8b8b611770565b905061169a8184611d09565b60005b8a81101561173e5780827f4cf4410cc57040e44862ef0f45f3dd5a5e02db8eb8add648d4b0e236f1d07dca8e8e858181106116d457fe5b90506020020160208101906116e99190612084565b8d8d868181106116f557fe5b905060200201358c8c8781811061170857fe5b905060200281019061171a9190612d3a565b8c8b60405161172e96959493929190612696565b60405180910390a360010161169d565b505050505050505050505050565b7fb09aa5aeb3702cfd50b6b62bc4532604938f21248a27a1d5ca736082b6819cc181565b600088888888888888886040516020016117919897969594939291906126e1565b60405160208183030381529060405280519060200120905098975050505050505050565b6000546040517f91d148540000000000000000000000000000000000000000000000000000000081527fb09aa5aeb3702cfd50b6b62bc4532604938f21248a27a1d5ca736082b6819cc191610100900473ffffffffffffffffffffffffffffffffffffffff16906391d1485490611832908490339060040161280b565b60206040518083038186803b15801561184a57600080fd5b505afa15801561185e573d6000803e3d6000fd5b505050506040513d601f19601f8201168201806040525081019061188291906124b2565b61189e5760405162461bcd60e51b8152600401610712906129da565b6118a782611012565b6118c35760405162461bcd60e51b815260040161071290612c3f565b6000828152600260205260408082208290555183917fbaa1eb22f2a492ba1a5fea61b8df4d27c6c8b5f3971e63bb58fa14ff72eedb7091a25050565b60035481565b60009081526002602052604090205490565b600080546040517f91d148540000000000000000000000000000000000000000000000000000000081527fd8aa0f3194971a2a116679f7c2090f6939c8d4e01a2a8d7e41d55e5351469e639261010090920473ffffffffffffffffffffffffffffffffffffffff16916391d148549161199491859160040161280b565b60206040518083038186803b1580156119ac57600080fd5b505afa1580156119c0573d6000803e3d6000fd5b505050506040513d601f19601f820116820180604052508101906119e491906124b2565b80611a9657506000546040517f91d1485400000000000000000000000000000000000000000000000000000000815261010090910473ffffffffffffffffffffffffffffffffffffffff16906391d1485490611a46908490339060040161280b565b60206040518083038186803b158015611a5e57600080fd5b505afa158015611a72573d6000803e3d6000fd5b505050506040513d601f19601f82011682018060405250810190611a9691906124b2565b611ab25760405162461bcd60e51b8152600401610712906128e9565b878614611ad15760405162461bcd60e51b815260040161071290612946565b878414611af05760405162461bcd60e51b815260040161071290612946565b6000611b028a8a8a8a8a8a8a8a611770565b9050611b0e8185611d68565b60005b89811015611b7d57611b7582828d8d85818110611b2a57fe5b9050602002016020810190611b3f9190612084565b8c8c86818110611b4b57fe5b905060200201358b8b87818110611b5e57fe5b9050602002810190611b709190612d3a565b611dbe565b600101611b11565b50611b8781611e93565b50505050505050505050565b7ff66846415d2bf9eabda9e84793ff9c0ea96d87f50fc41e66aa16469c6a442f0581565b600054610100900473ffffffffffffffffffffffffffffffffffffffff1690565b6000546040517f91d148540000000000000000000000000000000000000000000000000000000081527fd8aa0f3194971a2a116679f7c2090f6939c8d4e01a2a8d7e41d55e5351469e6391610100900473ffffffffffffffffffffffffffffffffffffffff16906391d1485490611c55908490339060040161280b565b60206040518083038186803b158015611c6d57600080fd5b505afa158015611c81573d6000803e3d6000fd5b505050506040513d601f19601f82011682018060405250810190611ca591906124b2565b611cc15760405162461bcd60e51b8152600401610712906129da565b8173ffffffffffffffffffffffffffffffffffffffff1663d389800f6040518163ffffffff1660e01b8152600401600060405180830381600087803b15801561083557600080fd5b611d1282610ce9565b15611d2f5760405162461bcd60e51b815260040161071290612b85565b600354811015611d515760405162461bcd60e51b815260040161071290612aa5565b600091825260026020526040909120429091019055565b611d7182610a2a565b611d8d5760405162461bcd60e51b815260040161071290612be2565b801580611d9e5750611d9e81610c64565b611dba5760405162461bcd60e51b81526004016107129061288c565b5050565b60008473ffffffffffffffffffffffffffffffffffffffff16848484604051611de89291906125f5565b60006040518083038185875af1925050503d8060008114611e25576040519150601f19603f3d011682016040523d82523d6000602084013e611e2a565b606091505b5050905080611e4b5760405162461bcd60e51b815260040161071290612c9c565b85877fc2617efa69bab66782fa219543714338489c4e9e178271560a91b82c3f612b5887878787604051611e829493929190612656565b60405180910390a350505050505050565b611e9c81610a2a565b611eb85760405162461bcd60e51b815260040161071290612be2565b600090815260026020526040902060019055565b611ed461101f565b611ef05760405162461bcd60e51b8152600401610712906129a3565b600080547fffffffffffffffffffffffffffffffffffffffffffffffffffffffffffffff001690557f5db9ee0a495bf2e6ff9c91a7834c1ba4fdd244a5e8aa4e537bd38aeae4b073aa611f41611fcd565b604051611f4e9190612605565b60405180910390a1565b611f6061101f565b15611f7d5760405162461bcd60e51b815260040161071290612a6e565b600080547fffffffffffffffffffffffffffffffffffffffffffffffffffffffffffffff001660011790557f62e78cea01bee320cd4e420270b5ea74000d11b0c9f74754ebdbfc544b05a258611f415b3390565b803573ffffffffffffffffffffffffffffffffffffffff81168114611ff557600080fd5b92915050565b60008083601f84011261200c578182fd5b50813567ffffffffffffffff811115612023578182fd5b602083019150836020808302850101111561203d57600080fd5b9250929050565b60008083601f840112612055578182fd5b50813567ffffffffffffffff81111561206c578182fd5b60208301915083602082850101111561203d57600080fd5b600060208284031215612095578081fd5b610a488383611fd1565b600080600080608085870312156120b4578283fd5b84356120bf81612de4565b935060208501356120cf81612de4565b92506040850135915060608501356120e681612de4565b939692955090935050565b60008060408385031215612103578182fd5b61210d8484611fd1565b915060208084013567ffffffffffffffff811115612129578283fd5b8401601f81018613612139578283fd5b803561214c61214782612dc4565b612d9d565b81815283810190838501858402850186018a1015612168578687fd5b8694505b838510156121925761217e8a82611fd1565b83526001949094019391850191850161216c565b5080955050505050509250929050565b600080604083850312156121b4578182fd5b6121be8484611fd1565b946020939093013593505050565b60008060008060008060a087890312156121e4578182fd5b86356121ef81612de4565b955060208701359450604087013567ffffffffffffffff811115612211578283fd5b61221d89828a01612044565b979a9699509760608101359660809091013595509350505050565b600080600080600080600060c0888a031215612252578081fd5b61225c8989611fd1565b965060208801359550604088013567ffffffffffffffff81111561227e578182fd5b61228a8a828b01612044565b989b979a50986060810135976080820135975060a09091013595509350505050565b6000806000606084860312156122c0578283fd5b6122ca8585611fd1565b95602085013595506040909401359392505050565b600080600080608085870312156122f4578384fd5b6122fe8686611fd1565b9350602085013592506040850135915060608501356120e681612e09565b600080600080600060a08688031215612333578081fd5b853561233e81612de4565b97602087013597506040870135966060810135965060800135945092505050565b60008060008060008060008060a0898b03121561237a578182fd5b883567ffffffffffffffff80821115612391578384fd5b61239d8c838d01611ffb565b909a50985060208b01359150808211156123b5578384fd5b6123c18c838d01611ffb565b909850965060408b01359150808211156123d9578384fd5b506123e68b828c01611ffb565b999c989b509699959896976060870135966080013595509350505050565b600080600080600080600080600060c08a8c031215612421578283fd5b893567ffffffffffffffff80821115612438578485fd5b6124448d838e01611ffb565b909b50995060208c013591508082111561245c578485fd5b6124688d838e01611ffb565b909950975060408c0135915080821115612480578485fd5b5061248d8c828d01611ffb565b9a9d999c50979a969997986060880135976080810135975060a0013595509350505050565b6000602082840312156124c3578081fd5b8151610a4881612e09565b6000602082840312156124df578081fd5b5035919050565b73ffffffffffffffffffffffffffffffffffffffff16815260200190565b818352602080840193600091908185020181018584845b878110156125a057828403895281357fffffffffffffffffffffffffffffffffffffffffffffffffffffffffffffffe1883603018112612559578687fd5b8701803567ffffffffffffffff811115612571578788fd5b80360389131561257f578788fd5b61258c86828985016125ad565b9a87019a955050509084019060010161251b565b5091979650505050505050565b600082845282826020860137806020848601015260207fffffffffffffffffffffffffffffffffffffffffffffffffffffffffffffffe0601f85011685010190509392505050565b6000828483379101908152919050565b73ffffffffffffffffffffffffffffffffffffffff91909116815260200190565b73ffffffffffffffffffffffffffffffffffffffff93841681526020810192909252909116604082015260600190565b600073ffffffffffffffffffffffffffffffffffffffff861682528460208301526060604083015261268c6060830184866125ad565b9695505050505050565b600073ffffffffffffffffffffffffffffffffffffffff8816825286602083015260a060408301526126cc60a0830186886125ad565b60608301949094525060800152949350505050565b60a0808252810188905260008960c08301825b8b81101561272057602083016127138361270e8387611fd1565b6124e6565b90935091506001016126f4565b5083810360208501528881527f07ffffffffffffffffffffffffffffffffffffffffffffffffffffffffffffff891115612758578283fd5b602089029150818a6020830137016020818101838152848303909101604085015261278481888a612504565b6060850196909652505050608001529695505050505050565b6020808252825182820181905260009190848201906040850190845b818110156127eb57835173ffffffffffffffffffffffffffffffffffffffff16835292840192918401916001016127b9565b50909695505050505050565b901515815260200190565b90815260200190565b91825273ffffffffffffffffffffffffffffffffffffffff16602082015260400190565b60208082526032908201527f54696d656c6f636b436f6e74726f6c6c65723a3a6f6e6c7953656c663a20636160408201527f6c6c6572206973206e6f7420697473656c660000000000000000000000000000606082015260800190565b60208082526026908201527f54696d656c6f636b436f6e74726f6c6c65723a206d697373696e67206465706560408201527f6e64656e63790000000000000000000000000000000000000000000000000000606082015260800190565b60208082526027908201527f436f72655265663a3a6f6e6c79526f6c654f724f70656e526f6c653a204e6f7460408201527f207065726d697400000000000000000000000000000000000000000000000000606082015260800190565b60208082526023908201527f54696d656c6f636b436f6e74726f6c6c65723a206c656e677468206d69736d6160408201527f7463680000000000000000000000000000000000000000000000000000000000606082015260800190565b60208082526014908201527f5061757361626c653a206e6f7420706175736564000000000000000000000000604082015260600190565b6020808252601d908201527f436f72655265663a3a6f6e6c79526f6c653a204e6f74207065726d6974000000604082015260600190565b6020808252602f908201527f436f72655265663a3a6f6e6c79476f7665726e6f723a2043616c6c657220697360408201527f206e6f74206120676f7665726e6f720000000000000000000000000000000000606082015260800190565b60208082526010908201527f5061757361626c653a2070617573656400000000000000000000000000000000604082015260600190565b60208082526026908201527f54696d656c6f636b436f6e74726f6c6c65723a20696e73756666696369656e7460408201527f2064656c61790000000000000000000000000000000000000000000000000000606082015260800190565b60208082526045908201527f436f72655265663a3a6f6e6c79477561726469616e4f72476f7665726e6f723a60408201527f2043616c6c6572206973206e6f74206120677561726469616e206f7220676f7660608201527f65726e6f72000000000000000000000000000000000000000000000000000000608082015260a00190565b6020808252602f908201527f54696d656c6f636b436f6e74726f6c6c65723a206f7065726174696f6e20616c60408201527f7265616479207363686564756c65640000000000000000000000000000000000606082015260800190565b6020808252602a908201527f54696d656c6f636b436f6e74726f6c6c65723a206f7065726174696f6e20697360408201527f206e6f7420726561647900000000000000000000000000000000000000000000606082015260800190565b60208082526031908201527f54696d656c6f636b436f6e74726f6c6c65723a206f7065726174696f6e20636160408201527f6e6e6f742062652063616e63656c6c6564000000000000000000000000000000606082015260800190565b60208082526033908201527f54696d656c6f636b436f6e74726f6c6c65723a20756e6465726c79696e67207460408201527f72616e73616374696f6e20726576657274656400000000000000000000000000606082015260800190565b918252602082015260400190565b92835260208301919091521515604082015260600190565b93845260208401929092526040830152606082015260800190565b60008083357fffffffffffffffffffffffffffffffffffffffffffffffffffffffffffffffe1843603018112612d6e578283fd5b83018035915067ffffffffffffffff821115612d88578283fd5b60200191503681900382131561203d57600080fd5b60405181810167ffffffffffffffff81118282101715612dbc57600080fd5b604052919050565b600067ffffffffffffffff821115612dda578081fd5b5060209081020190565b73ffffffffffffffffffffffffffffffffffffffff81168114612e0657600080fd5b50565b8015158114612e0657600080fdfea2646970667358221220faabfe717e00a039dba93f4e39dcf31c5c11df9e729c8577adf4a1bca1043f4464736f6c634300060c0033",
  "linkReferences": {},
  "deployedLinkReferences": {}
}