{
  "_format": "hh-sol-artifact-1",
  "contractName": "TrancheMaster",
  "sourceName": "contracts/main/TrancheMaster.sol",
  "abi": [
    {
      "inputs": [
        {
          "internalType": "address",
          "name": "_core",
          "type": "address"
        },
        {
          "internalType": "address",
          "name": "_currency",
          "type": "address"
        },
        {
          "internalType": "address",
          "name": "_strategy",
          "type": "address"
        },
        {
          "internalType": "address",
          "name": "_staker",
          "type": "address"
        },
        {
          "internalType": "address",
          "name": "_devAddress",
          "type": "address"
        },
        {
          "internalType": "uint256",
          "name": "_duration",
          "type": "uint256"
        },
        {
          "components": [
            {
              "internalType": "uint256",
              "name": "apy",
              "type": "uint256"
            },
            {
              "internalType": "uint256",
              "name": "fee",
              "type": "uint256"
            },
            {
              "internalType": "uint256",
              "name": "target",
              "type": "uint256"
            }
          ],
          "internalType": "struct TrancheMaster.TrancheParams[]",
          "name": "_params",
          "type": "tuple[]"
        }
      ],
      "stateMutability": "nonpayable",
      "type": "constructor"
    },
    {
      "anonymous": false,
      "inputs": [
        {
          "indexed": true,
          "internalType": "address",
          "name": "_core",
          "type": "address"
        }
      ],
      "name": "CoreUpdate",
      "type": "event"
    },
    {
      "anonymous": false,
      "inputs": [
        {
          "indexed": false,
          "internalType": "address",
          "name": "account",
          "type": "address"
        },
        {
          "indexed": false,
          "internalType": "uint256",
          "name": "amount",
          "type": "uint256"
        }
      ],
      "name": "Deposit",
      "type": "event"
    },
    {
      "anonymous": false,
      "inputs": [
        {
          "indexed": false,
          "internalType": "address",
          "name": "account",
          "type": "address"
        },
        {
          "indexed": false,
          "internalType": "uint256",
          "name": "tid",
          "type": "uint256"
        },
        {
          "indexed": false,
          "internalType": "uint256",
          "name": "cycle",
          "type": "uint256"
        },
        {
          "indexed": false,
          "internalType": "uint256",
          "name": "principal",
          "type": "uint256"
        },
        {
          "indexed": false,
          "internalType": "uint256",
          "name": "capital",
          "type": "uint256"
        }
      ],
      "name": "Harvest",
      "type": "event"
    },
    {
      "anonymous": false,
      "inputs": [
        {
          "indexed": false,
          "internalType": "address",
          "name": "account",
          "type": "address"
        },
        {
          "indexed": false,
          "internalType": "uint256",
          "name": "tid",
          "type": "uint256"
        },
        {
          "indexed": false,
          "internalType": "uint256",
          "name": "cycle",
          "type": "uint256"
        },
        {
          "indexed": false,
          "internalType": "uint256",
          "name": "amount",
          "type": "uint256"
        }
      ],
      "name": "Invest",
      "type": "event"
    },
    {
      "anonymous": false,
      "inputs": [
        {
          "indexed": false,
          "internalType": "address",
          "name": "account",
          "type": "address"
        }
      ],
      "name": "Paused",
      "type": "event"
    },
    {
      "anonymous": false,
      "inputs": [
        {
          "indexed": false,
          "internalType": "address",
          "name": "account",
          "type": "address"
        },
        {
          "indexed": false,
          "internalType": "uint256",
          "name": "tid",
          "type": "uint256"
        },
        {
          "indexed": false,
          "internalType": "uint256",
          "name": "cycle",
          "type": "uint256"
        },
        {
          "indexed": false,
          "internalType": "uint256",
          "name": "amount",
          "type": "uint256"
        }
      ],
      "name": "Redeem",
      "type": "event"
    },
    {
      "anonymous": false,
      "inputs": [
        {
          "indexed": false,
          "internalType": "address",
          "name": "dev",
          "type": "address"
        }
      ],
      "name": "SetDevAddress",
      "type": "event"
    },
    {
      "anonymous": false,
      "inputs": [
        {
          "indexed": false,
          "internalType": "uint256",
          "name": "tid",
          "type": "uint256"
        },
        {
          "indexed": false,
          "internalType": "uint256",
          "name": "target",
          "type": "uint256"
        },
        {
          "indexed": false,
          "internalType": "uint256",
          "name": "apy",
          "type": "uint256"
        },
        {
          "indexed": false,
          "internalType": "uint256",
          "name": "fee",
          "type": "uint256"
        }
      ],
      "name": "TrancheAdd",
      "type": "event"
    },
    {
      "anonymous": false,
      "inputs": [
        {
          "indexed": false,
          "internalType": "uint256",
          "name": "tid",
          "type": "uint256"
        },
        {
          "indexed": false,
          "internalType": "uint256",
          "name": "cycle",
          "type": "uint256"
        },
        {
          "indexed": false,
          "internalType": "uint256",
          "name": "principal",
          "type": "uint256"
        },
        {
          "indexed": false,
          "internalType": "uint256",
          "name": "capital",
          "type": "uint256"
        },
        {
          "indexed": false,
          "internalType": "uint256",
          "name": "rate",
          "type": "uint256"
        }
      ],
      "name": "TrancheSettle",
      "type": "event"
    },
    {
      "anonymous": false,
      "inputs": [
        {
          "indexed": false,
          "internalType": "uint256",
          "name": "tid",
          "type": "uint256"
        },
        {
          "indexed": false,
          "internalType": "uint256",
          "name": "cycle",
          "type": "uint256"
        },
        {
          "indexed": false,
          "internalType": "uint256",
          "name": "principal",
          "type": "uint256"
        }
      ],
      "name": "TrancheStart",
      "type": "event"
    },
    {
      "anonymous": false,
      "inputs": [
        {
          "indexed": false,
          "internalType": "uint256",
          "name": "tid",
          "type": "uint256"
        },
        {
          "indexed": false,
          "internalType": "uint256",
          "name": "target",
          "type": "uint256"
        },
        {
          "indexed": false,
          "internalType": "uint256",
          "name": "apy",
          "type": "uint256"
        },
        {
          "indexed": false,
          "internalType": "uint256",
          "name": "fee",
          "type": "uint256"
        }
      ],
      "name": "TrancheUpdated",
      "type": "event"
    },
    {
      "anonymous": false,
      "inputs": [
        {
          "indexed": false,
          "internalType": "address",
          "name": "account",
          "type": "address"
        }
      ],
      "name": "Unpaused",
      "type": "event"
    },
    {
      "anonymous": false,
      "inputs": [
        {
          "indexed": false,
          "internalType": "address",
          "name": "account",
          "type": "address"
        },
        {
          "indexed": false,
          "internalType": "uint256",
          "name": "amount",
          "type": "uint256"
        }
      ],
      "name": "Withdraw",
      "type": "event"
    },
    {
      "anonymous": false,
      "inputs": [
        {
          "indexed": false,
          "internalType": "address",
          "name": "account",
          "type": "address"
        },
        {
          "indexed": false,
          "internalType": "uint256",
          "name": "amount",
          "type": "uint256"
        }
      ],
      "name": "WithdrawFee",
      "type": "event"
    },
    {
      "inputs": [],
      "name": "PercentageParamScale",
      "outputs": [
        {
          "internalType": "uint256",
          "name": "",
          "type": "uint256"
        }
      ],
      "stateMutability": "view",
      "type": "function"
    },
    {
      "inputs": [],
      "name": "PercentageScale",
      "outputs": [
        {
          "internalType": "uint256",
          "name": "",
          "type": "uint256"
        }
      ],
      "stateMutability": "view",
      "type": "function"
    },
    {
      "inputs": [],
      "name": "TIMELOCK_ROLE",
      "outputs": [
        {
          "internalType": "bytes32",
          "name": "",
          "type": "bytes32"
        }
      ],
      "stateMutability": "view",
      "type": "function"
    },
    {
      "inputs": [],
      "name": "active",
      "outputs": [
        {
          "internalType": "bool",
          "name": "",
          "type": "bool"
        }
      ],
      "stateMutability": "view",
      "type": "function"
    },
    {
      "inputs": [],
      "name": "actualStartAt",
      "outputs": [
        {
          "internalType": "uint256",
          "name": "",
          "type": "uint256"
        }
      ],
      "stateMutability": "view",
      "type": "function"
    },
    {
      "inputs": [
        {
          "internalType": "uint256",
          "name": "target",
          "type": "uint256"
        },
        {
          "internalType": "uint256",
          "name": "apy",
          "type": "uint256"
        },
        {
          "internalType": "uint256",
          "name": "fee",
          "type": "uint256"
        }
      ],
      "name": "add",
      "outputs": [],
      "stateMutability": "nonpayable",
      "type": "function"
    },
    {
      "inputs": [],
      "name": "approveToken",
      "outputs": [],
      "stateMutability": "nonpayable",
      "type": "function"
    },
    {
      "inputs": [
        {
          "internalType": "address",
          "name": "account",
          "type": "address"
        }
      ],
      "name": "balanceOf",
      "outputs": [
        {
          "internalType": "uint256",
          "name": "balance",
          "type": "uint256"
        },
        {
          "internalType": "uint256",
          "name": "invested",
          "type": "uint256"
        }
      ],
      "stateMutability": "view",
      "type": "function"
    },
    {
      "inputs": [],
      "name": "core",
      "outputs": [
        {
          "internalType": "contract ICore",
          "name": "",
          "type": "address"
        }
      ],
      "stateMutability": "view",
      "type": "function"
    },
    {
      "inputs": [],
      "name": "currency",
      "outputs": [
        {
          "internalType": "address",
          "name": "",
          "type": "address"
        }
      ],
      "stateMutability": "view",
      "type": "function"
    },
    {
      "inputs": [],
      "name": "cycle",
      "outputs": [
        {
          "internalType": "uint256",
          "name": "",
          "type": "uint256"
        }
      ],
      "stateMutability": "view",
      "type": "function"
    },
    {
      "inputs": [
        {
          "internalType": "uint256",
          "name": "amount",
          "type": "uint256"
        }
      ],
      "name": "deposit",
      "outputs": [],
      "stateMutability": "nonpayable",
      "type": "function"
    },
    {
      "inputs": [],
      "name": "devAddress",
      "outputs": [
        {
          "internalType": "address",
          "name": "",
          "type": "address"
        }
      ],
      "stateMutability": "view",
      "type": "function"
    },
    {
      "inputs": [],
      "name": "duration",
      "outputs": [
        {
          "internalType": "uint256",
          "name": "",
          "type": "uint256"
        }
      ],
      "stateMutability": "view",
      "type": "function"
    },
    {
      "inputs": [
        {
          "internalType": "uint256",
          "name": "tid",
          "type": "uint256"
        }
      ],
      "name": "getInvest",
      "outputs": [
        {
          "internalType": "uint256",
          "name": "",
          "type": "uint256"
        }
      ],
      "stateMutability": "view",
      "type": "function"
    },
    {
      "inputs": [
        {
          "internalType": "uint256",
          "name": "tid",
          "type": "uint256"
        },
        {
          "internalType": "uint256",
          "name": "amount",
          "type": "uint256"
        },
        {
          "internalType": "bool",
          "name": "returnLeft",
          "type": "bool"
        }
      ],
      "name": "invest",
      "outputs": [],
      "stateMutability": "nonpayable",
      "type": "function"
    },
    {
      "inputs": [
        {
          "internalType": "uint256",
          "name": "amountIn",
          "type": "uint256"
        },
        {
          "internalType": "uint256",
          "name": "tid",
          "type": "uint256"
        },
        {
          "internalType": "uint256",
          "name": "amountInvest",
          "type": "uint256"
        }
      ],
      "name": "investDirect",
      "outputs": [],
      "stateMutability": "nonpayable",
      "type": "function"
    },
    {
      "inputs": [],
      "name": "pause",
      "outputs": [],
      "stateMutability": "nonpayable",
      "type": "function"
    },
    {
      "inputs": [],
      "name": "paused",
      "outputs": [
        {
          "internalType": "bool",
          "name": "",
          "type": "bool"
        }
      ],
      "stateMutability": "view",
      "type": "function"
    },
    {
      "inputs": [],
      "name": "producedFee",
      "outputs": [
        {
          "internalType": "uint256",
          "name": "",
          "type": "uint256"
        }
      ],
      "stateMutability": "view",
      "type": "function"
    },
    {
      "inputs": [
        {
          "internalType": "uint256",
          "name": "tid",
          "type": "uint256"
        }
      ],
      "name": "redeem",
      "outputs": [],
      "stateMutability": "nonpayable",
      "type": "function"
    },
    {
      "inputs": [
        {
          "internalType": "uint256",
          "name": "tid",
          "type": "uint256"
        }
      ],
      "name": "redeemDirect",
      "outputs": [],
      "stateMutability": "nonpayable",
      "type": "function"
    },
    {
      "inputs": [
        {
          "internalType": "uint256",
          "name": "tid",
          "type": "uint256"
        },
        {
          "internalType": "uint256",
          "name": "target",
          "type": "uint256"
        },
        {
          "internalType": "uint256",
          "name": "apy",
          "type": "uint256"
        },
        {
          "internalType": "uint256",
          "name": "fee",
          "type": "uint256"
        }
      ],
      "name": "set",
      "outputs": [],
      "stateMutability": "nonpayable",
      "type": "function"
    },
    {
      "inputs": [
        {
          "internalType": "address",
          "name": "core_",
          "type": "address"
        }
      ],
      "name": "setCore",
      "outputs": [],
      "stateMutability": "nonpayable",
      "type": "function"
    },
    {
      "inputs": [
        {
          "internalType": "address",
          "name": "_devAddress",
          "type": "address"
        }
      ],
      "name": "setDevAddress",
      "outputs": [],
      "stateMutability": "nonpayable",
      "type": "function"
    },
    {
      "inputs": [
        {
          "internalType": "uint256",
          "name": "_duration",
          "type": "uint256"
        }
      ],
      "name": "setDuration",
      "outputs": [],
      "stateMutability": "nonpayable",
      "type": "function"
    },
    {
      "inputs": [],
      "name": "staker",
      "outputs": [
        {
          "internalType": "address",
          "name": "",
          "type": "address"
        }
      ],
      "stateMutability": "view",
      "type": "function"
    },
    {
      "inputs": [],
      "name": "stop",
      "outputs": [],
      "stateMutability": "nonpayable",
      "type": "function"
    },
    {
      "inputs": [],
      "name": "strategy",
      "outputs": [
        {
          "internalType": "address",
          "name": "",
          "type": "address"
        }
      ],
      "stateMutability": "view",
      "type": "function"
    },
    {
      "inputs": [
        {
          "internalType": "uint256",
          "name": "",
          "type": "uint256"
        },
        {
          "internalType": "uint256",
          "name": "",
          "type": "uint256"
        }
      ],
      "name": "trancheSnapshots",
      "outputs": [
        {
          "internalType": "uint256",
          "name": "target",
          "type": "uint256"
        },
        {
          "internalType": "uint256",
          "name": "principal",
          "type": "uint256"
        },
        {
          "internalType": "uint256",
          "name": "capital",
          "type": "uint256"
        },
        {
          "internalType": "uint256",
          "name": "rate",
          "type": "uint256"
        },
        {
          "internalType": "uint256",
          "name": "apy",
          "type": "uint256"
        },
        {
          "internalType": "uint256",
          "name": "fee",
          "type": "uint256"
        },
        {
          "internalType": "uint256",
          "name": "startAt",
          "type": "uint256"
        },
        {
          "internalType": "uint256",
          "name": "stopAt",
          "type": "uint256"
        }
      ],
      "stateMutability": "view",
      "type": "function"
    },
    {
      "inputs": [
        {
          "internalType": "uint256",
          "name": "",
          "type": "uint256"
        }
      ],
      "name": "tranches",
      "outputs": [
        {
          "internalType": "uint256",
          "name": "target",
          "type": "uint256"
        },
        {
          "internalType": "uint256",
          "name": "principal",
          "type": "uint256"
        },
        {
          "internalType": "uint256",
          "name": "apy",
          "type": "uint256"
        },
        {
          "internalType": "uint256",
          "name": "fee",
          "type": "uint256"
        }
      ],
      "stateMutability": "view",
      "type": "function"
    },
    {
      "inputs": [
        {
          "internalType": "uint256",
          "name": "_amount",
          "type": "uint256"
        },
        {
          "internalType": "address",
          "name": "_pool",
          "type": "address"
        }
      ],
      "name": "transferFeeToStaking",
      "outputs": [],
      "stateMutability": "nonpayable",
      "type": "function"
    },
    {
      "inputs": [],
      "name": "unpause",
      "outputs": [],
      "stateMutability": "nonpayable",
      "type": "function"
    },
    {
      "inputs": [
        {
          "internalType": "address",
          "name": "",
          "type": "address"
        }
      ],
      "name": "userInfo",
      "outputs": [
        {
          "internalType": "uint256",
          "name": "balance",
          "type": "uint256"
        }
      ],
      "stateMutability": "view",
      "type": "function"
    },
    {
      "inputs": [
        {
          "internalType": "address",
          "name": "",
          "type": "address"
        },
        {
          "internalType": "uint256",
          "name": "",
          "type": "uint256"
        }
      ],
      "name": "userInvest",
      "outputs": [
        {
          "internalType": "uint256",
          "name": "cycle",
          "type": "uint256"
        },
        {
          "internalType": "uint256",
          "name": "principal",
          "type": "uint256"
        }
      ],
      "stateMutability": "view",
      "type": "function"
    },
    {
      "inputs": [
        {
          "internalType": "uint256",
          "name": "amount",
          "type": "uint256"
        }
      ],
      "name": "withdraw",
      "outputs": [],
      "stateMutability": "nonpayable",
      "type": "function"
    },
    {
      "inputs": [
        {
          "internalType": "uint256",
          "name": "amount",
          "type": "uint256"
        }
      ],
      "name": "withdrawFee",
      "outputs": [],
      "stateMutability": "nonpayable",
      "type": "function"
    }
  ],
  "bytecode": "0x608060405262093a806003553480156200001857600080fd5b5060405162004503380380620045038339810160408190526200003b9162000678565b600080546001600160a81b0319166101006001600160a01b038a8116919091029190911790915560018055600880546001600160a01b031990811689841617909155600a80548216888416179055600980548216878416179055600b80549091169185169190911790556003829055620000b462000133565b60005b815181101562000125576200011c828281518110620000d257fe5b602002602001015160400151838381518110620000eb57fe5b6020026020010151600001518484815181106200010457fe5b6020026020010151602001516200016260201b60201c565b600101620000b7565b505050505050505062000ae1565b600a5460085462000160916001600160a01b039182169116600019620002ca602090811b620018af17901c565b565b600083116200018e5760405162461bcd60e51b8152600401620001859062000900565b60405180910390fd5b620186a0821115620001b45760405162461bcd60e51b8152600401620001859062000969565b612710811115620001d95760405162461bcd60e51b81526004016200018590620008db565b600760405180608001604052808581526020016000815260200162000231620186a06200021d670de0b6b3a764000088620003d860201b62001a0d1790919060201c565b6200042160201b62001a501790919060201c565b8152602090810184905282546001818101855560009485529382902083516004909202019081559082015192810192909255604080820151600284015560609091015160039092019190915560075490517f955a633dc66049432428ae39d030e5001c5608eb3a6325bfe8e8231a3bc7356f91620002bd91600019919091019086908690869062000a6c565b60405180910390a1505050565b801580620003595750604051636eb1769f60e11b81526001600160a01b0384169063dd62ed3e90620003039030908690600401620007f6565b60206040518083038186803b1580156200031c57600080fd5b505afa15801562000331573d6000803e3d6000fd5b505050506040513d601f19601f82011682018060405250810190620003579190620007bf565b155b620003785760405162461bcd60e51b8152600401620001859062000a0f565b620003d38363095ea7b360e01b84846040516024016200039a92919062000810565b60408051808303601f190181529190526020810180516001600160e01b0319939093166001600160e01b03938416179052906200045716565b505050565b600082620003e9575060006200041b565b82820282848281620003f757fe5b0414620004185760405162461bcd60e51b8152600401620001859062000928565b90505b92915050565b6000808211620004455760405162461bcd60e51b81526004016200018590620008a4565b8183816200044f57fe5b049392505050565b6060620004b3826040518060400160405280602081526020017f5361666545524332303a206c6f772d6c6576656c2063616c6c206661696c6564815250856001600160a01b0316620004f360201b62001a82179092919060201c565b805190915015620003d35780806020019051810190620004d491906200079d565b620003d35760405162461bcd60e51b81526004016200018590620009c5565b60606200050484846000856200050e565b90505b9392505050565b606082471015620005335760405162461bcd60e51b815260040162000185906200085e565b6200053e85620005de565b6200055d5760405162461bcd60e51b815260040162000185906200098e565b60006060866001600160a01b031685876040516200057c9190620007d8565b60006040518083038185875af1925050503d8060008114620005bb576040519150601f19603f3d011682016040523d82523d6000602084013e620005c0565b606091505b509092509050620005d3828286620005e4565b979650505050505050565b3b151590565b60608315620005f557508162000507565b825115620006065782518084602001fd5b8160405162461bcd60e51b815260040162000185919062000829565b80516001600160a01b03811681146200041b57600080fd5b6000606082840312156200064c578081fd5b62000658606062000a87565b905081518152602082015160208201526040820151604082015292915050565b600080600080600080600060e0888a03121562000693578283fd5b6200069f898962000622565b96506020620006b18a828b0162000622565b9650620006c28a60408b0162000622565b9550620006d38a60608b0162000622565b9450620006e48a60808b0162000622565b60a08a015160c08b015191955093506001600160401b038082111562000708578384fd5b818b0191508b601f8301126200071c578384fd5b8151818111156200072b578485fd5b6200073a848583020162000a87565b818152848101925083850160608302850186018f101562000759578687fd5b8694505b828510156200078857620007728f826200063a565b845260019490940193928501926060016200075d565b50809550505050505092959891949750929550565b600060208284031215620007af578081fd5b8151801515811462000418578182fd5b600060208284031215620007d1578081fd5b5051919050565b60008251620007ec81846020870162000aae565b9190910192915050565b6001600160a01b0392831681529116602082015260400190565b6001600160a01b03929092168252602082015260400190565b60006020825282518060208401526200084a81604085016020870162000aae565b601f01601f19169190910160400192915050565b60208082526026908201527f416464726573733a20696e73756666696369656e742062616c616e636520666f6040820152651c8818d85b1b60d21b606082015260800190565b6020808252601a908201527f536166654d6174683a206469766973696f6e206279207a65726f000000000000604082015260600190565b6020808252600b908201526a696e76616c69642066656560a81b604082015260600190565b6020808252600e908201526d1a5b9d985b1a59081d185c99d95d60921b604082015260600190565b60208082526021908201527f536166654d6174683a206d756c7469706c69636174696f6e206f766572666c6f6040820152607760f81b606082015260800190565b6020808252600b908201526a696e76616c69642041505960a81b604082015260600190565b6020808252601d908201527f416464726573733a2063616c6c20746f206e6f6e2d636f6e7472616374000000604082015260600190565b6020808252602a908201527f5361666545524332303a204552433230206f7065726174696f6e20646964206e6040820152691bdd081cdd58d8d9595960b21b606082015260800190565b60208082526036908201527f5361666545524332303a20617070726f76652066726f6d206e6f6e2d7a65726f60408201527f20746f206e6f6e2d7a65726f20616c6c6f77616e636500000000000000000000606082015260800190565b93845260208401929092526040830152606082015260800190565b6040518181016001600160401b038111828210171562000aa657600080fd5b604052919050565b60005b8381101562000acb57818101518382015260200162000ab1565b8381111562000adb576000848401525b50505050565b613a128062000af16000396000f3fe608060405234801561001057600080fd5b50600436106102775760003560e01c806370907ef011610160578063b6b55f25116100d8578063e5a6b10f1161008c578063f2f4eb2611610071578063f2f4eb26146104b6578063f6be71d1146104be578063f8fa9cdb146104d157610277565b8063e5a6b10f146104a6578063f288a2e2146104ae57610277565b8063be357616116100bd578063be3576161461046d578063d0d41fe114610480578063db006a751461049357610277565b8063b6b55f2514610452578063b94db6af1461046557610277565b80638456cb591161012f57806399b71d5c1161011457806399b71d5c1461041b578063a8c62e7614610423578063ae4f9c741461042b57610277565b80638456cb5914610400578063975ff57a1461040857610277565b806370907ef0146103a657806370a08231146103c757806372ca5671146103da57806380009630146103ed57610277565b80633ad10ef6116101f35780635cd90e58116101c25780635f5d217d116101a75780635f5d217d14610378578063606ce3bf1461038b5780636190c9d51461039e57610277565b80635cd90e58146103685780635ebaf1db1461037057610277565b80633ad10ef6146103305780633f4ba83a14610345578063505fb46c1461034d5780635c975abb1461036057610277565b806322d5c4e41161024a57806327e79c441161022f57806327e79c44146103025780632e1a7d4d1461030a5780632ebbec1e1461031d57610277565b806322d5c4e4146102cc57806326c25962146102df57610277565b806302fb0c5e1461027c57806307da68f51461029a5780630fb5a6b4146102a45780631959a002146102b9575b600080fd5b6102846104d9565b6040516102919190613104565b60405180910390f35b6102a26104e2565b005b6102ac610543565b604051610291919061310f565b6102ac6102c7366004612eb7565b610549565b6102a26102da366004612f95565b61055b565b6102f26102ed366004612f18565b61060b565b604051610291949392919061392e565b6102ac610642565b6102a2610318366004612f18565b610648565b6102a261032b366004612fcd565b61072e565b610338610896565b6040516102919190613045565b6102a26108a5565b6102a261035b366004612fcd565b610a0b565b610284610ad4565b6102ac610ade565b610338610aea565b6102a2610386366004612f18565b610af9565b6102a2610399366004612ff8565b610bf8565b6102ac610e40565b6103b96103b4366004612ed2565b610e46565b60405161029192919061390a565b6103b96103d5366004612eb7565b610e6a565b6102ac6103e8366004612f18565b610fa0565b6102a26103fb366004612eb7565b611002565b6102a2611122565b6102a2610416366004612f48565b611286565b6102a26113f1565b61033861142e565b61043e610439366004612f74565b61143d565b60405161029198979695949392919061396c565b6102a2610460366004612f18565b611492565b6102ac61154b565b6102a261047b366004612f18565b611552565b6102a261048e366004612eb7565b6115fd565b6102a26104a1366004612f18565b611719565b6103386117a4565b6102ac6117b3565b6103386117d7565b6102a26104cc366004612f18565b6117eb565b6102ac6118a9565b60065460ff1681565b60065460ff1661050d5760405162461bcd60e51b815260040161050490613293565b60405180910390fd5b600260015414156105305760405162461bcd60e51b815260040161050490613857565b600260015561053d611a9b565b60018055565b60035481565b600c6020526000908152604090205481565b6007548390811061057e5760405162461bcd60e51b815260040161050490613820565b60065460ff16156105a15760405162461bcd60e51b815260040161050490613225565b6105b16105ac611b76565b611b7a565b600260015414156105d45760405162461bcd60e51b815260040161050490613857565b6002600155826105f65760405162461bcd60e51b8152600401610504906132ca565b610601848484611d5c565b5050600180555050565b6007818154811061061857fe5b60009182526020909120600490910201805460018201546002830154600390930154919350919084565b60055481565b6106536105ac611b76565b600260015414156106765760405162461bcd60e51b815260040161050490613857565b6002600155806106985760405162461bcd60e51b8152600401610504906132ca565b336000908152600c6020526040902080548211156106c85760405162461bcd60e51b8152600401610504906131ee565b80546106d49083611f77565b81556008546106ed906001600160a01b03163384611f9f565b7f884edad9ce6fa2440d8a54cc123490eb96d2768479d49ff9c7366125a9424364338360405161071e929190613059565b60405180910390a1505060018055565b600754829081106107515760405162461bcd60e51b815260040161050490613820565b60065460ff16156107745760405162461bcd60e51b815260040161050490613225565b61077f6105ac611b76565b600260015414156107a25760405162461bcd60e51b815260040161050490613857565b6002600155836107c45760405162461bcd60e51b81526004016105049061371e565b600082116107e45760405162461bcd60e51b815260040161050490613755565b336000908152600c60205260409020805483906108019087611fbe565b101561081f5760405162461bcd60e51b8152600401610504906131ee565b600854610837906001600160a01b0316333088611fe3565b80546108439086611fbe565b81556040517fe1fffcc4923d04b559f4d29a8bfc6cda04eb5b0d3c460751c2402c5c5cc9109c906108779033908890613059565b60405180910390a161088b84846000611d5c565b505060018055505050565b600b546001600160a01b031681565b6000546040517fe43581b80000000000000000000000000000000000000000000000000000000081526101009091046001600160a01b03169063e43581b8906108f2903390600401613045565b60206040518083038186803b15801561090a57600080fd5b505afa15801561091e573d6000803e3d6000fd5b505050506040513d601f19601f820116820180604052508101906109429190612efc565b806109e557506000546040517f0c68ba210000000000000000000000000000000000000000000000000000000081526101009091046001600160a01b031690630c68ba2190610995903390600401613045565b60206040518083038186803b1580156109ad57600080fd5b505afa1580156109c1573d6000803e3d6000fd5b505050506040513d601f19601f820116820180604052508101906109e59190612efc565b610a015760405162461bcd60e51b81526004016105049061363e565b610a09612004565b565b6000546040517fe43581b80000000000000000000000000000000000000000000000000000000081526101009091046001600160a01b03169063e43581b890610a58903390600401613045565b60206040518083038186803b158015610a7057600080fd5b505afa158015610a84573d6000803e3d6000fd5b505050506040513d601f19601f82011682018060405250810190610aa89190612efc565b610ac45760405162461bcd60e51b81526004016105049061336f565b610acf838383612090565b505050565b60005460ff165b90565b670de0b6b3a764000081565b6009546001600160a01b031681565b60075481908110610b1c5760405162461bcd60e51b815260040161050490613820565b60065460ff1615610b3f5760405162461bcd60e51b815260040161050490613225565b610b4a6105ac611b76565b60026001541415610b6d5760405162461bcd60e51b815260040161050490613857565b60026001556000610b7d836121dc565b336000908152600c60205260409020805491925090610b9c9083611f77565b8155600854610bb5906001600160a01b03163384611f9f565b7f884edad9ce6fa2440d8a54cc123490eb96d2768479d49ff9c7366125a94243643383604051610be6929190613059565b60405180910390a15050600180555050565b6000546040517f91d148540000000000000000000000000000000000000000000000000000000081526101009091046001600160a01b0316906391d1485490610c67907ff66846415d2bf9eabda9e84793ff9c0ea96d87f50fc41e66aa16469c6a442f05903390600401613118565b60206040518083038186803b158015610c7f57600080fd5b505afa158015610c93573d6000803e3d6000fd5b505050506040513d601f19601f82011682018060405250810190610cb79190612efc565b610cd35760405162461bcd60e51b8152600401610504906136c1565b60075484908110610cf65760405162461bcd60e51b815260040161050490613820565b60078581548110610d0357fe5b906000526020600020906004020160010154841015610d345760405162461bcd60e51b8152600401610504906134ce565b620186a0831115610d575760405162461bcd60e51b8152600401610504906135d0565b612710821115610d795760405162461bcd60e51b815260040161050490613497565b8360078681548110610d8757fe5b6000918252602090912060049091020155610db7620186a0610db185670de0b6b3a7640000611a0d565b90611a50565b60078681548110610dc457fe5b9060005260206000209060040201600201819055508160078681548110610de757fe5b9060005260206000209060040201600301819055507f7304cbcbe24a231d4a97516e7a4b3fc85c6d88dae51fc6134c035870ef66bb9485858585604051610e31949392919061392e565b60405180910390a15050505050565b60045481565b600d6020908152600092835260408084209091529082529020805460019091015482565b6001600160a01b0381166000908152600c6020526040812080549190815b600754811015610f99576001600160a01b0385166000908152600d602090815260408083208484529091529020600181015415610f905760045481541015610f7d57610ed2612e33565b5080546000908152600e602090815260408083208584528252808320815161010081018352815481526001808301549482019490945260028201549281019290925260038101546060830181905260048201546080840152600582015460a0840152600682015460c084015260079091015460e083015291840154909291610f6891670de0b6b3a764000091610db19190611a0d565b9050610f748782611fbe565b96505050610f90565b6001810154610f8d908590611fbe565b93505b50600101610e88565b5050915091565b60075460009082908110610fc65760405162461bcd60e51b815260040161050490613820565b336000908152600d60209081526040808320868452909152902060045481541015610ff5576000925050610ffc565b6001015491505b50919050565b6000546040517fe43581b80000000000000000000000000000000000000000000000000000000081526101009091046001600160a01b03169063e43581b89061104f903390600401613045565b60206040518083038186803b15801561106757600080fd5b505afa15801561107b573d6000803e3d6000fd5b505050506040513d601f19601f8201168201806040525081019061109f9190612efc565b6110bb5760405162461bcd60e51b81526004016105049061336f565b600080547fffffffffffffffffffffff0000000000000000000000000000000000000000ff166101006001600160a01b03841690810291909117825560405190917fad9400e618eb1344fde53db22397a1b82c765527ecbba3a5c86bcac15090828b91a250565b6000546040517fe43581b80000000000000000000000000000000000000000000000000000000081526101009091046001600160a01b03169063e43581b89061116f903390600401613045565b60206040518083038186803b15801561118757600080fd5b505afa15801561119b573d6000803e3d6000fd5b505050506040513d601f19601f820116820180604052508101906111bf9190612efc565b8061126257506000546040517f0c68ba210000000000000000000000000000000000000000000000000000000081526101009091046001600160a01b031690630c68ba2190611212903390600401613045565b60206040518083038186803b15801561122a57600080fd5b505afa15801561123e573d6000803e3d6000fd5b505050506040513d601f19601f820116820180604052508101906112629190612efc565b61127e5760405162461bcd60e51b81526004016105049061363e565b610a09612331565b6000546040517fe43581b80000000000000000000000000000000000000000000000000000000081526101009091046001600160a01b03169063e43581b8906112d3903390600401613045565b60206040518083038186803b1580156112eb57600080fd5b505afa1580156112ff573d6000803e3d6000fd5b505050506040513d601f19601f820116820180604052508101906113239190612efc565b61133f5760405162461bcd60e51b81526004016105049061336f565b6000821161135f5760405162461bcd60e51b815260040161050490613338565b600854611376906001600160a01b031682846118af565b6040517fada07fa00000000000000000000000000000000000000000000000000000000081526001600160a01b0382169063ada07fa0906113bb90859060040161310f565b600060405180830381600087803b1580156113d557600080fd5b505af11580156113e9573d6000803e3d6000fd5b505050505050565b600a54600854610a09916001600160a01b0391821691167fffffffffffffffffffffffffffffffffffffffffffffffffffffffffffffffff6118af565b600a546001600160a01b031681565b600e602052816000526040600020602052806000526040600020600091509150508060000154908060010154908060020154908060030154908060040154908060050154908060060154908060070154905088565b61149d6105ac611b76565b600260015414156114c05760405162461bcd60e51b815260040161050490613857565b6002600155806114e25760405162461bcd60e51b8152600401610504906132ca565b336000818152600c60205260409020600854909161150b916001600160a01b0316903085611fe3565b80546115179083611fbe565b81556040517fe1fffcc4923d04b559f4d29a8bfc6cda04eb5b0d3c460751c2402c5c5cc9109c9061071e9033908590613059565b620186a081565b6002548111156115745760405162461bcd60e51b815260040161050490613301565b6002546115819082611f77565b600255600b546001600160a01b0316156115fa57600b546008546115b2916001600160a01b03918216911683611f9f565b600b546040517f66bf9186b00db666fc37aaffbb95a050c66e599e000c785c1dff0467d868f1b1916115f1916001600160a01b03909116908490613059565b60405180910390a15b50565b6000546040517fe43581b80000000000000000000000000000000000000000000000000000000081526101009091046001600160a01b03169063e43581b89061164a903390600401613045565b60206040518083038186803b15801561166257600080fd5b505afa158015611676573d6000803e3d6000fd5b505050506040513d601f19601f8201168201806040525081019061169a9190612efc565b6116b65760405162461bcd60e51b81526004016105049061336f565b600b80547fffffffffffffffffffffffff0000000000000000000000000000000000000000166001600160a01b0383161790556040517ff5721dfa6ddbf8e4a2cd38b2152fff4008050b9b37de59ae1e022dde4bd5df73906115f1908390613045565b6007548190811061173c5760405162461bcd60e51b815260040161050490613820565b60065460ff161561175f5760405162461bcd60e51b815260040161050490613225565b61176a6105ac611b76565b6002600154141561178d5760405162461bcd60e51b815260040161050490613857565b600260015561179b826121dc565b50506001805550565b6008546001600160a01b031681565b7ff66846415d2bf9eabda9e84793ff9c0ea96d87f50fc41e66aa16469c6a442f0581565b60005461010090046001600160a01b031690565b6000546040517fe43581b80000000000000000000000000000000000000000000000000000000081526101009091046001600160a01b03169063e43581b890611838903390600401613045565b60206040518083038186803b15801561185057600080fd5b505afa158015611864573d6000803e3d6000fd5b505050506040513d601f19601f820116820180604052508101906118889190612efc565b6118a45760405162461bcd60e51b81526004016105049061336f565b600355565b60025481565b80158061195057506040517fdd62ed3e0000000000000000000000000000000000000000000000000000000081526001600160a01b0384169063dd62ed3e906118fe9030908690600401613098565b60206040518083038186803b15801561191657600080fd5b505afa15801561192a573d6000803e3d6000fd5b505050506040513d601f19601f8201168201806040525081019061194e9190612f30565b155b61196c5760405162461bcd60e51b81526004016105049061388e565b610acf8363095ea7b360e01b848460405160240161198b929190613059565b604080517fffffffffffffffffffffffffffffffffffffffffffffffffffffffffffffffe08184030181529190526020810180517bffffffffffffffffffffffffffffffffffffffffffffffffffffffff167fffffffff00000000000000000000000000000000000000000000000000000000909316929092179091526123aa565b600082611a1c57506000611a4a565b82820282848281611a2957fe5b0414611a475760405162461bcd60e51b815260040161050490613573565b90505b92915050565b6000808211611a715760405162461bcd60e51b815260040161050490613460565b818381611a7a57fe5b049392505050565b6060611a918484600085612439565b90505b9392505050565b60035460055401421015611ac15760405162461bcd60e51b815260040161050490613180565b611ac96124fa565b600680547fffffffffffffffffffffffffffffffffffffffffffffffffffffffffffffff00169055600480546001018082556009546040517fedd004e50000000000000000000000000000000000000000000000000000000081526001600160a01b039091169263edd004e592611b429290910161310f565b600060405180830381600087803b158015611b5c57600080fd5b505af1158015611b70573d6000803e3d6000fd5b50505050565b3390565b6001600160a01b0381166000908152600c60205260408120905b600754811015610acf576001600160a01b0383166000908152600d60209081526040808320848452909152902060045481541015611d535760018101548015611d4c57611bdf612e33565b5081546000908152600e6020908152604080832086845282528083208151610100810183528154815260018201549381019390935260028101549183019190915260038101546060830181905260048201546080840152600582015460a0840152600682015460c084015260079091015460e0830152909190611c7190670de0b6b3a764000090610db1908690611a0d565b8654909150611c809082611fbe565b86556000600185018190556009546040517f15c2fdc90000000000000000000000000000000000000000000000000000000081526001600160a01b03909116916315c2fdc991611cd79189918c91906004016138eb565b600060405180830381600087803b158015611cf157600080fd5b505af1158015611d05573d6000803e3d6000fd5b505085546040517f7baefe19499ec89bdfeffd0fc7335c9d0ea87f8ca40bb82c956184634ba170fd9350611d4192508a918991889087906130d6565b60405180910390a150505b5060045481555b50600101611b94565b336000908152600c602052604090208054831115611d8c5760405162461bcd60e51b8152600401610504906131ee565b600060078581548110611d9b57fe5b90600052602060002090600402019050611dc2848260010154611fbe90919063ffffffff16565b81541015611de25760405162461bcd60e51b815260040161050490613607565b336000908152600d6020908152604080832088845290915290206001810154611e0b9086611fbe565b60018201558254611e1c9086611f77565b83556001820154611e2d9086611fbe565b600180840191909155600954908201546040517f15c2fdc90000000000000000000000000000000000000000000000000000000081526001600160a01b03909216916315c2fdc991611e85918a9133916004016138eb565b600060405180830381600087803b158015611e9f57600080fd5b505af1158015611eb3573d6000803e3d6000fd5b505050507f4df9cbfa66cbbabb528375b3af00207b446225af5a96b8a4b5c413b18226fb95338760045488604051611eee9493929190613072565b60405180910390a1838015611f035750825415155b15611f66578254600854611f26916001600160a01b039091169030903390611fe3565b82546040517f884edad9ce6fa2440d8a54cc123490eb96d2768479d49ff9c7366125a942436491611f5991339190613059565b60405180910390a1600083555b611f6e612a9a565b50505050505050565b600082821115611f995760405162461bcd60e51b8152600401610504906133cc565b50900390565b610acf8363a9059cbb60e01b848460405160240161198b929190613059565b600082820183811015611a475760405162461bcd60e51b81526004016105049061325c565b611b70846323b872dd60e01b85858560405160240161198b939291906130b2565b61200c610ad4565b6120285760405162461bcd60e51b8152600401610504906131b7565b600080547fffffffffffffffffffffffffffffffffffffffffffffffffffffffffffffff001690557f5db9ee0a495bf2e6ff9c91a7834c1ba4fdd244a5e8aa4e537bd38aeae4b073aa612079611b76565b6040516120869190613045565b60405180910390a1565b600083116120b05760405162461bcd60e51b8152600401610504906134ce565b620186a08211156120d35760405162461bcd60e51b8152600401610504906135d0565b6127108111156120f55760405162461bcd60e51b815260040161050490613497565b60408051608081018252848152600060208201526007918101612127620186a0610db187670de0b6b3a7640000611a0d565b8152602090810184905282546001818101855560009485529382902083516004909202019081559082015192810192909255604080820151600284015560609091015160039092019190915560075490517f955a633dc66049432428ae39d030e5001c5608eb3a6325bfe8e8231a3bc7356f916121cf917fffffffffffffffffffffffffffffffffffffffffffffffffffffffffffffffff919091019086908690869061392e565b60405180910390a1505050565b336000908152600c60209081526040808320600d8352818420858552909252822060018101548061221f5760405162461bcd60e51b81526004016105049061353c565b60006007868154811061222e57fe5b600091825260209091208554600490920201915061224c9083611fbe565b8455600181015461225d9083611f77565b60018201556009546040517f15c2fdc90000000000000000000000000000000000000000000000000000000081526001600160a01b03909116906315c2fdc9906122b090899033906000906004016138eb565b600060405180830381600087803b1580156122ca57600080fd5b505af11580156122de573d6000803e3d6000fd5b50506000600186015550506004546040517fbd5034ffbd47e4e72a94baa2cdb74c6fad73cb3bcdc13036b72ec8306f5a7646916123209133918a918790613072565b60405180910390a150949350505050565b612339610ad4565b156123565760405162461bcd60e51b815260040161050490613505565b600080547fffffffffffffffffffffffffffffffffffffffffffffffffffffffffffffff001660011790557f62e78cea01bee320cd4e420270b5ea74000d11b0c9f74754ebdbfc544b05a258612079611b76565b60606123ff826040518060400160405280602081526020017f5361666545524332303a206c6f772d6c6576656c2063616c6c206661696c6564815250856001600160a01b0316611a829092919063ffffffff16565b805190915015610acf578080602001905181019061241d9190612efc565b610acf5760405162461bcd60e51b8152600401610504906137c3565b60608247101561245b5760405162461bcd60e51b815260040161050490613403565b61246485612b33565b6124805760405162461bcd60e51b81526004016105049061378c565b60006060866001600160a01b0316858760405161249d9190613029565b60006040518083038185875af1925050503d80600081146124da576040519150601f19603f3d011682016040523d82523d6000602084013e6124df565b606091505b50915091506124ef828286612b39565b979650505050505050565b6008546040517f70a082310000000000000000000000000000000000000000000000000000000081526000916001600160a01b0316906370a0823190612544903090600401613045565b60206040518083038186803b15801561255c57600080fd5b505afa158015612570573d6000803e3d6000fd5b505050506040513d601f19601f820116820180604052508101906125949190612f30565b9050600a60009054906101000a90046001600160a01b03166001600160a01b0316633ccfd60b6040518163ffffffff1660e01b8152600401600060405180830381600087803b1580156125e657600080fd5b505af11580156125fa573d6000803e3d6000fd5b50506008546040517f70a08231000000000000000000000000000000000000000000000000000000008152600093506126a4925084916001600160a01b0316906370a082319061264e903090600401613045565b60206040518083038186803b15801561266657600080fd5b505afa15801561267a573d6000803e3d6000fd5b505050506040513d601f19601f8201168201806040525081019061269e9190612f30565b90611f77565b905080600080808042815b6007547fffffffffffffffffffffffffffffffffffffffffffffffffffffffffffffffff018110156128e6576000600782815481106126ea57fe5b906000526020600020906004020190508060010154935060009450612747670de0b6b3a7640000610db162015180610db161016d610db16005548a0361274189600201548a60010154611a0d90919063ffffffff16565b90611a0d565b965060006127558589611fbe565b9050808910158061276a57600099965061277c565b90955085906127798a83611f77565b99505b80156127c35760006127a2620186a0610db186600301548b611a0d90919063ffffffff16565b6002549091506127b29082611fbe565b6002556127bf8882611f77565b9750505b6127cd8787612b72565b9750604051806101000160405280846000015481526020018781526020018881526020018981526020018460020154815260200184600301548152602001600554815260200186815250600e600060045481526020019081526020016000206000868152602001908152602001600020600082015181600001556020820151816001015560408201518160020155606082015181600301556080820151816004015560a0820151816005015560c0820151816006015560e08201518160070155905050600083600101819055507f465c3a6938113f4f2bbb78cd69c8a81b4553da4fcd68e420b3c9cd8e5b58cb4784600454888a8c6040516128d3959493929190613949565b60405180910390a15050506001016126af565b50600780547fffffffffffffffffffffffffffffffffffffffffffffffffffffffffffffffff8101916000918390811061291c57fe5b90600052602060002090600402019050806001015493508794506000612956620186a0610db1846003015489611a0d90919063ffffffff16565b6002549091506129669082611fbe565b6002556129738682611f77565b955061297f8686612b72565b9650604051806101000160405280836000015481526020018681526020018781526020018881526020018360020154815260200183600301548152602001600554815260200142815250600e600060045481526020019081526020016000206000858152602001908152602001600020600082015181600001556020820151816001015560408201518160020155606082015181600301556080820151816004015560a0820151816005015560c0820151816006015560e08201518160070155905050600082600101819055507f465c3a6938113f4f2bbb78cd69c8a81b4553da4fcd68e420b3c9cd8e5b58cb478360045487898b604051612a85959493929190613949565b60405180910390a15050505050505050505050565b6000805b600754811015612b2457612ab0612e78565b60078281548110612abd57fe5b90600052602060002090600402016040518060800160405290816000820154815260200160018201548152602001600282015481526020016003820154815250509050806000015181602001511015612b1b57600092505050610adb565b50600101612a9e565b50612b2d612bee565b50600190565b3b151590565b60608315612b48575081611a94565b825115612b585782518084602001fd5b8160405162461bcd60e51b8152600401610504919061312f565b600081831415612b8b5750670de0b6b3a7640000611a4a565b81831115612bc457612bbd612bae83610db1818703670de0b6b3a7640000611a0d565b670de0b6b3a764000090611fbe565b9050611a4a565b612bbd612bdf83610db1868203670de0b6b3a7640000611a0d565b670de0b6b3a764000090611f77565b60065460ff1615612c115760405162461bcd60e51b815260040161050490613225565b6000805b600754811015612c9957612c27612e78565b60078281548110612c3457fe5b90600052602060002090600402016040518060800160405290816000820154815260200160018201548152602001600282015481526020016003820154815250509050612c8e816020015184611fbe90919063ffffffff16565b925050600101612c15565b50600a546040517fb6b55f250000000000000000000000000000000000000000000000000000000081526001600160a01b039091169063b6b55f2590612ce390849060040161310f565b600060405180830381600087803b158015612cfd57600080fd5b505af1158015612d11573d6000803e3d6000fd5b5050426005555050600680547fffffffffffffffffffffffffffffffffffffffffffffffffffffffffffffff0016600117905560005b600754811015612db4577fe97925046c59e2f2794eb00954f027c43cea916eaa06f9f194cc45e212c028cd8160045460078481548110612d8357fe5b906000526020600020906004020160010154604051612da493929190613918565b60405180910390a1600101612d47565b50600954600380546001600160a01b03909216916395805dad91612de291612ddb91611a50565b4390611fbe565b6040518263ffffffff1660e01b8152600401612dfe919061310f565b600060405180830381600087803b158015612e1857600080fd5b505af1158015612e2c573d6000803e3d6000fd5b5050505050565b60405180610100016040528060008152602001600081526020016000815260200160008152602001600081526020016000815260200160008152602001600081525090565b6040518060800160405280600081526020016000815260200160008152602001600081525090565b80356001600160a01b0381168114611a4a57600080fd5b600060208284031215612ec8578081fd5b611a948383612ea0565b60008060408385031215612ee4578081fd5b612eee8484612ea0565b946020939093013593505050565b600060208284031215612f0d578081fd5b8151611a47816139ce565b600060208284031215612f29578081fd5b5035919050565b600060208284031215612f41578081fd5b5051919050565b60008060408385031215612f5a578182fd5b82359150612f6b8460208501612ea0565b90509250929050565b60008060408385031215612f86578182fd5b50508035926020909101359150565b600080600060608486031215612fa9578081fd5b83359250602084013591506040840135612fc2816139ce565b809150509250925092565b600080600060608486031215612fe1578283fd5b505081359360208301359350604090920135919050565b6000806000806080858703121561300d578081fd5b5050823594602084013594506040840135936060013592509050565b6000825161303b8184602087016139a2565b9190910192915050565b6001600160a01b0391909116815260200190565b6001600160a01b03929092168252602082015260400190565b6001600160a01b0394909416845260208401929092526040830152606082015260800190565b6001600160a01b0392831681529116602082015260400190565b6001600160a01b039384168152919092166020820152604081019190915260600190565b6001600160a01b03959095168552602085019390935260408401919091526060830152608082015260a00190565b901515815260200190565b90815260200190565b9182526001600160a01b0316602082015260400190565b600060208252825180602084015261314e8160408501602087016139a2565b601f017fffffffffffffffffffffffffffffffffffffffffffffffffffffffffffffffe0169190910160400192915050565b60208082526011908201527f6379636c65206e6f742065787069726564000000000000000000000000000000604082015260600190565b60208082526014908201527f5061757361626c653a206e6f7420706175736564000000000000000000000000604082015260600190565b60208082526012908201527f62616c616e6365206e6f7420656e6f7567680000000000000000000000000000604082015260600190565b6020808252600e908201527f616c726561647920616374697665000000000000000000000000000000000000604082015260600190565b6020808252601b908201527f536166654d6174683a206164646974696f6e206f766572666c6f770000000000604082015260600190565b6020808252600a908201527f6e6f742061637469766500000000000000000000000000000000000000000000604082015260600190565b6020808252600e908201527f696e76616c696420616d6f756e74000000000000000000000000000000000000604082015260600190565b6020808252601a908201527f6e6f7420656e6f7567682062616c616e636520666f7220666565000000000000604082015260600190565b6020808252600b908201527f5a65726f20616d6f756e74000000000000000000000000000000000000000000604082015260600190565b6020808252602f908201527f436f72655265663a3a6f6e6c79476f7665726e6f723a2043616c6c657220697360408201527f206e6f74206120676f7665726e6f720000000000000000000000000000000000606082015260800190565b6020808252601e908201527f536166654d6174683a207375627472616374696f6e206f766572666c6f770000604082015260600190565b60208082526026908201527f416464726573733a20696e73756666696369656e742062616c616e636520666f60408201527f722063616c6c0000000000000000000000000000000000000000000000000000606082015260800190565b6020808252601a908201527f536166654d6174683a206469766973696f6e206279207a65726f000000000000604082015260600190565b6020808252600b908201527f696e76616c696420666565000000000000000000000000000000000000000000604082015260600190565b6020808252600e908201527f696e76616c696420746172676574000000000000000000000000000000000000604082015260600190565b60208082526010908201527f5061757361626c653a2070617573656400000000000000000000000000000000604082015260600190565b60208082526014908201527f6e6f7420656e6f756768207072696e636970616c000000000000000000000000604082015260600190565b60208082526021908201527f536166654d6174683a206d756c7469706c69636174696f6e206f766572666c6f60408201527f7700000000000000000000000000000000000000000000000000000000000000606082015260800190565b6020808252600b908201527f696e76616c696420415059000000000000000000000000000000000000000000604082015260600190565b60208082526010908201527f6e6f7420656e6f7567682071756f746100000000000000000000000000000000604082015260600190565b60208082526045908201527f436f72655265663a3a6f6e6c79477561726469616e4f72476f7665726e6f723a60408201527f2043616c6c6572206973206e6f74206120677561726469616e206f7220676f7660608201527f65726e6f72000000000000000000000000000000000000000000000000000000608082015260a00190565b6020808252602f908201527f436f72655265663a3a6f6e6c7954696d656c6f636b3a2043616c6c657220697360408201527f206e6f7420612074696d656c6f636b0000000000000000000000000000000000606082015260800190565b60208082526010908201527f696e76616c696420616d6f756e74496e00000000000000000000000000000000604082015260600190565b60208082526014908201527f696e76616c696420616d6f756e74496e76657374000000000000000000000000604082015260600190565b6020808252601d908201527f416464726573733a2063616c6c20746f206e6f6e2d636f6e7472616374000000604082015260600190565b6020808252602a908201527f5361666545524332303a204552433230206f7065726174696f6e20646964206e60408201527f6f74207375636365656400000000000000000000000000000000000000000000606082015260800190565b60208082526012908201527f696e76616c6964207472616e6368652069640000000000000000000000000000604082015260600190565b6020808252601f908201527f5265656e7472616e637947756172643a207265656e7472616e742063616c6c00604082015260600190565b60208082526036908201527f5361666545524332303a20617070726f76652066726f6d206e6f6e2d7a65726f60408201527f20746f206e6f6e2d7a65726f20616c6c6f77616e636500000000000000000000606082015260800190565b9283526001600160a01b03919091166020830152604082015260600190565b918252602082015260400190565b9283526020830191909152604082015260600190565b93845260208401929092526040830152606082015260800190565b948552602085019390935260408401919091526060830152608082015260a00190565b978852602088019690965260408701949094526060860192909252608085015260a084015260c083015260e08201526101000190565b60005b838110156139bd5781810151838201526020016139a5565b83811115611b705750506000910152565b80151581146115fa57600080fdfea2646970667358221220ea27c04cb119fe5a4e980aa04a87bced7d92b9835f752144b841f39fa491370364736f6c634300060c0033",
  "linkReferences": {},
  "deployedLinkReferences": {}
}