{
  "_format": "hh-sol-artifact-1",
  "contractName": "TrancheMaster",
  "sourceName": "contracts/main/TrancheMaster.sol",
  "abi": [
    {
      "inputs": [
        {
          "internalType": "address",
          "name": "_core",
          "type": "address"
        },
        {
          "internalType": "address",
          "name": "_currency",
          "type": "address"
        },
        {
          "internalType": "address",
          "name": "_strategy",
          "type": "address"
        },
        {
          "internalType": "address",
          "name": "_staker",
          "type": "address"
        },
        {
          "internalType": "address",
          "name": "_devAddress",
          "type": "address"
        },
        {
          "internalType": "uint256",
          "name": "_duration",
          "type": "uint256"
        },
        {
          "components": [
            {
              "internalType": "uint256",
              "name": "apy",
              "type": "uint256"
            },
            {
              "internalType": "uint256",
              "name": "fee",
              "type": "uint256"
            },
            {
              "internalType": "uint256",
              "name": "target",
              "type": "uint256"
            }
          ],
          "internalType": "struct TrancheMaster.TrancheParams[]",
          "name": "_params",
          "type": "tuple[]"
        }
      ],
      "stateMutability": "nonpayable",
      "type": "constructor"
    },
    {
      "anonymous": false,
      "inputs": [
        {
          "indexed": true,
          "internalType": "address",
          "name": "_core",
          "type": "address"
        }
      ],
      "name": "CoreUpdate",
      "type": "event"
    },
    {
      "anonymous": false,
      "inputs": [
        {
          "indexed": false,
          "internalType": "address",
          "name": "account",
          "type": "address"
        },
        {
          "indexed": false,
          "internalType": "uint256",
          "name": "amount",
          "type": "uint256"
        }
      ],
      "name": "Deposit",
      "type": "event"
    },
    {
      "anonymous": false,
      "inputs": [
        {
          "indexed": false,
          "internalType": "address",
          "name": "account",
          "type": "address"
        },
        {
          "indexed": false,
          "internalType": "uint256",
          "name": "tid",
          "type": "uint256"
        },
        {
          "indexed": false,
          "internalType": "uint256",
          "name": "cycle",
          "type": "uint256"
        },
        {
          "indexed": false,
          "internalType": "uint256",
          "name": "principal",
          "type": "uint256"
        },
        {
          "indexed": false,
          "internalType": "uint256",
          "name": "capital",
          "type": "uint256"
        }
      ],
      "name": "Harvest",
      "type": "event"
    },
    {
      "anonymous": false,
      "inputs": [
        {
          "indexed": false,
          "internalType": "address",
          "name": "account",
          "type": "address"
        },
        {
          "indexed": false,
          "internalType": "uint256",
          "name": "tid",
          "type": "uint256"
        },
        {
          "indexed": false,
          "internalType": "uint256",
          "name": "cycle",
          "type": "uint256"
        },
        {
          "indexed": false,
          "internalType": "uint256",
          "name": "amount",
          "type": "uint256"
        }
      ],
      "name": "Invest",
      "type": "event"
    },
    {
      "anonymous": false,
      "inputs": [
        {
          "indexed": false,
          "internalType": "address",
          "name": "account",
          "type": "address"
        }
      ],
      "name": "Paused",
      "type": "event"
    },
    {
      "anonymous": false,
      "inputs": [
        {
          "indexed": false,
          "internalType": "address",
          "name": "account",
          "type": "address"
        },
        {
          "indexed": false,
          "internalType": "uint256",
          "name": "tid",
          "type": "uint256"
        },
        {
          "indexed": false,
          "internalType": "uint256",
          "name": "cycle",
          "type": "uint256"
        },
        {
          "indexed": false,
          "internalType": "uint256",
          "name": "amount",
          "type": "uint256"
        }
      ],
      "name": "Redeem",
      "type": "event"
    },
    {
      "anonymous": false,
      "inputs": [
        {
          "indexed": false,
          "internalType": "address",
          "name": "dev",
          "type": "address"
        }
      ],
      "name": "SetDevAddress",
      "type": "event"
    },
    {
      "anonymous": false,
      "inputs": [
        {
          "indexed": false,
          "internalType": "uint256",
          "name": "tid",
          "type": "uint256"
        },
        {
          "indexed": false,
          "internalType": "uint256",
          "name": "target",
          "type": "uint256"
        },
        {
          "indexed": false,
          "internalType": "uint256",
          "name": "apy",
          "type": "uint256"
        },
        {
          "indexed": false,
          "internalType": "uint256",
          "name": "fee",
          "type": "uint256"
        }
      ],
      "name": "TrancheAdd",
      "type": "event"
    },
    {
      "anonymous": false,
      "inputs": [
        {
          "indexed": false,
          "internalType": "uint256",
          "name": "tid",
          "type": "uint256"
        },
        {
          "indexed": false,
          "internalType": "uint256",
          "name": "cycle",
          "type": "uint256"
        },
        {
          "indexed": false,
          "internalType": "uint256",
          "name": "principal",
          "type": "uint256"
        },
        {
          "indexed": false,
          "internalType": "uint256",
          "name": "capital",
          "type": "uint256"
        },
        {
          "indexed": false,
          "internalType": "uint256",
          "name": "rate",
          "type": "uint256"
        }
      ],
      "name": "TrancheSettle",
      "type": "event"
    },
    {
      "anonymous": false,
      "inputs": [
        {
          "indexed": false,
          "internalType": "uint256",
          "name": "tid",
          "type": "uint256"
        },
        {
          "indexed": false,
          "internalType": "uint256",
          "name": "cycle",
          "type": "uint256"
        },
        {
          "indexed": false,
          "internalType": "uint256",
          "name": "principal",
          "type": "uint256"
        }
      ],
      "name": "TrancheStart",
      "type": "event"
    },
    {
      "anonymous": false,
      "inputs": [
        {
          "indexed": false,
          "internalType": "uint256",
          "name": "tid",
          "type": "uint256"
        },
        {
          "indexed": false,
          "internalType": "uint256",
          "name": "target",
          "type": "uint256"
        },
        {
          "indexed": false,
          "internalType": "uint256",
          "name": "apy",
          "type": "uint256"
        },
        {
          "indexed": false,
          "internalType": "uint256",
          "name": "fee",
          "type": "uint256"
        }
      ],
      "name": "TrancheUpdated",
      "type": "event"
    },
    {
      "anonymous": false,
      "inputs": [
        {
          "indexed": false,
          "internalType": "address",
          "name": "account",
          "type": "address"
        }
      ],
      "name": "Unpaused",
      "type": "event"
    },
    {
      "anonymous": false,
      "inputs": [
        {
          "indexed": false,
          "internalType": "address",
          "name": "account",
          "type": "address"
        },
        {
          "indexed": false,
          "internalType": "uint256",
          "name": "amount",
          "type": "uint256"
        }
      ],
      "name": "Withdraw",
      "type": "event"
    },
    {
      "anonymous": false,
      "inputs": [
        {
          "indexed": false,
          "internalType": "address",
          "name": "account",
          "type": "address"
        },
        {
          "indexed": false,
          "internalType": "uint256",
          "name": "amount",
          "type": "uint256"
        }
      ],
      "name": "WithdrawFee",
      "type": "event"
    },
    {
      "inputs": [],
      "name": "PercentageParamScale",
      "outputs": [
        {
          "internalType": "uint256",
          "name": "",
          "type": "uint256"
        }
      ],
      "stateMutability": "view",
      "type": "function"
    },
    {
      "inputs": [],
      "name": "PercentageScale",
      "outputs": [
        {
          "internalType": "uint256",
          "name": "",
          "type": "uint256"
        }
      ],
      "stateMutability": "view",
      "type": "function"
    },
    {
      "inputs": [],
      "name": "TIMELOCK_ROLE",
      "outputs": [
        {
          "internalType": "bytes32",
          "name": "",
          "type": "bytes32"
        }
      ],
      "stateMutability": "view",
      "type": "function"
    },
    {
      "inputs": [],
      "name": "active",
      "outputs": [
        {
          "internalType": "bool",
          "name": "",
          "type": "bool"
        }
      ],
      "stateMutability": "view",
      "type": "function"
    },
    {
      "inputs": [],
      "name": "actualStartAt",
      "outputs": [
        {
          "internalType": "uint256",
          "name": "",
          "type": "uint256"
        }
      ],
      "stateMutability": "view",
      "type": "function"
    },
    {
      "inputs": [
        {
          "internalType": "uint256",
          "name": "target",
          "type": "uint256"
        },
        {
          "internalType": "uint256",
          "name": "apy",
          "type": "uint256"
        },
        {
          "internalType": "uint256",
          "name": "fee",
          "type": "uint256"
        }
      ],
      "name": "add",
      "outputs": [],
      "stateMutability": "nonpayable",
      "type": "function"
    },
    {
      "inputs": [],
      "name": "approveToken",
      "outputs": [],
      "stateMutability": "nonpayable",
      "type": "function"
    },
    {
      "inputs": [
        {
          "internalType": "address",
          "name": "account",
          "type": "address"
        }
      ],
      "name": "balanceOf",
      "outputs": [
        {
          "internalType": "uint256",
          "name": "balance",
          "type": "uint256"
        },
        {
          "internalType": "uint256",
          "name": "invested",
          "type": "uint256"
        }
      ],
      "stateMutability": "view",
      "type": "function"
    },
    {
      "inputs": [],
      "name": "core",
      "outputs": [
        {
          "internalType": "contract ICore",
          "name": "",
          "type": "address"
        }
      ],
      "stateMutability": "view",
      "type": "function"
    },
    {
      "inputs": [],
      "name": "currency",
      "outputs": [
        {
          "internalType": "address",
          "name": "",
          "type": "address"
        }
      ],
      "stateMutability": "view",
      "type": "function"
    },
    {
      "inputs": [],
      "name": "cycle",
      "outputs": [
        {
          "internalType": "uint256",
          "name": "",
          "type": "uint256"
        }
      ],
      "stateMutability": "view",
      "type": "function"
    },
    {
      "inputs": [
        {
          "internalType": "uint256",
          "name": "amount",
          "type": "uint256"
        }
      ],
      "name": "deposit",
      "outputs": [],
      "stateMutability": "nonpayable",
      "type": "function"
    },
    {
      "inputs": [],
      "name": "devAddress",
      "outputs": [
        {
          "internalType": "address",
          "name": "",
          "type": "address"
        }
      ],
      "stateMutability": "view",
      "type": "function"
    },
    {
      "inputs": [],
      "name": "duration",
      "outputs": [
        {
          "internalType": "uint256",
          "name": "",
          "type": "uint256"
        }
      ],
      "stateMutability": "view",
      "type": "function"
    },
    {
      "inputs": [
        {
          "internalType": "uint256",
          "name": "tid",
          "type": "uint256"
        }
      ],
      "name": "getInvest",
      "outputs": [
        {
          "internalType": "uint256",
          "name": "",
          "type": "uint256"
        }
      ],
      "stateMutability": "view",
      "type": "function"
    },
    {
      "inputs": [
        {
          "internalType": "uint256",
          "name": "tid",
          "type": "uint256"
        },
        {
          "internalType": "uint256",
          "name": "amount",
          "type": "uint256"
        },
        {
          "internalType": "bool",
          "name": "returnLeft",
          "type": "bool"
        }
      ],
      "name": "invest",
      "outputs": [],
      "stateMutability": "nonpayable",
      "type": "function"
    },
    {
      "inputs": [
        {
          "internalType": "uint256",
          "name": "amountIn",
          "type": "uint256"
        },
        {
          "internalType": "uint256",
          "name": "tid",
          "type": "uint256"
        },
        {
          "internalType": "uint256",
          "name": "amountInvest",
          "type": "uint256"
        }
      ],
      "name": "investDirect",
      "outputs": [],
      "stateMutability": "nonpayable",
      "type": "function"
    },
    {
      "inputs": [],
      "name": "pause",
      "outputs": [],
      "stateMutability": "nonpayable",
      "type": "function"
    },
    {
      "inputs": [],
      "name": "paused",
      "outputs": [
        {
          "internalType": "bool",
          "name": "",
          "type": "bool"
        }
      ],
      "stateMutability": "view",
      "type": "function"
    },
    {
      "inputs": [],
      "name": "producedFee",
      "outputs": [
        {
          "internalType": "uint256",
          "name": "",
          "type": "uint256"
        }
      ],
      "stateMutability": "view",
      "type": "function"
    },
    {
      "inputs": [
        {
          "internalType": "uint256",
          "name": "tid",
          "type": "uint256"
        }
      ],
      "name": "redeem",
      "outputs": [],
      "stateMutability": "nonpayable",
      "type": "function"
    },
    {
      "inputs": [
        {
          "internalType": "uint256",
          "name": "tid",
          "type": "uint256"
        }
      ],
      "name": "redeemDirect",
      "outputs": [],
      "stateMutability": "nonpayable",
      "type": "function"
    },
    {
      "inputs": [
        {
          "internalType": "uint256",
          "name": "tid",
          "type": "uint256"
        },
        {
          "internalType": "uint256",
          "name": "target",
          "type": "uint256"
        },
        {
          "internalType": "uint256",
          "name": "apy",
          "type": "uint256"
        },
        {
          "internalType": "uint256",
          "name": "fee",
          "type": "uint256"
        }
      ],
      "name": "set",
      "outputs": [],
      "stateMutability": "nonpayable",
      "type": "function"
    },
    {
      "inputs": [
        {
          "internalType": "address",
          "name": "core_",
          "type": "address"
        }
      ],
      "name": "setCore",
      "outputs": [],
      "stateMutability": "nonpayable",
      "type": "function"
    },
    {
      "inputs": [
        {
          "internalType": "address",
          "name": "_devAddress",
          "type": "address"
        }
      ],
      "name": "setDevAddress",
      "outputs": [],
      "stateMutability": "nonpayable",
      "type": "function"
    },
    {
      "inputs": [
        {
          "internalType": "uint256",
          "name": "_duration",
          "type": "uint256"
        }
      ],
      "name": "setDuration",
      "outputs": [],
      "stateMutability": "nonpayable",
      "type": "function"
    },
    {
      "inputs": [],
      "name": "staker",
      "outputs": [
        {
          "internalType": "address",
          "name": "",
          "type": "address"
        }
      ],
      "stateMutability": "view",
      "type": "function"
    },
    {
      "inputs": [],
      "name": "stop",
      "outputs": [],
      "stateMutability": "nonpayable",
      "type": "function"
    },
    {
      "inputs": [],
      "name": "strategy",
      "outputs": [
        {
          "internalType": "address",
          "name": "",
          "type": "address"
        }
      ],
      "stateMutability": "view",
      "type": "function"
    },
    {
      "inputs": [
        {
          "internalType": "uint256",
          "name": "",
          "type": "uint256"
        },
        {
          "internalType": "uint256",
          "name": "",
          "type": "uint256"
        }
      ],
      "name": "trancheSnapshots",
      "outputs": [
        {
          "internalType": "uint256",
          "name": "target",
          "type": "uint256"
        },
        {
          "internalType": "uint256",
          "name": "principal",
          "type": "uint256"
        },
        {
          "internalType": "uint256",
          "name": "capital",
          "type": "uint256"
        },
        {
          "internalType": "uint256",
          "name": "rate",
          "type": "uint256"
        },
        {
          "internalType": "uint256",
          "name": "apy",
          "type": "uint256"
        },
        {
          "internalType": "uint256",
          "name": "fee",
          "type": "uint256"
        },
        {
          "internalType": "uint256",
          "name": "startAt",
          "type": "uint256"
        },
        {
          "internalType": "uint256",
          "name": "stopAt",
          "type": "uint256"
        }
      ],
      "stateMutability": "view",
      "type": "function"
    },
    {
      "inputs": [
        {
          "internalType": "uint256",
          "name": "",
          "type": "uint256"
        }
      ],
      "name": "tranches",
      "outputs": [
        {
          "internalType": "uint256",
          "name": "target",
          "type": "uint256"
        },
        {
          "internalType": "uint256",
          "name": "principal",
          "type": "uint256"
        },
        {
          "internalType": "uint256",
          "name": "apy",
          "type": "uint256"
        },
        {
          "internalType": "uint256",
          "name": "fee",
          "type": "uint256"
        }
      ],
      "stateMutability": "view",
      "type": "function"
    },
    {
      "inputs": [],
      "name": "unpause",
      "outputs": [],
      "stateMutability": "nonpayable",
      "type": "function"
    },
    {
      "inputs": [
        {
          "internalType": "address",
          "name": "",
          "type": "address"
        }
      ],
      "name": "userInfo",
      "outputs": [
        {
          "internalType": "uint256",
          "name": "balance",
          "type": "uint256"
        }
      ],
      "stateMutability": "view",
      "type": "function"
    },
    {
      "inputs": [
        {
          "internalType": "address",
          "name": "",
          "type": "address"
        },
        {
          "internalType": "uint256",
          "name": "",
          "type": "uint256"
        }
      ],
      "name": "userInvest",
      "outputs": [
        {
          "internalType": "uint256",
          "name": "cycle",
          "type": "uint256"
        },
        {
          "internalType": "uint256",
          "name": "principal",
          "type": "uint256"
        }
      ],
      "stateMutability": "view",
      "type": "function"
    },
    {
      "inputs": [
        {
          "internalType": "uint256",
          "name": "amount",
          "type": "uint256"
        }
      ],
      "name": "withdraw",
      "outputs": [],
      "stateMutability": "nonpayable",
      "type": "function"
    },
    {
      "inputs": [
        {
          "internalType": "uint256",
          "name": "amount",
          "type": "uint256"
        }
      ],
      "name": "withdrawFee",
      "outputs": [],
      "stateMutability": "nonpayable",
      "type": "function"
    }
  ],
  "bytecode": "0x608060405262093a806003553480156200001857600080fd5b5060405162004312380380620043128339810160408190526200003b9162000660565b600080546001600160a81b0319166101006001600160a01b038a8116919091029190911790915560018055600880546001600160a01b031990811689841617909155600a80548216888416179055600980548216878416179055600b80549091169185169190911790556003829055620000b462000133565b60005b815181101562000125576200011c828281518110620000d257fe5b602002602001015160400151838381518110620000eb57fe5b6020026020010151600001518484815181106200010457fe5b6020026020010151602001516200016260201b60201c565b600101620000b7565b505050505050505062000aec565b600a5460085462000160916001600160a01b039182169116600019620002ca602090811b6200171617901c565b565b600083116200018e5760405162461bcd60e51b81526004016200018590620008f2565b60405180910390fd5b620186a0821115620001b45760405162461bcd60e51b815260040162000185906200095b565b612710811115620001d95760405162461bcd60e51b81526004016200018590620008cd565b600760405180608001604052808581526020016000815260200162000231620186a06200021d670de0b6b3a764000088620003d860201b620018741790919060201c565b6200042160201b620018b71790919060201c565b8152602090810184905282546001818101855560009485529382902083516004909202019081559082015192810192909255604080820151600284015560609091015160039092019190915560075490517f955a633dc66049432428ae39d030e5001c5608eb3a6325bfe8e8231a3bc7356f91620002bd91600019919091019086908690869062000a5e565b60405180910390a1505050565b801580620003595750604051636eb1769f60e11b81526001600160a01b0384169063dd62ed3e90620003039030908690600401620007e8565b60206040518083038186803b1580156200031c57600080fd5b505afa15801562000331573d6000803e3d6000fd5b505050506040513d601f19601f82011682018060405250810190620003579190620007b1565b155b620003785760405162461bcd60e51b8152600401620001859062000a01565b620003d38363095ea7b360e01b84846040516024016200039a92919062000802565b60408051808303601f190181529190526020810180516001600160e01b0319939093166001600160e01b03938416179052906200045716565b505050565b600082620003e9575060006200041b565b82820282848281620003f757fe5b0414620004185760405162461bcd60e51b815260040162000185906200091a565b90505b92915050565b6000808211620004455760405162461bcd60e51b8152600401620001859062000896565b8183816200044f57fe5b049392505050565b6060620004b3826040518060400160405280602081526020017f5361666545524332303a206c6f772d6c6576656c2063616c6c206661696c6564815250856001600160a01b0316620004f360201b620018e9179092919060201c565b805190915015620003d35780806020019051810190620004d491906200078f565b620003d35760405162461bcd60e51b81526004016200018590620009b7565b60606200050484846000856200050e565b90505b9392505050565b606082471015620005335760405162461bcd60e51b8152600401620001859062000850565b6200053e85620005de565b6200055d5760405162461bcd60e51b8152600401620001859062000980565b60006060866001600160a01b031685876040516200057c9190620007ca565b60006040518083038185875af1925050503d8060008114620005bb576040519150601f19603f3d011682016040523d82523d6000602084013e620005c0565b606091505b509092509050620005d3828286620005e4565b979650505050505050565b3b151590565b60608315620005f557508162000507565b825115620006065782518084602001fd5b8160405162461bcd60e51b81526004016200018591906200081b565b60006060828403121562000634578081fd5b62000640606062000a79565b905081518152602082015160208201526040820151604082015292915050565b600080600080600080600060e0888a0312156200067b578283fd5b8751620006888162000ad3565b809750506020808901516200069d8162000ad3565b60408a0151909750620006b08162000ad3565b60608a0151909650620006c38162000ad3565b60808a0151909550620006d68162000ad3565b60a08a015160c08b015191955093506001600160401b0380821115620006fa578384fd5b818b0191508b601f8301126200070e578384fd5b8151818111156200071d578485fd5b6200072c848583020162000a79565b818152848101925083850160608302850186018f10156200074b578687fd5b8694505b828510156200077a57620007648f8262000622565b845260019490940193928501926060016200074f565b50809550505050505092959891949750929550565b600060208284031215620007a1578081fd5b8151801515811462000418578182fd5b600060208284031215620007c3578081fd5b5051919050565b60008251620007de81846020870162000aa0565b9190910192915050565b6001600160a01b0392831681529116602082015260400190565b6001600160a01b03929092168252602082015260400190565b60006020825282518060208401526200083c81604085016020870162000aa0565b601f01601f19169190910160400192915050565b60208082526026908201527f416464726573733a20696e73756666696369656e742062616c616e636520666f6040820152651c8818d85b1b60d21b606082015260800190565b6020808252601a908201527f536166654d6174683a206469766973696f6e206279207a65726f000000000000604082015260600190565b6020808252600b908201526a696e76616c69642066656560a81b604082015260600190565b6020808252600e908201526d1a5b9d985b1a59081d185c99d95d60921b604082015260600190565b60208082526021908201527f536166654d6174683a206d756c7469706c69636174696f6e206f766572666c6f6040820152607760f81b606082015260800190565b6020808252600b908201526a696e76616c69642041505960a81b604082015260600190565b6020808252601d908201527f416464726573733a2063616c6c20746f206e6f6e2d636f6e7472616374000000604082015260600190565b6020808252602a908201527f5361666545524332303a204552433230206f7065726174696f6e20646964206e6040820152691bdd081cdd58d8d9595960b21b606082015260800190565b60208082526036908201527f5361666545524332303a20617070726f76652066726f6d206e6f6e2d7a65726f60408201527f20746f206e6f6e2d7a65726f20616c6c6f77616e636500000000000000000000606082015260800190565b93845260208401929092526040830152606082015260800190565b6040518181016001600160401b038111828210171562000a9857600080fd5b604052919050565b60005b8381101562000abd57818101518382015260200162000aa3565b8381111562000acd576000848401525b50505050565b6001600160a01b038116811462000ae957600080fd5b50565b6138168062000afc6000396000f3fe608060405234801561001057600080fd5b506004361061025c5760003560e01c806370907ef011610145578063b94db6af116100bd578063e5a6b10f1161008c578063f2f4eb2611610071578063f2f4eb2614610488578063f6be71d114610490578063f8fa9cdb146104a35761025c565b8063e5a6b10f14610478578063f288a2e2146104805761025c565b8063b94db6af14610437578063be3576161461043f578063d0d41fe114610452578063db006a75146104655761025c565b80638456cb5911610114578063a8c62e76116100f9578063a8c62e76146103f5578063ae4f9c74146103fd578063b6b55f25146104245761025c565b80638456cb59146103e557806399b71d5c146103ed5761025c565b806370907ef01461038b57806370a08231146103ac57806372ca5671146103bf57806380009630146103d25761025c565b80633ad10ef6116101d85780635cd90e58116101a75780635f5d217d1161018c5780635f5d217d1461035d578063606ce3bf146103705780636190c9d5146103835761025c565b80635cd90e581461034d5780635ebaf1db146103555761025c565b80633ad10ef6146103155780633f4ba83a1461032a578063505fb46c146103325780635c975abb146103455761025c565b806322d5c4e41161022f57806327e79c441161021457806327e79c44146102e75780632e1a7d4d146102ef5780632ebbec1e146103025761025c565b806322d5c4e4146102b157806326c25962146102c45761025c565b806302fb0c5e1461026157806307da68f51461027f5780630fb5a6b4146102895780631959a0021461029e575b600080fd5b6102696104ab565b6040516102769190612f3f565b60405180910390f35b6102876104b4565b005b610291610515565b6040516102769190612f4a565b6102916102ac366004612d1e565b61051b565b6102876102bf366004612dd0565b61052d565b6102d76102d2366004612d7f565b6105dd565b6040516102769493929190613732565b610291610614565b6102876102fd366004612d7f565b61061a565b610287610310366004612e08565b610700565b61031d610868565b6040516102769190612e80565b610287610877565b610287610340366004612e08565b6109dd565b610269610aa6565b610291610ab0565b61031d610abc565b61028761036b366004612d7f565b610acb565b61028761037e366004612e33565b610bca565b610291610e12565b61039e610399366004612d39565b610e18565b60405161027692919061370e565b61039e6103ba366004612d1e565b610e3c565b6102916103cd366004612d7f565b610f72565b6102876103e0366004612d1e565b610fd4565b6102876110f4565b610287611258565b61031d611295565b61041061040b366004612daf565b6112a4565b604051610276989796959493929190613770565b610287610432366004612d7f565b6112f9565b6102916113b2565b61028761044d366004612d7f565b6113b9565b610287610460366004612d1e565b611464565b610287610473366004612d7f565b611580565b61031d61160b565b61029161161a565b61031d61163e565b61028761049e366004612d7f565b611652565b610291611710565b60065460ff1681565b60065460ff166104df5760405162461bcd60e51b81526004016104d6906130ce565b60405180910390fd5b600260015414156105025760405162461bcd60e51b81526004016104d69061365b565b600260015561050f611902565b60018055565b60035481565b600c6020526000908152604090205481565b600754839081106105505760405162461bcd60e51b81526004016104d690613624565b60065460ff16156105735760405162461bcd60e51b81526004016104d690613060565b61058361057e6119dd565b6119e1565b600260015414156105a65760405162461bcd60e51b81526004016104d69061365b565b6002600155826105c85760405162461bcd60e51b81526004016104d690613105565b6105d3848484611bc3565b5050600180555050565b600781815481106105ea57fe5b60009182526020909120600490910201805460018201546002830154600390930154919350919084565b60055481565b61062561057e6119dd565b600260015414156106485760405162461bcd60e51b81526004016104d69061365b565b60026001558061066a5760405162461bcd60e51b81526004016104d690613105565b336000908152600c60205260409020805482111561069a5760405162461bcd60e51b81526004016104d690613029565b80546106a69083611dde565b81556008546106bf906001600160a01b03163384611e06565b7f884edad9ce6fa2440d8a54cc123490eb96d2768479d49ff9c7366125a942436433836040516106f0929190612e94565b60405180910390a1505060018055565b600754829081106107235760405162461bcd60e51b81526004016104d690613624565b60065460ff16156107465760405162461bcd60e51b81526004016104d690613060565b61075161057e6119dd565b600260015414156107745760405162461bcd60e51b81526004016104d69061365b565b6002600155836107965760405162461bcd60e51b81526004016104d690613522565b600082116107b65760405162461bcd60e51b81526004016104d690613559565b336000908152600c60205260409020805483906107d39087611e25565b10156107f15760405162461bcd60e51b81526004016104d690613029565b600854610809906001600160a01b0316333088611e4a565b80546108159086611e25565b81556040517fe1fffcc4923d04b559f4d29a8bfc6cda04eb5b0d3c460751c2402c5c5cc9109c906108499033908890612e94565b60405180910390a161085d84846000611bc3565b505060018055505050565b600b546001600160a01b031681565b6000546040517fe43581b80000000000000000000000000000000000000000000000000000000081526101009091046001600160a01b03169063e43581b8906108c4903390600401612e80565b60206040518083038186803b1580156108dc57600080fd5b505afa1580156108f0573d6000803e3d6000fd5b505050506040513d601f19601f820116820180604052508101906109149190612d63565b806109b757506000546040517f0c68ba210000000000000000000000000000000000000000000000000000000081526101009091046001600160a01b031690630c68ba2190610967903390600401612e80565b60206040518083038186803b15801561097f57600080fd5b505afa158015610993573d6000803e3d6000fd5b505050506040513d601f19601f820116820180604052508101906109b79190612d63565b6109d35760405162461bcd60e51b81526004016104d690613442565b6109db611e6b565b565b6000546040517fe43581b80000000000000000000000000000000000000000000000000000000081526101009091046001600160a01b03169063e43581b890610a2a903390600401612e80565b60206040518083038186803b158015610a4257600080fd5b505afa158015610a56573d6000803e3d6000fd5b505050506040513d601f19601f82011682018060405250810190610a7a9190612d63565b610a965760405162461bcd60e51b81526004016104d690613173565b610aa1838383611ef7565b505050565b60005460ff165b90565b670de0b6b3a764000081565b6009546001600160a01b031681565b60075481908110610aee5760405162461bcd60e51b81526004016104d690613624565b60065460ff1615610b115760405162461bcd60e51b81526004016104d690613060565b610b1c61057e6119dd565b60026001541415610b3f5760405162461bcd60e51b81526004016104d69061365b565b60026001556000610b4f83612043565b336000908152600c60205260409020805491925090610b6e9083611dde565b8155600854610b87906001600160a01b03163384611e06565b7f884edad9ce6fa2440d8a54cc123490eb96d2768479d49ff9c7366125a94243643383604051610bb8929190612e94565b60405180910390a15050600180555050565b6000546040517f91d148540000000000000000000000000000000000000000000000000000000081526101009091046001600160a01b0316906391d1485490610c39907ff66846415d2bf9eabda9e84793ff9c0ea96d87f50fc41e66aa16469c6a442f05903390600401612f53565b60206040518083038186803b158015610c5157600080fd5b505afa158015610c65573d6000803e3d6000fd5b505050506040513d601f19601f82011682018060405250810190610c899190612d63565b610ca55760405162461bcd60e51b81526004016104d6906134c5565b60075484908110610cc85760405162461bcd60e51b81526004016104d690613624565b60078581548110610cd557fe5b906000526020600020906004020160010154841015610d065760405162461bcd60e51b81526004016104d6906132d2565b620186a0831115610d295760405162461bcd60e51b81526004016104d6906133d4565b612710821115610d4b5760405162461bcd60e51b81526004016104d69061329b565b8360078681548110610d5957fe5b6000918252602090912060049091020155610d89620186a0610d8385670de0b6b3a7640000611874565b906118b7565b60078681548110610d9657fe5b9060005260206000209060040201600201819055508160078681548110610db957fe5b9060005260206000209060040201600301819055507f7304cbcbe24a231d4a97516e7a4b3fc85c6d88dae51fc6134c035870ef66bb9485858585604051610e039493929190613732565b60405180910390a15050505050565b60045481565b600d6020908152600092835260408084209091529082529020805460019091015482565b6001600160a01b0381166000908152600c6020526040812080549190815b600754811015610f6b576001600160a01b0385166000908152600d602090815260408083208484529091529020600181015415610f625760045481541015610f4f57610ea4612c9a565b5080546000908152600e602090815260408083208584528252808320815161010081018352815481526001808301549482019490945260028201549281019290925260038101546060830181905260048201546080840152600582015460a0840152600682015460c084015260079091015460e083015291840154909291610f3a91670de0b6b3a764000091610d839190611874565b9050610f468782611e25565b96505050610f62565b6001810154610f5f908590611e25565b93505b50600101610e5a565b5050915091565b60075460009082908110610f985760405162461bcd60e51b81526004016104d690613624565b336000908152600d60209081526040808320868452909152902060045481541015610fc7576000925050610fce565b6001015491505b50919050565b6000546040517fe43581b80000000000000000000000000000000000000000000000000000000081526101009091046001600160a01b03169063e43581b890611021903390600401612e80565b60206040518083038186803b15801561103957600080fd5b505afa15801561104d573d6000803e3d6000fd5b505050506040513d601f19601f820116820180604052508101906110719190612d63565b61108d5760405162461bcd60e51b81526004016104d690613173565b600080547fffffffffffffffffffffff0000000000000000000000000000000000000000ff166101006001600160a01b03841690810291909117825560405190917fad9400e618eb1344fde53db22397a1b82c765527ecbba3a5c86bcac15090828b91a250565b6000546040517fe43581b80000000000000000000000000000000000000000000000000000000081526101009091046001600160a01b03169063e43581b890611141903390600401612e80565b60206040518083038186803b15801561115957600080fd5b505afa15801561116d573d6000803e3d6000fd5b505050506040513d601f19601f820116820180604052508101906111919190612d63565b8061123457506000546040517f0c68ba210000000000000000000000000000000000000000000000000000000081526101009091046001600160a01b031690630c68ba21906111e4903390600401612e80565b60206040518083038186803b1580156111fc57600080fd5b505afa158015611210573d6000803e3d6000fd5b505050506040513d601f19601f820116820180604052508101906112349190612d63565b6112505760405162461bcd60e51b81526004016104d690613442565b6109db612198565b600a546008546109db916001600160a01b0391821691167fffffffffffffffffffffffffffffffffffffffffffffffffffffffffffffffff611716565b600a546001600160a01b031681565b600e602052816000526040600020602052806000526040600020600091509150508060000154908060010154908060020154908060030154908060040154908060050154908060060154908060070154905088565b61130461057e6119dd565b600260015414156113275760405162461bcd60e51b81526004016104d69061365b565b6002600155806113495760405162461bcd60e51b81526004016104d690613105565b336000818152600c602052604090206008549091611372916001600160a01b0316903085611e4a565b805461137e9083611e25565b81556040517fe1fffcc4923d04b559f4d29a8bfc6cda04eb5b0d3c460751c2402c5c5cc9109c906106f09033908590612e94565b620186a081565b6002548111156113db5760405162461bcd60e51b81526004016104d69061313c565b6002546113e89082611dde565b600255600b546001600160a01b03161561146157600b54600854611419916001600160a01b03918216911683611e06565b600b546040517f66bf9186b00db666fc37aaffbb95a050c66e599e000c785c1dff0467d868f1b191611458916001600160a01b03909116908490612e94565b60405180910390a15b50565b6000546040517fe43581b80000000000000000000000000000000000000000000000000000000081526101009091046001600160a01b03169063e43581b8906114b1903390600401612e80565b60206040518083038186803b1580156114c957600080fd5b505afa1580156114dd573d6000803e3d6000fd5b505050506040513d601f19601f820116820180604052508101906115019190612d63565b61151d5760405162461bcd60e51b81526004016104d690613173565b600b80547fffffffffffffffffffffffff0000000000000000000000000000000000000000166001600160a01b0383161790556040517ff5721dfa6ddbf8e4a2cd38b2152fff4008050b9b37de59ae1e022dde4bd5df7390611458908390612e80565b600754819081106115a35760405162461bcd60e51b81526004016104d690613624565b60065460ff16156115c65760405162461bcd60e51b81526004016104d690613060565b6115d161057e6119dd565b600260015414156115f45760405162461bcd60e51b81526004016104d69061365b565b600260015561160282612043565b50506001805550565b6008546001600160a01b031681565b7ff66846415d2bf9eabda9e84793ff9c0ea96d87f50fc41e66aa16469c6a442f0581565b60005461010090046001600160a01b031690565b6000546040517fe43581b80000000000000000000000000000000000000000000000000000000081526101009091046001600160a01b03169063e43581b89061169f903390600401612e80565b60206040518083038186803b1580156116b757600080fd5b505afa1580156116cb573d6000803e3d6000fd5b505050506040513d601f19601f820116820180604052508101906116ef9190612d63565b61170b5760405162461bcd60e51b81526004016104d690613173565b600355565b60025481565b8015806117b757506040517fdd62ed3e0000000000000000000000000000000000000000000000000000000081526001600160a01b0384169063dd62ed3e906117659030908690600401612ed3565b60206040518083038186803b15801561177d57600080fd5b505afa158015611791573d6000803e3d6000fd5b505050506040513d601f19601f820116820180604052508101906117b59190612d97565b155b6117d35760405162461bcd60e51b81526004016104d690613692565b610aa18363095ea7b360e01b84846040516024016117f2929190612e94565b604080517fffffffffffffffffffffffffffffffffffffffffffffffffffffffffffffffe08184030181529190526020810180517bffffffffffffffffffffffffffffffffffffffffffffffffffffffff167fffffffff0000000000000000000000000000000000000000000000000000000090931692909217909152612211565b600082611883575060006118b1565b8282028284828161189057fe5b04146118ae5760405162461bcd60e51b81526004016104d690613377565b90505b92915050565b60008082116118d85760405162461bcd60e51b81526004016104d690613264565b8183816118e157fe5b049392505050565b60606118f884846000856122a0565b90505b9392505050565b600354600554014210156119285760405162461bcd60e51b81526004016104d690612fbb565b611930612361565b600680547fffffffffffffffffffffffffffffffffffffffffffffffffffffffffffffff00169055600480546001018082556009546040517fedd004e50000000000000000000000000000000000000000000000000000000081526001600160a01b039091169263edd004e5926119a992909101612f4a565b600060405180830381600087803b1580156119c357600080fd5b505af11580156119d7573d6000803e3d6000fd5b50505050565b3390565b6001600160a01b0381166000908152600c60205260408120905b600754811015610aa1576001600160a01b0383166000908152600d60209081526040808320848452909152902060045481541015611bba5760018101548015611bb357611a46612c9a565b5081546000908152600e6020908152604080832086845282528083208151610100810183528154815260018201549381019390935260028101549183019190915260038101546060830181905260048201546080840152600582015460a0840152600682015460c084015260079091015460e0830152909190611ad890670de0b6b3a764000090610d83908690611874565b8654909150611ae79082611e25565b86556000600185018190556009546040517f15c2fdc90000000000000000000000000000000000000000000000000000000081526001600160a01b03909116916315c2fdc991611b3e9189918c91906004016136ef565b600060405180830381600087803b158015611b5857600080fd5b505af1158015611b6c573d6000803e3d6000fd5b505085546040517f7baefe19499ec89bdfeffd0fc7335c9d0ea87f8ca40bb82c956184634ba170fd9350611ba892508a91899188908790612f11565b60405180910390a150505b5060045481555b506001016119fb565b336000908152600c602052604090208054831115611bf35760405162461bcd60e51b81526004016104d690613029565b600060078581548110611c0257fe5b90600052602060002090600402019050611c29848260010154611e2590919063ffffffff16565b81541015611c495760405162461bcd60e51b81526004016104d69061340b565b336000908152600d6020908152604080832088845290915290206001810154611c729086611e25565b60018201558254611c839086611dde565b83556001820154611c949086611e25565b600180840191909155600954908201546040517f15c2fdc90000000000000000000000000000000000000000000000000000000081526001600160a01b03909216916315c2fdc991611cec918a9133916004016136ef565b600060405180830381600087803b158015611d0657600080fd5b505af1158015611d1a573d6000803e3d6000fd5b505050507f4df9cbfa66cbbabb528375b3af00207b446225af5a96b8a4b5c413b18226fb95338760045488604051611d559493929190612ead565b60405180910390a1838015611d6a5750825415155b15611dcd578254600854611d8d916001600160a01b039091169030903390611e4a565b82546040517f884edad9ce6fa2440d8a54cc123490eb96d2768479d49ff9c7366125a942436491611dc091339190612e94565b60405180910390a1600083555b611dd5612901565b50505050505050565b600082821115611e005760405162461bcd60e51b81526004016104d6906131d0565b50900390565b610aa18363a9059cbb60e01b84846040516024016117f2929190612e94565b6000828201838110156118ae5760405162461bcd60e51b81526004016104d690613097565b6119d7846323b872dd60e01b8585856040516024016117f293929190612eed565b611e73610aa6565b611e8f5760405162461bcd60e51b81526004016104d690612ff2565b600080547fffffffffffffffffffffffffffffffffffffffffffffffffffffffffffffff001690557f5db9ee0a495bf2e6ff9c91a7834c1ba4fdd244a5e8aa4e537bd38aeae4b073aa611ee06119dd565b604051611eed9190612e80565b60405180910390a1565b60008311611f175760405162461bcd60e51b81526004016104d6906132d2565b620186a0821115611f3a5760405162461bcd60e51b81526004016104d6906133d4565b612710811115611f5c5760405162461bcd60e51b81526004016104d69061329b565b60408051608081018252848152600060208201526007918101611f8e620186a0610d8387670de0b6b3a7640000611874565b8152602090810184905282546001818101855560009485529382902083516004909202019081559082015192810192909255604080820151600284015560609091015160039092019190915560075490517f955a633dc66049432428ae39d030e5001c5608eb3a6325bfe8e8231a3bc7356f91612036917fffffffffffffffffffffffffffffffffffffffffffffffffffffffffffffffff9190910190869086908690613732565b60405180910390a1505050565b336000908152600c60209081526040808320600d835281842085855290925282206001810154806120865760405162461bcd60e51b81526004016104d690613340565b60006007868154811061209557fe5b60009182526020909120855460049092020191506120b39083611e25565b845560018101546120c49083611dde565b60018201556009546040517f15c2fdc90000000000000000000000000000000000000000000000000000000081526001600160a01b03909116906315c2fdc99061211790899033906000906004016136ef565b600060405180830381600087803b15801561213157600080fd5b505af1158015612145573d6000803e3d6000fd5b50506000600186015550506004546040517fbd5034ffbd47e4e72a94baa2cdb74c6fad73cb3bcdc13036b72ec8306f5a7646916121879133918a918790612ead565b60405180910390a150949350505050565b6121a0610aa6565b156121bd5760405162461bcd60e51b81526004016104d690613309565b600080547fffffffffffffffffffffffffffffffffffffffffffffffffffffffffffffff001660011790557f62e78cea01bee320cd4e420270b5ea74000d11b0c9f74754ebdbfc544b05a258611ee06119dd565b6060612266826040518060400160405280602081526020017f5361666545524332303a206c6f772d6c6576656c2063616c6c206661696c6564815250856001600160a01b03166118e99092919063ffffffff16565b805190915015610aa157808060200190518101906122849190612d63565b610aa15760405162461bcd60e51b81526004016104d6906135c7565b6060824710156122c25760405162461bcd60e51b81526004016104d690613207565b6122cb8561299a565b6122e75760405162461bcd60e51b81526004016104d690613590565b60006060866001600160a01b031685876040516123049190612e64565b60006040518083038185875af1925050503d8060008114612341576040519150601f19603f3d011682016040523d82523d6000602084013e612346565b606091505b50915091506123568282866129a0565b979650505050505050565b6008546040517f70a082310000000000000000000000000000000000000000000000000000000081526000916001600160a01b0316906370a08231906123ab903090600401612e80565b60206040518083038186803b1580156123c357600080fd5b505afa1580156123d7573d6000803e3d6000fd5b505050506040513d601f19601f820116820180604052508101906123fb9190612d97565b9050600a60009054906101000a90046001600160a01b03166001600160a01b0316633ccfd60b6040518163ffffffff1660e01b8152600401600060405180830381600087803b15801561244d57600080fd5b505af1158015612461573d6000803e3d6000fd5b50506008546040517f70a082310000000000000000000000000000000000000000000000000000000081526000935061250b925084916001600160a01b0316906370a08231906124b5903090600401612e80565b60206040518083038186803b1580156124cd57600080fd5b505afa1580156124e1573d6000803e3d6000fd5b505050506040513d601f19601f820116820180604052508101906125059190612d97565b90611dde565b905080600080808042815b6007547fffffffffffffffffffffffffffffffffffffffffffffffffffffffffffffffff0181101561274d5760006007828154811061255157fe5b9060005260206000209060040201905080600101549350600094506125ae670de0b6b3a7640000610d8362015180610d8361016d610d836005548a036125a889600201548a6001015461187490919063ffffffff16565b90611874565b965060006125bc8589611e25565b905080891015806125d15760009996506125e3565b90955085906125e08a83611dde565b99505b801561262a576000612609620186a0610d8386600301548b61187490919063ffffffff16565b6002549091506126199082611e25565b6002556126268882611dde565b9750505b61263487876129d9565b9750604051806101000160405280846000015481526020018781526020018881526020018981526020018460020154815260200184600301548152602001600554815260200186815250600e600060045481526020019081526020016000206000868152602001908152602001600020600082015181600001556020820151816001015560408201518160020155606082015181600301556080820151816004015560a0820151816005015560c0820151816006015560e08201518160070155905050600083600101819055507f465c3a6938113f4f2bbb78cd69c8a81b4553da4fcd68e420b3c9cd8e5b58cb4784600454888a8c60405161273a95949392919061374d565b60405180910390a1505050600101612516565b50600780547fffffffffffffffffffffffffffffffffffffffffffffffffffffffffffffffff8101916000918390811061278357fe5b906000526020600020906004020190508060010154935087945060006127bd620186a0610d8384600301548961187490919063ffffffff16565b6002549091506127cd9082611e25565b6002556127da8682611dde565b95506127e686866129d9565b9650604051806101000160405280836000015481526020018681526020018781526020018881526020018360020154815260200183600301548152602001600554815260200142815250600e600060045481526020019081526020016000206000858152602001908152602001600020600082015181600001556020820151816001015560408201518160020155606082015181600301556080820151816004015560a0820151816005015560c0820151816006015560e08201518160070155905050600082600101819055507f465c3a6938113f4f2bbb78cd69c8a81b4553da4fcd68e420b3c9cd8e5b58cb478360045487898b6040516128ec95949392919061374d565b60405180910390a15050505050505050505050565b6000805b60075481101561298b57612917612cdf565b6007828154811061292457fe5b9060005260206000209060040201604051806080016040529081600082015481526020016001820154815260200160028201548152602001600382015481525050905080600001518160200151101561298257600092505050610aad565b50600101612905565b50612994612a55565b50600190565b3b151590565b606083156129af5750816118fb565b8251156129bf5782518084602001fd5b8160405162461bcd60e51b81526004016104d69190612f6a565b6000818314156129f25750670de0b6b3a76400006118b1565b81831115612a2b57612a24612a1583610d83818703670de0b6b3a7640000611874565b670de0b6b3a764000090611e25565b90506118b1565b612a24612a4683610d83868203670de0b6b3a7640000611874565b670de0b6b3a764000090611dde565b60065460ff1615612a785760405162461bcd60e51b81526004016104d690613060565b6000805b600754811015612b0057612a8e612cdf565b60078281548110612a9b57fe5b90600052602060002090600402016040518060800160405290816000820154815260200160018201548152602001600282015481526020016003820154815250509050612af5816020015184611e2590919063ffffffff16565b925050600101612a7c565b50600a546040517fb6b55f250000000000000000000000000000000000000000000000000000000081526001600160a01b039091169063b6b55f2590612b4a908490600401612f4a565b600060405180830381600087803b158015612b6457600080fd5b505af1158015612b78573d6000803e3d6000fd5b5050426005555050600680547fffffffffffffffffffffffffffffffffffffffffffffffffffffffffffffff0016600117905560005b600754811015612c1b577fe97925046c59e2f2794eb00954f027c43cea916eaa06f9f194cc45e212c028cd8160045460078481548110612bea57fe5b906000526020600020906004020160010154604051612c0b9392919061371c565b60405180910390a1600101612bae565b50600954600380546001600160a01b03909216916395805dad91612c4991612c42916118b7565b4390611e25565b6040518263ffffffff1660e01b8152600401612c659190612f4a565b600060405180830381600087803b158015612c7f57600080fd5b505af1158015612c93573d6000803e3d6000fd5b5050505050565b60405180610100016040528060008152602001600081526020016000815260200160008152602001600081526020016000815260200160008152602001600081525090565b6040518060800160405280600081526020016000815260200160008152602001600081525090565b80356001600160a01b03811681146118b157600080fd5b600060208284031215612d2f578081fd5b6118fb8383612d07565b60008060408385031215612d4b578081fd5b612d558484612d07565b946020939093013593505050565b600060208284031215612d74578081fd5b81516118ae816137d2565b600060208284031215612d90578081fd5b5035919050565b600060208284031215612da8578081fd5b5051919050565b60008060408385031215612dc1578182fd5b50508035926020909101359150565b600080600060608486031215612de4578081fd5b83359250602084013591506040840135612dfd816137d2565b809150509250925092565b600080600060608486031215612e1c578283fd5b505081359360208301359350604090920135919050565b60008060008060808587031215612e48578081fd5b5050823594602084013594506040840135936060013592509050565b60008251612e768184602087016137a6565b9190910192915050565b6001600160a01b0391909116815260200190565b6001600160a01b03929092168252602082015260400190565b6001600160a01b0394909416845260208401929092526040830152606082015260800190565b6001600160a01b0392831681529116602082015260400190565b6001600160a01b039384168152919092166020820152604081019190915260600190565b6001600160a01b03959095168552602085019390935260408401919091526060830152608082015260a00190565b901515815260200190565b90815260200190565b9182526001600160a01b0316602082015260400190565b6000602082528251806020840152612f898160408501602087016137a6565b601f017fffffffffffffffffffffffffffffffffffffffffffffffffffffffffffffffe0169190910160400192915050565b60208082526011908201527f6379636c65206e6f742065787069726564000000000000000000000000000000604082015260600190565b60208082526014908201527f5061757361626c653a206e6f7420706175736564000000000000000000000000604082015260600190565b60208082526012908201527f62616c616e6365206e6f7420656e6f7567680000000000000000000000000000604082015260600190565b6020808252600e908201527f616c726561647920616374697665000000000000000000000000000000000000604082015260600190565b6020808252601b908201527f536166654d6174683a206164646974696f6e206f766572666c6f770000000000604082015260600190565b6020808252600a908201527f6e6f742061637469766500000000000000000000000000000000000000000000604082015260600190565b6020808252600e908201527f696e76616c696420616d6f756e74000000000000000000000000000000000000604082015260600190565b6020808252601a908201527f6e6f7420656e6f7567682062616c616e636520666f7220666565000000000000604082015260600190565b6020808252602f908201527f436f72655265663a3a6f6e6c79476f7665726e6f723a2043616c6c657220697360408201527f206e6f74206120676f7665726e6f720000000000000000000000000000000000606082015260800190565b6020808252601e908201527f536166654d6174683a207375627472616374696f6e206f766572666c6f770000604082015260600190565b60208082526026908201527f416464726573733a20696e73756666696369656e742062616c616e636520666f60408201527f722063616c6c0000000000000000000000000000000000000000000000000000606082015260800190565b6020808252601a908201527f536166654d6174683a206469766973696f6e206279207a65726f000000000000604082015260600190565b6020808252600b908201527f696e76616c696420666565000000000000000000000000000000000000000000604082015260600190565b6020808252600e908201527f696e76616c696420746172676574000000000000000000000000000000000000604082015260600190565b60208082526010908201527f5061757361626c653a2070617573656400000000000000000000000000000000604082015260600190565b60208082526014908201527f6e6f7420656e6f756768207072696e636970616c000000000000000000000000604082015260600190565b60208082526021908201527f536166654d6174683a206d756c7469706c69636174696f6e206f766572666c6f60408201527f7700000000000000000000000000000000000000000000000000000000000000606082015260800190565b6020808252600b908201527f696e76616c696420415059000000000000000000000000000000000000000000604082015260600190565b60208082526010908201527f6e6f7420656e6f7567682071756f746100000000000000000000000000000000604082015260600190565b60208082526045908201527f436f72655265663a3a6f6e6c79477561726469616e4f72476f7665726e6f723a60408201527f2043616c6c6572206973206e6f74206120677561726469616e206f7220676f7660608201527f65726e6f72000000000000000000000000000000000000000000000000000000608082015260a00190565b6020808252602f908201527f436f72655265663a3a6f6e6c7954696d656c6f636b3a2043616c6c657220697360408201527f206e6f7420612074696d656c6f636b0000000000000000000000000000000000606082015260800190565b60208082526010908201527f696e76616c696420616d6f756e74496e00000000000000000000000000000000604082015260600190565b60208082526014908201527f696e76616c696420616d6f756e74496e76657374000000000000000000000000604082015260600190565b6020808252601d908201527f416464726573733a2063616c6c20746f206e6f6e2d636f6e7472616374000000604082015260600190565b6020808252602a908201527f5361666545524332303a204552433230206f7065726174696f6e20646964206e60408201527f6f74207375636365656400000000000000000000000000000000000000000000606082015260800190565b60208082526012908201527f696e76616c6964207472616e6368652069640000000000000000000000000000604082015260600190565b6020808252601f908201527f5265656e7472616e637947756172643a207265656e7472616e742063616c6c00604082015260600190565b60208082526036908201527f5361666545524332303a20617070726f76652066726f6d206e6f6e2d7a65726f60408201527f20746f206e6f6e2d7a65726f20616c6c6f77616e636500000000000000000000606082015260800190565b9283526001600160a01b03919091166020830152604082015260600190565b918252602082015260400190565b9283526020830191909152604082015260600190565b93845260208401929092526040830152606082015260800190565b948552602085019390935260408401919091526060830152608082015260a00190565b978852602088019690965260408701949094526060860192909252608085015260a084015260c083015260e08201526101000190565b60005b838110156137c15781810151838201526020016137a9565b838111156119d75750506000910152565b801515811461146157600080fdfea2646970667358221220ae0a26c4acaf8934830c81b0b09d8af54a5ae1a3968764a694abdfd7d693fd0e64736f6c634300060c0033",
  "linkReferences": {},
  "deployedLinkReferences": {}
}